:020000040800F2
:10000000700F0020C500000899060008A706000828
:1000100000000000000000000000000000000000E0
:10002000000000000000000000000000A906000819
:100030000000000000000000AB060008B306000846
:10004000F1000008F1000008F1000008F1000008CC
:10005000F1000008C3060008F1000008CD06000802
:1000600000000000F1000008F1000008F1000008A5
:10007000F1000008F1000008F1000008F10000089C
:10008000F10000080000000000000000F10000087E
:1000900000000000F1000008F1000008F100000875
:1000A00000000000F1000008000000007F070008C9
:1000B0000348854601F020FD00480047C5180008A8
:1000C000700F00200B4880F308880B480168090E68
:1000D0000A4A914205D10A480A4901600A480B4977
:1000E00001600B480047FEE7FEE7FEE7FEE7FEE79C
:1000F000FEE70000700F0020040000001F00000059
:100100001810024001000000000001400000000043
:10011000B10000088307FF22DB0E9A408907090E11
:10012000994000280BDA0007000F08388308FF48C1
:100130009B001818C36993430B43C361704783083E
:10014000FB489B001818036893430B4303607047F8
:10015000F84910B5401E884201D9012010BDF64C67
:1001600060610321081FFFF7D5FF0020A061072071
:100170002061002010BD10B5082101F0D4F910BD98
:1001800010B5EE4901F0CFF910BD10B5102101F006
:10019000CAF910BDE94910B5083901F0C4F910BD1C
:1001A000F3B50646E6480324042585B0864236D1D9
:1001B0000121801401F0D4F80121600401F0BFF89E
:1001C00000220521DF4800F065FE00220421DD4801
:1001D00000F060FE00220321DA4800F05BFEAF0170
:1001E00069460F808C701020C870D64800F0D8FD8A
:1001F0003946D44800F039FE0820694608808C70E2
:100200001827CF70CF4800F0CBFD2020694608802A
:100210008C70CF70CB4800F0C3FD102039E0CA4885
:1002200086423DD10121001401F0A3F80B200121E9
:10023000400401F084F803220E21C24800F02AFE97
:1002400004220D21BF4800F025FE04220C21BD48E8
:1002500000F020FEF71369460F808C701020C870E4
:10026000B84800F09DFD3946B64800F0FEFD301458
:10027000694608808C701827CF70B24800F090FD56
:100280007014694608808C70CF70AE4800F088FD0D
:10029000B014694608808C70CD70AA4800F080FDCB
:1002A0006A4695800020D08008211181508101216B
:1002B0009181D08106991182508201A9304601F0C6
:1002C000C5F80121304601F0EDF83046FFF753FF45
:1002D0003046FFF75AFF07B0F0BD30B59B4900220A
:1002E0000B68012423430B600B689B07FCD501239B
:1002F0009B024B604B6801242404A3434B600C68B1
:1003000001231B069C430C600C681F25AD06AC4303
:100310000C600C683F258006AD06401904430C6054
:100320008B4C112020600868184308600868800121
:10033000FCD548688008800048604868022318435C
:10034000486002E048680007820F022AFAD130BDF7
:1003500010B50420FFF7C1FF022000F040FF00F0BD
:1003600045FF0828FBD110BDFEB50121880300F030
:10037000F7FF1B206946087103204871887101202E
:10038000C87101A800F0C3FD0921CD06012228464D
:1003900000F080FD01220A21284600F07BFD6D4817
:1003A0006D4940680860302088800022CA800A8138
:1003B0006A4C8A8118264E81204601F029F90122D3
:1003C0000221204601F06EF900220121204601F0B1
:1003D00069F90121204601F05BF960156946088042
:1003E00002248C70CE70284600F0DAFC6002694668
:1003F00008800420C870284600F0D2FCA602694696
:100400000E808C701027CF70284600F0C9FC69461A
:100410000F808C702820C870284600F0C1FC31463F
:10042000284600F024FDFEBD10B54C4C00212046AE
:1004300001F02EF94749484A4968116011462046A3
:1004400001F0E6F80121204601F022F910BDFF225B
:1004500009210132C906002801D04A6170470A61AA
:1004600070473C48FF22837809210132C906002BDE
:1004700003D0002383704A617047012383700A61AF
:100480007047F0B585B0FFF763FF3548FFF760FEB2
:1004900008212B48FFF784FE0126360368460680B4
:1004A000022484704821C1700927FF066946384636
:1004B00000F076FC0125684605802821C170694658
:1004C000384600F06DFC05220821384600F0E2FCB9
:1004D000E1016846018084701021C1706946384688
:1004E00000F05EFC0121084600F03AFF01210807F8
:1004F00000F03FFF0C21002001F069F80021684660
:10050000019601720C214172857201A800F0CBFBAB
:1005100007216846017344738473C57303A800F010
:10052000F6FC03210720FFF7F5FD1BE000ED00E0DE
:1005300000E400E0FFFFFF0000E000E0F7FF000044
:100540000030014000040048003800400010024024
:1005500000200240000000209C02002000380140E2
:1005600080BB000005B0F0BD424908600889C007A3
:10057000FCD008898007FCD54868C0B2704710B528
:10058000FF2101313C4800F072FC10BD10B5FF2185
:100590000131394800F069FC10BD10B50920C006D2
:1005A00000F056FCC004C017401C10BD10B572B658
:1005B000002000F014FE00F019FE0028FBD12F48A7
:1005C000016801221206914301607D208001FFF73E
:1005D000BFFD62B610BD704738B502F03DFD002882
:1005E00034D027490878002830D0264A1368264A94
:1005F0001468A3422AD2254B12681B68934225D265
:10060000234C01281BD002204870FFF7CFFF206940
:100610000421084320611F4801694908490001611C
:10062000164802680121C9040A43026002680A43AD
:10063000026002680A430260052000900EE001207B
:1006400048702069FB210840206120BF38BD0A2086
:100650000146401E80B20029FAD10098411E009147
:10066000F5D230BF38BD704770477047704770474C
:1006700070470000003001400004004800100240B4
:10068000000000201C0000200800002018000020AE
:1006900000ED00E000E000E0214881680122D20581
:1006A000114381607047FEE7704770471D4800683E
:1006B000704710B51B480168491C016002F0A4FA9C
:1006C00010BD10B5012000F044FB10BD70B5012035
:1006D000000300F03EFB144B00241878022819D1C7
:1006E0000F4801680122114301600168120611439D
:1006F000016041680222114341600D480B4941618C
:100700000C490725CA691202120A46043243CA611B
:10071000846105611C70002002F08EFA70BD00003B
:100720000010024008000020010000207FBB0000F4
:1007300000E000E004ED00E070B5FD4D044681B23C
:10074000284600F0BFFF0121284600F0C9FF00281D
:10075000F9D00121284600F0CAFF204670BD10B52F
:10076000F34C0221204600F0BBFF0028F9D0022103
:10077000204600F0BCFF204600F0A7FF10BDF8B5F2
:10078000EB4D0221284600F0ABFFEA4E0027EA4C71
:10079000002814D00221284600F0A9FF284600F0C6
:1007A00094FFE64AA188505430687D22D200801818
:1007B000491CE06088B2A080C82800D3A78001212E
:1007C000284600F08DFF002823D00121284600F0A4
:1007D0008EFFDB480168DB4801F0FCF83168401807
:1007E000206120786178884208D2D449C839095CF0
:1007F000401C2070284600F065FF04E00022012123
:10080000284600F04FFF20786178884201D3677056
:100810002770F8BDF0B5C84C63785D18C82D0CD2B0
:10082000C64E0022C83E04E0845C9F18521CF4555A
:10083000D2B28A42F8D3C0484570F0BD10B508293D
:1008400002D80821C0A006E00839C9B2083000F07B
:100850005AFF0721BFA0FFF7DDFF10BD10B5002331
:100860000C2902D80821B8A014E00C2206E00A24C2
:100870006343845C303BE318521CD2B28A42F6D305
:100880001920C001834200DD034698B202F030FC1B
:100890000721B0A0FFF7BEFF10BD392801D83038BE
:1008A00004E0462801D8373800E05738C0B2704716
:1008B00070B50A4600210446082A02D80821A2A0E1
:1008C00021E02046083005E00A2359433039511809
:1008D000C9B2401C02782C2AF6D1C21C00230BE0BE
:1008E0001078FFF7DAFF05015078FFF7D6FF0543D0
:1008F000E5545B1CDBB2921C8B42F1D3204603F023
:100900009DFB072193A0FFF785FF70BD10B50B2954
:1009100002D808218CA007E0C07A302807D0012037
:1009200002F0C0FB07218BA0FFF774FF10BD002071
:10093000F6E710B5062902D0082183A003E002F0F3
:100940005BF9072183A0FFF765FF10BD092902D8D5
:1009500008217DA009E0407A8049312806D032285C
:1009600006D00020087007217AA053E70120F9E79C
:100970000220F7E710B40023082902D8082172A04A
:1009800016E0082206E00A246343845C303BE31847
:10099000521CD2B28A42F6D369480168994205D006
:1009A000036065490120C87010BC7047072169A029
:1009B00010BC2FE770B505460C46084601F044F818
:1009C000C1B2002007E0225C2B5C9A4201D00020DB
:1009D00070BD401CC0B28842F5D3012070BD10B577
:1009E00007215CA0FFF716FF0B215DA0FFF712FFA8
:1009F00008215EA0FFF70EFF00F045FF002802D09F
:100A000002215DA001E002215CA0FFF703FF10BD01
:100A1000F0B585B014225A49684600F0F1FF07216D
:100A20004CA0FFF7F7FE0B214DA0FFF7F3FE424E5F
:100A3000002414366D460A27142060438119E81CEF
:100A4000091D01F015F8684600F0FEFFC0B22F54F2
:100A5000401CC1B26846FFF7DDFE641CE4B2092CFD
:100A6000EAD305B0F0BDF8B5334D00240E46074675
:100A700014351420604341193846091DFFF79AFFC9
:100A8000002806D0142044432A593146384690475E
:100A9000F8BD641CE4B2092CEBD308212AA0FFF7AF
:100AA000B9FEF8BD70B50C46054636A1FFF782FFCA
:100AB000002805D0E41EE1B2E81CFFF7D4FF70BDAA
:100AC000082131A0FFF7A6FE70BDF8B51B4F002628
:100AD0003D46C835184C25E0A178385C6854491C5F
:100AE000C9B2A1703A2900D3A670124AE16812680F
:100AF000914203D30A2801D00D280CD1A0780128F7
:100B000008D029182039CE77401EC1B20B48C83012
:100B1000FFF7C8FFA670E088C821401C80B200F033
:100B200059FFE180A188E0888142D5D1F8BD00005D
:100B300000380140080000200C0000207403002051
:100B400004000020204E0000494E443A4552520A0B
:100B500000000000494E443A4F4B0A0000000020BC
:100B6000494E443A566572312E300A00494E443A95
:100B7000434F4E3D00000000310A0000300A0000E3
:100B80008446000841542B00494E443A4552520ACB
:100B90000000000010B5384CA088E188884210D0D1
:100BA00000F071FE00280DD0A188E088334A814210
:100BB0000AD9091AC9B2101803F040FAE1880818D6
:100BC000E08010BDA088FBE7C821091AC9B210183F
:100BD00003F034FAE188081880B2C82100F0FAFE68
:100BE000E18010BDF8B500F076F9234C2089401C57
:100BF0002081C007C00FFFF72AFCFFF7CBFF204E74
:100C0000204F3078204D022805D10920C00600F081
:100C10001FF9C0061AD46078002817D02078002861
:100C200014D101221146194800F03CFD13492078E7
:100C3000C839095C401C2070144800F043FD14487A
:100C4000396800F0C7FE2968401820613078022812
:100C500010D1E068296888420CD201210920C9021C
:100C6000C00600F002F90A48396800F0B3FE2968AE
:100C70004018E0605AE700000C00002074030020D8
:100C8000000000200400002008000020003801407F
:100C9000204E000030480021016041608160C16049
:100CA0002E494161704710B583792B490268002BAA
:100CB00026D00B6893430B604A6803689A434A60E6
:100CC0000279521813680468234313608A68036822
:100CD0009A438A60CA6803689A43CA604279102AB4
:100CE00005D051180A68006802430A6010BD8A687E
:100CF00003681A438A60CA6800680243CA6010BD6C
:100D00000079401801689143016010BD0021016025
:100D100001710C224271817170470F490A690243C7
:100D20000A6170470C4A0146526900200A4200D00D
:100D300001207047084948617047074B024619680F
:100D400000205B691140134202D0002900D001202D
:100D5000704701494861704700040140FFFF1F00D0
:100D6000172110B5C906401811D001218902401A77
:100D700010D0401A11D0884208D1012184022046A7
:100D800000F0DDFA0021204600F0D9FA10BD012163
:100D90004C04F4E701218C04F1E70121CC04EEE7D7
:100DA000F0B5CC78002223071B0FE40601D58C7820
:100DB00023430C782406240E1AD0046801250E88DB
:100DC00095402E40AE420FD197000F26BE40B4434F
:100DD0001E46BE403443CE78282E02D0482E02D084
:100DE00002E0456100E00561521C082AE6D3046078
:100DF0000A88FF2A1CD944680022164608360125B5
:100E0000B5400E882E40AE420ED197000F26BE4050
:100E1000B4431E46BE403443CE78282E00D14561EF
:100E2000CE78482E00D10561521C082AE5D34460D3
:100E3000F0BD0021C9430180022181700421C170ED
:100E400070470246926800200A4200D00120704795
:100E5000806880B270470246D26800200A4200D003
:100E600001207047C06880B27047016170474161DE
:100E70007047002A01D00161704741617047C1602D
:100E80007047012212040A43826181618261816993
:100E9000806970474B0710B5DB0E9A40CC080F21D4
:100EA0009940002C06D0436A8B434362416A114348
:100EB000416210BD036A8B430362016A1143016200
:100EC00010BD00000C49086070470B49486070472E
:100ED0000949886070470849084808607047064912
:100EE000074808607047044A0146D26800200A4259
:100EF00000D001207047000000300040AAAA000086
:100F0000CCCC0000254908432549C860704770B51E
:100F1000C2780F230125234E0178002A1AD0204AD7
:100F2000D468520D1440121B120A0424A41AD34090
:100F30004278A240847889001C4014431A4B220155
:100F4000C9180A600178CA06D20E9540490989007D
:100F5000891907E0CA06D20E9540124A490989004C
:100F6000803289180D60007840098000801900687F
:100F700070BD70470A4A0029116901D0014300E0A1
:100F8000814311617047042208490428086902D08E
:100F90009043086170471043FBE700000000FA052A
:100FA00000ED00E000E100E000E400E000E000E02F
:100FB000F74801680122114301604168F54A114078
:100FC00041600168F44A1140016001680122920405
:100FD0009143016041687F221204914341600021E6
:100FE0008160704710B5EA490B68012212049343EF
:100FF0000B600B689400A3430B60801A09D0032296
:101000001204904204D108680522120410430860BB
:1010100010BD0868FAE7034600205909DC4A012997
:101020000AD002290AD0516ADA06D20E012393406F
:101030000B4200D0012070471168F5E7116AF3E711
:1010400018B500200524240200903120FFF7E3FFAB
:101050000099491C0091002801D1A142F5D131200D
:10106000FFF7D9FF002800D0012018BDC84A116839
:10107000F8239943C000084310607047C449012811
:10108000086803D040084000086070470122104300
:10109000FAE710B5BE4B1868C04C8906120520400F
:1010A00011430143196010BD30B50546B8480C46E0
:1010B00041683F221204914329434160002C7CD0B7
:1010C00001208004844204D1012205212846FFF733
:1010D000E0FF0120C004844204D1012207212846F8
:1010E000FFF7D7FF03208004844204D101220921A5
:1010F0002846FFF7CEFF01200005844204D10122DB
:101100000B212846FFF7C5FF05208004844204D147
:1011100001220D212846FFF7BCFF0320C0048442B2
:1011200004D101220F212846FFF7B3FF07208004D6
:10113000844204D1012211212846FFF7AAFF012091
:101140004005844204D1012213212846FFF7A1FF64
:1011500009208004844204D1012215212846FFF78A
:1011600098FF0520C004844204D10122172128469B
:10117000FFF78FFF0B208004844204D10122192144
:101180002846FFF786FF03200005844204D1012290
:101190001B212846FFF77DFF0D208004844204D1E7
:1011A00001221D212846FFF774FF0720C004844256
:1011B00006D101221F21284600E002E0FFF769FF67
:1011C00030BD03220721F6E70122714912060028EB
:1011D000086801D0104300E09043086070476C4AF3
:1011E0005168890889000143516070476848406828
:1011F0000C2108407047664A5168F0239943014327
:1012000051607047624A516807231B0299430143AA
:10121000516070475E4A51680723DB029943C00062
:101220000843506070475A4A00020029916801D073
:10123000014300E081439160704755494A68024389
:101240004A607047524A516803239B039943014304
:10125000516070474E490A6A520852000A620A6A8F
:10126000520852000A62012806D0042803D1086AF5
:101270000522104308627047086A0122F9E74449D1
:101280000028486A02D00122104301E040084000D3
:10129000486270473E490A6A02430A627047012267
:1012A0003B49D2030028086A01D0104300E0904374
:1012B0000862704770B5364D044668680C210840D6
:1012C000374903D0042801D0082801D0216017E055
:1012D00028682968800E49026A68490F01231B04A7
:1012E000401C491C1A4201D12E4A05E06A6892034B
:1012F00001D52D4A00E02A4A504300F06BFB2060E4
:1013000068682A490006000F0A5C2068D0406060C7
:101310006A685205520F8A5C0346D340A3606A682C
:101320009204520F895CC840E06069681F4A090452
:10133000890F121F515C00F04DFB206170BD30B56C
:10134000134B5A690F25D4096D042C40D2B22243A5
:10135000002902D01043586130BD82435A6130BD2C
:101360000B4A0029916901D0014300E0814391615A
:101370007047074A0029D16901D0014300E0814349
:10138000D1617047024A0029D16811D0014310E0B1
:10139000001002400000FFF8FFFFF6FEFFFF8F0382
:1013A00000127A00001BB70000093D00D8000020A1
:1013B0008143D16070471D4A0029116901D0014362
:1013C00000E081431161704701221849120401288D
:1013D000086A02D09043086270471043FBE701227D
:1013E0001249D2040128086802D09043086070476F
:1013F0001043FBE70D494A68000602434A60704704
:101400000A48416A01221206114341627047074AA5
:101410000146926800200A4200D00120704703492B
:101420008A68000402438A6070470000001002408E
:10143000564910B5C84208D1841401212046FFF74F
:10144000A1FF00212046FFF79DFF10BD30B5038BA3
:101450000F22120313404A884C8922430C881C43F4
:1014600022430283838B3F22D24313408A88CC8954
:101470000D892243CC882C4322431A4310231A435C
:101480008283028C8989018430BD002101804180E2
:1014900008228280C1800122028141810222828150
:1014A000C18170470029018B02D00122114301E064
:1014B00049084900018370470223002A06D0028BA5
:1014C0001A430283028A0A4302827047028A8A43CD
:1014D0000282018B994301837047002A028B01D05D
:1014E0000A4300E08A4302837047002A028B01D03E
:1014F0000A4300E08A4302837047016070474068F6
:1015000080B27047002A028D01D00A4001E0C94331
:101510000A4302857047028B1D4B1A400283028BDF
:101520000A430283704710B50822082910D01024FE
:10153000102910D0174B994202D1038B9343038398
:10154000144A083A914202D1018BA143018310BD94
:10155000018B1143FAE7018B2143F7E70246128919
:1015600000200A4200D001207047024692890020E4
:101570000A4200D001207047828A0A438282704763
:1015800081847047828B0A438283704700D0FEBFFC
:10159000FFFC0000F7FF0000154801688907890F6C
:1015A000016000218160C160016141617047104AA2
:1015B0001168890889000143116070470C4A0029AD
:1015C000116801D0014300E08143116070478A0730
:1015D00010B5120F0F2393408C080549A400611821
:1015E0008C689C438C608B68904003438B6010BD7B
:1015F000000001403F4910B5C84208D101218C03C9
:101600002046FFF7BFFE00212046FFF7BBFE10BDBE
:1016100030B50446C06985B00D46CF218843A988FE
:10162000EA8811432A8902431143E161A0696A896A
:101630004109A889490110430843A0616846FFF7A2
:1016400039FE2C484042844201D1039800E00298C0
:101650000A2250430009296800F0BCF905460A2116
:1016600000F0B8F9042900D90A350A21284600F00B
:10167000B1F9206205B030BD4B21C90101603021B4
:1016800081800021C18001811822428181817047BF
:101690000029816902D00122114301E0164A11405C
:1016A00081617047002A026901D00A4300E08A4341
:1016B00002617047002A826901D00A4300E08A4330
:1016C00082617047C9B2016070474068C0B270471C
:1016D0000246926800200A4200D0012070477047FD
:1016E0000246D26800200A4200D0012070474161C2
:1016F0007047000000C8FEBFFEFF000067490A787F
:101700000270481C704770B50C460546182900D970
:1017100018246248224604702946401C00F070F9E3
:101720002146284601F0ECFC70BD092070477CB5CD
:101730000524069BE4020225A34201D1012A0BD015
:10174000A34211D1072A0FD855A109680F22019190
:1017500001AB009507210FE052A109680622019113
:1017600001AB0095012107E0A34208D1102A06D859
:1017700010214D4B1922009101F05EF87CBD00F064
:10178000B1FF7CBD70B50D4604990446122A19D0EC
:10179000132A17D0152A12D0182A03D0294600F090
:1017A000A1FF70BD184600F06CF900023F49000A25
:1017B0000860204602F0C4FEFEF736FE70BD1846F3
:1017C000FFF728F8204602F0BBFE70BD7047704757
:1017D000F0B585B0064615460C4602A8FFF78EFF09
:1017E00003460F2C2AD006DC042C11D0092C13D070
:1017F0000B2C06D118E0132C24D0182C28D0192C2F
:1018000032D022463146284600F06CFF05B0F0BDCC
:101810006846007A00902AE001F0C4FC00F014F958
:10182000C7B201F0BFFC06E000F060FA00F00CF96E
:10183000C7B200F05BFA0346009718E007201CA32C
:10184000009014E000200390022003AB00900EE013
:1018500016486A46006801AB010C1171010A51710A
:1018600090710320009002E0082013A3009022460C
:101870003146284600F0B8FFC8E77047002070479F
:1018800070470BA070470548401E00787047034919
:10189000491E0A78904200D008707047E900002085
:1018A0000A18000000180000F2460008040000209A
:1018B0005356332E312E3500426175645261746582
:1018C000000000000EB50020012109040246401C62
:1018D0008A42FBD3FEF7D5FD1548FEF745FD1548B6
:1018E00001680902090A0207114301607D21C9004C
:1018F000062000F047F800F089FA0F49432001F074
:101900005FFE0D4800680378427881780293019267
:101910000091C3780279417908A000F0A9FAA020CB
:1019200001F0ACFB0F4CFEF757FE2068FBE7000010
:101930000038014018E400E0040100200D0A4D4188
:1019400043313A253032782D253032782D2530320A
:10195000782D253032782D253032782D253032788B
:10196000000000000800002010B50120FFF7BBFABE
:101970000028FAD110BD10B50220FFF7B4FA0028F4
:10198000FAD110BD70B504460D460120FFF777FC73
:101990006120FFF740FB0028FAD0FFF7E5FF0C4E6F
:1019A0003046FFF78FFAE0B2FFF78FFAFFF7E3FF59
:1019B0003046FFF787FA2805000DFFF789FAFFF791
:1019C0008AFAFFF78CFA70BD10B5FFF784FA10BDE4
:1019D0005555000030B50B46014600202022012459
:1019E00009E00D46D5409D4205D31D469540491B53
:1019F0002546954040191546521E002DF1DC30BD9C
:101A000003460B439B0703D009E008C9121F08C017
:101A1000042AFAD203E00B780370401C491C521EC2
:101A2000F9D27047D2B201E00270401C491EFBD2CD
:101A300070470022F6E710B513460A4604461946D9
:101A4000FFF7F0FF204610BD421C0178401C002922
:101A5000FBD1801A704730B504460020034600E0F1
:101A60005B1C934203D2E05CCD5C401BF8D030BDE0
:101A700003460A780270401C491C002AF9D1184616
:101A800070470321001D401E037812021A43491EAD
:101A9000F9D510467047F0B51FB40646002082B055
:101AA00005464024019100901BE0019922460F4613
:101AB000304600F043F8049A059B801A994110D3F0
:101AC00010461946224600F029F8361A8F41019730
:101AD000224601200021009F00F020F838184D41D7
:101AE00000902046641E0028DFDC019B00982946F8
:101AF000324607B0F0BD0000064C0125064E05E059
:101B0000E36807CC2B430C3C98471034B442F7D31E
:101B1000FEF7D2FA8C470008AC47000810B5202A1F
:101B200004DB0146203A9140002010BD9140202363
:101B30009C1A0346E3401943904010BD10B5202A7B
:101B400004DB0846203AD040002110BD0B46D340AC
:101B5000D0402024A21A91400843194610BD70B508
:101B60008C180578401C6B075B0F01D10378401C73
:101B70002A1106D10278401C03E006780E70401C42
:101B8000491C5B1EF9D12B0705D40023521E0DD42E
:101B90000B70491CFAE70378401CCB1A921C03E037
:101BA0001D780D70491C5B1C521EF9D5A142D8D37B
:101BB000002070BD10B5FEF779FD084AD169884252
:101BC00007D2081A918A884203D90548007800286C
:101BD00001D0002010BD012010BD00001C0100201C
:101BE0008D01002010B50A4C607900280CD0FEF75A
:101BF0005DFDA16A884208D3401A0121890288420A
:101C000003D200206071012010BD002010BD000033
:101C10009401002070B5114C0025216A4A78002AF1
:101C200007D04989A289914203D100F0CDFC206AF6
:101C30004570E169487900280ED0C888A289904291
:101C40000AD10648A67905223430FFF7D9FE02F002
:101C500017FAE0694571A67170BD000030020020DE
:101C600010B503490A6B496B5043FFF7B3FE10BD33
:101C70009401002010B5044608480849C06A496B21
:101C8000002804DB6043FFF7A5FE001910BD4042A9
:101C90006043FFF79FFE201A10BD00009401002052
:101CA00013B56A46127813200240094802706A464A
:101CB00054784470002C03D02246801CFFF7A0FE0D
:101CC0000349A41C0846E2B2083801F00BFB1CBD16
:101CD000F80100200148807870470000940100203E
:101CE0000148C07970470000940100200748084966
:101CF0000078020930320007000F8A70092801D8E5
:101D0000303000E03730C870014870478C01002047
:101D10000E01002010B5074C207A002808D0FEF7ED
:101D2000C5FC216A884203D300202072012010BD27
:101D3000002010BD1C01002010B5184918480A6881
:101D4000184C824203D1184A1278D2070DD008608D
:101D5000A08A0A21484300F067F81248183001F0C1
:101D60002AFD10482C3001F0FBFC206B01F0ADFD8A
:101D7000E08A01F081FD607901F015FD512001F04C
:101D800029FA7821002001F07BFA7A21002001F065
:101D900077FA562001F01EFA10BD00001C02002048
:101DA00054470008300200201C0100201FB5022407
:101DB0006B461C730A215973062119700021597052
:101DC00005229A70D97001221A715A719C71D971C9
:101DD0001872000A587219460398FFF761FF1FBD79
:101DE0000149487070470000DC01002010B50C4626
:101DF000282906D20A4601460248FFF701FE02489A
:101E0000047110BD44070020780200200149012020
:101E1000487170471C0100200249CA691018C86146
:101E2000704700001C01002070B50446034D0120DE
:101E30002872FEF73BFC0019286270BD1C010020CF
:101E400010B5FEF711FCFEF731FC03491E30886225
:101E50000120487110BD0000940100200521C0013F
:101E6000090240180149486070470000280200201C
:101E70000FB410B503A9044B044A029800F024F8EB
:101E800010BC08BC04B018473907000898020020AD
:101E900030B47446641E2578641CAB4200D21D46E3
:101EA000635D5B00E31830BC184702E008C8121FEE
:101EB00008C1002AFAD170477047002001E001C133
:101EC000121F002AFBD17047FFB591B00F4605469F
:101ED000002606E025280AD0149A139990476D1C15
:101EE000761C28780028F5D1304615B0F0BD0024C6
:101EF00000940121F34A029400E004436D1C2B7806
:101F00000846203B98401042F7D128782A280ED066
:101F1000022128780246303A092A15D8009A0A2365
:101F20005A43303A80180C436D1C0090F1E701CF02
:101F30000090002805DA0120400304430098404245
:101F40000090022004436D1C28782E2815D104200F
:101F5000044368786D1C2A280AD101CF6D1C0290B9
:101F60000BE002990A225143303940186D1C02904F
:101F70002878014630390929F3D928786C2810D0FF
:101F800006DC4C281AD068280ED06A2817D104E045
:101F9000742813D07A2812D110E0012040050443A0
:101FA0000CE00121090501E0032109050C436978D2
:101FB000814203D10120000524186D1C6D1C287876
:101FC00003906E281ED00CDC632831D004DC00287E
:101FD0008AD0582811D1B2E064287BD069280CD16E
:101FE00078E073282DD004DC6F2870D0702804D1DD
:101FF000A7E075286CD078286BD0149A1399904775
:10200000761C62E06002400F022807D003280AD045
:10201000042838680AD006603F1D56E03868F1177A
:1020200006604160F8E738680680F5E70670F3E778
:102030003878694608740020487404A80390012089
:1020400003E0386803900020C0433F1D61070FD5AF
:10205000002101E00199491C029A0191914213DA91
:102060008142F7DB019A0399895C0029F2D10BE0E8
:10207000002101E00199491C01918142FADB019A9A
:102080000399895C0029F5D101990098139A401AA7
:1020900000902146149B00F03BF9019980194618E5
:1020A00007E0039803990078491C0391149A139947
:1020B00090470198401E0190401CF2D12146149B8C
:1020C000139A009800F014F986196D1C09E741E095
:1020D00033E034E00A200021049005916002410FB2
:1020E000022905D001CFC2179446032905D007E085
:1020F000FF1DFF08FF0003CF06E000B2C2179446A1
:10210000042902D140B2C1178C4600226146944591
:1021100006DA0A460021404291418C462D2102E018
:10212000210504D52B216A461176012103E0E10740
:1021300001D02021F7E7019154E00A200BE01020A4
:1021400009E0102004900021042004430820059198
:10215000029003E008200021059104906002410FE5
:10216000022905D001CF00229446032906D006E0BB
:10217000FF1DFF08FF0003CF8C4603E080B2042957
:1021800000D1C0B20021019121072BD503997029FC
:1021900006D0049A1021059B4A401A4305D00EE050
:1021A00040216A461176012108E06146014306D0CC
:1021B00030216A4611760399517602210191049AE1
:1021C0000821059B4A401A430CD16146014301D1C5
:1021D000610707D530216A461176012101910299E4
:1021E000491E02910399582904D037A103910FA9E0
:1021F0000F910DE039A1F9E76146059B049AFFF7BD
:102200004AFC039B8C469B5C0F9A521E0F921370E4
:1022100061460143F0D10F9807A9081A20300390B6
:10222000600704D5012000048443029801E00120E6
:1022300002900399884201DD401A00E00020411815
:102240000290019809180098401A0090E00306D403
:102250002146149B139A009800F05AF88619002022
:10226000049008E006A9085C149A13999047049812
:10227000401C761C049001998842F3DBE0030CD5E6
:102280002146149B139A009800F042F8861904E046
:10229000149A302013999047761C0299481E029098
:1022A0000029F5DC08E00F980F990078491C0F9180
:1022B000149A13999047761C0399481E039000299D
:1022C000F1DCFBE609280100303132333435363792
:1022D0003839616263646566000000003031323372
:1022E0003435363738394142434445460000000012
:1022F000F8B5044600251E461746880404D405E0B8
:1023000039462020B0476D1C641EF9D52846F8BD1B
:10231000FFB50446002581B01E46C80301D530270D
:1023200000E02027880404D505E038460399B0472B
:102330006D1C641EF9D5284605B0F0BD090710B51F
:10234000090FC00705D0032902D1022001F04CFA81
:1023500010BD05480079002802D0FFF771FD10BDBF
:1023600001F0C2FA10BD000094010020F8B5074644
:102370001E4C00202071087816460007000F0D46FD
:10238000032802D005281ED113E08120000138184F
:10239000E06101F064FA206901F0F2F96178E06B24
:1023A00001F0FAF960780121C001C9024018A0616A
:1023B00011E0002E07D0284606220D490830FFF70D
:1023C0004AFB002802D001F08FFA04E03246294689
:1023D000384600F0C9FB532000F0FCFE05490420FC
:1023E00000F021FF562000F0F5FEF8BD940100201A
:1023F000710100203302002070B5394C0646E079A7
:10240000002823D0A078401CA070A079002801D01B
:102410002820A07020790025002808D0606A091AB9
:10242000206A301A00F02EFBE5702571A581FF208F
:10243000193001F021FAA078272815D801F0B3F956
:102440000020FFF7E9FC01F05CFA70BD512000F0BC
:10245000C1FE7821202000F013FF562000F0BAFEC4
:102460006420FFF7D9FC70BD2520A0706069FFF7DC
:1024700001FC861960698009FFF7CEFCA089401C29
:10248000A0816089301A01F020FAA07801F08BF960
:10249000512000F09FFE7821002000F0F1FE7A210B
:1024A000002000F0EDFE562000F094FE0D480522BD
:1024B0000078D2014100411889018918626991426E
:1024C000D1D2217A491CC9B221721729CBD32572E6
:1024D000002802D000F078FF70BD00F01AFF70BD38
:1024E000940100208E01002010B509492520887034
:1024F00001F059F9FF20193001F0BEF9002001F078
:1025000068F901F0FEF9002001F094FD10BD000013
:102510009401002010B50C480078000702D001F0AB
:10252000E3F910BD782001F0A7F9012001F05CF972
:1025300005480E38C16980690818912109014018C1
:1025400001F08DF910BD0000A2010020F8B506468B
:102550000D46022001F048F92320C001194C28182B
:10256000E061A17825290AD16289FA21514308182E
:10257000E0611001801AFF30193001F07DF9E06947
:1025800001F06DF90F486946C0890880009801F094
:10259000F7F82178A06B01F0FFF820780121C00145
:1025A000C9024018A061A07825280AD12662656278
:1025B000A089112802D2E078002802D00120E07022
:1025C0002071F8BD9401002070B50D4C0546206ABD
:1025D0000178E1714088E08150214843FFF74AFBD0
:1025E00040192063206A81882182C1886182008924
:1025F000A082E079034948434018E08270BD0000A2
:1026000030020020E204000070B5044600781C4D42
:102610004006C00F287128460622A11C3930FFF75A
:10262000EFF90E342846042221462C30FFF7E8F952
:1026300028460322211D1830FFF7E2F9E079E871FE
:10264000617A207A09024018E881E17AA07A0902C9
:1026500040182882617B207B090240186882E17B58
:10266000A07B09024018A882214628460522103185
:102670003430FFF7C5F9607DC006C00E287270BD0A
:10268000300200207FB50AA470CC80070194800F2F
:10269000039602956C462070092060706172A272E8
:1026A000100AE072237301A9009800F020F87FBDA2
:1026B0000500040001000000000000000EB507A1A5
:1026C00006C980070091800F0192694608720720B1
:1026D0004872029800F00BF80EBD000003000400E1
:1026E0000317000010B50A23FFF7CCFF10BD10B58B
:1026F000FFF7D6FA10BDFFB587B01E466F46109B98
:10270000119A054638710920787105200C463872F7
:10271000002179720420B872F972601C38730120AC
:102720007873B973F8730520C0023974834213D1EA
:1027300005A8009006AB31460998FFF79FF80028DE
:102740000AD06946088B4873888AC87302A9019821
:10275000FFF7CDFF0BB0F0BD21462846099AFFF7E1
:10276000C1FFF7E7FFB587B0079817468007800FCE
:102770006A4610700A2050700020507106211171B5
:10278000D0710421917105211172012151721E46EF
:10279000D0720446134D1AE020460A2148434119DD
:1027A0004988B94211D3B1420FD80A214C4361196B
:1027B00089786A469172285A1073000A507301A9E9
:1027C0000098FFF794FF0BB0F0BD641CE4B2FEF775
:1027D000ACFFA042E0D83A4608990798FFF782FF7D
:1027E000F1E7000098460008F0B589B00E460746AC
:1027F0001D461C2101A80E9CFFF71BF9B807800F8E
:1028000069460870601D4870601C0871000A4871B4
:10281000042088710020C871761C0E7201A904E0A2
:102820002A5C0B18401C5A71C0B2A042F8D3009821
:10283000FFF75DFF09B0F0BDF0B589B08446002414
:1028400068460E9D0471447104268671C471112678
:1028500006722E1D46728172C472027344730A207E
:1028600001AF002105E05A5C3A54401C491CC0B23B
:10287000C9B2A942F7D3011F6A461171614689079F
:10288000890F1170507039460098FFF730FF09B07A
:10289000F0BD0000FFB589B0099815218507129E8B
:1028A0004902AD0F1F468E4221D16846FEF726FF32
:1028B000014668460571002343710078801CC2B24E
:1028C000122A00D91222941C6D462C72200A6872BA
:1028D0000426AE72EB72092028736A73AE73EB7331
:1028E00004A8921EFFF78CF8241D6C713FE061482C
:1028F00086423ED10B9807283BD15F4800780028DC
:1029000037D06B461D7117211972002159720421AD
:1029100099720021D9720921072019735873082070
:1029200098730020D8730220187459740021997488
:102930002921D9742A2119750A225A7500249C75F7
:10294000D8750B251D7600255D7626259D760E22F1
:10295000D9761A7700225A7798770F24DC7708AB5C
:102960001A702820587099701B206B46587102A964
:102970006FE0FF2F00D9FF27002471E020460A21D5
:1029800048433E490A5AB24268D1411848880B9AD6
:10299000904263D3B84261D8364A521E964223D140
:1029A0000A226E463272002373720422B272F372EC
:1029B00009223273082272730A2254432F4AA21842
:1029C0009278B273000AF073002002AA0B18141850
:1029D000401C1B79C0B223720528F7D3487A707562
:1029E00035710E20707133E009266F463E72002368
:1029F0007B720422BA72FB723E7307227A730A2238
:102A000054431E4AA2189278BA73000AF873184603
:102A100002AA0B181418401C1B79C0B22372052897
:102A2000F7D33D710D207871497AFF2910D0144BEE
:102A300000200901C9180B5C1418401CC0B2E372D5
:102A40001028F8D31B20787117203872152078735E
:102A500011460198FFF74BFE0DB0F0BD641CE4B2C7
:102A6000FEF763FEA04289D809AB07CBFFF73AFE19
:102A7000F2E7000003280000080100209846000843
:102A8000F24600084B22D200084B821A9A420CD21E
:102A90007D22D200064B8A1A9A4206D2FA2242437B
:102AA000531A044AD362516310637047A81D000093
:102AB000196618009401002010B5FDF7D4FD00F050
:102AC00013FF10BD7FB52821484308490A9D099C82
:102AD00048616E460846B688C6818A630B706E46AA
:102AE000308C0882CC634D707FBD000094010020C3
:102AF0000349024808604068004700003447000866
:102B00001C02002006490878002806D0022804D0BC
:102B100001D9401E08700120704700207047000056
:102B2000280200201FB509490A9C099B0870084823
:102B30004243CA806A46908908810846128C4281C5
:102B40004B614C700020C8701FBD0000780200204F
:102B50007102000003490248086040680047000015
:102B6000704700081C02002070B508461B4B1A492C
:102B700019601146FFF748FD194C1A49208A801F39
:102B8000884208D2A08A091F0A38884203D2207AD4
:102B9000401F0C2802D300F0A7FE70BD012000F0FA
:102BA00025F8114D012128780843E32108402870B9
:102BB000208A4100A08A814200D288B20A2148437B
:102BC000FFF732F928789F210840287000F08CFE2A
:102BD0000020607070BD0000544700081C020020F7
:102BE000300200207B0C00001C010020014908700D
:102BF000704700002802002010B5FFF783FF00286F
:102C000001D000F04DFF10BD10B5094840790028F3
:102C10000CD0084800680078002807D1FEF7E2FFD2
:102C2000002801D0FFF748FF00F0E2FB10BD0000D4
:102C30001C0100201C020020FEB5F94EF94F7279EC
:102C40003146C979F84DF94C032A04D0012A7DD0C8
:102C5000022A03D004E001291AD0D2E003227271C3
:102C6000B081012902D000290AD00BE0EC48401CB9
:102C70000078800706D4F18A002001F089FC01E089
:102C800001F072FCF17970790143E6D000285DD142
:102C900000203071FDF781FC002872D0E048801DD3
:102CA00000F054FDB07900F02EFBB079C1070BD0D5
:102CB000694601A800F0EAFBDD480099016001982F
:102CC00038602A68926863E0810708D5694601A8E0
:102CD00000F0DCFB286800998269019858E0C10681
:102CE00003D528684069804774E0010639D5286813
:102CF000CE490078002816D0012000F0F7FB61785B
:102D000020780902401881B22868C26801209047E3
:102D1000B07941061ED5684600F0D4FB2868627879
:102D20000369C2494EE0002000F0E0FB61782078A2
:102D30000902401881B22868C26801209047B07922
:102D4000410604D5684600F0BDFB13E070E0800644
:102D50003ED43FE080063DD5694601A800F096FBD1
:102D60002CE041060ED5684600F0ACFB28680078E0
:102D70000028D3D1AA4AAD490932002000F0D4FB83
:102D8000CCE759E0410705D528680021C26808460C
:102D900090471FE0010703D50020FFF727FF17E04A
:102DA000800615D5694601A800F070FB28680178F7
:102DB00000290AD09D49012000F098FB286862781C
:102DC000036900210098984704E000220369A8E7FE
:102DD00000F08AFD28680078002807D09048401C41
:102DE000007880071DD5F07900281AD1B0798007C6
:102DF00017D5F079002807D101F0B6FB70790328C8
:102E000002D00020B0712AE0FEF784FF002803D032
:102E1000F07901280DD004E03079002801D100F0CC
:102E200070FD7079002800D134E7B0798028FBD09C
:102E3000FEBD00203071F2E770790028F4D0B0793F
:102E40000028F1D1FEBDB079022808D1FEF7B2FE0C
:102E5000002804D07079002801D1FDF7BCFB286858
:102E6000007800280ED17079002805D1FEF7BAFE4F
:102E7000002801D0FFF720FEFEF732FF002801D125
:102E8000FDF7B0FEFDF789FB00286FD06448801D78
:102E900000F05CFCB07900F036FAB079C1070FD0D1
:102EA000694601A800F0F2FA6148009901600198B2
:102EB00038602A6892689047FDF7F8FBF0619BE064
:102EC000810719D5694601A800F0E0FA00F00CFD71
:102ED00028680099826901989047FEF7FBFE252833
:102EE00003D14F480078800703D52868007801286F
:102EF00001D1FDF777FE7FE0C10603D52868406960
:102F0000804779E0010639D52868484900780028CB
:102F100013D0012000F0EAFA617820780902401805
:102F200081B22868C26801209047B07941061ED559
:102F3000694601A800F0AAFA34E0002000F0D6FAB1
:102F4000617820780902401881B22868C26801209F
:102F50009047B079410604D5684600F0B3FA286876
:102F600043E0800646D447E030493BE06CE0800611
:102F700042D5694601A800F089FA2FE0410615D52F
:102F8000684600F09FFA2868007800280AD1207867
:102F90000007000F052805D1214A244909320020E5
:102FA00000F0C2FA286862780369DDE7410701D4BE
:102FB000010705D528680021C268084690471BE034
:102FC000810615D5694601A800F060FA28680178E5
:102FD00000290AD01549012000F088FA2868627893
:102FE000036900210098984706E000220369BBE7C7
:102FF000002820D000F078FCB07980071BD5F0794C
:10300000012818D10648401C0078800713D4F18AA3
:10301000002001F0BDFA707903280BD038E60000DB
:103020001C010020240200201C020020B404002007
:103030002002002003E07079002800D103E7B07976
:10304000802800D0FEE6FEE670790028F6D0B07940
:103050000028F3D1FEBD000010B5074CA07902286E
:1030600006D1FEF7A7FD002802D06079032801D021
:10307000002010BD012010BD1C01002070B50546C8
:10308000FDF714FB04460A34FDF710FBA042FBD306
:103090000349022048712846FFF7CEFD70BD0000AD
:1030A0001C01002070B50A4D04000ED0E8790028FC
:1030B0000BD1512000F08EF87A21202000F0E0F8AA
:1030C000562000F087F800F01CFCEC7170BD000089
:1030D0009401002010B50549087000090001091D80
:1030E000001D087001F086FA10BD000026010020C6
:1030F00010B50249888101F07DFA10BD1C01002045
:1031000030B5182900D918210A4B4A1C1A70002220
:1031100004E0845C9D18521CAC70D2B28A42F8D391
:10312000002003E05A18491C9070C9B21929F9D33C
:1031300030BD00004001002070B50D46124A014626
:103140001078002809D0401E107000265670506874
:10315000092806D0401C506005E001205070002076
:1031600070BD304656600C22084B4243D4184201D1
:103170008018074A80182A462060FEF741FC257116
:103180002046A66070BD0000D40100205C0600202F
:103190001005002010B500F08AFB0020FEF75EFE4F
:1031A00010BD000000A070474D475F424C455F4C8A
:1031B000494200000148007870470000D401002017
:1031C000034800780A2801D000207047012070478A
:1031D000D401002010B50446FDF7D1F9012150209B
:1031E000FDF7C2F901212046FDF7BEF9FDF7CEF942
:1031F00010BDF8B515460E460446FDF7C0F901218D
:103200002046FDF7B1F90746002406E00021FF2023
:10321000FDF7AAF93055641CE4B2AC42F6D3FDF7D1
:10322000B5F93846F8BD70B50C460546FDF7A7F967
:1032300001212846FDF798F90021FF20FDF794F9B8
:103240002070FDF7A3F970BDF8B516460D4604468B
:103250000027FDF794F9202020430121FDF784F990
:10326000002407E0287801216D1CFDF77DF9641C1E
:103270000746E4B2B442F5D3FDF788F93846F8BD05
:1032800070B50D460446FDF77AF920202043012150
:10329000FDF76AF901212846FDF766F9FDF776F991
:1032A00070BD0168002902D14068002801D00020CB
:1032B0007047012070470000002101604160024911
:1032C0000A20087070470000D401002002681368CB
:1032D00012790A70016889680160002900D1416093
:1032E0001846704710B50B46044611461846FFF7BE
:1032F00023FF002806D06168002901D0886000E023
:103300002060606010BD10B501460E20FFF7B8FFC9
:1033100010BD1CB55320FFF75DFF03211F20FFF7F1
:10332000AFFF01A91F20FFF77EFF68460079002844
:10333000F7D103211F20FFF7A3FF01A91F20FFF7EB
:1033400072FF684600790028F7D101211520FFF7A8
:1033500097FFA0211220FFF793FF04210A20FFF717
:103360008FFF00210A20FFF78BFF88211220FFF733
:1033700087FF012469460C70212048700222132027
:10338000FFF762FF69460C7020204870022213206C
:10339000FFF75AFF00211520FFF772FF5620FFF7B5
:1033A00019FF1CBD08B50020694608705120FFF7C1
:1033B00011FF5320FFF70EFF69461F20FFF733FF71
:1033C0006946087808BD000010B55120FFF702FFDC
:1033D0005320FFF7FFFE03211F20FFF751FF562068
:1033E000FFF7F8FE01490120487010BD8C01002054
:1033F00038B5254CA078012838D16078002835D020
:10340000012834D0022831D1FFF7CCFF00282DD17C
:1034100001211520FFF734FFA0211220FFF730FF14
:1034200004210A20FFF72CFF00210A20FFF728FFC4
:1034300088211220FFF724FF012569460D70212005
:10344000487002221320FFF7FFFE69460D7020200E
:10345000487002221320FFF7F7FE00211520FFF726
:103460000FFF5620FFF7B6FE0020607038BDFFF753
:1034700099FF0028FAD103211F20FFF701FF5620F2
:10348000FFF7A8FE0220F0E78C0100207CB50D4676
:103490000446062269461020FFF7ABFE69464879CC
:1034A0000B7902041802C978101840186946206088
:1034B000887849780004090240186946097840185C
:1034C00028607CBD38B50446032269461020FFF70A
:1034D00090FE684680780104684642781002091818
:1034E000684600780818206038BD00007CB50D4D96
:1034F0000C46002811D0022269460620FFF779FE0B
:1035000068460078207068464078607068460078A9
:1035100028706846407868707CBD022269460420A5
:10352000ECE700008F01002070B513460C46002820
:1035300009D06278901C1870002A03D0A11C612069
:10354000FFF757FE70BD1D48254641780835891C98
:103550001170017821704178617001784078090715
:10356000090F0B00FEF794FC0706090614051A065E
:103570000500E7E70622A11C08E00C28E2D106229C
:10358000A11C0A20FFF735FE062229460B20D7E7AB
:103590000C28D7D1062229460A20D1E72228D1D1EA
:1035A0000622A11C0B20FFF724FE062229460A2032
:1035B000FFF71FFE162221460E31C0E78F010020C3
:1035C000FEB505460026684606715E4C51200C602B
:1035D000FFF700FE01A91F20FFF725FE68460179CD
:1035E0008029F7D158491E20FFF71DFE78210020C1
:1035F000FFF746FE06210846FFF742FE7A2100202B
:10360000FFF73EFE5320FFF7E5FD88211720FFF767
:1036100037FE88211820FFF733FE88211920FFF795
:103620002FFE00211520FFF72BFE02210120FFF7BE
:1036300027FE1E211D20FFF723FE284600F0F0F88C
:1036400000A908200131FFF7EEFD684640783E4FA3
:10365000002807D112206946487038781B2801D20B
:1036600015204870C021684601702D218170032209
:1036700069460420FFF7E8FD80256846057046701E
:10368000022269460C20FFF7DFFD1C21684601700D
:1036900045703878192802D1CC206946087002227A
:1036A00069461420FFF7D0FD1020694608700227F4
:1036B0004F703A460A20FFF7C7FD69460F70122087
:1036C000487002220D20FFF7BFFD012069460870F7
:1036D0000720487002220E20FFF7B6FD3820694609
:1036E00008700F2048708E7003220220FFF7ACFD97
:1036F00071210920FFF7C4FD69460D7070204870E4
:10370000212088704020C87004220B20FFF79CFD08
:103710005620FFF75FFDFF210E20FFF7B1FD0622C7
:1037200008490820FFF765FD60796D2806D1ED2076
:103730006071062203490820FFF786FD00F0D4F8E7
:10374000FEBD0000710100208C01002038B5044648
:1037500069460E20FFF767FD68460178217038BD85
:103760001CB501786A46117041785170817891706A
:10377000C078D070042269460C20FFF765FD1CBD9F
:1037800001B582B06946087A0870487A487002220A
:103790000320FFF759FD0EBD0A4610B50146A020D3
:1037A000FFF752FD10BD10B5282803D201460120B5
:1037B000FFF766FD10BD1CB501786A4611704178AF
:1037C000517080789070032269460D20FFF73CFD10
:1037D0001CBD1CB5FF216A4611705070022269465B
:1037E0000E20FFF731FD1CBD10B504280BD00128B9
:1037F0000BD002280ED003280ED005280ED00628A4
:1038000007D1042102E0022100E009210220FFF794
:1038100037FD10BD0C21F9E70121F7E70321F5E79A
:1038200008B502216A46117050700A4669460F2099
:10383000FFF70AFD08BD1CB501786A461170417892
:10384000517081789170C178D1700179117140798E
:103850005071062269460920FFF7F6FC1CBD1CB515
:103860006A461070010A5170000C9070032269467C
:103870000720FFF7E9FC1CBD1CB56A461070010A61
:103880005170002191700549884201D90120907042
:10389000032269461120FFF7D7FC1CBDFFFF000083
:1038A0000A4610B50146A020FFF7CEFC10BD01B5B9
:1038B00082B06946087A0222C006C00E0870487AB3
:1038C00048700520FFF7C0FC0EBD1CB500216A46FC
:1038D00011705070010A9170000CD070042269467A
:1038E0000F20FFF7B1FC1CBD1CB502206946087013
:1038F000FF2048708870C87004220F20FFF7A4FCD6
:103900001CBD10B501210F20FFF7BAFC10BD00004F
:1039100038B5054600230C4610460093FFF7C1FC5E
:10392000002802D02B70237038BD69461046FFF77F
:10393000CDFC0146684602782846FEF761F86846E5
:103940000078207002480178491C017038BD0000E1
:10395000D401002010B50548034981600021417061
:103960001430FFF7A9FC10BD50470008DC0100200F
:103970007047000000B587B0182209A16846FEF71D
:103980003FF80D480321017018214170801E4088C6
:10399000694608830698FEF783F907B000BD00006A
:1039A000101000280001002C011820000300FFFF68
:1039B000FFFFFFFFFFFFFFFF820100203EB5002257
:1039C0008C070E490092A40F01920C7006244C70D3
:1039D00002236C46237062700179A1704079E07017
:1039E0000D2020711A20607104486946801E4088AD
:1039F00020810298FEF754F93EBD000082010020AC
:103A00001FB508A007C86B4607C30948032101700A
:103A100009214170801E4088694688810398FEF71D
:103A20003FF91FBD09000000000000000000000079
:103A3000820100203EB500228C070E490092A40F9F
:103A400001920C7006244C7002236C462370627045
:103A50000179A1704079E0700520207137206071F4
:103A600004486946801E408820810298FEF718F9B4
:103A70003EBD00008201002008B589070748890F74
:103A8000017000214170801E4088694608800098BE
:103A9000FFF780FB0020FFF7A9F808BD8201002096
:103AA0001CB509A00068009008480321017002219C
:103AB0004170801E4088694688800198FEF7F0F8C2
:103AC0000420FFF793F81CBD020A000082010020C9
:103AD0001CB509A109680091084903220A70022255
:103AE0004A70694648700548801E40888880019861
:103AF000FEF7D6F81CBD0000070000008201002080
:103B00000EB509A005C8009089070948890F0192E0
:103B1000017006214170801E408869460881029824
:103B2000FEF7BEF80EBD00000C079C051720000034
:103B300082010020FEB5154C01A92246083A204614
:103B4000FFF7E6FE6846007901262546002801D1E8
:103B50002E70687021780D4F132001401C3F78783B
:103B60000423C24352081A4040071143C00FC0004B
:103B700001436A46117060785070A11C009800F0F3
:103B800023FD2E7000207870FEBD0000F80100209B
:103B9000FEB50D46002102911D2D00D91D250146BF
:103BA0002A469B48FDF72CFF9A48994C05702078CF
:103BB000984A8107890F9070012914D0032917D0E2
:103BC00002290FD1637921791B02A579C918062929
:103BD0004BD0042950D0052904D1132D02D0002048
:103BE000FEF7E4F8FEBD022DFCD3FDF749FEFEBD55
:103BF000A1780B00FEF74CF9120B0F1E233535355B
:103C00000A283535352D0A35320A0A35EFE7E01C2A
:103C100000F0C4F9FEBD01467D48FFF7A9FE617AB8
:103C2000207A090240186946088102A9E01C00F0C8
:103C3000E7F9FEBD01467648FFF71EFFFEBD0146CF
:103C40007348FFF7BBFEFEBD01467148FFF7D8FE83
:103C5000FEBD01466E48FFF753FFFEBDFFF78AFE2B
:103C6000FEBD0846FFF734FFFEBD012DFCD1014625
:103C70006748FFF7DFFEFEBD66490C31102D72D09C
:103C80000ADCAE1E3300FEF703F90B1D15221536B4
:103C900015541589159415005D4B0933182D7BD0EB
:103CA00004DC122D79D0162D04D192E01E2DE2D025
:103CB000522D72D06906DED4062300222946FEF773
:103CC000E1FCFEBD00222946FEF7F8FCFEBD237A8A
:103CD000E2791B02D21892B20A80637AA47A240293
:103CE0001B199BB24B809A4201D90123E6E7294672
:103CF000FEF738FDFEBD237AE2791B02D21892B29C
:103D00000A80A67A637A36029B199BB24B809A424C
:103D1000EBD8267BE17A36028919667BA47B89B2CF
:103D200024023419A4B2009101942946FEF7E3FC61
:103D3000FEBD237AE2791B02D21892B20A80A67ADB
:103D4000637A36029B199BB24B80E67A247B24026D
:103D50003419A4B28C809A42C7D829460094FEF741
:103D600099FDFEBDFFE7237AE2791B02D21892B2D9
:103D70000A80A67A637A36029B199BB24B80E67A58
:103D8000247B24023419A4B28C809A42ADD82946EF
:103D90000094FDF7CCFCE4E724E027E0237AE17906
:103DA0001B02C91889B2918002462846FDF710FD12
:103DB000D7E7237AE1791B02C91889B29180A37AE7
:103DC000627A1B02D21893B202462846FDF755FDCF
:103DD000C7E7217AE0790902401890800C4800F08A
:103DE0008CFBBEE70A4800F04BFBBAE7E178A67807
:103DF0000902C91E7118CEB2E179247A2402091988
:103E000089B291800A4629460096FDF7BBFCA8E7D7
:103E1000D4060020DC01002013B56A46044812785D
:103E200002706A46527842700248FDF7E9FD1CBDF7
:103E300080010020E80400200907090FC20710B51F
:103E40000C480ED00B00FEF723F8070808050B0BF3
:103E50000B050B000078012802D10220FFF7C4FCFB
:103E600010BDC178142901D10021C170FFF73CFDBC
:103E700010BD00007802002070B50C461649002ADB
:103E8000086110D0002C0ED0207821468606B60E90
:103E9000901F0831951C3300FDF7FAFF070808084A
:103EA000101010081000FFF71FFD70BDC2B2612096
:103EB000FFF79FF9E9B22046FDF798FFFFF714FDE1
:103EC0005320FFF787F905490420FFF7ACF9562086
:103ED000FFF780F970BD0000780200203302002057
:103EE00070B5114C0646A0780D46401CC2B2A270B7
:103EF000282A01D12520A070A078FFF754FCE07893
:103F000013280DD109480068291A09480068301A99
:103F1000FEF7B8FD07480078002802D0FFF754FAF2
:103F200070BDFFF7F6F970BD780200202002002076
:103F3000240200208E01002010B5074C2520A0701F
:103F4000FFF731FCE088FFF797FC04480078800712
:103F500001D4FFF7D6FC10BD780200201D0100201F
:103F600010B5FFF7C1FC10BD38B50C460120FFF7B6
:103F70003BFC09486946408908800098FFF700FC2F
:103F800005481830FFF757FC152000020249201899
:103F9000C860FFF764FC38BD7802002030B5164BCE
:103FA0000122196A4A7002780A70847842782402E1
:103FB00012194A800479C2782402121992B28A80B6
:103FC000857944792D026419CC80057AC4792D0253
:103FD00064190C81447A807A0002201880B200248F
:103FE0004881062A00D24C709A89801A034A90426E
:103FF00000DB4C7030BD000030020020FF7F00006D
:1040000010B50A4C0346E0690988C18005221946AB
:10401000FDF7F6FCE06901214171C188A289891A86
:10402000034A914201DB0021417110BD30020020A2
:10403000FF7F000010B5FDF7F7FE10BDF8B50C4688
:104040000746002614E0142C01D9142500E025466B
:10405000FFF7B0F803280FD3084800950288BB1972
:104060001B21022000F01DFA7019C6B2601BC4B2F9
:10407000002C01D0002FE6D13046F8BD020100200F
:10408000F0B50C4B00201C46987134340A4A587223
:104090000125C1084607615C760F2F46B7403942BB
:1040A00003D0597A5054491C5972401CC0B225287B
:1040B000EFD3F0BD30020020FE06002010B5C0078F
:1040C00006D10448FB22017811400170FFF70CFC77
:1040D00010BD00001C010020F8B5064633480C4610
:1040E000808A0A2115464843FDF79EFE304F042181
:1040F00038780843E72108403870FCF7B6FA002CFE
:1041000003D06078002818D01BE041204001052131
:104110003018264CC9014018A062FFF7A0FB1B2DE8
:1041200000D91B25E801311A05200002081A606237
:10413000387810210843387035E038780821084372
:10414000387081200001194930188862FFF787FB19
:10415000E8010121301A8902411A1448416220788D
:10416000FDF73EFE3878227841061207C90FD20FBC
:10417000914218D10D4C01212170402148403870E6
:104180000C48006800688047FCF770FA00206070F7
:104190005320FFF71FF8E11C0420FFF744F85620D6
:1041A000FFF718F8F8BDFCF761FAF8BD30020020FF
:1041B0001C010020E4010020F8B50F460646FEF77A
:1041C000A1FC874D0028287826D0864CC10737D01F
:1041D000022108432870E089502148432830FDF728
:1041E00049FD80192063FFF74BFFE0690026467107
:1041F000206A4670A6812670FFF7ACFBA671E079B5
:10420000794948434018E0820120FDF740FB774898
:104210000078022810D0A5E0FD2108402870002079
:10422000FDF7FAFD71480078022802D18020FEF7E0
:1042300051FF00F099F9F8BD8220FEF74BFF91E0A5
:10424000207800280FD06A490120FFF74FF96A460D
:1042500067490120FFF768F9684601786448FFF76D
:1042600097FC002020702878400732D5606A012131
:10427000381A090640180002000AFDF7F1FC371A47
:10428000287800071BD5608A002818D0FEF798FF11
:10429000002814D0208A618A4143081850214843DD
:1042A0005038FDF7E7FCC0192063A189608A09181E
:1042B000A181217A4143A0790818A07107E0208AE2
:1042C000502148435038FDF7D5FCC0192063608960
:1042D00034E0208A082801D20121A17045493D28F7
:1042E0000F6807D2502201465143C20080180009CE
:1042F000081A02E0502148431938FDF7BBFCC019E9
:104300002063208A092806D2617848430621484361
:104310003549FA3107E0112807D261784843062170
:1043200048437D210901401808E03D2805D2617805
:104330004843062148433049F5E73048E082206B86
:104340000A36B04200D22663A078002804D12C4956
:10435000206B0988401A2063A089401CA081206B33
:10436000FDF758FCA079217A4018C0B22521FDF74D
:1043700031FB1C4BA171CA0834339A5C4B070846C9
:104380005B0F012199400A4205D1617AFDF722FBBA
:1043900017482538405C607114480078022805D120
:1043A0002878800702D500F0DFF801E0FDF7C4FCB3
:1043B0002878C10704D040084000287000200BE096
:1043C000A078002805D00020FDF726FD0020A07071
:1043D000F8BD208A81080818FDF71EFDF8BD000011
:1043E0001C01002030020020E20400009B0100209C
:1043F0002307002024020020C4090000204E0000F2
:104400009E01002010B506480078C00604D50021A2
:104410000846FFF753FE10BDFFF766FA10BD000017
:104420001C01002070B50D46FDF774FC002809D171
:10443000114C6078322805D8218A4143A08AC000F7
:10444000814205D90020FEF7D1FBFFF74DFA70BD80
:104450000420FFF7C9F9C3204001A17828180029DA
:1044600004D10649FA22098851430818FFF7F7F9E1
:104470006078401C607070BD300200209E010020FA
:1044800008B502216A461170052151700121817021
:1044900019218171811C0098FEF729F9FDF797F920
:1044A00008BDFFB58BB0149C1D461746E61C2421A1
:1044B00001A8FDF7BEFA0B98132108406946087061
:1044C000E01D48700E71300A487104208871002088
:1044D000C8710C9808724F72380A8872002001A9BE
:1044E00004E02A5C0B18401CDA71C0B2A042F8D379
:1044F0000098FEF7FCF80FB0F0BDF8B50446827ADC
:10450000C178007AE57900020543A07809020843E2
:10451000401F87B2667A100206430220694608707F
:10452000607848701720A071A11C0098FEF7DFF892
:10453000214633463A460B312846FDF747F9F8BD88
:104540000EB507A106C980070091800F0192694648
:104550000872052048720298FEF7C9F80EBD0000E7
:10456000010004001300000010B500F043F80748F4
:104570000078800707D40548401C0078800702D4E3
:104580000020FDF784F9FEF7B3FA10BD1C010020EE
:1045900000B585B016230B4A049303923F3A528A22
:1045A0006B461A810023074A00933F3A019313692F
:1045B0000A4601214902FEF7B5FAFEF7CBFA05B02B
:1045C00000BD00005B01002073B50D460098FFF7A9
:1045D0006EF968464478002C03D021462846FFF740
:1045E0005FF92046FDF73AFC29460098FFF714FCD6
:1045F0007CBD000030B585B003A8FDF77FF86946A3
:10460000097B182902D918216A46117369460A7B69
:104610001A4B511C1970002104E0445C5D18491CC0
:10462000AC70C9B29142F8D3002003E09918521C33
:104630008870D2B2192AF9D31049104A0C46243C8A
:10464000A5780C3A03231B20002D01D00C4A2B46E1
:10465000E578002D02D00A4928461F31029007480C
:1046600001912438811CC0896D46288008892882E0
:10467000A0890499FEF726FA05B030BD400100205C
:104680007604002041542B000000000000000000D0
:1046900000000000000000000328030002040000E6
:1046A0002AFF03280800020900292AFF03280A001C
:1046B000020B00262AFF03280E00020F00282AFF03
:1046C00003281100101200000001022913000A0043
:1046D00000000000032814000C150000000203284D
:1046E00017000A1800000003012919000200000049
:1046F00000009ECADC240EE5A9E093F3A3B50100F7
:10470000406E9ECADC240EE5A9E093F3A3B5030036
:10471000406E9ECADC240EE5A9E093F3A3B5020027
:10472000406E9ECADC240EE5A9E093F3A3B5040015
:10473000406E000000000000E92400084D2500083C
:104740003D2300086D23000815250008F923000803
:10475000353B00080100000000000000254400086F
:10476000BD400008D940000805440008B9410008D0
:1047700000000000393F0008693F0008393E00088A
:10478000793E0008613F0008E13E0008AC470008A0
:10479000000000209C0200005E1B0008B0480008DA
:1047A0009C020020D40C0000BA1E000842013AC24C
:1047B000060115133D08800A085345544E414D45E6
:1047C0003D4A5D143809494E54455256414C181A19
:1047D000B1147808424C4553454E4428134D09689E
:1047E0000A084C4F57504F574552151A7514193C2B
:1047F0008C424155284A0D144808414456464C41C4
:1048000047171A3314A7444953434F4E1ADF14B6BF
:104810004D494E464F13110AC60848454C504502B3
:104820000406082D01020304041506070809D00D2B
:104830000B4D53313739782D55415254621215645E
:10484000010179E00B465620202E332E352E3114EF
:104850008009A010088421030C4522041220A40220
:104860000106021909100A4D8BAB6348CDF104060D
:10487000322812C81AFF01EA1F2F32011ADC551B19
:10488000780159916A251B11021F101A81AA235819
:104890000A8B6FE85A190F01210241FF0310DC0552
:1048A000137002AC20F206C8011C29E4091CDE00CA
:04000005080000B13E
:00000001FF
