:020000040800F2
:10000000080B0020C50000081106000813060008B0
:1000100000000000000000000000000000000000E0
:1000200000000000000000000000000015060008AD
:100030000000000000000000170600081F0600086E
:10004000F1000008F1000008F1000008F1000008CC
:10005000F100000829060008F10000083306000836
:1000600000000000F1000008F1000008F1000008A5
:10007000F1000008F1000008F1000008F10000089C
:10008000F10000080000000000000000F10000087E
:1000900000000000F1000008F1000008F100000875
:1000A00000000000F10000080000000093060008B6
:1000B0000348854601F006FD004800478F180008F8
:1000C000080B00200B4880F308880B480168090ED4
:1000D0000A4A914205D10A480A4901600A480B4977
:1000E00001600B480047FEE7FEE7FEE7FEE7FEE79C
:1000F000FEE70000080B0020040000001F000000C5
:100100001810024001000000000001400000000043
:10011000B1000008F84910B5401E884201D90120FD
:1001200010BDF6494861F6480722C3691B021B0A45
:100130004C042343C361002088610A6110BD10B5DF
:10014000082101F0CCF910BD10B5EE4901F0C7F956
:1001500010BD10B5102101F0C2F910BDE94910B56C
:10016000083901F0BCF910BDF3B585B0E649059832
:1001700004260825884243D10121801401F0D8F8D3
:10018000E14920310889E14A104308810B2001210F
:10019000400401F0BCF800220521DD4800F0FEFD1E
:1001A00000220421DA4800F0F9FD00220321D8489A
:1001B00000F0F4FD6F0169460F8003248C7010205D
:1001C000C870D34800F070FD3946D14800F0D1FD29
:1001D00069460D808C701827CF70CD4800F064FD03
:1001E0002020694608808C70CF70C94800F05CFD03
:1001F0001020694608808C70CE70C54800F054FD10
:100200006A4696800020D08015815081012191811D
:10021000D08106991182508201A9059801F0F2F867
:100220000121059801F01AF90598FFF788FF059854
:10023000FFF78FFF07B0F0BD30B5B64900220B685D
:10024000012423430B600B689B07FCD501239B0211
:100250004B604B6801242404A3434B600C680123CA
:100260001B069C430C600C681F25AD06AC430C605C
:100270000C683F258006AD06401904430C60A64C6F
:100280001120206008681843086008688001FCD5C8
:100290004868800880004860486802231843486026
:1002A00002E048680007820F022AFAD130BD10B57B
:1002B0000420FFF7C1FF022000F079FF00F07EFF6D
:1002C0000828FBD110BDFEB50121880301F030F8EC
:1002D0001B21684601710324447184710121C1719D
:1002E00001A800F098FD0921CD060122284600F062
:1002F00055FD01220A21284600F050FD8748884913
:1003000040680860302088800022CA800A81854FBA
:100310008A8118264E81384601F056F901220221C1
:10032000384601F09BF900220121384601F096F988
:100330000121384601F088F97915684601808470FA
:10034000C6706946284600F0AFFC39156846018042
:100350000426C6706946284600F0A6FC6C4C0322B1
:100360000621204600F01AFD03220721204600F056
:1003700015FD770268460780022484701021C17041
:100380006946284600F090FC684606808470282163
:10039000C1706946644800F087FC3946284600F081
:1003A000EAFCFEBD10B55F4C0021204601F04CF97F
:1003B0005A495B4A496811601146204601F004F928
:1003C0000121204601F040F910BD5848A2E6FF2265
:1003D00009210132C906002801D04A6170470A612B
:1003E000704710B50121080700F0ABFF012000F0B5
:1003F0008AFD00F0A3FD10BDF0B585B0FFF757FFF3
:100400004A48FFF787FE06213F48FFF7ADFE012669
:10041000360368460680022484704821C17009278B
:10042000FF066946384600F03FFC01256846058016
:100430002821C1706946384600F036FC05220821A3
:10044000384600F0ABFCE101684601808470102161
:10045000C1706946384600F027FC0121084600F0CB
:1004600067FF0121080700F06CFF0C21002001F05C
:100470008AF800216846019601720C21417285724A
:1004800001A800F094FB072168460173447384734C
:10049000C57303A800F0BFFC25480168194A921DE6
:1004A000114001601648001F0169042211430161D7
:1004B00005B0F0BD144908600889C007FCD0088960
:1004C0008007FCD54868C0B2704710B5FF210131E4
:1004D0000F4800F050FC10BD10B5FF2101310C4851
:1004E00000F047FC10BD10B50920C00600F034FC38
:1004F000C004C017401C10BDFFFFFF0000E000E07B
:1005000004ED00E0F7FF0000003001400100FFFFB4
:1005100000040048001002400020024000000020BB
:100520005802002000380140000C004880BB000049
:100530000070004010B5002000F039FE00F03EFED3
:100540000028FBD12C48016801221206914301606A
:100550007D208001FFF7DEFDCDE710B5FFF7A7FE98
:100560002648FFF7D7FDC6E710B5254801780029D2
:10057000C1D08268234800688242BCD2224A1268F5
:100580008242B8D2214C01291CD0FFF7D3FF206949
:1005900004210843206130BF17480168012211433C
:1005A0000160016812061143016041680222114393
:1005B0004160C1140920C00600F0DDFB0F48FFF7C1
:1005C000A9FD98E7FFF7B6FF2069FB2108402061ED
:1005D00020BFFFF7C2FF8EE772B609484178491C79
:1005E0004170704706494878401E0006000E48706A
:1005F00000D162B6704770470010024080BB000017
:10060000000000200C0000201800002000ED00E099
:100610007047FEE7704770470B48006870470A480C
:100620000168491C0160704710B5012000F015FBFE
:1006300010BD10B50120C00200F00FFB0120000327
:1006400000F00BFB10BD00000C00002070B5FB4D4E
:10065000044681B2284601F011F80121284601F034
:100660001BF80028F9D00121284601F01CF820468B
:1006700070BD10B5F14C0221204601F00DF80028A4
:10068000F9D00221204601F00EF8204600F0F9FFD3
:1006900010BDF8B5E94D0221284600F0FDFFE84FF6
:1006A0000026E84C002815D00221284600F0FBFF68
:1006B000284600F0E6FF0146E34AA08811547D2257
:1006C0003968D2008918401C80B2A160A080C82877
:1006D00000D3A6800121284600F0DEFF00281ED0AE
:1006E0000121284600F0DFFFD8480168D84801F012
:1006F00043F939684018D749086060782178884202
:100700000ED2D149C839095C401C6070284600F0FF
:10071000B5FF60782178884201D126706670F8BDF7
:1007200000220121284600F099FFF8BDF0B5C54C24
:1007300023785D18C82D0CD2C34E0022C83E04E0B9
:10074000845C9F18521CF455D2B28A42F8D3BD483B
:100750000570F0BD10B5082902D80821BEA006E03A
:100760000839C9B2083000F0A9FF0721BDA0FFF782
:10077000DDFF10BD10B500230C2902D80821B6A05A
:1007800014E00C2206E00A246343845C303BE31847
:10079000521CD2B28A42F6D31920C001834200DD36
:1007A000034698B202F01CFA0721AEA0FFF7BEFF85
:1007B00010BD392801D8303804E0462801D8373830
:1007C00000E05738C0B2704770B50A4600210446B1
:1007D000082A02D80821A0A021E02046083005E020
:1007E0000A23594330395118C9B2401C02782C2AC7
:1007F000F6D1C21C00230BE01078FFF7DAFF0501E9
:100800005078FFF7D6FF0543E5545B1CDBB2921C22
:100810008B42F1D3204602F0D1FF072191A0FFF7D0
:1008200085FF70BD10B50B2902D808218AA007E00A
:10083000C07A302807D0012002F0BAF9072189A038
:10084000FFF774FF10BD0020F6E710B5062902D0AF
:10085000082181A003E002F099F8072181A0FFF7A9
:1008600065FF10BD092902D808217BA009E0407A64
:100870007E49312806D0322806D000200870072192
:1008800078A053E70120F9E70220F7E710B400232E
:10089000082902D8082170A016E0082206E00A24E0
:1008A0006343845C303BE318521CD2B28A42F6D3D5
:1008B00066480168994205D0036062490120C8700A
:1008C00010BC7047072167A010BC2FE770B5054624
:1008D0000C46084601F09EF8C1B2002007E0225CF9
:1008E0002B5C9A4201D0002070BD401CC0B28842EF
:1008F000F5D3012070BD10B507215AA0FFF716FFF0
:100900000B215BA0FFF712FF08215CA0FFF70EFF91
:1009100000F08AFF002802D002215BA001E0022142
:100920005AA0FFF703FF10BDF0B585B01422584957
:10093000684601F04BF807214AA0FFF7F7FE0B21AC
:100940004BA0FFF7F3FE3F4E00240C366D460A27FE
:10095000142060438119E81C091D01F06FF86846F6
:1009600001F058F8C0B22F54401CC1B26846FFF7DE
:10097000DDFE641CE4B2092CEAD305B0F0BDF8B585
:10098000304D00240E4607460C35142060434119B3
:100990003846091DFFF79AFF002806D0142044436B
:1009A0002A59314638469047F8BD641CE4B2092CF8
:1009B000EBD3082128A0FFF7B9FEF8BD70B50C46AF
:1009C000054634A1FFF782FF002805D0E41EE1B2FE
:1009D000E81CFFF7D4FF70BD08212FA0FFF7A6FE8B
:1009E00070BDF8B5184F00263C46C834154D20E0C0
:1009F000A978385C6054491CC9B2A970342900D365
:100A0000AE700A2801D00D280CD1A878012808D092
:100A100021182039CE77401EC1B20B48C830FFF7ED
:100A2000CDFFAE70E888C821401C80B200F0A4FF62
:100A3000E980A988E8888142DAD1F8BD0038014010
:100A40000C000020100000203003002004000020D3
:100A5000204E000008000020494E443A4552520AF8
:100A600000000000494E443A4F4B0A0000000020AD
:100A7000494E443A566572312E300A00494E443A86
:100A8000434F4E3D00000000310A0000300A0000D4
:100A9000D83C000841542B00494E443A4552520A72
:100AA0000000000010B5344CA088E188884210D0C6
:100AB00000F0BAFE00280DD0A188E0882F4A8142BC
:100AC0000AD9091AC9B2101802F078FEE18808188C
:100AD000E08010BDA088FBE7C821091AC9B2101830
:100AE00002F06CFEE188081880B2C82100F044FFD3
:100AF000E18010BDF8B500F072F9FFF7D3FF204E8A
:100B0000204F30781C4C204D022804D11F4800F0A3
:100B100023F940071BD42078002818D060780028DB
:100B200015D1012211461A4800F098FD134960784A
:100B3000C839095C401C6070154800F09FFD1548DD
:100B4000396800F019FF29684018134908603078A7
:100B5000022810D1A068296888420CD201210920FE
:100B6000C902C00600F005F90A48396800F004FF20
:100B700029684018A06060E71000002030030020C2
:100B800000000020040000200C000020000C0048A1
:100B900000380140204E00000800002030480021AD
:100BA000016041608160C1602E494161704710B5AC
:100BB00083792B490268002B26D00B6893430B6086
:100BC0004A6803689A434A600279521813680468B5
:100BD000234313608A6803689A438A60CA6803687B
:100BE0009A43CA604279102A05D051180A680068F1
:100BF00002430A6010BD8A6803681A438A60CA68A3
:100C000000680243CA6010BD007940180168914332
:100C1000016010BD0021016001710C2242718171DF
:100C200070470F490A6902430A6170470C4A01463E
:100C3000526900200A4200D00120704708494861EB
:100C40007047074B0246196800205B691140134248
:100C500002D0002900D00120704701494861704747
:100C600000040140FFFF1F00172110B5C9064018FE
:100C700011D001218902401A10D0401A11D08842A7
:100C800008D101218402204600F041FB00212046CA
:100C900000F03DFB10BD01214C04F4E701218C0460
:100CA000F1E70121CC04EEE7F0B5CC780022230770
:100CB0001B0FE40601D58C7823430C782406240E00
:100CC0001AD0046801250E8895402E40AE420FD1FF
:100CD00097000F26BE40B4431E46BE403443CE7834
:100CE000282E02D0482E02D002E0456100E00561C6
:100CF000521C082AE6D304600A88FF2A1CD94468DB
:100D00000022164608360125B5400E882E40AE4218
:100D10000ED197000F26BE40B4431E46BE4034435A
:100D2000CE78282E00D14561CE78482E00D10561BD
:100D3000521C082AE5D34460F0BD0021C94301805C
:100D4000022181700421C170704702469268002020
:100D50000A4200D001207047806880B27047024686
:100D6000D26800200A4200D001207047C06880B2DB
:100D700070470161704741617047002A01D00161ED
:100D8000704741617047C1607047012212040A43F5
:100D90008261816182618169806970474B0710B50A
:100DA000DB0E9A40CC080F219940002C06D0436AF4
:100DB0008B434362416A1143416210BD036A8B4316
:100DC0000362016A1143016210BD00000C49086012
:100DD00070470B4948607047094988607047084967
:100DE0000848086070470649074808607047044A89
:100DF0000146D26800200A4200D00120704700005E
:100E000000300040AAAA0000CCCC000025490843CD
:100E10002549C860704770B5C2780F230125234E5D
:100E20000178002A1AD0204AD468520D1440121BAF
:100E3000120A0424A41AD3404278A240847889007C
:100E40001C4014431A4B2201C9180A600178CA06D3
:100E5000D20E954049098900891907E0CA06D20EC9
:100E60009540124A49098900803289180D6000783E
:100E7000400980008019006870BD70470A4A002947
:100E8000116901D0014300E08143116170470422E0
:100E900008490428086902D090430861704710434C
:100EA000FBE700000000FA0500ED00E000E100E0D3
:100EB00000E400E000E000E010B501210C0720464E
:100EC00000F061FA0021204600F05DFA10BD2A49C9
:100ED0008A150028086801D0104300E0904308609C
:100EE0007047254910220128086802D09043086005
:100EF00070471043FBE7204A11680F235B029943B8
:100F00000143116070471C498A150028486801D0C8
:100F1000104300E0904348607047174B1A689208EE
:100F2000920002431A601548026904231A430261C1
:100F3000012901D020BF704730BF70470E480268BA
:100F400004210A430260026802231A4302600B482C
:100F500002690A43026130BF7047074A014652687E
:100F600000200A4200D00120704703490A6880002F
:100F700002430A60704700000070004000ED00E08E
:100F8000F74801680122114301604168F54A1140A8
:100F900041600168F44A1140016001680122920435
:100FA0009143016041687F22120491434160002116
:100FB0008160704710B5EA490B680122120493431F
:100FC0000B600B689400A3430B60801A09D00322C6
:100FD0001204904204D108680522120410430860EC
:100FE00010BD0868FAE7034600205909DC4A0129C8
:100FF0000AD002290AD0516ADA06D20E01239340A0
:101000000B4200D0012070471168F5E7116AF3E741
:1010100018B500200524240200903120FFF7E3FFDB
:101020000099491C0091002801D1A142F5D131203D
:10103000FFF7D9FF002800D0012018BDC84A116869
:10104000F8239943C000084310607047C449012841
:10105000086803D040084000086070470122104330
:10106000FAE710B5BE4B1868C04C8906120520403F
:1010700011430143196010BD30B50546B8480C4610
:1010800041683F221204914329434160002C7CD0E7
:1010900001208004844204D1012205212846FFF763
:1010A000E0FF0120C004844204D101220721284628
:1010B000FFF7D7FF03208004844204D101220921D5
:1010C0002846FFF7CEFF01200005844204D101220B
:1010D0000B212846FFF7C5FF05208004844204D178
:1010E00001220D212846FFF7BCFF0320C0048442E3
:1010F00004D101220F212846FFF7B3FF0720800407
:10110000844204D1012211212846FFF7AAFF0120C1
:101110004005844204D1012213212846FFF7A1FF94
:1011200009208004844204D1012215212846FFF7BA
:1011300098FF0520C004844204D1012217212846CB
:10114000FFF78FFF0B208004844204D10122192174
:101150002846FFF786FF03200005844204D10122C0
:101160001B212846FFF77DFF0D208004844204D117
:1011700001221D212846FFF774FF0720C004844286
:1011800006D101221F21284600E002E0FFF769FF97
:1011900030BD03220721F6E701227149120600281B
:1011A000086801D0104300E09043086070476C4A23
:1011B0005168890889000143516070476848406858
:1011C0000C2108407047664A5168F0239943014357
:1011D00051607047624A516807231B0299430143DB
:1011E000516070475E4A51680723DB029943C00093
:1011F0000843506070475A4A00020029916801D0A4
:10120000014300E081439160704755494A680243B9
:101210004A607047524A516803239B039943014334
:10122000516070474E490A6A520852000A620A6ABF
:10123000520852000A62012806D0042803D1086A25
:101240000522104308627047086A0122F9E7444901
:101250000028486A02D00122104301E04008400003
:10126000486270473E490A6A02430A627047012297
:101270003B49D2030028086A01D0104300E09043A4
:101280000862704770B5364D044668680C21084006
:10129000374903D0042801D0082801D0216017E085
:1012A00028682968800E49026A68490F01231B04D7
:1012B000401C491C1A4201D12E4A05E06A6892037B
:1012C00001D52D4A00E02A4A504300F055FB20602A
:1012D00068682A490006000F0A5C2068D0406060F8
:1012E0006A685205520F8A5C0346D340A3606A685D
:1012F0009204520F895CC840E06069681F4A090483
:10130000890F121F515C00F037FB206170BD30B5B2
:10131000134B5A690F25D4096D042C40D2B22243D5
:10132000002902D01043586130BD82435A6130BD5C
:101330000B4A0029916901D0014300E0814391618A
:101340007047074A0029D16901D0014300E0814379
:10135000D1617047024A0029D16811D0014310E0E1
:10136000001002400000FFF8FFFFF6FEFFFF8F03B2
:1013700000127A00001BB70000093D00D4000020D5
:101380008143D1607047174A0029116901D0014398
:1013900000E081431161704701221249D204012803
:1013A000086802D09043086070471043FBE70D497E
:1013B0004A68000602434A6070470A48416A0122AF
:1013C0001206114341627047064A014692680020A6
:1013D0000A4200D00120704702498A680004024393
:1013E0008A60704700100240564910B5C84208D1C3
:1013F000841401212046FFF7ADFF00212046FFF7AE
:10140000A9FF10BD30B5038B0F22120313404A8889
:101410004C8922430C881C4322430283838B3F2246
:10142000D24313408A88CC890D892243CC882C432F
:1014300022431A4310231A438283028C8989018430
:1014400030BD00210180418008228280C1800122BC
:101450000281418102228281C18170470029018B72
:1014600002D00122114301E049084900018370477D
:101470000223002A06D0028B1A430283028A0A43FF
:1014800002827047028A8A430282018B9943018358
:101490007047002A028B01D00A4300E08A4302838E
:1014A0007047002A028B01D00A4300E08A4302837E
:1014B000704701607047406880B27047002A028D13
:1014C00001D00A4001E0C9430A4302857047028BFC
:1014D0001D4B1A400283028B0A430283704710B5EA
:1014E0000822082910D01024102910D0174B994237
:1014F00002D1038B93430383144A083A914202D1E9
:10150000018BA143018310BD018B1143FAE7018BCD
:101510002143F7E70246128900200A4200D0012049
:1015200070470246928900200A4200D0012070478D
:10153000828A0A438282704781847047828B0A4381
:101540008283704700D0FEBFFFFC0000F7FF000061
:10155000154801688907890F016000218160C16019
:10156000016141617047104A11688908890001438F
:10157000116070470C4A0029116801D0014300E056
:101580008143116070478A0710B5120F0F239340F3
:101590008C080549A40061188C689C438C608B689A
:1015A000904003438B6010BD000001403F4910B5DF
:1015B000C84208D101218C032046FFF7CBFE002151
:1015C0002046FFF7C7FE10BD30B50446C06985B0A0
:1015D0000D46CF218843A988EA8811432A8902430E
:1015E0001143E161A0696A894109A8894901104351
:1015F0000843A0616846FFF745FE2C4840428442FC
:1016000001D1039800E002980A225043000929689A
:1016100000F0B2F905460A2100F0AEF9042900D91C
:101620000A350A21284600F0A7F9206205B030BD2E
:101630004B21C9010160302181800021C1800181DD
:1016400018224281818170470029816902D00122DC
:10165000114301E0164A114081617047002A026976
:1016600001D00A4300E08A4302617047002A826980
:1016700001D00A4300E08A4382617047C9B2016029
:1016800070474068C0B270470246926800200A4224
:1016900000D00120704770470246D26800200A42FD
:1016A00000D00120704741617047000000C8FEBFB4
:1016B000FEFF00000A2101706848704770B50C46B3
:1016C0000A4605460146654800F080F9214628464D
:1016D00001F08EFA70BD092070477CB50524069B89
:1016E000E4020225A34201D1012A0BD0A34211D169
:1016F000072A0FD85AA109680F22019101AB009562
:1017000007210FE057A109680622019101AB00955E
:10171000012107E0A34208D1102A06D81021524B1C
:101720001922009100F0A0FF7CBD00F0DDFE7CBD21
:1017300070B50D4604990446122A19D0132A17D001
:10174000152A12D0182A03D0294600F0CDFE70BD0C
:10175000184600F07CF900024449000A086020465F
:1017600002F040FAFEF71EFE70BD1846FEF7DEFFDF
:10177000204602F037FA70BD70477047FEB50C4640
:1017800005460A206946354B164608700F2C27D0AF
:1017900006DC042C10D0092C10D00B2C06D115E03F
:1017A000132C21D0182C25D0192C2FD022462946B5
:1017B000304600F099FEFEBD00902AE001F06AFA82
:1017C00000F028F9C7B201F065FA06E000F052FA1D
:1017D00000F020F9C7B200F04DFA0346009718E078
:1017E000072023A3009014E000200290022002AB07
:1017F00000900EE01D486A46006801AB010C1171B3
:10180000010A517190710320009002E008201AA390
:10181000009022462946304600F0FEFEFEBD002024
:101820007047704712A070470C48401E0078704700
:1018300010B504000DD00020FEF7C9FD0748401E7A
:1018400001788C4209D004700E48002C03D001218D
:1018500002E00120F0E70221017010BDE500002048
:101860000A18000000180000463D0008040000208F
:101870005356322E312E32004261756452617465C6
:1018800000000000000000201448006870470EB5FA
:1018900001204005401EFDD2FEF7AEFD1049032099
:1018A00000F042F80D49432001F06CFB0D48FEF7B3
:1018B0000AFD0A4800680378427881780293019211
:1018C0000091C3780279417907A000F029FAFF203E
:1018D000413001F063F800200EBD0000F40000204C
:1018E000E2040000003801400D0A4D41433A253022
:1018F00032782D253032782D253032782D25303232
:10190000782D253032782D253032780010B5012021
:10191000FFF76DFA0028FAD110BD10B50220FFF7CD
:1019200066FA0028FAD110BD70B504460D460120B4
:10193000FFF78DFC6120FFF756FB0028FAD0FFF778
:10194000E5FF0C4E3046FFF741FAE0B2FFF741FAEF
:10195000FFF7E3FF3046FFF739FA2805000DFFF7E0
:101960003BFAFFF73CFAFFF73EFA70BD10B5FFF700
:1019700036FA10BD5555000030B50B460146002023
:101980002022012409E00D46D5409D4205D31D4685
:101990009540491B2546954040191546521E002D7D
:1019A000F1DC30BD70B500242546002801DA0124A1
:1019B0004042002901DA01254942FFF7DDFFAC4230
:1019C00000D04042002C00D0494270BD03460B437A
:1019D0009B0703D009E008C9121F08C0042AFAD2E5
:1019E00003E00B780370401C491C521EF9D270476B
:1019F000D2B201E00270401C491EFBD270470022A7
:101A0000F6E710B513460A4604461946FFF7F0FFFD
:101A1000204610BD421C0178401C0029FBD1801AD1
:101A2000704730B504460020034600E05B1C93423B
:101A300003D2E05CCD5C401BF8D030BD03460A7891
:101A40000270401C491C002AF9D118467047032136
:101A5000001D401E037812021A43491EF9D5104694
:101A60007047F0B51FB40646002082B005464024FA
:101A7000019100901BE0019922460F46304600F08C
:101A800043F8049A059B801A994110D310461946D1
:101A9000224600F029F8361A8F410197224601208C
:101AA0000021009F00F020F838184D41009020469A
:101AB000641E0028DFDC019B00982946324607B0EF
:101AC000F0BD0000064C0125064E05E0E36807CC9A
:101AD0002B430C3C98471034B442F7D3FEF7ECFA92
:101AE000C43D0008E43D000810B5202A04DB01468F
:101AF000203A9140002010BD914020239C1A0346BB
:101B0000E3401943904010BD10B5202A04DB08467D
:101B1000203AD040002110BD0B46D340D0402024B5
:101B2000A21A91400843194610BD70B58C1805786B
:101B3000401C6B075B0F01D10378401C2A1106D1B2
:101B40000278401C03E006780E70401C491C5B1EA6
:101B5000F9D12B0705D40023521E0DD40B70491C5C
:101B6000FAE70378401CCB1A921C03E01D780D7035
:101B7000491C5B1C521EF9D5A142D8D3002070BD70
:101B800010B50A4CE07800280CD0FEF745FDA1699D
:101B9000884208D3401A01218902884203D20020DA
:101BA000E070012010BD002010BD00007401002075
:101BB00070B5114C0025216A4A78002A07D049895E
:101BC000A28A914203D100F017FC206A4570E169B6
:101BD000487900280ED0C888A28A90420AD10648C7
:101BE000E67905223030FFF7F1FE01F009FEE069E9
:101BF0004571E67170BD00001802002010B5034960
:101C00000A6A496A5043FFF7B7FE10BD740100200D
:101C100010B504490446CA69496A5043FFF7C2FE39
:101C2000001910BD7401002013B56A461278132004
:101C30000240094802706A4654784470002C03D070
:101C40002246801CFFF7C2FE0349A41C0846E2B2EC
:101C5000083801F0B5F81CBDD80100200148007813
:101C6000704700007401002001484079704700006F
:101C70007401002007480849007802093032000743
:101C8000000F8A70092801D8303000E03730C87062
:101C90000148704770010020FE00002010B5074C7D
:101CA0002079002808D0FEF7B7FCA169884203D349
:101CB00000202071012010BD002010BD0C0100206B
:101CC0000149487070470000BC010020014948618B
:101CD000704700000C01002010B5FEF72BFCFEF74A
:101CE0009BFC0349283088610120C87010BD0000AA
:101CF0007401002070B50446034D01202871FEF7E1
:101D00008BFC0019A86170BD0C0100200521C001E9
:101D10000902401801494860704700000002002095
:101D20000FB410B503A9044B044A029800F024F83C
:101D300010BC08BC04B018474D060008540200202F
:101D400030B47446641E2578641CAB4200D21D4634
:101D5000635D5B00E31830BC184702E008C8121F3F
:101D600008C1002AFAD170477047002001E001C184
:101D7000121F002AFBD17047FFB591B00F460546F0
:101D8000002606E025280AD0149A139990476D1C66
:101D9000761C28780028F5D1304615B0F0BD002417
:101DA00000940121F34A029400E004436D1C2B7857
:101DB0000846203B98401042F7D128782A280ED0B8
:101DC000022128780246303A092A15D8009A0A23B7
:101DD0005A43303A80180C436D1C0090F1E701CF54
:101DE0000090002805DA0120400304430098404297
:101DF0000090022004436D1C28782E2815D1042061
:101E0000044368786D1C2A280AD101CF6D1C02900A
:101E10000BE002990A225143303940186D1C0290A0
:101E20002878014630390929F3D928786C2810D050
:101E300006DC4C281AD068280ED06A2817D104E096
:101E4000742813D07A2812D110E0012040050443F1
:101E50000CE00121090501E0032109050C43697823
:101E6000814203D10120000524186D1C6D1C2878C7
:101E700003906E281ED00CDC632831D004DC0028CF
:101E80008AD0582811D1B2E064287BD069280CD1BF
:101E900078E073282DD004DC6F2870D0702804D12E
:101EA000A7E075286CD078286BD0149A13999047C6
:101EB000761C62E06002400F022807D003280AD097
:101EC000042838680AD006603F1D56E03868F117CC
:101ED00006604160F8E738680680F5E70670F3E7CA
:101EE0003878694608740020487404A803900120DB
:101EF00003E0386803900020C0433F1D61070FD501
:101F0000002101E00199491C029A0191914213DAE2
:101F10008142F7DB019A0399895C0029F2D10BE039
:101F2000002101E00199491C01918142FADB019AEB
:101F30000399895C0029F5D101990098139A401AF8
:101F400000902146149B00F03BF901998019461836
:101F500007E0039803990078491C0391149A139998
:101F600090470198401E0190401CF2D12146149BDD
:101F7000139A009800F014F986196D1C09E741E0E6
:101F800033E034E00A200021049005916002410F03
:101F9000022905D001CFC2179446032905D007E0D6
:101FA000FF1DFF08FF0003CF06E000B2C2179446F2
:101FB000042902D140B2C1178C46002261469445E3
:101FC00006DA0A460021404291418C462D2102E06A
:101FD000210504D52B216A461176012103E0E10792
:101FE00001D02021F7E7019154E00A200BE01020F6
:101FF00009E01020049000210420044308200591EA
:10200000029003E008200021059104906002410F36
:10201000022905D001CF00229446032906D006E00C
:10202000FF1DFF08FF0003CF8C4603E080B20429A8
:1020300000D1C0B20021019121072BD5039970294D
:1020400006D0049A1021059B4A401A4305D00EE0A1
:1020500040216A461176012108E06146014306D01D
:1020600030216A4611760399517602210191049A32
:102070000821059B4A401A430CD16146014301D116
:10208000610707D530216A46117601210191029935
:10209000491E02910399582904D037A103910FA931
:1020A0000F910DE039A1F9E76146059B049AFFF70E
:1020B000D8FC039B8C469B5C0F9A521E0F921370A8
:1020C00061460143F0D10F9807A9081A2030039008
:1020D000600704D5012000048443029801E0012038
:1020E00002900399884201DD401A00E00020411867
:1020F0000290019809180098401A0090E00306D455
:102100002146149B139A009800F05AF88619002073
:10211000049008E006A9085C149A13999047049863
:10212000401C761C049001998842F3DBE0030CD537
:102130002146149B139A009800F042F8861904E097
:10214000149A302013999047761C0299481E0290E9
:102150000029F5DC08E00F980F990078491C0F91D1
:10216000149A13999047761C0399481E03900029EE
:10217000F1DCFBE6092801003031323334353637E3
:1021800038396162636465660000000030313233C3
:102190003435363738394142434445460000000063
:1021A000F8B5044600251E461746880404D405E009
:1021B00039462020B0476D1C641EF9D52846F8BD6D
:1021C000FFB50446002581B01E46C80301D530275F
:1021D00000E02027880404D505E038460399B0477D
:1021E0006D1C641EF9D5284605B0F0BD090710B571
:1021F000090FC00705D0032902D1022000F0B4FF67
:1022000010BD05488078002802D0FFF765FD10BD9D
:1022100001F01CF810BD000074010020F8B507465D
:10222000204C0020A070087816460007000F0D46CD
:10223000032802D0052822D117E041204001381898
:10224000E06300F0BDFF17486946C0890880009828
:1022500000F056FF217A206B00F05EFF207A01210A
:10226000C001C9024018A06311E0002E07D0284623
:1022700006220D490830FFF7D4FB002802D000F0F9
:10228000E5FF04E032462946384600F053FB532070
:1022900000F010FD0549042000F035FD562000F047
:1022A00009FDF8BD74010020540100201B0200202C
:1022B00070B5284C6279002A1FD02278521C2270F7
:1022C0002279002A01D028222270A2780025002A33
:1022D00008D06269891A2269801A00F0EBFA6570E9
:1022E000A57065812078272815D800F01CFF0020F4
:1022F000FFF7ECFC00F0B7FF70BD512000F0DAFCF6
:102300007821202000F02BFD562000F0D3FC0A207D
:10231000FFF7DCFC70BD25202070606BFFF778FCB8
:10232000A16A4618606B8009FFF7D0FC304600F0C8
:102330007EFF207800F0F7FEA079401CC0B2A071AB
:10234000142802D3A57100F052FD6089401C608101
:1023500070BD00007401002010B5084925200870E8
:1023600000F0E1FE962000F039FF002000F0F1FEC1
:1023700000F079FF002001F01DFA10BD740100206B
:1023800010B5012000F0F0FE0448C16B806B081806
:1023900025218901401800F013FF10BD74010020B1
:1023A00070B5144C0646A0620D46022000F0DCFE1B
:1023B000472080012818E06300F002FFE179E06A1D
:1023C00000F0AAFEE06800F09BFEE0790121C00168
:1023D000C9024018A063207825280AD126616561CA
:1023E00060890F2802D26078002802D00120607036
:1023F000A07070BD7401002070B50F4C0546206AB6
:10240000017861724088E08150214843FFF700FC69
:10241000401900F00CFF206A8188218200896082C7
:102420000C2905D2054800F0D9FE0120207170BDAD
:10243000034800F0D3FE70BD180200201711000001
:10244000BD1F000070B5044600781C4D4006C00F4B
:10245000687128460622A11C3530FFF7B7FA0E3402
:102460002846042221462C30FFF7B0FA28460322E2
:10247000211D1630FFF7AAFAE0796872617A207A96
:1024800009024018E881E17AA07A090240182882FE
:10249000E17BA07B0902401880B26882C82801D283
:1024A000C820688205482146052210313030FFF7E8
:1024B0008DFA607DC006C00EA87270BD18020020A3
:1024C0000EB507A106C980070091800F01926946E9
:1024D000087207204872029800F021F80EBD000033
:1024E00003000400031700001FB58007800F6B4630
:1024F00018730920587305201870002058700424A0
:102500009C70D870012018715971100AD8719A7195
:102510000A2018721946039800F001F81FBD10B583
:10252000FFF782FB10BDFFB587B01E466F46109BBC
:10253000119A054638710920787105200C463872C9
:10254000002179720420B872F972601C387301207E
:102550007873B973F8730520C0023974834213D1BC
:1025600005A8009006AB31460998FFF758F90028F6
:102570000AD06946088B4873888AC87302A90198F3
:10258000FFF7CDFF0BB0F0BD21462846099AFFF7B3
:10259000ABFFF7E7FFB587B0079817468007800FB6
:1025A0006A4610700A205070002050710621117187
:1025B000D0710421917105211172012151721E46C1
:1025C000D0720446134D1AE020460A2148434119AF
:1025D0004988B94211D3B1420FD80A214C4361193D
:1025E00089786A469172285A1073000A507301A9BB
:1025F0000098FFF794FF0BB0F0BD641CE4B2FFF746
:102600006AF8A042E0D83A4608990798FFF76CFFAD
:10261000F1E70000EC3C0008F0B589B00E46074633
:102620001D461C2101A80E9CFFF7E9F9B807800F91
:1026300069460870601D4870601C0871000A487186
:10264000042088710020C871761C0E7201A904E074
:102650002A5C0B18401C5A71C0B2A042F8D30098F3
:10266000FFF75DFF09B0F0BDF0B589B084460024E6
:1026700068460E9D0471447104268671C47111264A
:1026800006722E1D46728172C472027344730A2050
:1026900001AF002105E05A5C3A54401C491CC0B20D
:1026A000C9B2A942F7D3011F6A4611716146890771
:1026B000890F1170507039460098FFF730FF09B04C
:1026C000F0BD0000FFB589B0099815218507129E5D
:1026D0004902AD0F1F468E4221D16846FEF7EAFF40
:1026E000014668460571002343710078801CC2B220
:1026F000122A00D91222941C6D462C72200A68728C
:102700000426AE72EB72092028736A73AE73EB7302
:1027100004A8921EFFF75AF9241D6C713FE061482E
:1027200086423ED10B9807283BD15F4800780028AD
:1027300037D06B461D71172119720021597204217F
:1027400099720021D9720921072019735873082042
:1027500098730020D873022018745974002199745A
:102760002921D9742A2119750A225A7500249C75C9
:10277000D8750B251D7600255D7626259D760E22C3
:10278000D9761A7700225A7798770F24DC7708AB2E
:102790001A702820587099701B206B46587102A936
:1027A0006FE0FF2F00D9FF27002471E020460A21A7
:1027B00048433E490A5AB24268D1411848880B9AA8
:1027C000904263D3B84261D8364A521E964223D112
:1027D0000A226E463272002373720422B272F372BE
:1027E00009223273082272730A2254432F4AA21814
:1027F0009278B273000AF073002002AA0B18141822
:10280000401C1B79C0B223720528F7D3487A707533
:1028100035710E20707133E009266F463E72002339
:102820007B720422BA72FB723E7307227A730A2209
:1028300054431E4AA2189278BA73000AF8731846D5
:1028400002AA0B181418401C1B79C0B22372052869
:10285000F7D33D710D207871497AFF2910D0144BC0
:1028600000200901C9180B5C1418401CC0B2E372A7
:102870001028F8D31B207871172038721520787330
:1028800011460198FFF74BFE0DB0F0BD641CE4B299
:10289000FEF721FFA04289D809AB07CBFFF724FE42
:1028A000F2E7000003280000F8000020EC3C0008DC
:1028B000463D0008000209024B22000A090AD20024
:1028C00090420ADB7D22D200914206DBFA2242438B
:1028D000531A024AD361516210627047740100209A
:1028E00010B5FDF73AFE00F0B1FC10BD7FB5282110
:1028F000484307490A9D099C6E464863B088888111
:10290000CA62CB710846328CC2810C630D727FBDE6
:102910007401002003490248086040680047000035
:10292000883D0008FC010020014800787047000045
:102930000002002070B508460E4B0D491960114683
:10294000FFF780FD012000F01BF80B4901220878F9
:102950001043FD22104008700848FFF7CBF9064DE0
:102960000024083D2C7300F071FC6C7070BD0000F9
:10297000A83D0008FC01002020020020B80B000048
:1029800001490870704700000002002010B5FFF7F1
:10299000CBFF002801D000F023FD10BDFEB57E4C1A
:1029A000A17803290BD0012974D0022901D1032178
:1029B000A170608101F02BF9A07800286AD1774FCF
:1029C00000203D466071764E70350AE0607902283D
:1029D00007D16069002804D0A078002801D1FDF754
:1029E000C3FD3068007800280ED1A078002805D1FA
:1029F000FFF7C6F8002801D0FFF772FFFFF734F9A0
:102A0000002801D1FEF776F8FDF76DFD002870D0A3
:102A10006148401D00F05AFB607900F0E2F921693D
:102A200060797854491C2161322901DB0021216140
:102A30002269FF21B954C1070ED0694601A800F0F0
:102A40001FFA584800990160574A0198106032688F
:102A500092689047002015E0810715D5694601A8C6
:102A600000F00EFA30680099826901989047FFF7EC
:102A7000F5F8252803D030680078012801D1FEF749
:102A800039F80120E07077E0C10604D5306840696C
:102A9000804771E07EE001062CD53068434900781C
:102AA000002813D0012000F007FA6978287809027D
:102AB000401881B23068C2680120904760794106B1
:102AC00010D5694601A800F0DBF928E0002000F0ED
:102AD000F3F9697828780902401881B23068C26831
:102AE000012026E0800647D5694601A800F0C8F914
:102AF00035E049E0410616D5694601A800F0C0F965
:102B00003068007800280AD128780007000F0528CF
:102B100005D1214A2549921D002000F0E1F93068D5
:102B20006A78036924E0410705D530680021C2684E
:102B30000846904720E0010703D50020FFF720FF5B
:102B400018E0800616D5694601A800F099F93068AA
:102B5000017800290AD01549012000F0ADF930684C
:102B60006A78036900210098984705E0036900220C
:102B70000E49F8E700F06AFBA078002800D125E7AD
:102B80006079802806D121E7A0780028F7D0607905
:102B90000028F4D1FEBD00000C0100202C04002010
:102BA000FC010020080200200C0200209C040020F0
:102BB00010B50A4C00280FD0607900280DD15120A3
:102BC00000F078F87A21202000F0C9F8562000F0B3
:102BD00071F800F048FB0120607110BD7401002005
:102BE00010B50249488101F02DF810BD0C010020FC
:102BF00030B5182900D918210A4B4A1C1A70002236
:102C000004E0845C9D18521CAC70D2B28A42F8D3A6
:102C1000002003E05A18491C9070C9B21929F9D351
:102C200030BD00003901002070B50D46124A014642
:102C30001078002809D0401E107000265670506889
:102C4000092806D0401C506005E00120507000208B
:102C500070BD304656600C22084B4243D4184201E6
:102C60008018074A80182A462060FEF7AFFE2571BB
:102C70002046A66070BD0000B40100201C060020A4
:102C8000D004002010B500F0C4FA0020FFF73EF891
:102C900010BD000000A070474D475F424C455F4C9F
:102CA00049425F56312E30000148007870470000DD
:102CB000B401002010B50446FDF707FC01215020A7
:102CC000FDF7F8FB01212046FDF7F4FBFDF704FCBE
:102CD00010BDF8B515460E460446FDF7F6FB01217A
:102CE0002046FDF7E7FB0746002406E00021FF2011
:102CF000FDF7E0FB3055641CE4B2AC42F6D3FDF7BF
:102D0000EBFB3846F8BD70B50C460546FDF7DDFB1C
:102D100001212846FDF7CEFB0021FF20FDF7CAFB6D
:102D20002070FDF7D9FB70BDF8B516460D46044678
:102D3000FDF7CBFB202020430121FDF7BBFB002446
:102D400007E0287801216D1CFDF7B4FB641C0746E1
:102D5000E4B2B442F5D3FDF7BFFB3846F8BD70B519
:102D60000D460446FDF7B1FB202020430121FDF76D
:102D7000A1FB01212846FDF79DFBFDF7ADFB70BDD2
:102D80000168002902D14068002801D00020704766
:102D90000120704700210160416002490A2008704B
:102DA00070470000B40100200268136812790A70AD
:102DB000016889680160002900D1416018467047A8
:102DC00010B50B46044611461846FFF72DFF0028A4
:102DD00006D06168002901D0886000E02060606052
:102DE00010BD10B501460E20FFF7B9FF10BD1CB590
:102DF0005320FFF75FFF03211F20FFF7B0FF01A95A
:102E00001F20FFF780FF684600790028F7D10321D3
:102E10001F20FFF7A4FF01A91F20FFF774FF6846DA
:102E200000790028F7D101211520FFF798FFA02194
:102E30001220FFF794FF04210A20FFF790FF0021E2
:102E40000A20FFF78CFF88211220FFF788FF01245A
:102E500069460C702120487002221320FFF764FF9E
:102E600069460C702020487002221320FFF75CFF97
:102E700000211520FFF773FF5620FFF71BFF1CBD35
:102E80007CB50D460446062269461020FFF721FF57
:102E9000694648790B7902041802C978101840185D
:102EA000694620608878497800040902401869461C
:102EB0000978401828607CBD1CB50C4600280BD052
:102EC000022269460620FFF704FF6846007820705A
:102ED0006846407860701CBD022269460420F2E713
:102EE0007CB515460C46002809D06278901C2870E5
:102EF000002A03D0A11C6120FFF7EBFE7CBD02225B
:102F000069460420FFF7E5FE68464078801C28707B
:102F1000684600782070684640786070684600789F
:102F200025460107090F6846407808350B00FEF773
:102F300007FF0605080513041904DFE70622A11C94
:102F400008E00C28DAD10622A11C0A20FFF7C1FEF6
:102F5000062229460B20CFE70C28CFD1062229468E
:102F60000A20C9E72228C9D10622A11C0B20FFF79D
:102F7000B0FE062229460A20FFF7ABFE16222146A4
:102F80000E31B8E77CB505460024684604714D480B
:102F900008605120FFF78EFE01A91F20FFF7B3FE46
:102FA000684601798029F7D147491E20FFF7ABFE1B
:102FB00078210020FFF7D3FE06210846FFF7CFFE59
:102FC0007A210020FFF7CBFE5120FFF773FE53203C
:102FD000FFF770FE02210120FFF7C1FE1E211D2018
:102FE000FFF7BDFE284600F0E0F800A908200131F7
:102FF000FFF789FE68464078334D002807D12878CE
:103000001B2801D2152000E0112069464870C0201D
:10301000694608702D20887003220420FFF784FE83
:1030200069460C704C7002220C20FFF77DFE287858
:103030008024192844D01C20694608704C70022254
:103040001420FFF771FE10206946087002254D70AC
:103050002A460A20FFF768FE69460D701220487064
:1030600002220D20FFF760FE01206946087007204C
:10307000487002220E20FFF757FE032269460B20FC
:10308000FFF727FE40206946C87004220B20FFF797
:103090004BFE69460C7001220C20FFF745FE5120C3
:1030A000FFF708FEFFF7A3FEFF210E20FFF757FEF4
:1030B000062204490820FFF70CFE00F0C7F87CBD8B
:1030C000CC20B9E7540100207001002038B5044637
:1030D00069460E20FFF717FE68460178217038BD5B
:1030E0001CB501786A4611704178517081789170F1
:1030F000C078D070042269460C20FFF715FE1CBD75
:1031000001B582B06946087A0870487A4870022290
:103110000320FFF709FE0EBD0A4610B50146A020A8
:10312000FFF702FE10BD10B5282803D2014601208A
:10313000FFF715FE10BD1CB501786A461170417885
:10314000517080789070032269460D20FFF7ECFDE6
:103150001CBD1CB5FF216A461170507002226946E1
:103160000E20FFF7E1FD1CBD08B501280AD002289A
:103170000AD003280AD004280AD005280AD0062835
:103180000AD00CE0092008E00C2006E0012004E051
:10319000022002E0032000E004206946087068462F
:1031A00001780220FFF7DBFD08BD08B502216A4661
:1031B000117050700A4669460F20FFF7B5FD08BD33
:1031C0001CB56A461070010A5170000C9070032201
:1031D00069460720FFF7A8FD1CBD00001CB56A4624
:1031E0001070010A5170002191700549884201D97F
:1031F00001209070032269461120FFF795FD1CBD48
:10320000FFFF00000A4610B50146A020FFF78CFD25
:1032100010BD01B582B06946087A0222C006C00E10
:103220000870487A48700520FFF77EFD0EBD1CB57A
:1032300000216A4611705070010A9170000CD07024
:10324000042269460F20FFF76FFD1CBD1CB502204C
:1032500069460870FF2048708870C87004220F20EB
:10326000FFF762FD1CBD10B501210F20FFF777FDB0
:1032700010BD000038B5054600230C4610460093EB
:10328000FFF77EFD002802D02B70237038BD694601
:103290001046FFF789FD0146684602782846FEF78A
:1032A00095FB68460078207002480178491C01703F
:1032B00038BD0000B401002010B505480349816005
:1032C000002141701430FFF765FD10BDA43D0008DA
:1032D000BC0100207047000000B587B0182207A18C
:1032E0006846FEF773FB0B480321017018214170FB
:1032F00000686946FEF798FC07B000BD1010002872
:103300000001002C011820000300FFFFFFFFFFFF5A
:10331000FFFFFFFF640100201CB500228C070C4951
:103320000092A40F01920C7006244C7002236C468C
:10333000237062700279A2704079E0700D202071D4
:103340001A20607108686946FEF76EFC1CBD00001B
:10335000640100200EB507A007C86B4607C30848E4
:10336000032101700921417000686946FEF75CFC89
:103370000EBD000009020000000000000000000077
:10338000640100201CB500228C070C490092A40F98
:1033900001920C7006244C7002236C4623706270FC
:1033A0000279A2704079E0700520207137206071A9
:1033B00008686946FEF738FC1CBD00006401002067
:1033C00010B589070548890F017000214170006818
:1033D000FFF758FC0020FFF7D3FA10BD640100206E
:1033E00008B508A000680090074803210170022179
:1033F000417000686946FEF717FC0020FFF7C0FA2D
:1034000008BD0000020A00006401002008B507A101
:1034100009680091064903220A7002224A706A462E
:10342000507008686946FEF7FFFB08BD0700000002
:10343000640100201CB507A005C800908907074853
:10344000890F019201700621417000686946FEF7FC
:10345000EBFB1CBD0C0759004F200000640100204D
:10346000FEB5164C01A92246083A2046FFF702FF96
:103470006846007901262546002804D12E70687020
:1034800002206946087121780C4F132001401C3F2F
:1034900078780423C24352081A4040071143C00FF2
:1034A000C00001436A46117060785070A11C0098FA
:1034B00000F0B9FB2E7000207870FEBDD80100200E
:1034C000FEB50D46002102911D2D00D91D25014696
:1034D0002A468948FEF77AFA8848874C0570207892
:1034E00086498207920F8870012A19D0032A1CD0BE
:1034F000022A19D1637922791B02A579D218062AEA
:1035000050D00A460C32102D7FD052DCAE1E330054
:10351000FEF716FC0993599859D5596259A95900D3
:10352000022D01D3FEF77DF9FEBDA1780B00FEF759
:1035300007FC120B0F1E233535350A283535352D7E
:103540000A35320A0A35EFE7E01C00F0D9F8FEBD73
:1035500001466948FFF7BEFE617A207A09024018E9
:103560006946088102A9E01C00F000F9FEBD014691
:103570006148FFF725FFFEBD01465F48FFF7CCFE1F
:10358000FEBD01465C48FFF7E5FEFEBD01465A4818
:10359000FFF750FFFEBDFFF79FFEFEBD0846FFF799
:1035A00035FFFEBD012DFCD101465348FFF7EAFE71
:1035B000FEBD514B0933122D61D0162D72D0182D3E
:1035C00079D0522D5BD0227AE179120289188AB221
:1035D0002946FEF789FFFEBD237AE1791B02C9184F
:1035E0008EB21680A37A617A1B02C9188BB25380FF
:1035F000E17A247B2402091989B291800091324634
:103600002946FFF75FF8FEBDFFE7237AE1791B0249
:10361000C9188EB21680A37A617A1B02C9188BB2C0
:103620005380E17A247B2402091989B291800091A8
:1036300032462946FEF751F8E5E700222946FEF713
:103640003FFFE0E7237AE1791B02C91889B21180B4
:10365000637AA47A24021B199BB253800A46294636
:10366000FEF798FFCFE7237AE2791B02D21893B2D4
:103670008B80024619462846FEF780F8C3E7E278B9
:10368000A6781202D21EB218D6B2E279247A2402A7
:10369000121992B28A8029460096FEF749F8B2E7DD
:1036A00000E008E0227AE07912028018888012484F
:1036B00000F075FAA7E7104800F034FAA3E7237A80
:1036C000E1791B02C91889B21180A67A637A3602A1
:1036D0009B199BB25380267BE27A36029219667B55
:1036E000A47B92B2240234190092A4B20A46019437
:1036F0002946FEF718FF86E794060020BC0100204B
:1037000010B519490122096A4A7002780A70837853
:1037100042781B02D2184A800379C2781B02D21861
:1037200092B28A808479437924021B19CB80047A6F
:10373000C37924021B199BB20B81447A807A000260
:103740002018401C4881C82B01D8C820088190004F
:1037500010180B898008984204D905208003424341
:10376000100C088110BD00001802002010B5064C96
:103770000346E0690988C18005221946FEF726F94B
:10378000E1690120487110BD1802002010B5FEF754
:1037900085FA002803D106484078282806D9002059
:1037A000FFF7EEF8FFF752FD012010BD002010BD1D
:1037B0001802002010B5FEF79DFA10BDF8B50C46B2
:1037C0000746002614E0142C01D9142500E02546F4
:1037D000FFF76AFA03280FD3084800950288BB193F
:1037E0001B21022000F0AFF97019C6B2601BC4B2F1
:1037F000002C01D0002FE6D13046F8BDF0000020AB
:10380000F0B50C4B00201C46D87130340A4AD872EF
:103810000125C1084607615C760F2F46B740394243
:1038200003D0D97A5054491CD972401CC0B2252803
:10383000EFD3F0BD18020020BE06002010B5C0076F
:1038400006D10448FD22017811400170FFF7FEFC0B
:1038500010BD000020020020F8B5064615460C46B3
:103860002948FEF747FA29480222017811430170DE
:10387000FCF7B2FE254F0020083FB870002C2CD07A
:103880000120C00261783018B862FFF799FCE801A6
:103890000121301A8902401A78622078FEF710FA66
:1038A00021780822387B114081422AD101213970C8
:1038B000504038731648006800688047FCF792FE55
:1038C000002078705320FFF7F5F9F91C0420FFF76A
:1038D0001AFA5620FFF7EEF9F8BD41204001052104
:1038E0003018C9014018B862FFF76AFC1B2D00D9D7
:1038F0001B25E8010521301A0902401A78620120CF
:10390000B870FCF76FFEF8BDB80B00002002002075
:10391000C4010020F8B50F460546FFF705F800285A
:103920003DD065480068391A6448814204D964482A
:103930000068281AFEF7BEFF6248624C0078002635
:10394000C107083C002933D0E089502148432C307E
:10395000FEF75EF945192846FFF769FCFFF750FFAF
:10396000E0694671206A46702046A6821630FFF74D
:10397000E2FB20462C30FFF7B3FBFFF79DFCE6711E
:10398000607A022801D2022060724F49C0B24843D7
:103990004018FFF723FC0120FDF74AFF3EE000201E
:1039A000FEF794F90020FDF743FF00F030F9F8BD71
:1039B000800712D5606A0121381A090640180002F2
:1039C000000AFEF71BF92D1A208A5021484374384B
:1039D000FEF71EF945193D481BE0208A082801D250
:1039E0000121217136490D685021484361788900D1
:1039F000401A1038FEF70CF94519208A452801D9DC
:103A0000334806E0304948430321FDF7B5FF2E490E
:103A10004018FFF7E3FB2846FFF709FCA08A401C8B
:103A2000A0822846FEF7C4F8E079A17A4018C0B217
:103A30002521FDF7A1FF234BE171CA0828339A5CC9
:103A40004B0708465B0F012199400A4204D1E17AF5
:103A5000FDF792FF1F48405CA071C0B2FFF763FB07
:103A60002078002811D01B4901202531FFF724FAC6
:103A700018496A4625310120FFF732FA6846017875
:103A800014482530FFF71CFD26700E490878C20740
:103A900004D040084000087000200AE02079002887
:103AA00004D00020FEF712F92671F8BD208A8108A3
:103AB0000818FEF70BF9F8BD0802002080A90300E2
:103AC0000C02002020020020E2040000A60E0000EC
:103AD00030750000BE06002010B50648807800282A
:103AE00004D000210846FFF7A9FE10BDFFF7AEFB8A
:103AF00010BD00001802002010B50C46FFF746FE6E
:103B000000280BD10420FFF72FFBBB204001201819
:103B1000FFF756FB02484178491C417010BD000078
:103B20001802002008B502216A4611700521517063
:103B30000121817019218171811C0098FEF7EFFC31
:103B4000FDF71BFE08BDFFB58BB0149C1D46174644
:103B5000E61C242101A8FDF752FF0B981321084011
:103B600069460870E01D48700E71300A48710420E3
:103B700088710020C8710C9808724F72380A8872D8
:103B8000002001A904E02A5C0B18401CDA71C0B2C5
:103B9000A042F8D30098FEF7C2FC0FB0F0BDF8B514
:103BA0000446827AC178007AE57900020543A0785C
:103BB00009020843401F87B2667A100206430220BA
:103BC00069460870607848701720A071A11C0098A1
:103BD000FEF7A5FC214633463A460B312846FDF751
:103BE000CBFDF8BD0EB58007800F6A461072052028
:103BF00050720020507001211170D070042090701C
:103C00001320107169460298FEF789FC0EBD10B5AD
:103C100000F018F80020FFF79CFA0020FFF7CAFD1B
:103C2000FEF778FE10BD73B50D460098FFF7F1FA68
:103C30006846447828462146FFF7E4FA2046FEF716
:103C400065F87CBD30B585B003A8FDF733FD694646
:103C5000097B182902D918216A46117369460A7B23
:103C60001B4B511C1970002104E0445C5D18491C79
:103C7000AC70C9B29142F8D3002003E09918521CED
:103C80008870D2B2192AF9D3114A1123113AD118E6
:103C90000C462D3C25781B20002D01D00D4A2B46CB
:103CA0006578002D02D00B4928461F310191029002
:103CB000A0896D46288006482D38C1792974007A7C
:103CC000687460890499FEF711FE05B030BD0000EC
:103CD000390100205E04002041542B000000000048
:103CE00000000000000000000000000003280300A6
:103CF000020400002AFF03280800020900292AFF05
:103D000003280A00020B00262AFF03280E00020FD8
:103D100000282AFF032811001012000000010229C8
:103D200013000A0000000000032814000C15000016
:103D30000002032817000A180000000301291900D7
:103D40000200000000009ECADC240EE5A9E093F307
:103D5000A3B50100406E9ECADC240EE5A9E093F3F2
:103D6000A3B50300406E9ECADC240EE5A9E093F3E0
:103D7000A3B50200406E9ECADC240EE5A9E093F3D1
:103D8000A3B50400406E00000000000059230008A5
:103D9000A1230008ED2100081D220008812300084E
:103DA000B12200086134000801000000000000009A
:103DB000F93A00083D38000859380008D93A000897
:103DC00015390008E43D00080000002058020000FA
:103DD0002A1B0008D03E000858020020B00800004E
:103DE0006A1D00084103168025135507800A0853F1
:103DF00045544E414D453D4A75143809494E544588
:103E00005256414C181AC9147808424C4553454E35
:103E10004428136508680A084C4F57504F574552BD
:103E2000151A8D14193C8C424155284A251448080E
:103E3000414456464C4147171A4B14A74449534333
:103E40004F4E1AF714B64D494E464F132909C6086E
:103E500048454C5045020406082D01020304041590
:103E60000607080918084D53313739332DA411823C
:103E7000121564010179900E465620202E322E3103
:103E80002E326D6D64121712A0E30421101202018C
:103E900006030390FE09FF1102110293F540E102AF
:103EA0002D0913C40414205A013A20F42A01A14117
:103EB0000211142340581A04C20419A87B070223D4
:103EC0000A025BFF1310024C20B206CC011800005E
:04000005080000B13E
:00000001FF
