:020000040800F2
:10000000A8080020C500000875060008770600084B
:1000100000000000000000000000000000000000E0
:100020000000000000000000000000007906000849
:1000300000000000000000007B06000883060008A6
:10004000F1000008F1000008F1000008F1000008CC
:10005000F1000008F1000008F10000088D0600081A
:1000600000000000F1000008F1000008F1000008A5
:10007000F1000008F1000008F1000008F10000089C
:10008000F10000080000000000000000F10000087E
:1000900000000000F1000008F1000008F100000875
:1000A00000000000F100000800000000F10000085E
:1000B0000348854601F074FD004800472B1A0008EC
:1000C000A80800200B4880F308880B480168090E37
:1000D0000A4A914205D10A480A4901600A480B4977
:1000E00001600B480047FEE7FEE7FEE7FEE7FEE79C
:1000F000FEE70000A8080020040000001F00000028
:100100001810024001000000000001400000000043
:10011000B1000008FB4910B5401E884201D90120FA
:1001200010BDF9494861F9480722C3691B021B0A3F
:100130004C042343C361002088610A6110BD10B5DF
:10014000082100F0E8FE10BD10B5F14900F0E3FE13
:1001500010BD10B5102100F0DEFE10BDEC4910B549
:10016000083900F0D8FE10BDF3B585B0E94905980F
:1001700004260825884243D10121801400F0F4FDB3
:10018000E44920310889E44A104308810320012111
:10019000400400F0D8FD00220521E04800F07EFB7D
:1001A00000220421DD4800F079FB00220321DB4816
:1001B00000F074FB6F0169460F8003248C701020DF
:1001C000C870D64800F0F0FA3946D44800F051FB28
:1001D00069460D808C701827CF70D04800F0E4FA83
:1001E0002020694608808C70CF70CC4800F0DCFA83
:1001F0001020694608808C70CE70C84800F0D4FA90
:100200006A4696800020D08015815081012191811D
:10021000D08106991182508201A9059800F00EFE46
:100220000121059800F036FE0598FFF788FF059834
:10023000FFF78FFF07B0F0BD30B5B94900220B685A
:10024000012423430B600B689B07FCD501239B0211
:100250004B604B6801242404A3434B600C680123CA
:100260001B069C430C600C681F25AD06AC430C605C
:100270000C683F258006AD06401904430C60A94C6C
:100280001120206008681843086008688001FCD5C8
:100290004868800880004860486802231843486026
:1002A00002E048680007820F022AFAD130BD10B57B
:1002B0000420FFF7C1FF022000F095FC00F09AFC3B
:1002C0000828FBD110BD984824E7F0B5012189B07A
:1002D000C80200F049FD0121080400F045FD01219C
:1002E000880400F041FD0121480400F02CFD0720A6
:1002F00040026946088018240926CC700325F606BA
:100300008D70304600F050FA902069460880CC701D
:100310008D70304600F048FA02220921304600F084
:10032000BDFA02220A21304600F0B8FA02220B215F
:10033000304600F0B3FA04221146304600F0AEFA1F
:1003400005220721304600F0A9FA7848694608835B
:1003500000248C824C83764DCC8205A9284600F07F
:100360007DFE744E05A9304600F078FE724F05A957
:10037000384600F073FE6020694688800120C880FE
:100380004C818C8101A9284600F031FF01A9284643
:1003900000F066FF01A9284600F099FF01A9304648
:1003A00000F0F4FE01A9384600F0F0FE08212846CE
:1003B00001F036F80821284601F039F808212846CE
:1003C00001F03BF80821304601F024F808213846B6
:1003D00001F020F80121284600F08FFE012130466F
:1003E00000F08BFE0121384600F087FE01212846EF
:1003F00000F09CFE0121304600F098FE01213846B5
:1004000000F094FE4A4940318A880120C00302432B
:100410008A80484940318A8802438A80464940316F
:100420008A8802438A80002264231146104601F024
:10043000BDFC002165236422084601F0B7FC09B029
:10044000F0BDFF2209210132C906002801D04A610E
:1004500070470A6170477FB5FFF729FFFFF735FF47
:100460003148FFF757FE06212A48FFF77DFE012598
:100470002D0368460580022484704821C170092636
:10048000F6066946304600F08FF90522082130460D
:1004900000F004FAE1016846018084701021C17007
:1004A0006946304600F080F90121084600F05CFC06
:1004B0000121080700F061FC0C21002000F07FFD05
:1004C00001950021684601720C2141720125857257
:1004D00001A800F0ECF807216846017344738473A7
:1004E000C57303A800F017FA14480168084A921D62
:1004F000114001600548001F016904221143016198
:100500007FBD0000FFFFFF0000E000E004ED00E021
:10051000F7FF0000003001400100FFFF0004004829
:10052000001002400020024080BB00009C630000DD
:10053000002C014000400140004801400070004094
:10054000444908600889C007FCD008898007FCD5A9
:100550004868C0B2704710B5FF2101313E4800F035
:100560008AF910BD10B5FF2101313B4800F081F937
:1005700010BD10B50920C00600F06EF9C004C01708
:10058000401C10BD704710B5FFF791FE3348FFF7D0
:10059000C1FD10BD10B5002000F025FB00F02AFBC6
:1005A0000028FBD12E480168012212069143016008
:1005B0007D208001FFF7AEFD10BD72B6294801789D
:1005C000491C0170704727490878401E0006000E3C
:1005D000087000D162B67047FEB5684601F0CCFBEA
:1005E00068460078204D214E214F00281FD06846D4
:1005F000847901792846614300F0C0FE684641795C
:100600002846614300F0BCFE684681782846614375
:1006100000F0B8FE684641783046614300F0ACFE19
:100620006846C1786143384600F0A6FEFEBD002151
:10063000284600F0A3FE0021284600F0A1FE00217C
:10064000284600F09FFE0021304600F095FE002174
:10065000E9E70000003001400004004880BB0000D2
:100660000010024000000020002C0140004001402A
:10067000004801407047FEE7704770470648006831
:10068000704705480168491C0160704710B501209A
:10069000000300F062F810BD040000203048002183
:1006A000016041608160C1602E494161704710B5B1
:1006B00083792B490268002B26D00B6893430B608B
:1006C0004A6803689A434A600279521813680468BA
:1006D000234313608A6803689A438A60CA68036880
:1006E0009A43CA604279102A05D051180A680068F6
:1006F00002430A6010BD8A6803681A438A60CA68A8
:1007000000680243CA6010BD007940180168914337
:10071000016010BD0021016001710C2242718171E4
:1007200070470F490A6902430A6170470C4A014643
:10073000526900200A4200D00120704708494861F0
:100740007047074B0246196800205B69114013424D
:1007500002D0002900D0012070470149486170474C
:1007600000040140FFFF1F00172110B5C906401803
:1007700011D001218902401A10D0401A11D08842AC
:1007800008D101218402204600F0DDFA0021204634
:1007900000F0D9FA10BD01214C04F4E701218C04CA
:1007A000F1E70121CC04EEE7F0B5CC780022230775
:1007B0001B0FE40601D58C7823430C782406240E05
:1007C0001AD0046801250E8895402E40AE420FD104
:1007D00097000F26BE40B4431E46BE403443CE7839
:1007E000282E02D0482E02D002E0456100E00561CB
:1007F000521C082AE6D304600A88FF2A1CD94468E0
:100800000022164608360125B5400E882E40AE421D
:100810000ED197000F26BE40B4431E46BE4034435F
:10082000CE78282E00D14561CE78482E00D10561C2
:10083000521C082AE5D34460F0BD0021C943018061
:10084000022181700421C170704702469268002025
:100850000A4200D001207047806880B2704702468B
:10086000D26800200A4200D001207047C06880B2E0
:1008700070470161704741617047002A01D00161F2
:10088000704741617047C1607047012212040A43FA
:100890008261816182618169806970474B0710B50F
:1008A000DB0E9A40CC080F219940002C06D0436AF9
:1008B0008B434362416A1143416210BD036A8B431B
:1008C0000362016A1143016210BD00000C49086017
:1008D00070470B494860704709498860704708496C
:1008E0000848086070470649074808607047044A8E
:1008F0000146D26800200A4200D001207047000063
:1009000000300040AAAA0000CCCC000025490843D2
:100910002549C860704770B5C2780F230125234E62
:100920000178002A1AD0204AD468520D1440121BB4
:10093000120A0424A41AD3404278A2408478890081
:100940001C4014431A4B2201C9180A600178CA06D8
:10095000D20E954049098900891907E0CA06D20ECE
:100960009540124A49098900803289180D60007843
:10097000400980008019006870BD70470A4A00294C
:10098000116901D0014300E08143116170470422E5
:1009900008490428086902D0904308617047104351
:1009A000FBE700000000FA0500ED00E000E100E0D8
:1009B00000E400E000E000E0F74801680122114394
:1009C00001604168F54A114041600168F44A1140F4
:1009D00001600168012292049143016041687F2215
:1009E00012049143416000218160704710B5EA49CB
:1009F0000B680122120493430B600B689400A3431D
:100A00000B60801A09D003221204904204D10868B6
:100A1000052212041043086010BD0868FAE7034677
:100A200000205909DC4A01290AD002290AD0516A5A
:100A3000DA06D20E012393400B4200D0012070470A
:100A40001168F5E7116AF3E718B5002005242402C0
:100A500000903120FFF7E3FF0099491C0091002826
:100A600001D1A142F5D13120FFF7D9FF002800D0F4
:100A7000012018BDC84A1168F8239943C0000843F3
:100A800010607047C4490128086803D0400840003E
:100A90000860704701221043FAE710B5BE4B186892
:100AA000C04C89061205204011430143196010BD56
:100AB00030B50546B8480C4641683F2212049143C0
:100AC00029434160002C7CD001208004844204D161
:100AD000012205212846FFF7E0FF0120C0048442DF
:100AE00004D1012207212846FFF7D7FF0320800405
:100AF000844204D1012209212846FFF7CEFF0120BC
:100B00000005844204D101220B212846FFF7C5FFCE
:100B100005208004844204D101220D212846FFF7DC
:100B2000BCFF0320C004844204D101220F212846C7
:100B3000FFF7B3FF07208004844204D10122112172
:100B40002846FFF7AAFF01204005844204D1012274
:100B500013212846FFF7A1FF09208004844204D115
:100B6000012215212846FFF798FF0520C004844282
:100B700004D1012217212846FFF78FFF0B208004A4
:100B8000844204D1012219212846FFF786FF032061
:100B90000005844204D101221B212846FFF77DFF76
:100BA0000D208004844204D101221D212846FFF734
:100BB00074FF0720C004844206D101221F21284669
:100BC00000E002E0FFF769FF30BD03220721F6E7EE
:100BD0000122714912060028086801D0104300E084
:100BE0009043086070476C4A516889088900014346
:100BF00051607047684840680C2108407047664A59
:100C00005168F0239943014351607047624A51682B
:100C100007231B0299430143516070475E4A5168A4
:100C20000723DB029943C0000843506070475A4ACB
:100C300000020029916801D0014300E081439160E6
:100C4000704755494A6802434A607047524A5168A2
:100C500003239B0399430143516070474E490A6A3D
:100C6000520852000A620A6A520852000A620128B7
:100C700006D0042803D1086A052210430862704791
:100C8000086A0122F9E744490028486A02D0012293
:100C9000104301E040084000486270473E490A6A3C
:100CA00002430A62704701223B49D2030028086AC6
:100CB00001D0104300E090430862704770B5364D94
:100CC000044668680C210840374903D0042801D045
:100CD000082801D0216017E028682968800E4902A1
:100CE0006A68490F01231B04401C491C1A4201D1A8
:100CF0002E4A05E06A68920301D52D4A00E02A4A8F
:100D0000504300F0EBFE206068682A490006000F9F
:100D10000A5C2068D04060606A685205520F8A5CA5
:100D20000346D340A3606A689204520F895CC840AE
:100D3000E06069681F4A0904890F121F515C00F0C6
:100D4000CDFE206170BD30B5134B5A690F25D40913
:100D50006D042C40D2B22243002902D010435861C6
:100D600030BD82435A6130BD0B4A0029916901D0E0
:100D7000014300E0814391617047074A0029D1692E
:100D800001D0014300E08143D1617047024A00294C
:100D9000D16811D0014310E0001002400000FFF8BC
:100DA000FFFFF6FEFFFF8F0300127A00001BB70063
:100DB00000093D000C0000208143D1607047174AB4
:100DC0000029116901D0014300E08143116170479E
:100DD00001221249D2040128086802D09043086019
:100DE00070471043FBE70D494A68000602434A601A
:100DF00070470A48416A0122120611434162704756
:100E0000064A0146926800200A4200D0012070473D
:100E100002498A68000402438A6070470010024059
:100E2000564910B5C84208D1841401212046FFF765
:100E3000ADFF00212046FFF7A9FF10BD30B5038BA1
:100E40000F22120313404A884C8922430C881C430A
:100E500022430283838B3F22D24313408A88CC896A
:100E60000D892243CC882C4322431A4310231A4372
:100E70008283028C8989018430BD002101804180F8
:100E800008228280C1800122028141810222828166
:100E9000C18170470029018B02D00122114301E07A
:100EA00049084900018370470223002A06D0028BBB
:100EB0001A430283028A0A4302827047028A8A43E3
:100EC0000282018B994301837047002A028B01D073
:100ED0000A4300E08A4302837047002A028B01D054
:100EE0000A4300E08A43028370470160704740680C
:100EF00080B27047002A028D01D00A4001E0C94348
:100F00000A4302857047028B1D4B1A400283028BF5
:100F10000A430283704710B50822082910D0102414
:100F2000102910D0174B994202D1038B93430383AE
:100F3000144A083A914202D1018BA143018310BDAA
:100F4000018B1143FAE7018B2143F7E7024612892F
:100F500000200A4200D001207047024692890020FA
:100F60000A4200D001207047828A0A438282704779
:100F700081847047828B0A438283704700D0FEBF12
:100F8000FFFC0000F7FF0000154801688907890F82
:100F9000016000218160C160016141617047104AB8
:100FA0001168890889000143116070470C4A0029C3
:100FB000116801D0014300E08143116070478A0746
:100FC00010B5120F0F2393408C080549A400611837
:100FD0008C689C438C608B68904003438B6010BD91
:100FE00000000140F94910B5884202D10121C41422
:100FF00026E001218907884206D101210846FFF732
:10100000DEFE0021012008E0F149884208D10121DB
:101010000220FFF7D4FE00210220FFF7D0FE10BD12
:10102000EC49884207D101210C042046FFF7C7FE96
:1010300000212046F1E7E849884209D101214C040A
:101040002046FFF7A3FE00212046FFF79FFE10BDBC
:10105000E2498842FBD101218C04F1E730B50288D6
:10106000DA4CA04206D001239B07984202D0D84B0D
:10107000984204D1134670254A88AB431A43028034
:101080008A8882850A880285A04205D0D24A904289
:1010900002D0D24A904201D1097A0186012181828F
:1010A00030BD0021C943818000210180C180418081
:1010B00001727047018582827047028870239A43CB
:1010C0000A43028070478184704781857047808C15
:1010D0007047008D704702220029018801D011431A
:1010E00000E091430180704704220029018801D06B
:1010F000114300E09143018070478022002901885C
:1011000001D0114300E09143018070470288082319
:101110009A43028002880A43028070470288B04BDB
:101120001A40028002880A43028070470029018821
:1011300002D00122114301E04908490001807047B3
:1011400010B50A884B88CC881A438B8823431A43EE
:101150000B891A434B8989891A430A43403082809C
:1011600010BD0021018041808180C18001814181C9
:101170008181704740300029818803D00122D20349
:10118000114301E04904490C8180704730B5028C5D
:10119000520852000284038C8288048B7025AC4371
:1011A000A4080D88A40025430224A3430C891C43F2
:1011B0004B882343854CA04205D0874CA04202D0E7
:1011C000864CA0420DD10824A3434C891C43042320
:1011D0009C438B882343824C22408C891443CA89C8
:1011E000224382800583C9888186038430BD70B51F
:1011F000028C10239A430284048C8388028B794DDD
:101200002A400D782D062D0C1543202294430A897F
:101210001205160C4A8826431205120C6B4C3243F9
:10122000A04217D1704C23408C89A404240C1C4389
:1012300080239A434B891B051B0C13434022934385
:101240008A881205120C1A43684B1C40CB899B04F8
:101250001B0C234383800583C9880187028470BDEA
:1012600030B5028C624B1A400284038C8288848BD6
:101270007025AC43A4080D88A40025435D4C234091
:101280000C7A2406240C1C438B781B061B0C23436E
:101290004E4CA04215D1554C23408C7A2406240C88
:1012A0001C43514B1C400B791B061B0C2343524C17
:1012B00022408C892405240C1443CA891205120C7F
:1012C000224382808583C9888187038430BD30B5FD
:1012D000028C4A4B1A400284048C8288838B414DD5
:1012E0002B400D782D062D0C1D43454B1C400B7AD1
:1012F0001B071B0C23438C782407240C1C43334B03
:10130000984205D13F4B1A408B899B051B0C1A4311
:1013100082808583CA8840210A52048430BD00211E
:10132000018041808180C180018141818181C181B1
:10133000704730B5034618330124058C8C40A54313
:101340000584002910D008290ED0091F0804400C7C
:10135000C018016807231B03994301600168120646
:10136000120C1143016030BD4808C0180168702399
:10137000994301600168F4E78186704701877047EF
:1013800081877047403001807047028B70239A43F9
:101390000A4302837047028B1B4B09021A40114318
:1013A00001837047828B70239A430A43828370477C
:1013B000828B154B09021A40114381837047002923
:1013C000818823D00122114322E00000002C01403B
:1013D000000400400040014000440140004801403A
:1013E000FFFC0000FF8C0000FFFB0000FFF7000087
:1013F000FFFE0000FFFD0000FFCF0000FFEF000038
:10140000FFDF0000FFBF0000FF8F00004908490018
:1014100081807047028B08239A430A4302837047F6
:10142000028BFC4B09021A40114301837047828BE7
:1014300008239A430A4382837047828BF54B090243
:101440001A40114381837047028B04239A430A4355
:1014500002837047028BF04B09021A40114301834B
:101460007047828B04239A430A4382837047828B9E
:10147000E94B09021A40114381837047028B802394
:101480009A430A4302837047028B5204520C0902AA
:10149000114301837047828B80239A430A438283DE
:1014A0007047828B5204520C0902114381837047AA
:1014B000028C02239A430A4302847047028C082359
:1014C0009A430A4302847047028C20239A430901FD
:1014D000114301847047028C80239A430901114310
:1014E00001847047028CCD4B09021A4011430184DC
:1014F0007047028CC74B09021A40114301847047A0
:10150000028CC74B09031A401143018470470289BA
:1015100008239A43028102890A430281704710B569
:101520000123048C8B409C430484038C8A40134326
:10153000038410BD10B50423048C8B409C430484A9
:10154000038C8A401343038410BD04220029818840
:1015500001D0114300E0914381807047828BB14BF1
:101560001A408283828B09020A4382837047828BEE
:101570000C239A438283828B0A4382837047028BB7
:10158000A84B1A400283028B09020A430283704768
:10159000F0B5048C1026B4430484058B048CA24F50
:1015A0001B0309013D402B4312021A43A0239C4315
:1015B0000C43344302830484F0BD028B0C239A4312
:1015C0000283028B0A430283704770B5048C64085F
:1015D00064000484058B048C1B011343F3260A2248
:1015E000B54394432B430C4301210C4303830484F0
:1015F00070BDF8B5054608884E888A880B890C4668
:1016000000281DD0042824D00828288C2AD08749F7
:1016100008402884A88B2F8C3103834E120230405F
:10162000024318031043824AA88317400F43012145
:1016300009030F432F84E1882846FFF78FFFF8BD89
:1016400031462846FFF7C1FFE1882846FFF7B5FF7E
:10165000F8BD31462846FFF79BFFE1882846FFF793
:101660008EFFF8BD734908402884A98B288C370267
:10167000F3261B01B14313430B436F49AB8308406F
:10168000FF213843013108432884E1882846FFF7C9
:101690006EFFF8BD00210180418001228280C1805F
:1016A00001817047F8B50C46498800260125074698
:1016B000002900D10226A288012A00D10225208813
:1016C00023890028384610D0FFF762FFE1883846AA
:1016D000FFF755FF23892A4631463846FFF775FF45
:1016E000E1883846FFF769FFF8BDFFF76EFFE18834
:1016F0003846FFF762FF23892A4631463846FFF70E
:1017000047FFE1883846FFF73AFFF8BD808E704703
:10171000008F7047808F7047403000887047002AE4
:10172000828901D00A4300E08A4382817047818226
:1017300070470246128A00200A4200D001207047FA
:10174000C943018270470246138A002092890B40E8
:101750000A40002B02D0002A00D001207047C94364
:10176000018270471143403001817047002A82890D
:1017700001D00A4300E08A43828170470822002991
:10178000818801D0114300E0914381807047018935
:10179000C908C90001817047028970239A430A432E
:1017A0000281704710B50446FFF7F6FF2089072134
:1017B0000843208110BD70B516460D4604466029C9
:1017C0000CD001223146FFF700FF29462046FFF7E3
:1017D000E3FF208907210843208170BD01223146A3
:1017E000FFF7D6FEF1E710B504891B021343E4B2FC
:1017F0000B432343038110BD10B50446FFF7F3FFED
:101800002089C108C900072001437020814301439A
:10181000218110BDFFF70000FFFB0000FFFD00006D
:10182000FFDF0000FFF30000FF0C0000FFEF0000EF
:10183000FF5F0000FFFE0000FFF5000010B504464A
:10184000FFF7D1FF20890121890308432081E0E7C8
:10185000828870239A43828082880A4382807047FC
:101860000289D208D200028102890A4302817047AC
:10187000028980239A43028102890A4302817047C8
:1018800070B50589048B068CED08ED000D430D49FC
:1018900005810C40FF2102310C43AA218E4319011E
:1018A000114331430483018470BD80220029818863
:1018B00001D0114300E091438180704740300182A4
:1018C00070470000FCFC00000F2101704BA0704726
:1018D0000920704738B50524049BE402A34201D1D6
:1018E000012A0AD0A3420BD1102A09D81021474B54
:1018F0001922009100F0C4FD38BD00F091FD38BD03
:1019000000F0CEFC38BDFFB581B014460A9E0F46EC
:101910001D4632461946204601F0AAF8122C10D076
:10192000132C0ED0152C0CD0182C06D0224639467C
:10193000019800F0B5FC05B0F0BD3146284600F036
:101940002DFA019802F0FEF8F5E770477047FEB5F2
:1019500016460C460546132928D006DC092C0ED065
:101960000B2C14D00F2C04D11CE0182C24D0192CD3
:1019700026D00A460146304600F092FCFEBD01F03A
:1019800067F800F0F9F8C7B201F062F806E000F07D
:10199000CDF900F0F1F8C7B200F0C8F903462246CD
:1019A000009711E007201AA300900CE0002001909E
:1019B000022001AB009006E00120174B009002E0EE
:1019C000062016A300900A462946304600F000FD86
:1019D000FEBD0020704770470DA0704710B500286D
:1019E00001D0002000E00120FEF72BFD10BD10B556
:1019F00000F06EF8002000F057FA10BD4D5331375B
:101A000039332D424C45442D56320000923C00089B
:101A10005356322E312E32004E0000204D67204F9B
:101A20005441000010484068704710B50124A405D7
:101A3000FEF711FD641EFDD20C49032000F026F8CC
:101A400009480178083000F0B7FF07494320091D15
:101A500001F046FA0021082001F0A6FBFF204130EA
:101A600000F0A0FE002010BD20000020E2040000D5
:101A700010B50120FEF73BFF0028FAD110BD10B5CC
:101A80000220FEF734FF0028FAD110BD70B50446DD
:101A90000D460120FFF7F7F86120FEF7C0FF002890
:101AA000FAD0FFF7E5FF0C4E3046FEF70FFFE0B22D
:101AB000FEF70FFFFFF7E3FF3046FEF707FF2805AD
:101AC000000DFEF709FFFEF70AFFFEF70CFF70BDE1
:101AD00010B5FEF704FF10BD5555000030B50B469C
:101AE000014600202022012409E00D46D5409D42F8
:101AF00005D31D469540491B25469540401915467E
:101B0000521E002DF1DC30BD70B5002425460028A2
:101B100001DA01244042002901DA01254942FFF798
:101B2000DDFFAC4200D04042002C00D0494270BDE5
:101B300003460B439B0703D009E008C9121F08C0E6
:101B4000042AFAD203E00B780370401C491C521E91
:101B5000F9D27047D2B201E00270401C491EFBD29C
:101B600070470022F6E710B513460A4604461946A8
:101B7000FFF7F0FF204610BD421C0178401C0029F1
:101B8000FBD1801A704730B504460020034600E0C0
:101B90005B1C934203D2E05CCD5C401BF8D030BDAF
:101BA000064C0125064E05E0E36807CC2B430C3CB0
:101BB00098471034B442F7D3FEF77EFA103D000880
:101BC000303D000870B58C180578401C6B075B0F22
:101BD00001D10378401C2A1106D10278401C03E091
:101BE00006780E70401C491C5B1EF9D12B0705D4EA
:101BF0000023521E0DD40B70491CFAE70378401CD9
:101C0000CB1A921C03E01D780D70491C5B1C521E00
:101C1000F9D5A142D8D3002070BD000010B50A4C00
:101C2000E07800280CD0FEF729FDA169884208D38E
:101C3000401A01218902884203D20020E07001206D
:101C400010BD002010BD00002401002070B5114C13
:101C50000025216A4A78002A07D04989A28A914240
:101C600003D100F0A5FA206A4570E169487900289F
:101C70000ED0C888A28A90420AD10648E679052289
:101C80003030FFF755FF01F06BFDE0694571E671FB
:101C900070BD00008001002010B503490A6A496A3E
:101CA0005043FFF71BFF10BD2401002010B504496D
:101CB0000446CA69496A5043FFF726FF001910BD60
:101CC0002401002000B5002204490028CA7301D075
:101CD0006420C87300F0BCF800BD0000A000002024
:101CE00013B56A46127813200240094802706A460A
:101CF00054784470002C03D02246801CFFF718FF54
:101D00000349A41C0846E2B2083801F007F81CBDDC
:101D100000010020014800787047000024010020E5
:101D20000148407970470000240100200748084915
:101D30000078020930320007000F8A70092801D8A4
:101D4000303000E03730C87001487047D8000020BC
:101D50004000002010B5074C2079002808D0FEF77D
:101D60008DFCA169884203D300202071012010BDA1
:101D7000002010BD5000002007490A7802704A7800
:101D800042708A788270CA78C2700A8C02718A8C1A
:101D90004271098D81717047A000002070470000DA
:101DA0000149487070470000E400002070B50D4DF7
:101DB0001C4628716971AA71642B0DDC2002001B7E
:101DC0006421FFF7A1FEE8626420001B0102081AEB
:101DD0006421FFF799FE01E00020E862286300F02B
:101DE00037F870BDA000002000B5652803D2024975
:101DF000486300F02DF800BDA000002001494861B3
:101E0000704700005000002010B5FEF7C3FBFEF73E
:101E100035FC0349283088610120C87010BD0000DE
:101E20002401002070B50446034D01202871FEF7FF
:101E300025FC0019A86170BD500000200521C001DB
:101E400009024018014948607047000068010020FD
:101E5000F0B51448417802798C46511A8182417953
:101E60008678891BC1828179C578491B0183818D60
:101E7000048C091B4183018E838CC91A8183818E56
:101E8000028D891AC183C77B817B7F1A4782417388
:101E9000012101746146C171067245728472C37278
:101EA0000273F0BDA000002070B52F4C012810D0A7
:101EB000E07B2070207960706079A070A079E0707C
:101EC000E06A2062206B6062606BA062FEF784FBB8
:101ED00070BD257C0F2DFBD81420205E0F21684398
:101EE000FFF712FEE179081860701620205E0F21BE
:101EF0006843FFF709FE217A0818A0701820205EB9
:101F00000F216843FFF700FE617A0818E0701A207D
:101F1000205E0F216843FFF7F7FDA17A08182062C1
:101F20001C20205E0F216843FFF7EEFDE17A0818C0
:101F300060621E20205E0F216843FFF7E5FD217BD4
:101F40000E181220205E0F216843FFF7DDFD617B34
:101F50000818C1B23046A17348436421FFF7BEFDA3
:101F60006D1CA0622574B1E7A000002030B4744657
:101F7000641E2578641CAB4200D21D46635D5B0085
:101F8000E31830BC184702E008C8121F08C1002A35
:101F9000FAD170477047002001E001C1121F002AEA
:101FA000FBD17047090710B5090FC00705D00329F9
:101FB00002D1022001F086F810BD05488078002883
:101FC00002D0FFF721FF10BD01F006F910BD00009F
:101FD00024010020F8B50746204C0020A0700878A6
:101FE00016460007000F0D46032802D0052822D10F
:101FF00017E0412040013818E06301F08FF81748DE
:102000006946C0890880009801F028F8217A206B81
:1020100001F030F8207A0121C001C9024018A06304
:1020200011E0002E07D0284606220D490830FFF7A0
:10203000AAFD002802D001F0CFF804E0324629467C
:10204000384600F083FB532000F0E2FD05490420F0
:1020500000F007FE562000F0DBFDF8BD2401002053
:10206000980000208301002070B5284C6279002A76
:102070001FD02278521C22702279002A01D02822F7
:102080002270A2780025002A08D06269891A226984
:10209000801A00F01BFB6570A570658120782728E9
:1020A00015D800F0EEFF0020FFF7A8FE01F0A1F820
:1020B00070BD512000F0ACFD7821202000F0FDFD26
:1020C000562000F0A5FD0A20FFF798FE70BD2520E0
:1020D0002070606BFFF7EAFDA16A4618606B80090B
:1020E000FFF78CFE304601F050F8207800F0C9FF71
:1020F000A079401CC0B2A071142802D3A57100F0D1
:1021000024FE6089401C608170BD00002401002015
:1021100010B508492520087000F0B3FF962001F0A3
:102120000BF8002000F0C3FF01F063F8002001F07D
:10213000F1FA10BD2401002010B5012000F0C2FF0B
:102140000448C16B806B081825218901401800F0F4
:10215000E5FF10BD2401002070B5144C0646A062B6
:102160000D46022000F0AEFF472080012818E063F2
:1021700000F0D4FFE179E06A00F07CFFE06800F055
:102180006DFFE0790121C001C9024018A0632078E9
:1021900025280AD12661656160890F2802D26078FE
:1021A000002802D001206070A07070BD24010020C2
:1021B00070B50F4C0546206A017861724088E08155
:1021C00050214843FFF772FD401900F0DEFF206AFE
:1021D00081882182008960820C2905D2054800F09F
:1021E000ABFF0120207170BD034800F0A5FF70BD5A
:1021F0008001002017110000BD1F000070B50446CB
:1022000000781C4D4006C00F687128460622A11CAC
:102210003530FFF78DFC0E342846042221462C3041
:10222000FFF786FC28460322211D1630FFF780FCAD
:10223000E0796872617A207A09024018E881E17ACF
:10224000A07A090240182882E17BA07B090240188D
:1022500080B26882C82801D2C82068820548214619
:10226000052210313030FFF763FC607DC006C00EE0
:10227000A87270BD800100200EB507A106C98007B5
:102280000091800F019269460872072048720298F7
:1022900000F021F80EBD0000030004000317000049
:1022A0001FB58007800F6B461873092058730520EF
:1022B00018700020587004249C70D8700120187188
:1022C0005971100AD8719A710A2018721946039828
:1022D00000F001F81FBD10B5FFF702FD10BDFFB5FE
:1022E00087B01E466F46109B119A0546387109202B
:1022F000787105200C463872002179720420B8727A
:10230000F972601C387301207873B973F873052073
:10231000C0023974834213D105A8009006AB314640
:102320000998FFF756FB00280AD06946088B4873C6
:10233000888AC87302A90198FFF7CDFF0BB0F0BDE2
:1023400021462846099AFFF7ABFFF7E7FFB587B0AC
:10235000079817468007800F6A4610700A20507051
:102360000020507106211171D07104219171052155
:102370001172012151721E46D0720446134D1AE0AB
:1023800020460A21484341194988B94211D3B14234
:102390000FD80A214C43611989786A469172285AEC
:1023A0001073000A507301A90098FFF794FF0BB057
:1023B000F0BD641CE4B2FFF78BFAA042E0D83A46C5
:1023C00008990798FFF76CFFF1E70000383C000818
:1023D000F0B589B00E4607461D461C2101A80E9C8B
:1023E000FFF7BFFBB807800F69460870601D487093
:1023F000601C0871000A4871042088710020C871AF
:10240000761C0E7201A904E02A5C0B18401C5A715C
:10241000C0B2A042F8D30098FFF75DFF09B0F0BD4D
:1024200030B589B0154901220A7000216C4621712E
:1024300061710423A371E171112323720623637276
:10244000A272E17223736173A1731825E5730722E9
:10245000227461740F22A274E1740A232375182177
:1024600061750E2580072571800F12212070617023
:1024700001A90098FFF72FFF09B030BD3A000020F6
:10248000F0B589B08446002468460E9D04714471FD
:1024900004268671C471112606722E1D4672817241
:1024A000C472027344730A2001AF002105E05A5C34
:1024B0003A54401C491CC0B2C9B2A942F7D3011F0B
:1024C0006A46117161468907890F1170507039464B
:1024D0000098FFF700FF09B0F0BD0000FFB589B01C
:1024E000099815218507129E4902AD0F1F468E429D
:1024F00021D16846FFF7E8F90146684605710023D7
:1025000043710078801CC2B2122A00D91222941C96
:102510006D462C72200A68720426AE72EB72092096
:1025200028736A73AE73EB7304A8921EFFF700FB67
:10253000241D6C713FE0614886423ED10B9807280C
:102540003BD15F480078002837D06B461D711721BA
:10255000197200215972042199720021D97209213E
:10256000072019735873082098730020D87302202D
:1025700018745974002199742921D9742A21197564
:102580000A225A7500249C75D8750B251D760025E6
:102590005D7626259D760E22D9761A7700225A7707
:1025A00098770F24DC7708AB1A7028205870997040
:1025B0001B206B46587102A96FE0FF2F00D9FF273F
:1025C000002471E020460A2148433E490A5AB2429B
:1025D00068D1411848880B9A904263D3B84261D8B9
:1025E000364A521E964223D10A226E463272002388
:1025F00073720422B272F372092232730822727368
:102600000A2254432F4AA2189278B273000AF07338
:10261000002002AA0B181418401C1B79C0B22372A8
:102620000528F7D3487A707535710E20707133E044
:1026300009266F463E7200237B720422BA72FB7237
:102640003E7307227A730A2254431E4AA2189278D4
:10265000BA73000AF873184602AA0B181418401C23
:102660001B79C0B223720528F7D33D710D20787114
:10267000497AFF2910D0144B00200901C9180B5CBE
:102680001418401CC0B2E3721028F8D31B207871D4
:10269000172038721520787311460198FFF71BFE3A
:1026A0000DB0F0BD641CE4B2FFF712F9A04289D866
:1026B00009AB07CBFFF7F4FDF2E7000003280000A9
:1026C0003A000020383C0008923C00080002090251
:1026D0004B22000A090AD20090420ADB7D22D20076
:1026E000914206DBFA224243531A024AD3615162F5
:1026F000106270472401002010B5FDF744FF00F080
:102700006BFD10BD7FB52821484307490A9D099CF0
:102710006E464863B0888881CA62CB710846328CA5
:10272000C2810C630D727FBD240100200349024861
:102730000860406800470000D83C000864010020A1
:1027400001480078704700006801002070B5084615
:102750000E4B0D4919601146FFF750FD012000F0A6
:102760001BF80B49012208781043FD221040087025
:102770000848FFF757FB064D0024083D2C7300F076
:102780002BFD6C7070BD0000F43C0008640100205B
:1027900088010020B80B0000014908707047000054
:1027A00068010020FEB57E4CA17803290BD00129D9
:1027B00074D0022901D10321A170608101F0D7F901
:1027C000A07800286AD1774F00203D466071764E90
:1027D00070350AE06079022807D16069002804D0CA
:1027E000A078002801D1FDF7CDFE306800780028E0
:1027F0000ED1A078002805D1FFF710FA002801D0EB
:10280000FFF77AFFFFF78CFA002801D1FFF7EFF806
:10281000FDF7AFFE002870D06148401D00F004FCB9
:10282000607900F08CFA216960797854491C216143
:10283000322901DB002121612269FF21B954C1073E
:102840000ED0694601A800F0C9FA58480099016005
:10285000574A01981060326892689047002015E04E
:10286000810715D5694601A800F0B8FA30680099CB
:10287000826901989047FFF74DFA252803D0306808
:102880000078012801D1FFF7B2F80120E07077E06D
:10289000C10604D530684069804771E07EE00106DA
:1028A0002CD5306843490078002813D0012000F06F
:1028B000B1FA697828780902401881B23068C26894
:1028C000012090476079410610D5694601A800F0C3
:1028D00085FA28E0002000F09DFA6978287809023E
:1028E000401881B23068C268012026E0800647D5D2
:1028F000694601A800F072FA35E049E0410616D5B4
:10290000694601A800F06AFA3068007800280AD108
:1029100028780007000F052805D1214A2549921D76
:10292000002000F08BFA30686A78036924E04107E0
:1029300005D530680021C2680846904720E00107AD
:1029400003D50020FFF728FF18E0800616D569465A
:1029500001A800F043FA3068017800290AD015492F
:10296000012000F057FA30686A7803690021009866
:10297000984705E0036900220E49F8E700F02CFCB7
:10298000A078002800D125E76079802806D121E7CA
:10299000A0780028F7D060790028F4D1FEBD0000AF
:1029A00050000020D00100206401002070010020B0
:1029B000740100204002002010B50C461F2900D9E8
:1029C0001F24014622460548FFF7B2F80448047068
:1029D000C01DA41D447001F0E5F810BD02020020E6
:1029E0005000002070B50D46124A014610780028AC
:1029F00009D0401E1070002656705068092806D075
:102A0000401C506005E001205070002070BD304631
:102A100056600C22084B4243D41842018018074AE2
:102A200080182A462060FFF783F825712046A660AB
:102A300070BD0000DC000020B4030020680200200C
:102A400010B500F094FB0020FFF7F8F910BD00006E
:102A500000A070474D475F424C455F4C49425F566E
:102A6000312E30000148007870470000DC00002063
:102A7000F0B585B015460C46074614225CA16846A1
:102A8000FFF756F8002C6CD0002D6AD001265D4D62
:102A9000122F22D0132F23D0152F62D1E079E028F6
:102AA00074D029DCD02845D0D2285AD1A07A642805
:102AB00000D86870287969468872E878C872401C26
:102AC0000006000EE87067D067E06878A978484390
:102AD000694608731421684687E02078012840D1B0
:102AE000287969468872E878C872401C0006000E92
:102AF000E870EAD1EE70E8E7E22834D0EA2830D175
:102B000020786946087060784870A0788870A88836
:102B10004871C870000A88710871EB20C8713AA02A
:102B200002884A81408888811421684600F0F6FDB9
:102B3000012014E0A17AA97028796A469072E87899
:102B4000D072401C0006000EE87000D1EE7068786C
:102B5000484310731421104600F0E0FDA07AFFF7FF
:102B6000B1F805B0F0BDA07A042810D00528F8D13E
:102B7000E07A64214843FF21FEF7B0FFC3B2002290
:102B8000E37211461046FFF711F9EAE716E0627B9F
:102B9000217BE07A6523F6E7EE706878A9784843F0
:102BA000694608731421684600F0B8FD687800286B
:102BB00000D16E706878FFF717F9D2E7E07A6A46BD
:102BC0000102A07A0843A8802178117061785170C1
:102BD000A178917090725071D070000AD07290718B
:102BE0001071E120D0711421684600F097FDB8E71C
:102BF00000000000000000DC1102937D00030000D3
:102C0000000000003A0000206D6720200000000056
:102C100010B50446FDF79FFC01215020FDF790FC04
:102C200001212046FDF78CFCFDF79CFC10BDF8B59A
:102C300015460E460446FDF78EFC01212046FDF7A1
:102C40007FFC0746002406E00021FF20FDF778FC0A
:102C50003055641CE4B2AC42F6D3FDF783FC384631
:102C6000F8BD70B50C460546FDF775FC01212846F8
:102C7000FDF766FC0021FF20FDF762FC2070FDF7E8
:102C800071FC70BDF8B516460D460446FDF763FCB1
:102C9000202020430121FDF753FC002407E0287881
:102CA00001216D1CFDF74CFC641C0746E4B2B442E4
:102CB000F5D3FDF757FC3846F8BD70B50D46044610
:102CC000FDF749FC202020430121FDF739FC0121BB
:102CD0002846FDF735FCFDF745FC70BD016800296D
:102CE00002D14068002801D00020704701207047C1
:102CF00000210160416002490A200870704700000D
:102D0000DC0000200268136812790A700168896883
:102D10000160002900D141601846704710B50B468C
:102D2000044611461846FFF75DFE002806D061688C
:102D3000002901D0886000E02060606010BD10B5FF
:102D400001460E20FFF7B9FF10BD1CB55320FFF759
:102D50005FFF03211F20FFF7B0FF01A91F20FFF72E
:102D600080FF684600790028F7D103211F20FFF774
:102D7000A4FF01A91F20FFF774FF6846007900280F
:102D8000F7D101211520FFF798FFA0211220FFF7AE
:102D900094FF04210A20FFF790FF00210A20FFF78B
:102DA0008CFF88211220FFF788FF012469460C70F0
:102DB0002120487002221320FFF764FF69460C703F
:102DC0002020487002221320FFF75CFF002115200D
:102DD000FFF773FF5620FFF71BFF1CBD7CB50D46A8
:102DE0000446062269461020FFF721FF694648790C
:102DF0000B7902041802C97810184018694620603F
:102E00008878497800040902401869460978401812
:102E100028607CBD1CB50C4600280BD002226946F8
:102E20000620FFF704FF6846007820706846407867
:102E300060701CBD022269460420F2E77CB515468D
:102E40000C46002809D06278901C2870002A03D014
:102E5000A11C6120FFF7EBFE7CBD02226946042025
:102E6000FFF7E5FE68464078801C287068460078C9
:102E700020706846407860706846007825460107F3
:102E8000090F6846407808350B00FFF76FF8060514
:102E9000080513041904DFE70622A11C08E00C282A
:102EA000DAD10622A11C0A20FFF7C1FE062229461C
:102EB0000B20CFE70C28CFD1062229460A20C9E7EC
:102EC0002228C9D10622A11C0B20FFF7B0FE062242
:102ED00029460A20FFF7ABFE162221460E31B8E73D
:102EE0007CB505460024684604714D4808605120B1
:102EF000FFF78EFE01A91F20FFF7B3FE6846017998
:102F00008029F7D147491E20FFF7ABFE782100202A
:102F1000FFF7D3FE06210846FFF7CFFE7A210020F7
:102F2000FFF7CBFE5120FFF773FE5320FFF770FE33
:102F300002210120FFF7C1FE1E211D20FFF7BDFE6B
:102F4000284600F0E0F800A908200131FFF789FECB
:102F500068464078334D002807D128781B2801D2D5
:102F6000152000E0112069464870C02069460870AD
:102F70002D20887003220420FFF784FE69460C7020
:102F80004C7002220C20FFF77DFE2878802419283F
:102F900044D01C20694608704C7002221420FFF7B0
:102FA00071FE10206946087002254D702A460A20DD
:102FB000FFF768FE69460D701220487002220D204E
:102FC000FFF760FE01206946087007204870022262
:102FD0000E20FFF757FE032269460B20FFF727FE5E
:102FE00040206946C87004220B20FFF74BFE69465B
:102FF0000C7001220C20FFF745FE5120FFF708FE60
:10300000FFF7A3FEFF210E20FFF757FE062204491B
:103010000820FFF70CFE00F0DFF87CBDCC20B9E7FC
:1030200098000020D800002038B5044669460E20DC
:10303000FFF717FE68460178217038BD1CB501788E
:103040006A4611704178517081789170C078D07063
:10305000042269460C20FFF715FE1CBD01B582B0A5
:103060006946087A0870487A487002220320FFF700
:1030700009FE0EBD0A4610B50146A020FFF702FE6C
:1030800010BD10B5282803D201460120FFF715FE18
:1030900010BD1CB501786A46117041785170807876
:1030A0009070032269460D20FFF7ECFD1CBD1CB596
:1030B000FF216A4611705070022269460E20FFF708
:1030C000E1FD1CBD08B501280AD002280AD003285A
:1030D0000AD004280AD005280AD006280AD00CE015
:1030E000092008E00C2006E0012004E0022002E0B4
:1030F000032000E004206946087068460178022039
:10310000FFF7DBFD08BD08B502216A46117050705B
:103110000A4669460F20FFF7B5FD08BD1CB56A4693
:103120001070010A5170000C90700322694607204C
:10313000FFF7A8FD1CBD00001CB56A461070010A0F
:103140005170002191700549884201D90120907089
:10315000032269461120FFF795FD1CBDFFFF00000B
:103160000A4610B50146A020FFF78CFD10BD01B541
:1031700082B06946087A0222C006C00E0870487AFA
:1031800048700520FFF77EFD0EBD1CB500216A4684
:1031900011705070010A9170000CD07004226946C1
:1031A0000F20FFF76FFD1CBD38B505460C465120BA
:1031B000FFF72EFD5320FFF72BFD280169460C3049
:1031C0000870802004434C7002221420FFF75AFD3F
:1031D0005620FFF71DFD38BD1CB50220694608705A
:1031E000FF2048708870C87004220F20FFF74AFD46
:1031F0001CBD10B501210F20FFF75FFD10BD0000C1
:1032000038B5054600230C4610460093FFF766FDCF
:10321000002802D02B70237038BD69461046FFF796
:1032200071FD0146684602782846FEF781FC684633
:103230000078207002480178491C017038BD0000F8
:10324000DC00002010B50548034981600021417071
:103250001430FFF74DFD10BDD43C0008E400002001
:103260007047000000B587B0182207A16846FEF736
:103270005FFC0B480321017018214170006869460A
:10328000FEF72EFD07B000BD101000280001002C35
:10329000011820000300FFFFFFFFFFFFFFFFFFFFFC
:1032A000C40100201CB500228C070C490092A40F19
:1032B00001920C7006244C7002236C4623706270DD
:1032C0000279A2704079E0700D2020711A2060719F
:1032D00008686946FEF704FD1CBD0000C40100201B
:1032E0000EB507A007C86B4607C308480321017045
:1032F0000921417000686946FEF7F2FC0EBD00002E
:10330000090200000000000000000000C4010020CD
:103310001CB500228C070C490092A40F01920C707E
:1033200006244C7002236C46237062700279A270EE
:103330004079E07005202071372060710868694687
:10334000FEF7CEFC1CBD0000C401002010B58907AB
:103350000548890F0170002141700068FFF770FB7C
:103360000020FFF719FA10BDC401002008B507A11D
:1033700009680091064903220A7002224A706A46CF
:10338000507008686946FEF7ABFC08BD07000000F6
:10339000C40100201CB507A005C800908907074894
:1033A000890F019201700621417000686946FEF79D
:1033B00097FC1CBD0C0759004F200000C4010020E1
:1033C000FEB5164C01A92246083A2046FFF718FF21
:1033D0006846007901262546002804D12E706870C1
:1033E00002206946087121780C4F132001401C3FD0
:1033F00078780423C24352081A4040071143C00F93
:10340000C00001436A46117060785070A11C00989A
:1034100000F0B9FB2E7000207870FEBD0001002086
:10342000FEB50D46002102911D2D00D91D25014636
:103430002A468948FEF77CFB8848874C057020782F
:1034400086498207920F8870012A19D0032A1CD05E
:10345000022A19D1637922791B02A579D218062A8A
:1034600050D00A460C32102D7FD052DCAE1E3300F5
:10347000FEF77CFD0993599859D5596259A959000D
:10348000022D01D3FEF7A7FAFEBDA1780B00FEF7CF
:103490006DFD120B0F1E233535350A283535352DB8
:1034A0000A35320A0A35EFE7E01C00F0D9F8FEBD14
:1034B00001466948FFF7D4FE617A207A0902401874
:1034C0006946088102A9E01C00F000F9FEBD014632
:1034D0006148FFF73BFFFEBD01465F48FFF7E2FE94
:1034E000FEBD01465C48FFF7FBFEFEBD01465A48A3
:1034F000FFF750FFFEBDFFF7B5FEFEBD0846FFF724
:1035000035FFFEBD012DFCD101465348FFF700FFFA
:10351000FEBD514B0933122D61D0162D72D0182DDE
:1035200079D0522D5BD0227AE179120289188AB2C1
:103530002946FEF7B5FEFEBD237AE1791B02C918C4
:103540008EB21680A37A617A1B02C9188BB253809F
:10355000E17A247B2402091989B2918000913246D4
:103560002946FEF7BBFFFEBDFFE7237AE1791B0288
:10357000C9188EB21680A37A617A1B02C9188BB261
:103580005380E17A247B2402091989B29180009149
:1035900032462946FEF79EF9E5E700222946FEF766
:1035A0006BFEE0E7237AE1791B02C91889B211802A
:1035B000637AA47A24021B199BB253800A462946D7
:1035C000FEF7C4FECFE7237AE2791B02D21893B24A
:1035D0008B80024619462846FEF7B9F9C3E7E27820
:1035E000A6781202D21EB218D6B2E279247A240248
:1035F000121992B28A8029460096FEF784F9B2E742
:1036000000E008E0227AE0791202801888801248EF
:1036100000F075FAA7E7104800F034FAA3E7237A20
:10362000E1791B02C91889B21180A67A637A360241
:103630009B199BB25380267BE27A36029219667BF5
:10364000A47B92B2240234190092A4B20A460194D7
:103650002946FEF744FE86E72C040020E400002003
:1036600010B519490122096A4A7002780A708378F4
:1036700042781B02D2184A800379C2781B02D21802
:1036800092B28A808479437924021B19CB80047A10
:10369000C37924021B199BB20B81447A807A000201
:1036A0002018401C4881C82B01D8C82008819000F0
:1036B00010180B898008984204D9052080034243E2
:1036C000100C088110BD00008001002010B5064CD0
:1036D0000346E0690988C18005221946FEF728FAE9
:1036E000E1690120487110BD8001002010B5FEF78E
:1036F00031FB002803D106484078282806D900204D
:10370000FFF74AF8FFF768FD012010BD002010BD4B
:103710008001002010B5FEF785FB10BDF8B50C4602
:103720000746002614E0142C01D9142500E0254694
:10373000FFF798F903280FD3084800950288BB19B2
:103740001B21022000F0AFF97019C6B2601BC4B291
:10375000002C01D0002FE6D13046F8BD1C0000201F
:10376000F0B50C4B00201C46D87130340A4AD87290
:103770000125C1084607615C760F2F46B7403942E4
:1037800003D0D97A5054491CD972401CC0B22528A4
:10379000EFD3F0BD800100205604002010B5C00713
:1037A00006D10448FD22017811400170FFF714FD95
:1037B00010BD000088010020F8B5064615460C46ED
:1037C0002948FEF72FFB2948022201781143017096
:1037D000FCF7F3FE254F0020083FB870002C2CD0DA
:1037E0000120C00261783018B862FFF797FCE80149
:1037F0000121301A8902401A78622078FEF7D0FA47
:1038000021780822387B114081422AD10121397068
:10381000504038731648006800688047FCF7D3FEB4
:10382000002078705320FFF7F3F9F91C0420FFF70C
:1038300018FA5620FFF7ECF9F8BD412040010521A8
:103840003018C9014018B862FFF768FC1B2D00D979
:103850001B25E8010521301A0902401A786201206F
:10386000B870FCF7B0FEF8BDB80B0000880100206E
:10387000EC000020F8B50F460546FEF761FF002872
:103880003DD065480068391A6448814204D96448CB
:103890000068281AFEF71AFF6248624C007800267A
:1038A000C107083C002933D0E089502148432C301F
:1038B000FEF7FCF945192846FFF767FCFFF750FFB4
:1038C000E0694671206A46702046A6821630FFF7EE
:1038D000E0FB20462C30FFF7B1FBFFF7B3FCE671AD
:1038E000607A022801D2022060724F49C0B2484378
:1038F0004018FFF721FC0120FEF770F83EE00020A1
:10390000FEF77CFA0020FEF769F800F030F9F8BD08
:10391000800712D5606A0121381A09064018000292
:10392000000AFEF7B9F92D1A208A5021484374384D
:10393000FEF7BCF945193D481BE0208A082801D252
:103940000121217136490D68502148436178890071
:10395000401A1038FEF7AAF94519208A452801D9DE
:10396000334806E0304948430321FEF7B7F82E49B3
:103970004018FFF7E1FB2846FFF707FCA08A401C30
:10398000A0822846FEF762F9E079A17A4018C0B219
:103990002521FEF7A3F8234BE171CA0828339A5C6E
:1039A0004B0708465B0F012199400A4204D1E17A96
:1039B000FEF794F81F48405CA071C0B2FFF761FBAE
:1039C0002078002811D01B4901202531FFF722FA69
:1039D00018496A4625310120FFF730FA6846017818
:1039E00014482530FFF71CFD26700E490878C207E1
:1039F00004D040084000087000200AE02079002828
:103A000004D00020FEF7FAF92671F8BD208A81085B
:103A10000818FEF7F3F9F8BD7001002080A9030033
:103A20007401002088010020E2040000A60E0000BE
:103A3000307500005604002010B506488078002834
:103A400004D000210846FFF7A9FE10BDFFF7C4FB14
:103A500010BD00008001002010B50C46FFF746FEA7
:103A600000280BD10420FFF72DFBBB2040012018BC
:103A7000FFF754FB02484178491C417010BD00001B
:103A80008001002008B502216A461170052151709D
:103A90000121817019218171811C0098FEF71BFCA6
:103AA000FDF754FF08BDFFB58BB0149C1D461746AB
:103AB000E61C242101A8FEF754F80B9813210840B6
:103AC00069460870E01D48700E71300A4871042084
:103AD00088710020C8710C9808724F72380A887279
:103AE000002001A904E02A5C0B18401CDA71C0B266
:103AF000A042F8D30098FEF7EEFB0FB0F0BDF8B58A
:103B00000446827AC178007AE57900020543A078FC
:103B100009020843401F87B2667A1002064302205A
:103B200069460870607848701720A071A11C009841
:103B3000FEF7D1FB214633463A460B312846FDF7C6
:103B400004FFF8BD0EB58007800F6A46107205208D
:103B500050720020507001211170D07004209070BC
:103B60001320107169460298FEF7B5FB0EBD10B523
:103B700000F018F80020FFF79AFA0020FFF7CAFDBE
:103B8000FEF7D4FD10BD73B50D460098FFF7EFFAB0
:103B90006846447828462146FFF7E2FA2046FEF7B9
:103BA0004DF97CBD30B585B003A8FDF78DFE6946A3
:103BB000097B182902D918216A46117369460A7BC4
:103BC0001B4B511C1970002104E0445C5D18491C1A
:103BD000AC70C9B29142F8D3002003E09918521C8E
:103BE0008870D2B2192AF9D3114A1123113AD11887
:103BF0000C462D3C25781B20002D01D00D4A2B466C
:103C00006578002D02D00B4928461F3101910290A2
:103C1000A0896D46288006482D38C1792974007A1C
:103C2000687460890499FEF76DFD05B030BD000031
:103C30007D0000200202002003280300020400008F
:103C40002AFF03280800020900292AFF03280A0086
:103C5000020B00262AFF03280E00020F00282AFF6D
:103C6000032811001A1200000001022913000A00A3
:103C700000000000032814000A15000000020328B9
:103C800017000A18000000030129190002000000B3
:103C9000000010190D0C0B0A0908070605040302A1
:103CA000010011190D0C0B0A09080706050403028F
:103CB000010012190D0C0B0A09080706050403027E
:103CC000010013190D0C0B0A09080706050403026D
:103CD00001000000C13300080000000011210008AD
:103CE00059210008A51F0008D51F00083921000828
:103CF000692000080100000000000000593A000897
:103D00009D370008B9370008393A000875380008AF
:103D1000303D000800000020D0010000C41B000856
:103D2000B03D0008D0010020D8060000961F000812
:103D30008145020406082D01020304043606070823
:103D400009126A112020110106030390FE09FF11D8
:103D500002110293F540E11564010179B00E465657
:103D600020202E322E312E326D6D64121712A0E3F8
:103D70000421091044022109B2011A64010217103A
:103D8000A97C690C02230A0223FF2A2585398902AE
:103D900011142340582304080451A87B0713780109
:103DA00014204A040224201A9C281ABC3000000067
:04000005080000B13E
:00000001FF
