:020000040800F2
:1000000088090020C5000008D1040008D3040008B6
:1000100000000000000000000000000000000000E0
:10002000000000000000000000000000D5040008EF
:100030000000000000000000D7040008DF040008F2
:10004000F1000008F1000008F1000008F1000008CC
:10005000F1000008EF040008F1000008F9040008AE
:1000600000000000F1000008F1000008F1000008A5
:10007000F1000008F1000008F1000008F10000089C
:10008000F10000080000000000000000F10000087E
:1000900000000000F1000008F1000008F100000875
:1000A00000000000F100000800000000F10000085E
:1000B0000348854601F026FA004800477F130008F0
:1000C000880900200B4880F308880B480168090E56
:1000D0000A4A914205D10A480A4901600A480B4977
:1000E00001600B480047FEE7FEE7FEE7FEE7FEE79C
:1000F000FEE7000088090020040000001F00000047
:100100001810024001000000000001400000000043
:10011000B1000008E14910B5401E884201D9012014
:1001200010BDDF494861DF480722C3691B021B0A73
:100130004C042343C361002088610A6110BD10B5DF
:10014000082100F08AFE10BD10B5D74900F085FEE9
:1001500010BD10B5102100F080FE10BDD24910B5C1
:10016000083900F07AFE10BDF3B585B0CF49059887
:1001700004260825884243D10121801400F096FD11
:10018000CA4920310889CA4A104308810320012145
:10019000400400F07AFD00220521C64800F0BCFAB8
:1001A00000220421C34800F0B7FA00220321C1480D
:1001B00000F0B2FA6F0169460F8003248C701020A2
:1001C000C870BC4800F02EFA3946BA4800F08FFAE1
:1001D00069460D808C701827CF70B64800F022FA5F
:1001E0002020694608808C70CF70B24800F01AFA5F
:1001F0001020694608808C70CE70AE4800F012FA6C
:100200006A4696800020D08015815081012191811D
:10021000D08106991182508201A9059800F0B0FDA5
:100220000121059800F0D8FD0598FFF788FF059893
:10023000FFF78FFF07B0F0BD30B59F4900220B6874
:10024000012423430B600B689B07FCD501239B0211
:100250004B604B6801242404A3434B600C680123CA
:100260001B069C430C600C681F25AD06AC430C605C
:100270000C683F258006AD06401904430C608F4C86
:100280001120206008681843086008688001FCD5C8
:100290004868800880004860486802231843486026
:1002A00002E048680007820F022AFAD130BD10B57B
:1002B0000420FFF7C1FF022000F037FC00F03CFCF7
:1002C0000828FBD110BD7E4824E7FF220921013216
:1002D000C906002801D04A6170470A61704710B50D
:1002E0000121080700F0EBFC012000F0CAFA00F041
:1002F000E3FA10BDF0B585B0FFF7D9FF7048FFF7FE
:1003000009FF06216948FFF72FFF012636036846DB
:100310000680022484704821C1700927FF066946BF
:10032000384600F07FF90125684605802821C17014
:100330006946384600F076F905220821384600F073
:10034000EBF9E1016846018084701021C1706946B3
:10035000384600F067F90121084600F0A7FC0121AA
:10036000080700F0ACFC0C21002000F0CAFD0021C1
:100370006846019601720C214172857201A800F055
:10038000D4F807216846017344738473C57303A8C6
:1003900000F0FFF94B480168434A921D114001608B
:1003A0004048001F016904221143016105B0F0BDFE
:1003B0003E4908600889C007FCD008898007FCD541
:1003C0004868C0B2704710B5FF210131394800F0CC
:1003D00090F910BD10B5FF210131364800F087F9C2
:1003E00010BD10B50920C00600F074F9C004C01794
:1003F000401C10BD10B5002000F097FB00F09CFBE6
:100400000028FBD12C4801680122120691430160AB
:100410007D208001FFF77EFE10BD10B52A484B21DC
:100420000068C900884207D9002000F0CEFB02F026
:1004300050FCFFF754FF10BDFFF7DCFF1948001F09
:10044000016904221143016130BF1B480168012288
:1004500011430160016812061143016041680222E4
:10046000114341601648FFF755FE10BD10B5FFF768
:100470001EFF1348FFF74EFE10BD72B613480178F9
:10048000491C0170704711490878401E0006000E93
:10049000087000D162B6704770470000FFFFFF0090
:1004A00000E000E004ED00E0F7FF00000030014054
:1004B0000100FFFF0004004800100240002002403D
:1004C00080BB0000007000402000002000000020E1
:1004D0007047FEE7704770470E480068704710B5D8
:1004E0000C480168491C016001F008FF10BD10B5FF
:1004F000012000F070F810BD10B50120C00200F01E
:100500006AF80120000300F066F8002001F00CFFFB
:1005100010BD00000400002030480021016041604F
:100520008160C1602E494161704710B583792B49C4
:100530000268002B26D00B6893430B604A6803685F
:100540009A434A600279521813680468234313607F
:100550008A6803689A438A60CA6803689A43CA60D3
:100560004279102A05D051180A68006802430A60CF
:1005700010BD8A6803681A438A60CA68006802432B
:10058000CA6010BD0079401801689143016010BD38
:100590000021016001710C224271817170470F4985
:1005A0000A6902430A6170470C4A014652690020F9
:1005B0000A4200D001207047084948617047074B44
:1005C0000246196800205B691140134202D00029DD
:1005D00000D0012070470149486170470004014084
:1005E000FFFF1F00172110B5C906401811D00121C7
:1005F0008902401A10D0401A11D0884208D1012136
:100600008402204600F041FB0021204600F03DFB23
:1006100010BD01214C04F4E701218C04F1E7012114
:10062000CC04EEE7F0B5CC78002223071B0FE406DC
:1006300001D58C7823430C782406240E1AD0046844
:1006400001250E8895402E40AE420FD197000F260F
:10065000BE40B4431E46BE403443CE78282E02D05E
:10066000482E02D002E0456100E00561521C082AD4
:10067000E6D304600A88FF2A1CD944680022164683
:1006800008360125B5400E882E40AE420ED19700A7
:100690000F26BE40B4431E46BE403443CE78282EBB
:1006A00000D14561CE78482E00D10561521C082A40
:1006B000E5D34460F0BD0021C9430180022181706F
:1006C0000421C17070470246926800200A4200D09F
:1006D00001207047806880B270470246D2680020CF
:1006E0000A4200D001207047C06880B270470161A3
:1006F000704741617047002A01D001617047416134
:100700007047C1607047012212040A43826181610F
:1007100082618169806970474B0710B5DB0E9A4092
:10072000CC080F219940002C06D0436A8B434362CA
:10073000416A1143416210BD036A8B430362016A3F
:100740001143016210BD00000C49086070470B495D
:100750004860704709498860704708490848086040
:1007600070470649074808607047044A0146D26846
:1007700000200A4200D001207047000000300040F5
:10078000AAAA0000CCCC0000254908432549C8602E
:10079000704770B5C2780F230125234E0178002AD7
:1007A0001AD0204AD468520D1440121B120A042495
:1007B000A41AD3404278A240847889001C40144394
:1007C0001A4B2201C9180A600178CA06D20E954058
:1007D00049098900891907E0CA06D20E9540124AD4
:1007E00049098900803289180D600078400980002D
:1007F0008019006870BD70470A4A0029116901D04C
:10080000014300E081431161704704220849042834
:10081000086902D09043086170471043FBE700006D
:100820000000FA0500ED00E000E100E000E400E077
:1008300000E000E010B501210C07204600F061FA4D
:100840000021204600F05DFA10BD2A498A150028D3
:10085000086801D0104300E09043086070472549C4
:1008600010220128086802D09043086070471043A6
:10087000FBE7204A11680F235B0299430143116093
:1008800070471C498A150028486801D0104300E0D1
:10089000904348607047174B1A68920892000243D1
:1008A0001A601548026904231A430261012901D024
:1008B00020BF704730BF70470E48026804210A43CA
:1008C0000260026802231A4302600B4802690A436D
:1008D000026130BF7047074A0146526800200A4251
:1008E00000D00120704703490A68800002430A6073
:1008F000704700000070004000ED00E0F74801681C
:100900000122114301604168F54A114041600168CC
:10091000F44A114001600168012292049143016090
:1009200041687F2212049143416000218160704739
:1009300010B5EA490B680122120493430B600B685F
:100940009400A3430B60801A09D003221204904242
:1009500004D10868052212041043086010BD08681D
:10096000FAE7034600205909DC4A01290AD0022986
:100970000AD0516ADA06D20E012393400B4200D00E
:10098000012070471168F5E7116AF3E718B50020F8
:100990000524240200903120FFF7E3FF0099491C51
:1009A0000091002801D1A142F5D13120FFF7D9FFF4
:1009B000002800D0012018BDC84A1168F8239943C7
:1009C000C000084310607047C4490128086803D07C
:1009D000400840000860704701221043FAE710B554
:1009E000BE4B1868C04C89061205204011430143D4
:1009F000196010BD30B50546B8480C4641683F2225
:100A00001204914329434160002C7CD001208004D2
:100A1000844204D1012205212846FFF7E0FF01208E
:100A2000C004844204D1012207212846FFF7D7FFE2
:100A300003208004844204D1012209212846FFF7C3
:100A4000CEFF01200005844204D101220B2128465B
:100A5000FFF7C5FF05208004844204D101220D2147
:100A60002846FFF7BCFF0320C004844204D10122C2
:100A70000F212846FFF7B3FF07208004844204D1EA
:100A8000012211212846FFF7AAFF012040058442D8
:100A900004D1012213212846FFF7A1FF0920800479
:100AA000844204D1012215212846FFF798FF052032
:100AB000C004844204D1012217212846FFF78FFF8A
:100AC0000B208004844204D1012219212846FFF71B
:100AD00086FF03200005844204D101221B21284601
:100AE000FFF77DFF0D208004844204D101221D21E7
:100AF0002846FFF774FF0720C004844206D1012274
:100B00001F21284600E002E0FFF769FF30BD032205
:100B10000721F6E70122714912060028086801D072
:100B2000104300E09043086070476C4A51688908A0
:100B30008900014351607047684840680C210840B3
:100B40007047664A5168F0239943014351607047EA
:100B5000624A516807231B02994301435160704761
:100B60005E4A51680723DB029943C0000843506086
:100B700070475A4A00020029916801D0014300E001
:100B800081439160704755494A6802434A60704703
:100B9000524A516803239B039943014351607047B4
:100BA0004E490A6A520852000A620A6A5208520002
:100BB0000A62012806D0042803D1086A05221043DE
:100BC00008627047086A0122F9E744490028486A28
:100BD00002D00122104301E0400840004862704703
:100BE0003E490A6A02430A62704701223B49D20326
:100BF0000028086A01D0104300E090430862704763
:100C000070B5364D044668680C210840374903D05A
:100C1000042801D0082801D0216017E0286829683D
:100C2000800E49026A68490F01231B04401C491CBD
:100C30001A4201D12E4A05E06A68920301D52D4A75
:100C400000E02A4A504300F0F1FB206068682A491E
:100C50000006000F0A5C2068D04060606A68520598
:100C6000520F8A5C0346D340A3606A689204520F15
:100C7000895CC840E06069681F4A0904890F121F37
:100C8000515C00F0D3FB206170BD30B5134B5A6945
:100C90000F25D4096D042C40D2B22243002902D082
:100CA0001043586130BD82435A6130BD0B4A002960
:100CB000916901D0014300E0814391617047074A87
:100CC0000029D16901D0014300E08143D16170471F
:100CD000024A0029D16811D0014310E000100240FF
:100CE0000000FFF8FFFFF6FEFFFF8F0300127A00FF
:100CF000001BB70000093D000C0000208143D160BB
:100D00007047174A0029116901D0014300E081436F
:100D10001161704701221249D2040128086802D0EB
:100D20009043086070471043FBE70D494A6800068E
:100D300002434A6070470A48416A01221206114381
:100D400041627047064A0146926800200A4200D07C
:100D50000120704702498A68000402438A60704794
:100D600000100240564910B5C84208D18414012130
:100D70002046FFF7ADFF00212046FFF7A9FF10BD79
:100D800030B5038B0F22120313404A884C8922434B
:100D90000C881C4322430283838B3F22D24313409F
:100DA0008A88CC890D892243CC882C4322431A435C
:100DB00010231A438283028C8989018430BD00216B
:100DC0000180418008228280C1800122028141810C
:100DD00002228281C18170470029018B02D0012249
:100DE000114301E049084900018370470223002AAA
:100DF00006D0028B1A430283028A0A43028270479A
:100E0000028A8A430282018B994301837047002A38
:100E1000028B01D00A4300E08A4302837047002A14
:100E2000028B01D00A4300E08A43028370470160CD
:100E30007047406880B27047002A028D01D00A4096
:100E400001E0C9430A4302857047028B1D4B1A40DB
:100E50000283028B0A430283704710B508220829D7
:100E600010D01024102910D0174B994202D1038BB7
:100E700093430383144A083A914202D1018BA14360
:100E8000018310BD018B1143FAE7018B2143F7E782
:100E90000246128900200A4200D001207047024613
:100EA000928900200A4200D001207047828A0A43BA
:100EB0008282704781847047828B0A4382837047A5
:100EC00000D0FEBFFFFC0000F7FF000015480168DE
:100ED0008907890F016000218160C1600161416162
:100EE0007047104A116889088900014311607047F2
:100EF0000C4A0029116801D0014300E081431160D0
:100F000070478A0710B5120F0F2393408C080549CC
:100F1000A40061188C689C438C608B6890400343EC
:100F20008B6010BD000001400D210170F9A07047D9
:100F3000162070477CB50525069BED020224AB42C6
:100F400001D1012A0BD0AB4211D1072A0FD8F5A14C
:100F500009680F22019101AB0094072136E0F2A14C
:100F600009680622019101AB009401212EE0AB42F9
:100F700009D1102A07D8EDA109682A22019101ABF5
:100F80000094192122E0AB4209D12B2A07D8E8A10D
:100F900009682D22019101AB00942B2116E0AB4290
:100FA00009D12E2A07D8E3A109683122019101ABAA
:100FB00000942E210AE0AB420BD1322A09D8DEA1DF
:100FC0000968019101AB37220094322101F002F847
:100FD0007CBD00F03FFF7CBD10B51F2A08D0262A3B
:100FE00009D0312A07D0372A05D000F033FF10BDD1
:100FF000D24A0121117002F04BFD10BD70477047BD
:10100000F0B585B0064615460C4601A8FFF78CFFE3
:10101000034600200221222C46D011DC07220D2C91
:1010200039D006DC042C20D0092C22D00B2C15D171
:1010300027E00F2C33D01F2C47D0202C0ED131E0CD
:10104000302C50D006DC232C3DD0262C3DD0282C33
:1010500004D143E0312C38D0372C36D022463146EB
:10106000284600F0F7FE05B0F0BD68460079009014
:101070002EE001F03BFB00F027FAC7B201F036FB8F
:1010800006E000F005FB00F01FFAC7B200F000FB1D
:10109000034600971CE002900092039017E0A8A37B
:1010A000009215E0A8A00FE0A8480078002803D01F
:1010B0001620A74B00900BE00F232246314628460E
:1010C00000F09AFECFE7A3A000680091029002AB67
:1010D00022463146284600F055FFC4E79EA000682E
:1010E0000290042004E09A48801E006802900120CB
:1010F0000090ECE710B5994C0299A24207D119284B
:1011000005D8192018802A200880012010BD002051
:1011100010BD38B514460546222905D00A460146B9
:10112000204600F097FE38BD18461630A62801D894
:10113000162002E0A620C01A80B2C0B200908448F7
:101140000A46C3182946204600F01CFF38BD1CB5CE
:1011500083A003C8019100900521684602F084FA3B
:101160000020694688700521684602F07DFA01205A
:101170001CBD0EB57CA10EC9009102930192694677
:10118000C8700921684602F06FFA00206946C870ED
:101190000921684602F068FA01200EBD10B5092049
:1011A000C006FFF797FAC00704D02820FFF7E1FF39
:1011B000FFF7CDFF10BD62A0704770475F484078D1
:1011C000704770B504466B4E00200D4630603068A5
:1011D0000321090508433060284600F089F900BA68
:1011E000000AE97800020843F061281D00F080F948
:1011F00000BA000AE97900020843B06128460830C5
:1012000000F076F900BA000AE97A0002084370613A
:1012100028460C3000F06CF900BA000AE97B0002A5
:10122000084330613068012108433060204600F0F7
:101230005FF900BA000AE17800020843B060201D9F
:1012400000F056F900BA000AE17900020843B060E4
:101250002046083000F04CF900BA000AE17A00029A
:101260000843B06020460C3000F042F900BA000A92
:10127000E17B00020843B0607068C007FCD03068B2
:10128000802108433060F068010E2170010C61700C
:10129000010AA170E070F068010E2171010C61710A
:1012A000010AA171E071F068010E2172010C6172F6
:1012B000010AA172E072F068010E2173010C6173E2
:1012C000010AA173E073012070BD70B51B4D0400CD
:1012D00004D001218020FFF7D8FC04E00021802009
:1012E000FFF7D3FC2C706C7070BD10B5FFF735FAAA
:1012F00012494868401C48604878002802D0002005
:10130000486004E08878401C8870C007C00FFEF772
:10131000DCFF10BD4D472D53687574746572303114
:10132000000000000A180000001800001218000059
:101330000AA000000F180000131800001C00002075
:101340005356322E312E3200000100009C00002046
:10135000064200080B0A0000DBFA5A0212180000CD
:101360000200080000000000010000000000000072
:1013700000000000006002400F48406870470120F4
:101380004005401EFDD2FEF7B5FF0C49032000F0DA
:1013900025F800F0B3F908494320091D01F028FBA6
:1013A00005480178083001F0E9F8FF20413001F0EC
:1013B000D3F801F0C3F8FCE728000020E2040000A5
:1013C00010B50120FFF7D1F90028FAD110BD10B5F2
:1013D0000220FFF7CAF90028FAD110BD70B5044603
:1013E0000D460120FFF7F1FB6120FFF7BAFA002854
:1013F000FAD0FFF7E5FF0C4E3046FFF7A5F9E0B253
:10140000FFF7A5F9FFF7E3FF3046FFF79DF9280541
:10141000000DFFF79FF9FFF7A0F9FFF7A2F970BDE4
:1014200010B5FFF79AF910BD5555000030B50B46C1
:10143000014600202022012409E00D46D5409D42AE
:1014400005D31D469540491B254695404019154634
:10145000521E002DF1DC30BD70B500242546002859
:1014600001DA01244042002901DA01254942FFF74F
:10147000DDFFAC4200D04042002C00D0494270BD9C
:1014800003460B439B0703D009E008C9121F08C09D
:10149000042AFAD203E00B780370401C491C521E48
:1014A000F9D27047D2B201E00270401C491EFBD253
:1014B00070470022F6E710B513460A46044619465F
:1014C000FFF7F0FF204610BD421C0178401C0029A8
:1014D000FBD1801A704730B504460020034600E077
:1014E0005B1C934203D2E05CCD5C401BF8D030BD66
:1014F0000321001D401E037812021A43491EF9D52C
:1015000010467047064C0125064E05E0E36807CCFF
:101510002B430C3C98471034B442F7D3FEF7CCFD74
:10152000204500084045000830B58C180278401C62
:1015300013071B0F01D10378401C120906D1027852
:10154000401C03E005780D70401C491C5B1EF9D15E
:1015500001E00B70491C521EFBD1A142E6D30020D2
:1015600030BD000010B50A4CE07800280CD0FEF722
:10157000B3FFA169884208D3401A01218902884239
:1015800003D20020E070012010BD002010BD00003B
:101590002401002070B5114C0025216A4A78002AE8
:1015A00007D04989A28A914203D100F0B7FB206A93
:1015B0004570E169487900280ED0C888A28A904217
:1015C0000AD10648E67905223030FFF759FF02F0CC
:1015D0006DF8E0694571E67170BD00008001002082
:1015E00030B500210F24621A435C855C4554491CC8
:1015F00083540829F7DB30BD10B503490A6A496AEC
:101600005043FFF713FF10BD2401002010B504491B
:101610000446CA69496A5043FFF71EFF001910BD0E
:101620002401002013B5684600781322104C1040A6
:101630002070684642786270002A02D0A01CFFF732
:101640001FFF0C480078002807D0207800A98207E7
:10165000920F0748013102F0D7FC684640780449F0
:10166000801CC2B20846083801F0E0F81CBD00003A
:10167000EC0000209C00002001480078704700002A
:101680002401002001484079704700002401002017
:10169000074808490078020930320007000F8A70B5
:1016A000092801D8303000E03730C8700148704751
:1016B000C40000204200002010B5074C207900280B
:1016C00008D0FEF709FFA169884203D300202071EA
:1016D000012010BD002010BD5000002001494870BD
:1016E00070470000D000002010B5014606220248D5
:1016F000FFF7C6FE10BD0000B00000200149012028
:101700008870704750000020014948617047000010
:101710005000002010B5FEF76DFEFEF7DDFE034918
:10172000283088610120C87010BD0000240100200D
:1017300070B50446034D01202871FEF7CDFE001957
:10174000A86170BD500000200521C00109024018A9
:1017500001494860704700006801002030B47446B9
:10176000641E2578641CAB4200D21D46635D5B009D
:10177000E31830BC184702E008C8121F08C1002A4D
:10178000FAD170477047002001E001C1121F002A02
:10179000FBD17047090710B5090FC00705D0032911
:1017A00002D1022001F016FA10BD05488078002809
:1017B00002D0FFF7AFFF10BD01F07EFA10BD0000B0
:1017C00024010020F8B50746204C0020A0700878BE
:1017D00016460007000F0D46032802D0052822D127
:1017E00017E0412040013818E06301F01FFA174864
:1017F0006946C0890880009801F0B8F9217A206B09
:1018000001F0C0F9207A0121C001C9024018A0638B
:1018100011E0002E07D0284606220D490830FFF7B8
:101820005AFE002802D001F047FA04E03246294669
:10183000384600F035FD532000F072FF05490420C2
:1018400000F097FF562000F06BFFF8BD2401002048
:101850008E0000208301002070B5284C6279002A98
:101860001FD02278521C22702279002A01D028220F
:101870002270A2780025002A08D06269891A22699C
:10188000801A00F0CDFC6570A5706581207827284E
:1018900015D801F07EF90020FFF736FF01F02FFA8E
:1018A00070BD512000F03CFF7821202000F08DFF1A
:1018B000562000F035FF0A20FFF726FF70BD2520D7
:1018C0002070606BFFF7A2FEA16A4618606B80096A
:1018D000FFF71AFF304601F0E0F9207801F059F9DE
:1018E000A079401CC0B2A071142802D3A57100F0E9
:1018F000B4FF6089401C608170BD0000240100209D
:1019000010B508492520087001F043F9962001F030
:101910009BF9002001F053F901F0F1F9002001F0EA
:101920009FFE10BD2401002010B5012001F052F9E6
:101930000448C16B806B081825218901401801F00B
:1019400075F910BD2401002070B5144C0646A06244
:101950000D46022001F03EF9472080012818E0637F
:1019600001F064F9E179E06A01F00CF9E06801F056
:10197000FDF8E0790121C001C9024018A063207878
:1019800025280AD12661656160890F2802D2607816
:10199000002802D001206070A07070BD24010020DA
:1019A000F0B58BB00D4602460024200111782B5C67
:1019B00040195940CF4B595C1170167907797E4018
:1019C0009E5D1671167A077A7E409E5D1672167BB2
:1019D000077B7E409E5D1673567847787E40B446FE
:1019E000567947797E409E5D56700196567A477AC1
:1019F0007E409E5D5671567B477B7E409E5D567253
:101A000066469E5D5673967887787E40B64697798F
:101A100086797740BC46967A877A7740DE5D967005
:101A20000096967B877B7740DF5D977176469E5D5B
:101A300096726746DE5D9673D67BC77B7E40B44662
:101A4000D67AC77A7E409E5DD673D679C7797E40B6
:101A50009E5DD672D678C0780F464640985DD071AC
:101A600066469B5DD370019E08467040009E5E40B6
:101A70000346734000F030FE117858404140117029
:101A800050789178484000F027FE51785840414006
:101A900051709078D178484000F01EFE91785840FF
:101AA00041409170D078784000F016FED1785840CF
:101AB0004140D170107951799379D77906464840E1
:101AC0007B40434000F008FE1179584041401171BD
:101AD00050799179484000F0FFFD517958404140DC
:101AE00051719079D179484000F0F6FD91795840D4
:101AF00041409171D1797140084600F0EDFDD179F6
:101B000058404140D171107A517A937AD77A06467B
:101B100048407B40434000F0DFFD117A584041408F
:101B20001172507A917A484000F0D6FD517A5840AF
:101B300041405172907AD17A484000F0CDFD917ABF
:101B4000584041409172D17A7140084600F0C4FD7E
:101B5000D17A58404140D172107B517B937BD77B27
:101B6000064648407B40434000F0B6FD117B58409C
:101B700041401173507B917B484000F0ADFD517B9B
:101B8000584041405173907BD17B484000F0A4FD08
:101B9000917B584041409173D17B7140084600F0E1
:101BA0009BFDD17B58404140641CE4B2D173092CA9
:101BB00000D2FAE623011078E95C48404D49085C00
:101BC000107009905819147903795C400F5D1771F2
:101BD0000897137A047A6340CF5C17720797137BD8
:101BE000047B6340CB5C1373069353784478467947
:101BF0006340547974400F5D5770547A467ABC46FE
:101C000074400F5D57710597547B467B74400F5DA0
:101C100057720497CB5C53730393947883788679D7
:101C20005C409379877A7340967A7E408F5D977097
:101C30000297967B877B7E408F5D977101970E5D43
:101C40009672CB5C9373D77B9E46C37BA0355F4077
:101C50000A97D37AC47A6340CC5CD473D379C779BA
:101C60007B40CB5CD372D778C0784740C85DD071D9
:101C700000900A9FC95DD1702F7809987840107044
:101C80006878674647405770A878029F474097702A
:101C9000E8784140D1702879089F474017716879EA
:101CA000059F47405771A879019F47409771E9798F
:101CB00000984840D071287A079F47401772687A89
:101CC000049F47405772A87A46409672E87A43408C
:101CD000D372287B069B43401373687B039B43406E
:101CE0005373A87B734643409373E87B4440D4739B
:101CF0000BB0F0BDBC42000830B5ADB00C46054697
:101D0000FFF75FFA002807D12146684600F082FC01
:101D100069462846FFF744FE2DB030BD70B50F4C24
:101D20000546206A017861724088E081502148436D
:101D3000FFF76CFC401900F0B0FF206A8188218217
:101D4000008960820C2905D2054800F07DFF012042
:101D5000207170BD034800F077FF70BD8001002046
:101D600017110000BD1F000070B50446801CFFF76E
:101D7000BBFC2078C1094006C00F01F007FF2078A6
:101D80001C4D4006C00F687128460622A11C353044
:101D9000FFF776FB0E342846042221462C30FFF74D
:101DA0006FFB28460322211D1630FFF769FBE079FF
:101DB0006872617A207A09024018E881E17AA07A93
:101DC000090240182882E17BA07B0902401880B2FA
:101DD0006882C82801D2C8206882064821460522A8
:101DE00010313030FFF74CFB607DC006C00EA8728A
:101DF00070BD0000800100207FB58007800F6C4619
:101E00002073092060730520207000206070042575
:101E1000A570E070012020716171100AE071A2715B
:101E200023722146039800F030F87FBD0EB507A15C
:101E300006C980070091800F019269460872072049
:101E40004872029800F021F80EBD00000300040063
:101E5000031700001FB58007800F6B461873092019
:101E60005873052018700020587004249C70D87096
:101E7000012018715971100AD8719A710A201872CC
:101E80001946039800F001F81FBD10B5FFF7CAFB13
:101E900010BDFFB587B01E466F46109B119A0546D0
:101EA00038710920787105200C463872002179724A
:101EB0000420B872F972601C387301207873B9730A
:101EC000F8730520C0023974834213D105A800902D
:101ED00006AB31460998FFF70DF900280AD069468C
:101EE000088B4873888AC87302A90198FFF7CDFF51
:101EF0000BB0F0BD21462846099AFFF7ABFFF7E784
:101F0000FFB587B0079817468007800F6A461070A4
:101F10000A2050700020507106211171D0710421E7
:101F2000917105211172012151721E46D072044631
:101F3000134D1AE020460A21484341194988B94205
:101F400011D3B1420FD80A214C43611989786A46EE
:101F50009172285A1073000A507301A90098FFF774
:101F600094FF0BB0F0BD641CE4B2FEF7E1FFA042A9
:101F7000E0D83A4608990798FFF76CFFF1E70000B0
:101F800018410008F0B589B00E4607461D461C21D1
:101F900001A80E9CFFF78DFAB807800F69460870FC
:101FA000601D4870601C0871000A48710420887127
:101FB0000020C871761C0E7201A904E02A5C0B187F
:101FC000401C5A71C0B2A042F8D30098FFF75DFFE1
:101FD00009B0F0BDF0B589B08446002468460E9D76
:101FE0000471447104268671C471112606722E1D77
:101FF00046728172C472027344730A2001AF0021D9
:1020000005E05A5C3A54401C491CC0B2C9B2A9420E
:10201000F7D3011F6A46117161468907890F117054
:10202000507039460098FFF730FF09B0F0BD00004E
:10203000FFB589B0099815218507129E4902AD0F99
:102040001F468E4221D16846FEF76EFF0146684664
:102050000571002343710078801CC2B2122A00D996
:102060001222941C6D462C72200A68720426AE72ED
:10207000EB72092028736A73AE73EB7304A8921E87
:10208000FFF7FEF9241D6C713FE0614886423ED1A6
:102090000B9807283BD15F480078002837D06B4663
:1020A0001D711721197200215972042199720021A2
:1020B000D9720921072019735873082098730020DA
:1020C000D873022018745974002199742921D97485
:1020D0002A2119750A225A7500249C75D8750B257A
:1020E0001D7600255D7626259D760E22D9761A77F7
:1020F00000225A7798770F24DC7708AB1A702820D3
:10210000587099701B206B46587102A96FE0FF2F21
:1021100000D9FF27002471E020460A2148433E49A8
:102120000A5AB24268D1411848880B9A904263D348
:10213000B84261D8364A521E964223D10A226E46D0
:102140003272002373720422B272F3720922327364
:10215000082272730A2254432F4AA2189278B2734B
:10216000000AF073002002AA0B181418401C1B79F7
:10217000C0B223720528F7D3487A707535710E20E6
:10218000707133E009266F463E7200237B72042291
:10219000BA72FB723E7307227A730A2254431E4AB4
:1021A000A2189278BA73000AF873184602AA0B189C
:1021B0001418401C1B79C0B223720528F7D33D7157
:1021C0000D207871497AFF2910D0144B00200901A5
:1021D000C9180B5C1418401CC0B2E3721028F8D365
:1021E0001B207871172038721520787311460198DA
:1021F000FFF74BFE0DB0F0BD641CE4B2FEF798FE95
:10220000A04289D809AB07CBFFF724FEF2E7000014
:10221000032800003C00002018410008F441000899
:10222000000209024B22000A090AD20090420ADB8E
:102230007D22D200914206DBFA224243531A024A1F
:10224000D3615162106270472401002010B5FEF77F
:102250000DF900F031FD10BD7FB528214843074935
:102260000A9D099C6E464863B0888881CA62CB711A
:102270000846328CC2810C630D727FBD24010020A0
:10228000034902480860406800470000E84400082D
:1022900064010020014800787047000068010020B8
:1022A00070B508460F4B0E4919601146FFF75CFDEB
:1022B000012000F01DF80C49012208781043FD228E
:1022C000104008700948FFF733FA074D0024083D15
:1022D0002C7300F03DFD00F0EFFC6C7070BD000051
:1022E000044500086401002088010020B80B0000AC
:1022F00001490870704700006801002010B50848C7
:10230000807800280AD0074800680078002805D1A6
:10231000FFF728F9002801D0FFF798FF10BD000053
:102320005000002064010020FEB57E4CA1780329F6
:102330000BD0012974D0022901D10321A170608141
:1023400001F084FEA07800286AD1774F00203D4636
:102350006071764E70350AE06079022807D16069B5
:10236000002804D0A078002801D1FEF756F8306884
:10237000007800280ED1A078002805D1FFF7F2F8E8
:10238000002801D0FFF762FFFFF77CF9002801D198
:10239000FEF7ABFFFEF725F8002870D06148401D1E
:1023A00000F0CAFB607900F052FA21696079785434
:1023B000491C2161322901DB002121612269FF21B1
:1023C000B954C1070ED0694601A800F08FFA5848E9
:1023D00000990160574A01981060326892689047EE
:1023E000002015E0810715D5694601A800F07EFAA6
:1023F00030680099826901989047FFF73DF92528D8
:1024000003D030680078012801D1FEF76EFF01206B
:10241000E07077E0C10604D530684069804771E01C
:102420007EE001062CD5306843490078002813D09F
:10243000012000F077FA697828780902401881B203
:102440003068C268012090476079410610D569461E
:1024500001A800F04BFA28E0002000F063FA697848
:1024600028780902401881B23068C268012026E04D
:10247000800647D5694601A800F038FA35E049E002
:10248000410616D5694601A800F030FA3068007898
:1024900000280AD128780007000F052805D1214A15
:1024A0002549921D002000F051FA30686A780369CE
:1024B00024E0410705D530680021C26808469047EE
:1024C00020E0010703D50020FFF712FF18E0800687
:1024D00016D5694601A800F009FA3068017800298C
:1024E0000AD01549012000F01DFA30686A780369A6
:1024F00000210098984705E0036900220E49F8E79B
:1025000000F0DAFBA078002800D125E76079802868
:1025100006D121E7A0780028F7D060790028F4D10F
:10252000FEBD000050000020BC010020640100201E
:1025300070010020740100202C0200200548C178A1
:10254000012904D14069002801D0012070470020F2
:10255000704700005000002070B50546FDF7BCFF35
:10256000C41CFDF7B9FFA042FBD3034902208870C9
:102570002846FFF7D9FE70BD5000002010B50C466C
:102580001F2900D91F24014622460548FEF778FF7F
:1025900004480470C01DA41D447001F073FD10BDFB
:1025A000EE0100205000002070B50D46124A014691
:1025B0001078002809D0401E107000265670506810
:1025C000092806D0401C506005E001205070002012
:1025D00070BD304656600C22084B4243D41842016D
:1025E0008018074A80182A462060FEF749FF2571A7
:1025F0002046A66070BD0000C8000020EC0300204B
:10260000A002002010B500F03AFB0020FFF79CF874
:1026100010BD0000FFB500228B5C8354521C92B2A7
:10262000102AF9D301231D012A18114620390E7FE3
:10263000274CB6464E7F0F7CA65D7E40254FFF5C43
:102640007E4046558E7F0396A75D4E7C774057703F
:10265000CE7FBC460296A75D8E7C7740977076460B
:102660000197A65DCC7C67466640D6700C7D455DC3
:102670006C40147100944D7D7D4055718C7D019F9F
:102680007C409471CF7DA6467740D7710E7E009C2A
:10269000664016724C7E6C405472A4468D7E744621
:1026A00065409572CC7E7C40D4720F7F7740177363
:1026B000497F664671405173039E6E409673029E39
:1026C0005B1C66409BB2D6730B2BACD3FFBD0000E6
:1026D000BC420008BC440008C1094000002903D0E6
:1026E000C0B21B2148407047C0B2704700A070477D
:1026F0004D475F424C455F4C49425F504149525FF4
:1027000056312E30000000000148C07970470000AB
:10271000800100200148007870470000C8000020B8
:1027200010B50446FDF74FFE01215020FDF740FE95
:1027300001212046FDF73CFEFDF74CFE10BDF8B52B
:1027400015460E460446FDF73EFE01212046FDF7E4
:102750002FFE0746002406E00021FF20FDF728FE9B
:102760003055641CE4B2AC42F6D3FDF733FE384674
:10277000F8BD70B50C460546FDF725FE012128463B
:10278000FDF716FE0021FF20FDF712FE2070FDF779
:1027900021FE70BDF8B516460D460446FDF713FE42
:1027A000202020430121FDF703FE002407E02878C4
:1027B00001216D1CFDF7FCFD641C0746E4B2B44228
:1027C000F5D3FDF707FE3846F8BD70B50D46044653
:1027D000FDF7F9FD202020430121FDF7E9FD01214E
:1027E0002846FDF7E5FDFDF7F5FD70BD0168002900
:1027F00002D14068002801D00020704701207047B6
:1028000000210160416002490A2008707047000001
:10281000C80000200268136812790A70016889688C
:102820000160002900D141601846704710B50B4681
:10283000044611461846FFF7B7FE002806D0616827
:10284000002901D0886000E02060606010BD10B5F4
:1028500001460E20FFF7B9FF10BD1CB55320FFF74E
:102860005FFF03211F20FFF7B0FF01A91F20FFF723
:1028700080FF684600790028F7D103211F20FFF769
:10288000A4FF01A91F20FFF774FF68460079002804
:10289000F7D101211520FFF798FFA0211220FFF7A3
:1028A00094FF04210A20FFF790FF00210A20FFF780
:1028B0008CFF88211220FFF788FF012469460C70E5
:1028C0002120487002221320FFF764FF69460C7034
:1028D0002020487002221320FFF75CFF0021152002
:1028E000FFF773FF5620FFF71BFF1CBD7CB50D469D
:1028F0000446062269461020FFF721FF6946487901
:102900000B7902041802C978101840186946206033
:102910008878497800040902401869460978401807
:1029200028607CBD1CB50C4600280BD002226946ED
:102930000620FFF704FF684600782070684640785C
:1029400060701CBD022269460420F2E77CB5154682
:102950000C46002809D06278901C2870002A03D009
:10296000A11C6120FFF7EBFE7CBD0222694604201A
:10297000FFF7E5FE68464078801C287068460078BE
:1029800020706846407860706846007825460107E8
:10299000090F6846407808350B00FEF7DFFE060594
:1029A000080513041904DFE70622A11C08E00C281F
:1029B000DAD10622A11C0A20FFF7C1FE0622294611
:1029C0000B20CFE70C28CFD1062229460A20C9E7E1
:1029D0002228C9D10622A11C0B20FFF7B0FE062237
:1029E00029460A20FFF7ABFE162221460E31B8E732
:1029F0007CB505460024684604714D4808605120A6
:102A0000FFF78EFE01A91F20FFF7B3FE684601798C
:102A10008029F7D147491E20FFF7ABFE782100201F
:102A2000FFF7D3FE06210846FFF7CFFE7A210020EC
:102A3000FFF7CBFE5120FFF773FE5320FFF770FE28
:102A400002210120FFF7C1FE1E211D20FFF7BDFE60
:102A5000284600F0E0F800A908200131FFF789FEC0
:102A600068464078334D002807D128781B2801D2CA
:102A7000152000E0112069464870C02069460870A2
:102A80002D20887003220420FFF784FE69460C7015
:102A90004C7002220C20FFF77DFE28788024192834
:102AA00044D01C20694608704C7002221420FFF7A5
:102AB00071FE10206946087002254D702A460A20D2
:102AC000FFF768FE69460D701220487002220D2043
:102AD000FFF760FE01206946087007204870022257
:102AE0000E20FFF757FE032269460B20FFF727FE53
:102AF00040206946C87004220B20FFF74BFE694650
:102B00000C7001220C20FFF745FE5120FFF708FE54
:102B1000FFF7A3FEFF210E20FFF757FE0622044910
:102B20000820FFF70CFE00F0C7F87CBDCC20B9E709
:102B30008E000020C400002038B5044669460E20EF
:102B4000FFF717FE68460178217038BD1CB5017883
:102B50006A4611704178517081789170C078D07058
:102B6000042269460C20FFF715FE1CBD01B582B09A
:102B70006946087A0870487A487002220320FFF7F5
:102B800009FE0EBD0A4610B50146A020FFF702FE61
:102B900010BD10B5282803D201460120FFF715FE0D
:102BA00010BD1CB501786A4611704178517080786B
:102BB0009070032269460D20FFF7ECFD1CBD1CB58B
:102BC000FF216A4611705070022269460E20FFF7FD
:102BD000E1FD1CBD08B501280AD002280AD003284F
:102BE0000AD004280AD005280AD006280AD00CE00A
:102BF000092008E00C2006E0012004E0022002E0A9
:102C0000032000E00420694608706846017802202D
:102C1000FFF7DBFD08BD08B502216A461170507050
:102C20000A4669460F20FFF7B5FD08BD1CB56A4688
:102C30001070010A5170000C907003226946072041
:102C4000FFF7A8FD1CBD00001CB56A461070010A04
:102C50005170002191700549884201D9012090707E
:102C6000032269461120FFF795FD1CBDFFFF000000
:102C70000A4610B50146A020FFF78CFD10BD01B536
:102C800082B06946087A0222C006C00E0870487AEF
:102C900048700520FFF77EFD0EBD1CB500216A4679
:102CA00011705070010A9170000CD07004226946B6
:102CB0000F20FFF76FFD1CBD1CB502206946087090
:102CC000FF2048708870C87004220F20FFF762FD53
:102CD0001CBD10B55120FFF723FD5320FFF720FD49
:102CE00018211D20FFF771FD5120FFF719FD7821F4
:102CF0000020FFF76AFD5620FFF712FD10BD10B54A
:102D000001210F20FFF761FD10BD000038B5054619
:102D100000230C4610460093FFF768FD002802D000
:102D20002B70237038BD69461046FFF773FD0146CE
:102D3000684602782846FEF7A3FB684600782070B4
:102D400002480178491C017038BD0000C80000200D
:102D50000248002101704170704700009C00002073
:102D600010B5054803498160002141701430FFF718
:102D700047FD10BDB8420008D00000207047000099
:102D800000B587B0182208A16846FEF779FB0C4809
:102D90000321017018214170001F40686946FEF749
:102DA00041FC07B000BD0000101000280001002CFD
:102DB000011820000300FFFFFFFFFFFFFFFFFFFFE1
:102DC000A0000020F0B58BB0044600208D070090D5
:102DD000019002902E4E0390AD0F35700D20707053
:102DE00004206946087000A808222A490130FEF72D
:102DF00047FB284902A80422091F0130FEF740FBC7
:102E0000371F69467868FEF70DFC224B0020211819
:102E10004A7B04A90A541A5C0918401C0A72082843
:102E2000F5DB04A8FEF7DCFBE07A002802D1207B6A
:102E300000280DD02146184A0B31E01C01F098F80B
:102E400013480021801C0170E17A4170217B817060
:102E5000114904A8FEF750FF002008A92218527D4E
:102E60000A540C4A0B18121F125C401C1A710428D9
:102E7000F4DB04A800F090FE357001247470052086
:102E8000694608707868FEF7CDFB3C700BB0F0BD6A
:102E9000A0000020B0420008600200200EB507A08C
:102EA00007C86B4607C30848032101700921417018
:102EB000001F40686946FEF7B5FB0EBD0903000020
:102EC0000000000000000000A00000200020044AD4
:102ED0000146535C491C1843C9B21029F9D3704705
:102EE00081040020FEB500258A072549009501953B
:102EF000920F02950A700B2204464A700720694619
:102F000008704D70207988706079C8701C4E02205E
:102F100008711D363070FFF7D9FF002801D000205E
:102F200000E003206946487170708D71B57005200E
:102F3000C871F070102008723071207B104A400771
:102F4000C00F800048727071207B121FC007C00F35
:102F500050708872B0711046A1791A300170E17911
:102F60004170217A8170617AC170A17A0171E17A30
:102F70004171217B817169465068FEF753FBFEBDAC
:102F8000A000002070B58AB00E460446182103A8A0
:102F9000FEF78FFA11251022E11D2348FEF770FA83
:102FA000B1072248890F01701521417069460D73E0
:102FB00000224A73207988736079C87303201A4D00
:102FC0000874104603AC203D21184A712A54401C55
:102FD0001028F9D301206946487413492870203914
:102FE000601DFEF789FE0020211849792954401CF4
:102FF0001028F9D3FEF7C0F90C49029010310A46A7
:103000000D320D46143D009201918B1DEA78A9788E
:10301000601D00F0E1FE601DFEF7E2FA03A968689A
:10302000FEF700FB0AB070BD90020020A000002057
:103030001CB500228C070D490092A40F01920C7060
:1030400006244C7002236C46237062700179A170D3
:103050004079E0700520207137206071034869468F
:10306000001F4068FEF7DEFA1CBD0000A000002033
:1030700070B58AB00E460446182103A8FEF719FA67
:10308000B2072B49920F0A7015224A701120694627
:10309000087300204873207988736079C87304200E
:1030A0000874E01DFEF79CFA1022E11D2148FEF78E
:1030B000E7F9FEF761F91E49029010310A460D3218
:1030C0000D46143D009201918B1DEA78A978E01D10
:1030D00000F082FEE01DFEF783FA16480022103051
:1030E000A118C979835C994205D031462046FFF783
:1030F0009FFF0AB070BD521C102AF1D30D490D4A32
:103100000846203A103800F0ADFE0A4A002103A814
:10311000103A535C4418491C63711029F9D3401DBF
:10312000FEF75EFA03A96868FEF77CFAE1E70000A3
:10313000A000002080020020F0B58DB00C461821C0
:103140006846FEF7B6F9A007264C800F20700126CE
:103150006670062568460570271F69467868FEF781
:1031600061FA787800283BD0FFF7CEFA07AB06AAC1
:103170000BA900F0BBFE022020701520607011200A
:1031800069460870002048708D70C8700D716D46DA
:10319000102207A9681DFEF773F9681DFEF720FAD3
:1031A00069467868FEF73EFA0F2060700B2069468A
:1031B000087007200871087E4871487E88710822CF
:1031C0000BA9E81DFEF75CF969467868FEF72AFA54
:1031D000A01C06706946097E41706946497E81706F
:1031E0000DB0F0BDA000002010B589070648890F7A
:1031F000017000214170001F4068FFF703FA0020B2
:10320000FFF776F810BD0000A000002008B508A068
:103210000068009007480321017002214170001FDF
:1032200040686946FEF7FEF90020FFF761F808BD27
:10323000020A0000A000002008B508A1096800915A
:10324000074903220A7002224A70694648700448FE
:10325000001F4068FEF7E6F908BD00000700000007
:10326000A00000201CB508A005C8009089070848E8
:10327000890F0192017006214170001F4068694664
:10328000FEF7D0F91CBD00000C0759004F200000CC
:10329000A0000020FEB5164C01A92246083A20469F
:1032A000FFF734FD6846007901262546002804D141
:1032B0002E70687002206946087121780C4F132027
:1032C00001401C3F78780423C24352081A4040074B
:1032D0001143C00FC00001436A46117060785070FE
:1032E000A11C009800F0BEFE2E7000207870FEBD7C
:1032F000EC000020FEB50C46002102911D2C00D9E7
:103300001D2401462246A648FEF7BAF8A54FA44D53
:103310003C7028783C468607A070B60F284600F01F
:1033200053FE012E19D0032E1DD0022E1AD16A7918
:1033300029791202A879891806295CD021460C3116
:103340000C2872D073DC821E1300FEF707FA09B84E
:103350007EBE7EEB7E887ECF7E003878022801D349
:10336000FDF71CFFFEBDAE783300FEF7F7F9120B38
:103370000F1E233A3A280A2D3A0A3A320A3A370AF5
:103380000A3AEFE7E81C00F011F9FEBDA178844885
:10339000FFF7F4FC697A287A090240186946088127
:1033A00002A9E81C00F038F9FEBDA1787C48FFF7BF
:1033B0001BFFFEBDA1787A48FFF704FDFEBDA17892
:1033C0007748FFF7B9FEFEBDA1787548FFF766FDA7
:1033D000FEBDA1787248FFF745FFFEBDFFF7D0FCA8
:1033E000FEBD3046FFF728FF6F4800780028F7D071
:1033F000152E08D8FEBD012808D003280BD00428BC
:103400000ED00528F6D1FFF701FFFEBDA178644874
:10341000FFF768FDFEBDA1786148FFF7B3FDFEBD73
:10342000A1785F48FFF724FEFEBD69E0FFE75C4B33
:103430000933162873D004DC102828D0122804D1B0
:1034400071E018286CD052286DD02A7AE9791202DE
:1034500089188AB20146A078FEF7FCFCE4E72B7AD3
:10346000EA791B02D21892B20A80AE7A6B7A3602DF
:103470009B199BB24B80EE7A2D7B2D027519ADB254
:103480008D8001460095A078FEF7D2FDCCE72B7A1F
:10349000EA791B02D21892B20A80AE7A6B7A3602AF
:1034A0009B199BB24B80EE7A2D7B2D027519ADB224
:1034B0008D8001460095A078FDF73CFDB4E70146FC
:1034C0000022A078FEF7B2FCAEE72B7AEA791B0265
:1034D000D21892B20A806B7AAD7A2D025B199BB238
:1034E0004B800146A078FEF70BFD9DE72A7AE9792B
:1034F0001202891889B2A180A278FDF781FD93E7B5
:103500002A7AE9791202891889B2A180AB7A6A7A9B
:103510001B02D21893B2A278FDF7FBFD84E714E0FA
:103520001CE000E01EE0E978AA780902C91E5118E3
:10353000EA792D7AC9B22D02521992B2A280009175
:103540000146A078FDF748FD6EE7297AE87909027F
:103550004018A080124800F078FA65E7104800F0A3
:1035600037FA61E72B7AEA791B02D21892B20A8005
:10357000AE7A6B7A36029B199BB24B802E7BE97A2E
:10358000360289196E7BAD7B89B22D027519ADB2F9
:10359000009101950146A078FEF77BFC44E700000E
:1035A00064040020D00000209C00002010B51949C0
:1035B0000122096A4A7002780A70837842781B02F5
:1035C000D2184A800379C2781B02D21892B28A803C
:1035D0008479437924021B19CB80047AC3792402AD
:1035E0001B199BB20B81447A807A00022018401C80
:1035F0004881C82B01D8C8200881900010180B8979
:103600008008984204D9052080034243100C0881A9
:1036100010BD00008001002010B5064C0346E06993
:103620000988C18005221946FDF72AFFE1690120BA
:10363000487110BD8001002010B5FEF73DF800284C
:1036400003D106484078282806D90020FEF750FE0E
:10365000FFF732FB012010BD002010BD80010020CB
:1036600010B5FEF765F810BDF8B50C460746002604
:1036700014E0142C01D9142500E02546FFF74AF880
:1036800003280FD3084800950288BB191B2102208C
:1036900000F0AFF97019C6B2601BC4B2002C01D0A3
:1036A000002FE6D13046F8BD24000020F0B50C4BC9
:1036B00000201C46D87130340A4AD8720125C1084E
:1036C0004607615C760F2F46B740394203D0D97A5E
:1036D0005054491CD972401CC0B22528EFD3F0BD0C
:1036E000800100203E05002010B5C00706D1044827
:1036F000FD22017811400170FFF7DEFA10BD0000D5
:1037000088010020F8B5064615460C462948FEF704
:103710000FF829480222017811430170FCF7ADFE31
:10372000254F0020083FB870002C2CD00120C0028B
:1037300061783018B862FFF779FAE8010121301A90
:103740008902401A78622078FDF7C8FF21780822A4
:10375000387B114081422AD10121397050403873A1
:103760001648006800688047FCF78DFE00207870DE
:103770005320FEF7D5FFF91C0420FEF7FAFF562070
:10378000FEF7CEFFF8BD4120400105213018C901E8
:103790004018B862FFF74AFA1B2D00D91B25E80133
:1037A0000521301A0902401A78620120B870FCF72E
:1037B0006AFEF8BDB80B000088010020D800002088
:1037C000F8B50F460546FEF765FD00283DD0654873
:1037D0000068391A6448814204D964480068281A8C
:1037E000FEF71EFD6248624C00780026C107083CC7
:1037F000002933D0E089502148432C30FDF706FFE3
:1038000045192846FFF749FAFFF750FFE06946716E
:10381000206A46702046A6821630FFF7C2F920467D
:103820002C30FFF793F9FFF79BFAE671607A0228D4
:1038300001D2022060724F49C0B248434018FFF7DE
:1038400003FA0120FDF741FD3EE00020FDF75CFF9B
:103850000020FDF73AFD00F0F9FBF8BD800712D516
:10386000606A0121381A090640180002000AFDF7B3
:10387000C3FE2D1A208A502148437438FDF7C6FE36
:1038800045193D481BE0208A082801D201212171F9
:1038900036490D685021484361788900401A103834
:1038A000FDF7B4FE4519208A452801D9334806E0C2
:1038B000304948430321FDF7B9FD2E494018FFF771
:1038C000C3F92846FFF7E9F9A08A401CA0822846E0
:1038D000FDF760FEE079A17A4018C0B22521FDF71E
:1038E000A5FD234BE171CA0828339A5C4B070846B3
:1038F0005B0F012199400A4204D1E17AFDF796FD60
:103900001F48405CA071C0B2FFF743F9207800283F
:1039100011D01B4901202531FFF704F818496A46E8
:1039200025310120FFF712F8684601781448253048
:10393000FFF7E0FC26700E490878C20704D0400863
:103940004000087000200AE02079002804D0002000
:10395000FDF7DAFE2671F8BD208A81080818FDF708
:10396000D3FEF8BD7001002080A90300740100207F
:1039700088010020E2040000A60E0000307500005F
:103980003E05002010B506488078002804D00021AC
:103990000846FFF7A9FE10BDFFF78EF910BD000025
:1039A0008001002010B50C46FFF746FE00280BD121
:1039B0000420FFF70FF9BB2040012018FFF736F96C
:1039C00002484178491C417010BD00008001002070
:1039D00008B502216A4611700521517001218170DC
:1039E00019218171811C0098FEF74FFAFDF707FB42
:1039F00008BDFFB58BB0149C1D461746E61C24215C
:103A000001A8FDF756FD0B98132108406946087080
:103A1000E01D48700E71300A487104208871002042
:103A2000C8710C9808724F72380A8872002001A978
:103A300004E02A5C0B18401CDA71C0B2A042F8D333
:103A40000098FEF722FA0FB0F0BDF8B50446827A6E
:103A5000C178007AE57900020543A078090208439D
:103A6000401F87B2667A100206430220694608703A
:103A7000607848701720A071A11C0098FEF705FA25
:103A8000214633463A460B312846FDF7B7FAF8BDD2
:103A90000EB58007800F6A46107205205072002014
:103AA000507001211170D07004209070132010719B
:103AB00069460298FEF7E9F90EBD0000F0B585B041
:103AC000140005465CD06A461170080A5070080C54
:103AD0009070080ED070802010712A4A002069462C
:103AE000135C0E18401C73710828F9DB264900206E
:103AF0000F4610370E4620366A46125C33185A704D
:103B00003B185A700B18401C5A700D28F4DB012228
:103B100032703A700A700020B073B8738873C8733B
:103B2000FA7302201849F07350391748FEF7E4F889
:103B30001549503908466030FEF7DEF8102C05D9DB
:103B40001149503908467030FEF7D6F82146102C3E
:103B500000D91021002004E02A5C3B5C5A402A5422
:103B6000401C8842F8DB102C0AD90020103C05E0EC
:103B700029180A7C335C5A400A74401CA042F7DBC7
:103B800005B0F0BD1C01002001050020014A907025
:103B9000D17070479C00002070B50A4B0A4C00227F
:103BA000002805D0855C9D5485182D7A9E183572A5
:103BB000002901D08D5CA554521C082AF0DB00F0CE
:103BC0003DFA70BDB10400201C010020F0B585B0A5
:103BD0001D000C4606467DD069460A70100A4870E2
:103BE000100C8870100EC8700020794F08716B4659
:103BF000395C1A18401C51710828F9DB754B0020FC
:103C00001A461032734F6946503F095C3F1879706D
:103C1000171879701F1879706E4F103F3F18401CAD
:103C200079700D28EEDB6B48492150380170694AE4
:103C3000002181731032C5730120664B1070174646
:103C40001870203F387091739973B973F973D873F2
:103C50000220D0730020403B403A103F19541154C9
:103C60003954401C1028F9DB5A4801214038417072
:103C70000A9981702946102D00D91021002004E0F6
:103C8000544A335C303A1354401C8842F8DB2846CF
:103C900010380490102D08D90146002003E0321896
:103CA000127C3A54401C8842F9DB4A496039084684
:103CB0001030FEF721F80020464B403B1A46103AE0
:103CC000195C125C51401954401C1028F4DB194651
:103CD000203900E079E01846FEF70EF800203D4B51
:103CE000303B1A46103A195C125C51401954401C82
:103CF0001028F4DB194630391846FDF7FDFF102D6A
:103D000009D8344830380178217041786170817861
:103D1000A170C07816E02F49002030393A5C0B5C66
:103D20005A403A54401C1028F8DB2A4960390846AA
:103D30004030FDF7E1FF3878207078786070B8780F
:103D4000A070F8782349E070603908465030FDF7DC
:103D5000D3FF20491F486039FDF7CEFF102D05D94C
:103D60001C49603908467030FDF7C6FF19482178B4
:103D7000103802785140217061784278514061706A
:103D8000A17882785140A170E178C0784140E1701B
:103D90002946102D00D9102100200E4B04E0325C82
:103DA0001C5C62403254401C8842F8DB102D0CD958
:103DB000084B00201033049A05E031180C7C1D5C80
:103DC0006C400C74401C9042F7DB05B0F0BD000065
:103DD0001C01002011050020F8B50446204D069E68
:103DE000089829706A700021775C6A1857725F5CC6
:103DF000491C97700729F7DB0021194E0A46103637
:103E00007254491C1029FBDB0021425C7254079A52
:103E10007318525C491C9A710629F6DB1048FDF7AD
:103E2000DFFB0F481030FDF7DBFB0020215C2A5C34
:103E300051402154401C1028F8DB09492046103914
:103E4000FDF75AFF0020215C325C51402154401C98
:103E50001028F8DB024920461039FDF74DFFF8BD68
:103E60009104002070B50023C418247AD454CC18CF
:103E7000D518247A5B1C2C72082BF5DB02491046FE
:103E8000FDF73AFF70BD00008104002070B50546C3
:103E90000C46002001461954401CC0B20D28FAD32C
:103EA0005A73207898736078D87329461846FDF7BE
:103EB00023FF70BDF0B50D4685B0144600210A46BB
:103EC0006B465A546E5C5F18491CC9B23E72082991
:103ED000F7D301461846FDF70FFF6846807B207038
:103EE0006846C07B607005B0F0BD0000FFB50D46B0
:103EF00089B006461BA108681446089004AB00224E
:103F000008A91948FFF7C2FF3046184E6F463178AE
:103F1000785404A93846FDF7EFFE0020395C295497
:103F2000401CC0B20828F9D32246294604A8FFF74E
:103F3000C1FF69462078497A0022484020706946CE
:103F40006078897A48406070074802A910380131CA
:103F50000C9BFFF79BFF3078401C0007000F307070
:103F60000DB0F0BD00030000D74400081001002090
:103F700070B50C4686B0064611A108681546059036
:103F800001AB002205A90F48FFF780FF6A463146C2
:103F900001A8FFF78FFF6946087821782B46484033
:103FA0006946087048786178002248406946487040
:103FB00004481038FFF76AFF012006B070BD00000A
:103FC00000030000D744000870B504460C48007890
:103FD000002814D06078002811D02178001F8B07AA
:103FE000084DC2B29B0FA01C6968FFF767FD6868A7
:103FF000401C68606078052801D3001F607070BDA8
:104000009C00002010010020F8B50B780D460446F6
:10401000002B0FD0084EA01C00921918B268FFF7B1
:10402000D5FD2878001D28706078001D6070B0688C
:10403000401CB060F8BD00001001002002480021C3
:1040400041608160704700001001002010B500F051
:1040500019F80020FEF7B3FD0020FFF701FBFEF783
:104060000FF910BD73B50D460098FEF708FE6846BF
:10407000447828462146FEF7FBFD2046FDF764FB09
:104080007CBD000030B585B003A8FCF74DFF694644
:10409000097B182902D918216A46117369460A7BDF
:1040A0001B4B511C1970002104E0445C5D18491C35
:1040B000AC70C9B29142F8D3002003E09918521CA9
:1040C0008870D2B2192AF9D3114A0723D21FD11D01
:1040D0000C46233C25781B20002D01D00D4A2B4691
:1040E0006578002D02D00B4928461F3101910290BE
:1040F000A0896D46288006482338C1792974007A42
:10410000687460890499FEF7A7F805B030BD000017
:1041100073000020EE0100200328030002040000C9
:104120002AFF03280800020900292AFF03280A00A1
:10413000020B00262AFF03280C00020D00502AFF64
:1041400003280E00020F00282AFF02281A002B0065
:104150002D000AA003281B00061C004E2AFF03287E
:104160001D001A1E004D2AFF02291F000A00000030
:1041700000000829200002000000000003282100A0
:104180000222004B2AFF0729230002000000000042
:10419000032824001A2500332AFF022926000A00DA
:1041A00000000000032827000228004A2AFF0328F5
:1041B0002900042A004C2AFF03282C00022D000BA2
:1041C0000AFF03282F001230001929FF02293100AD
:1041D0000A0000000000032833000434004F2AFFC7
:1041E00003283500103600312AFF022937000A0063
:1041F00000000000000000000000000000000000BF
:10420000000000005A0005010906A101850105070B
:1042100019E029E71500250175019508810295012E
:104220007508810395057501050819012905910295
:1042300095017503910395067508150025FF05077F
:10424000190029FF8100C0050C0901A10185021593
:104250000025017501951E093009B009B109B2099F
:10426000B309B409B509B609B809B909E209E909F8
:10427000EA09950A24020A25020A26020A27020AE6
:1042800021020A2A020A23020A8A010A83010A94E5
:10429000010A92010A09020A7F020A33020A340261
:1042A0000A1F028102950175028103C0B1A877102F
:1042B000B1A87710F5D4B31095320008637C777BF2
:1042C000F26B6FC53001672BFED7AB76CA82C97D12
:1042D000FA5947F0ADD4A2AF9CA472C0B7FD9326A3
:1042E000363FF7CC34A5E5F171D8311504C723C3A7
:1042F0001896059A071280E2EB27B27509832C1AEB
:104300001B6E5AA0523BD6B329E32F8453D100ED44
:1043100020FCB15B6ACBBE394A4C58CFD0EFAAFB28
:10432000434D338545F9027F503C9FA851A3408FF0
:10433000929D38F5BCB6DA2110FFF3D2CD0C13EC08
:104340005F974417C4A77E3D645D197360814FDC9D
:10435000222A908846EEB814DE5E0BDBE0323A0A81
:104360004906245CC2D3AC629195E479E7C8376D05
:104370008DD54EA96C56F4EA657AAE08BA78252E2A
:104380001CA6B4C6E8DD741F4BBD8B8A703EB566B3
:104390004803F60E613557B986C11D9EE1F89811A4
:1043A00069D98E949B1E87E9CE5528DF8CA1890D93
:1043B000BFE6426841992D0FB054BB1652096AD529
:1043C0003036A538BF40A39E81F3D7FB7CE339820A
:1043D0009B2FFF87348E4344C4DEE9CB547B943259
:1043E000A6C2233DEE4C950B42FAC34E082EA166A1
:1043F00028D924B2765BA2496D8BD12572F8F66478
:1044000086689816D4A45CCC5D65B6926C704850F2
:10441000FDEDB9DA5E154657A78D9D8490D8AB00A7
:104420008CBCD30AF7E45805B8B34506D02C1E8FD0
:10443000CA3F0F02C1AFBD0301138A6B3A9111410C
:104440004F67DCEA97F2CFCEF0B4E67396AC7422F5
:10445000E7AD3585E2F937E81C75DF6E47F11A7173
:104460001D29C5896FB7620EAA18BE1BFC563E4BAC
:10447000C6D279209ADBC0FE78CD5AF41FDDA8336E
:104480008807C731B11210592780EC5F60517FA9AE
:1044900019B54A0D2DE57A9F93C99CEFA0E03B4DDD
:1044A000AE2AF5B0C8EBBB3C83539961172B047E51
:1044B000BA77D626E169146355210C7D8D0102047B
:1044C00008102040801B3601020304050607080976
:1044D0000A0B0C0D0E0F0015161718191A1B1C1DB0
:1044E000D2D3D4D5D6D700000000000001190008AF
:1044F0004919000895170008C51700082919000870
:10450000591800080100000000000000A53900084B
:10451000E93600080537000885390008C13700086A
:104520004045000800000020BC01000028150008DC
:10453000B4450008BC010020CC0700008617000825
:104540009155020406089D010203040102030406BA
:10455000070809421E820B3C0201060319C103032E
:104560000312182564010179AE465620202E322E02
:10457000312E326D6D64F70D00A00004210A340263
:104580000106030312180009365402002094021990
:104590002002240A0238FF4325015201021214337B
:1045A00040583304080452A87B07091978010020F9
:0445B00032050020B0
:04000005080000B13E
:00000001FF
