:020000040800F2
:10000000E8080020C5000008F5030008F703000811
:1000100000000000000000000000000000000000E0
:10002000000000000000000000000000F9030008CC
:100030000000000000000000FB03000803040008AB
:10004000F1000008F1000008F1000008F1000008CC
:10005000F1000008F1000008F10000081304000896
:1000600000000000F1000008F1000008F1000008A5
:10007000F100000855050008F1000008F100000833
:10008000F10000080000000000000000F10000087E
:1000900000000000F1000008F1000008F100000875
:1000A00000000000F100000800000000F10000085E
:1000B0000348854601F002FE00480047511B000836
:1000C000E80800200B4880F308880B480168090EF7
:1000D0000A4A914205D10A480A4901600A480B4977
:1000E00001600B480047FEE7FEE7FEE7FEE7FEE79C
:1000F000FEE70000E8080020040000001F000000E8
:100100001810024001000000000001400000000043
:10011000B10000088307FF22DB0E9A408907090E11
:10012000994000280BDA0007000F08388308A74819
:100130009B001818C36993430B43C361704783083E
:10014000A3489B001818036893430B430360704750
:1001500010B5082100F07BFF10BD10B59D4900F0DF
:1001600076FF10BD10B5102100F071FF10BD994948
:1001700010B5083900F06BFF10BDF3B585B0964996
:10018000059804260825884243D10121801400F0F7
:100190007BFE914920310889904A10430881032051
:1001A0000121400400F05FFE002205218C4800F090
:1001B00005FC002204218A4800F000FC00220321F3
:1001C000874800F0FBFB6F0169460F8003248C70A9
:1001D0001020C870824800F077FB3946804800F054
:1001E000D8FB69460D808C701827CF707C4800F0D2
:1001F0006BFB2020694608808C70CF70784800F037
:1002000063FB1020694608808C70CE70744800F043
:100210005BFB6A4696800020D080158150810121C9
:100220009181D08106991182508201A9059800F030
:10023000A1FE0121059800F0C9FE0598FFF788FF8F
:100240000598FFF78FFF07B0F0BD30B56549002274
:100250000B68012423430B600B689B07FCD501232B
:100260009B024B604B6801242404A3434B600C6841
:1002700001231B069C430C600C681F25AD06AC4394
:100280000C600C683F258006AD06401904430C60E5
:10029000554C1120206008681843086008688001E8
:1002A000FCD54868800880004860486802231843ED
:1002B000486002E048680007820F022AFAD130BD88
:1002C00010B50420FFF7C1FF022000F01CFD00F074
:1002D00021FD0828FBD110BD10B5454C4348606195
:1002E0000321081FFFF716FF0020A06107202061EF
:1002F00010BD7FB5FFF7E4FFFFF7EEFF062136489C
:10030000FFF73BFF00F0C7F8002265231146FF20EE
:1003100001F004FE01252D036846858102248473C3
:100320004821C173092003A9C00600F0CDFA0121BC
:10033000084600F0A9FD0121080700F0AEFD0C21E0
:10034000002000F0D8FE00950021684601710C21C4
:1003500041710125857100F03AFA07216846017262
:1003600044728472C57202A800F065FB0321072065
:10037000FFF7D0FE7FBD184908600889C007FCD090
:1003800008898007FCD54868C0B2704710B5FF21C6
:100390000131134800F0FFFA10BD10B5FF21013103
:1003A0000F4800F0F6FA10BD10B50920C00600F0A5
:1003B000E3FAC004C017401C10BD70477047704777
:1003C0007047704710B500F02BF910BD00ED00E04C
:1003D00000E400E0F7FF0000003001400100FFFFF3
:1003E0000004004800100240002002407FBB0000D3
:1003F00000E000E07047FEE770477047094800687A
:10040000704710B507480168491C016002F0B0FA56
:1004100010BD10B50120000300F02FFA002002F0FB
:10042000BDFA10BD0000002010B501218CB00846B7
:1004300000F019FD974800F035F99748009097486B
:1004400001901020029079200390802100200591D6
:100450004900049006918F4C49010790089009913A
:100460000A9014346946204600F049F901212046DB
:1004700000F06EF901220221204600F073F90CB061
:1004800010BD08B56A4610700120D07051706846E2
:1004900000F0D1FA08BD30B589B0FFF7C5FF0121E2
:1004A0000D20FFF7EEFF0121C80200F0EDFCFF2157
:1004B0000131684601801821C1700321817009242F
:1004C000E4066946204600F0FFF902220821204692
:1004D00000F074FA4F21684601830024848244832B
:1004E0006D4DC4820477343D05A9284600F052FEC4
:1004F00001A800F0B0FF6021684681800121C18021
:100500001E214181848101A9284600F0DBFE0821DB
:10051000284601F01BF80121284601F0ADF901221F
:100520001146284601F097F90121284600F081FE86
:1005300001225102284601F0B5F90121284600F0B8
:1005400091FE0121284600F0B1FE5448801E04802F
:1005500009B030BD50493439088AC0071AD0088A1A
:100560004008400008824D4A921E1088401C80B20C
:10057000108078280ED10020108047480C308288E7
:100580005204520C828008884008400008804805C8
:10059000434908607047F7B50024404F8E468446B3
:1005A0000F25002301212246182042430720C61AA6
:1005B0000846B0406646304203D04120D618B855B0
:1005C00001E0D0183D545B1CDBB2082BEED30823AE
:1005D0000846E91A06468E4071460E4203D041266F
:1005E000D1187E5401E0D618BD555B1CDBB2102B30
:1005F000EFD3102341261720C11A01208840029909
:10060000084202D0D0183E5401E0D0183D545B1C83
:10061000DBB2182BEFD3641CE4B2052CC1D3FEBDB2
:100620007CB5684601F040FC6846007800282CD074
:100630006846847940786421604301F0DDFAC5B2F0
:10064000684680786421604301F0D6FAC6B26846F5
:10065000C0786421604301F0CFFAC2B22946304627
:10066000FFF799FF0E490124E00780310860FFF78A
:10067000DBFE09490C318888E20310438880064973
:1006800034390888204308807CBD0022114610467A
:10069000E6E7000008000240342C0140060000207C
:1006A00000E100E0016849084900016000210160A3
:1006B00041608160C1603E4B3D49C21A3039984269
:1006C00015D007DC3B4A80180ED014280BD148689F
:1006D000F02206E0142A0ED0282A04D148680F22FE
:1006E000120410434860704748680F22F9E74868D1
:1006F0000F221202F5E748680F221203F1E730B526
:1007000003682D4A0C6A13408A684D6922430C69BC
:100710002C4322438C692243CC6922434C6A2243F6
:100720008C6A22431A430260CA6842600A68826087
:100730004968C16030BD0021016041608160C160D5
:10074000016141618161C161016241628162704701
:100750000029016802D00122114301E04908490043
:1007600001607047002A026801D00A4300E08A4312
:1007700002607047406880B2704702460C49002012
:1007800030390968114200D00120704708493039DA
:100790004860704702460649002030390968114216
:1007A00000D001207047024930394860704700008E
:1007B00030000240F8FFFDBF0F80FFFF30480021EE
:1007C000016041608160C1602E494161704710B590
:1007D00083792B490268002B26D00B6893430B606A
:1007E0004A6803689A434A60027952181368046899
:1007F000234313608A6803689A438A60CA6803685F
:100800009A43CA604279102A05D051180A680068D4
:1008100002430A6010BD8A6803681A438A60CA6886
:1008200000680243CA6010BD007940180168914316
:10083000016010BD0021016001710C2242718171C3
:1008400070470F490A6902430A6170470C4A014622
:10085000526900200A4200D00120704708494861CF
:100860007047074B0246196800205B69114013422C
:1008700002D0002900D0012070470149486170472B
:1008800000040140FFFF1F00172110B5C9064018E2
:1008900011D001218902401A10D0401A11D088428B
:1008A00008D101218402204600F0DDFA0021204613
:1008B00000F0D9FA10BD01214C04F4E701218C04A9
:1008C000F1E70121CC04EEE7F0B5CC780022230754
:1008D0001B0FE40601D58C7823430C782406240EE4
:1008E0001AD0046801250E8895402E40AE420FD1E3
:1008F00097000F26BE40B4431E46BE403443CE7818
:10090000282E02D0482E02D002E0456100E00561A9
:10091000521C082AE6D304600A88FF2A1CD94468BE
:100920000022164608360125B5400E882E40AE42FC
:100930000ED197000F26BE40B4431E46BE4034433E
:10094000CE78282E00D14561CE78482E00D10561A1
:10095000521C082AE5D34460F0BD0021C943018040
:10096000022181700421C170704702469268002004
:100970000A4200D001207047806880B2704702466A
:10098000D26800200A4200D001207047C06880B2BF
:1009900070470161704741617047002A01D00161D1
:1009A000704741617047C1607047012212040A43D9
:1009B0008261816182618169806970474B0710B5EE
:1009C000DB0E9A40CC080F219940002C06D0436AD8
:1009D0008B434362416A1143416210BD036A8B43FA
:1009E0000362016A1143016210BD00000C490860F6
:1009F00070470B494860704709498860704708494B
:100A00000848086070470649074808607047044A6C
:100A10000146D26800200A4200D001207047000041
:100A200000300040AAAA0000CCCC000025490843B1
:100A30002549C860704770B5C2780F230125234E41
:100A40000178002A1AD0204AD468520D1440121B93
:100A5000120A0424A41AD3404278A2408478890060
:100A60001C4014431A4B2201C9180A600178CA06B7
:100A7000D20E954049098900891907E0CA06D20EAD
:100A80009540124A49098900803289180D60007822
:100A9000400980008019006870BD70470A4A00292B
:100AA000116901D0014300E08143116170470422C4
:100AB00008490428086902D0904308617047104330
:100AC000FBE700000000FA0500ED00E000E100E0B7
:100AD00000E400E000E000E0F74801680122114373
:100AE00001604168F54A114041600168F44A1140D3
:100AF00001600168012292049143016041687F22F4
:100B000012049143416000218160704710B5EA49A9
:100B10000B680122120493430B600B689400A343FB
:100B20000B60801A09D003221204904204D1086895
:100B3000052212041043086010BD0868FAE7034656
:100B400000205909DC4A01290AD002290AD0516A39
:100B5000DA06D20E012393400B4200D001207047E9
:100B60001168F5E7116AF3E718B50020052424029F
:100B700000903120FFF7E3FF0099491C0091002805
:100B800001D1A142F5D13120FFF7D9FF002800D0D3
:100B9000012018BDC84A1168F8239943C0000843D2
:100BA00010607047C4490128086803D0400840001D
:100BB0000860704701221043FAE710B5BE4B186871
:100BC000C04C89061205204011430143196010BD35
:100BD00030B50546B8480C4641683F22120491439F
:100BE00029434160002C7CD001208004844204D140
:100BF000012205212846FFF7E0FF0120C0048442BE
:100C000004D1012207212846FFF7D7FF03208004E3
:100C1000844204D1012209212846FFF7CEFF01209A
:100C20000005844204D101220B212846FFF7C5FFAD
:100C300005208004844204D101220D212846FFF7BB
:100C4000BCFF0320C004844204D101220F212846A6
:100C5000FFF7B3FF07208004844204D10122112151
:100C60002846FFF7AAFF01204005844204D1012253
:100C700013212846FFF7A1FF09208004844204D1F4
:100C8000012215212846FFF798FF0520C004844261
:100C900004D1012217212846FFF78FFF0B20800483
:100CA000844204D1012219212846FFF786FF032040
:100CB0000005844204D101221B212846FFF77DFF55
:100CC0000D208004844204D101221D212846FFF713
:100CD00074FF0720C004844206D101221F21284648
:100CE00000E002E0FFF769FF30BD03220721F6E7CD
:100CF0000122714912060028086801D0104300E063
:100D00009043086070476C4A516889088900014324
:100D100051607047684840680C2108407047664A37
:100D20005168F0239943014351607047624A51680A
:100D300007231B0299430143516070475E4A516883
:100D40000723DB029943C0000843506070475A4AAA
:100D500000020029916801D0014300E081439160C5
:100D6000704755494A6802434A607047524A516881
:100D700003239B0399430143516070474E490A6A1C
:100D8000520852000A620A6A520852000A62012896
:100D900006D0042803D1086A052210430862704770
:100DA000086A0122F9E744490028486A02D0012272
:100DB000104301E040084000486270473E490A6A1B
:100DC00002430A62704701223B49D2030028086AA5
:100DD00001D0104300E090430862704770B5364D73
:100DE000044668680C210840374903D0042801D024
:100DF000082801D0216017E028682968800E490280
:100E00006A68490F01231B04401C491C1A4201D186
:100E10002E4A05E06A68920301D52D4A00E02A4A6D
:100E2000504300F0E9FE206068682A490006000F80
:100E30000A5C2068D04060606A685205520F8A5C84
:100E40000346D340A3606A689204520F895CC8408D
:100E5000E06069681F4A0904890F121F515C00F0A5
:100E6000CBFE206170BD30B5134B5A690F25D409F4
:100E70006D042C40D2B22243002902D010435861A5
:100E800030BD82435A6130BD0B4A0029916901D0BF
:100E9000014300E0814391617047074A0029D1690D
:100EA00001D0014300E08143D1617047024A00292B
:100EB000D16811D0014310E0001002400000FFF89B
:100EC000FFFFF6FEFFFF8F0300127A00001BB70042
:100ED00000093D00830000208143D16070471D4A16
:100EE0000029116901D0014300E08143116170477D
:100EF0000122184912040128086A02D090430862AE
:100F000070471043FBE701221249D2040128086808
:100F100002D09043086070471043FBE70D494A68D0
:100F2000000602434A6070470A48416A01221206DD
:100F3000114341627047074A0146926800200A4205
:100F400000D00120704703498A68000402438A6088
:100F50007047000000100240564910B5C84208D141
:100F6000841401212046FFF7A1FF00212046FFF74E
:100F70009DFF10BD30B5038B0F22120313404A882A
:100F80004C8922430C881C4322430283838B3F22DB
:100F9000D24313408A88CC890D892243CC882C43C4
:100FA00022431A4310231A438283028C89890184C5
:100FB00030BD00210180418008228280C180012251
:100FC0000281418102228281C18170470029018B07
:100FD00002D00122114301E0490849000183704712
:100FE0000223002A06D0028B1A430283028A0A4394
:100FF00002827047028A8A430282018B99430183ED
:101000007047002A028B01D00A4300E08A43028322
:101010007047002A028B01D00A4300E08A43028312
:10102000704701607047406880B27047002A028DA7
:1010300001D00A4001E0C9430A4302857047028B90
:101040001D4B1A400283028B0A430283704710B57E
:101050000822082910D01024102910D0174B9942CB
:1010600002D1038B93430383144A083A914202D17D
:10107000018BA143018310BD018B1143FAE7018B62
:101080002143F7E70246128900200A4200D00120DE
:1010900070470246928900200A4200D00120704722
:1010A000828A0A438282704781847047828B0A4316
:1010B0008283704700D0FEBFFFFC0000F7FF0000F6
:1010C000154801688907890F016000218160C160AE
:1010D000016141617047104A116889088900014324
:1010E000116070470C4A0029116801D0014300E0EB
:1010F0008143116070478A0710B5120F0F23934088
:101100008C080549A40061188C689C438C608B682E
:10111000904003438B6010BD00000140F94910B5B9
:10112000884202D10121C41426E0012189078842A6
:1011300006D101210846FFF7D2FE0021012008E078
:10114000F149884208D101210220FFF7C8FE0021A1
:101150000220FFF7C4FE10BDEC49884207D10121EF
:101160000C042046FFF7BBFE00212046F1E7E849CA
:10117000884209D101214C042046FFF797FE002147
:101180002046FFF793FE10BDE2498842FBD10121C2
:101190008C04F1E730B50288DA4CA04206D0012376
:1011A0009B07984202D0D84B984204D11346702531
:1011B0004A88AB431A4302808A8882850A8802855E
:1011C000A04205D0D24A904202D0D24A904201D1E8
:1011D000097A01860121818230BD0021C9438180C5
:1011E00000210180C18041800172704701858282A7
:1011F0007047028870239A430A43028070478184B3
:10120000704781857047808C7047008D704702223F
:101210000029018801D0114300E09143018070470B
:1012200004220029018801D0114300E0914301808C
:10123000704780220029018801D0114300E09143CA
:1012400001807047028808239A43028002880A437B
:10125000028070470288B04B1A40028002880A431D
:10126000028070470029018802D00122114301E069
:10127000490849000180704710B50A884B88CC881E
:101280001A438B8823431A430B891A434B89898954
:101290001A430A434030828010BD00210180418002
:1012A0008180C18001814181818170474030002966
:1012B000818803D00122D203114301E04904490C83
:1012C0008180704730B5028C520852000284038C32
:1012D0008288048B7025AC43A4080D88A4002543A4
:1012E0000224A3430C891C434B882343854CA04212
:1012F00005D0874CA04202D0864CA0420DD10824D4
:10130000A3434C891C4304239C438B882343824C76
:1013100022408C891443CA89224382800583C9886C
:101320008186038430BD70B5028C10239A430284F9
:10133000048C8388028B794D2A400D782D062D0C64
:101340001543202294430A891205160C4A88264325
:101350001205120C6B4C3243A04217D1704C234043
:101360008C89A404240C1C4380239A434B891B05BD
:101370001B0C1343402293438A881205120C1A4314
:10138000684B1C40CB899B041B0C23438380058343
:10139000C9880187028470BD30B5028C624B1A4047
:1013A0000284038C8288848B7025AC43A4080D884A
:1013B000A40025435D4C23400C7A2406240C1C43D6
:1013C0008B781B061B0C23434E4CA04215D1554C69
:1013D00023408C7A2406240C1C43514B1C400B796F
:1013E0001B061B0C2343524C22408C892405240CE1
:1013F0001443CA891205120C224382808583C9884E
:101400008187038430BD30B5028C4A4B1A40028478
:10141000048C8288838B414D2B400D782D062D0C3A
:101420001D43454B1C400B7A1B071B0C23438C7838
:101430002407240C1C43334B984205D13F4B1A40E0
:101440008B899B051B0C1A4382808583CA884021A7
:101450000A52048430BD0021018041808180C18016
:10146000018141818181C181704730B503461833C4
:101470000124058C8C40A5430584002910D008293F
:101480000ED0091F0804400CC018016807231B0375
:101490009943016001681206120C1143016030BDCE
:1014A0004808C01801687023994301600168F4E797
:1014B000818670470187704781877047403001807F
:1014C0007047028B70239A430A4302837047028B52
:1014D0001B4B09021A40114301837047828B702312
:1014E0009A430A4382837047828B154B09021A4044
:1014F0001143818370470029818823D00122114341
:1015000022E00000002C01400004004000400140A7
:101510000044014000480140FFFC0000FF8C000037
:10152000FFFB0000FFF70000FFFE0000FFFD0000D2
:10153000FFCF0000FFEF0000FFDF0000FFBF000053
:10154000FF8F00004908490081807047028B082303
:101550009A430A4302837047028BFC4B09021A40EC
:10156000114301837047828B08239A430A43828385
:101570007047828BF54B09021A40114381837047F3
:10158000028B04239A430A4302837047028BF04B79
:1015900009021A40114301837047828B04239A4346
:1015A0000A4382837047828BE94B09021A40114338
:1015B00081837047028B80239A430A4302837047DA
:1015C000028B5204520C0902114301837047828B33
:1015D00080239A430A4382837047828B5204520CC1
:1015E0000902114381837047028C02239A430A4304
:1015F00002847047028C08239A430A43028470478E
:10160000028C20239A430901114301847047028C04
:1016100080239A430901114301847047028CCD4B0A
:1016200009021A40114301847047028CC74B09021A
:101630001A40114301847047028CC74B09031A40BA
:10164000114301847047028908239A430281028969
:101650000A430281704710B50123048C8B409C43E0
:101660000484038C8A401343038410BD10B5042303
:10167000048C8B409C430484038C8A401343038472
:1016800010BD04220029818801D0114300E091435C
:1016900081807047828BB14B1A408283828B090212
:1016A0000A4382837047828B0C239A438283828B06
:1016B0000A4382837047028BA84B1A400283028B35
:1016C00009020A4302837047F0B5048C1026B44324
:1016D0000484058B048CA24F1B0309013D402B435E
:1016E00012021A43A0239C430C4334430283048414
:1016F000F0BD028B0C239A430283028B0A430283C0
:10170000704770B5048C640864000484058B048CF5
:101710001B011343F3260A22B54394432B430C4386
:1017200001210C430383048470BDF8B50546088885
:101730004E888A880B890C4600281DD0042824D0A6
:101740000828288C2AD0874908402884A88B2F8C09
:101750003103834E12023040024318031043824A81
:10176000A88317400F43012109030F432F84E18809
:101770002846FFF78FFFF8BD31462846FFF7C1FF27
:10178000E1882846FFF7B5FFF8BD31462846FFF748
:101790009BFFE1882846FFF78EFFF8BD734908409C
:1017A0002884A98B288C3702F3261B01B1431343ED
:1017B0000B436F49AB830840FF2138430131084395
:1017C0002884E1882846FFF76EFFF8BD00210180DC
:1017D000418001228280C18001817047F8B50C46AA
:1017E0004988002601250746002900D10226A28843
:1017F000012A00D10225208823890028384610D0EC
:10180000FFF762FFE1883846FFF755FF23892A4634
:1018100031463846FFF775FFE1883846FFF769FF24
:10182000F8BDFFF76EFFE1883846FFF762FF2389B6
:101830002A4631463846FFF747FFE1883846FFF72A
:101840003AFFF8BD808E7047008F7047808F7047D9
:10185000403000887047002A828901D00A4300E0A6
:101860008A4382817047818270470246128A002033
:101870000A4200D001207047C943018270470246E6
:10188000138A002092890B400A40002B02D0002AC4
:1018900000D001207047C943018270471143403096
:1018A00001817047002A828901D00A4300E08A43FF
:1018B0008281704708220029818801D0114300E00D
:1018C0009143818070470189C908C900018170472F
:1018D000028970239A430A430281704710B5044677
:1018E000FFF7F6FF208907210843208110BD70B55E
:1018F00016460D46044660290CD001223146FFF7FA
:1019000000FF29462046FFF7E3FF2089072108430F
:10191000208170BD01223146FFF7D6FEF1E710B5F8
:1019200004891B021343E4B20B432343038110BD1C
:1019300010B50446FFF7F3FF2089C108C90007204E
:101940000143702081430143218110BDFFF7000056
:10195000FFFB0000FFFD0000FFDF0000FFF30000C1
:10196000FF0C0000FFEF0000FF5F0000FFFE000023
:10197000FFF5000010B50446FFF7D1FF20890121D3
:10198000890308432081E0E7828870239A4382809C
:1019900082880A43828070470289D208D20002817D
:1019A00002890A4302817047028980239A43028197
:1019B00002890A430281704770B50589048B068C41
:1019C000ED08ED000D430D4905810C40FF2102316A
:1019D0000C43AA218E43190111433143048301842E
:1019E00070BD80220029818801D0114300E091431D
:1019F000818070474030018270470000FCFC00008D
:101A00000E21017048A070470920704738B50524A1
:101A1000049BE402A34201D1012A0AD0A3420BD1C4
:101A2000102A09D81021444B1922009100F006FE1B
:101A300038BD00F0D3FD38BD00F026FD38BDFFB540
:101A400081B014460A9E0F461D463246194620466E
:101A500001F01AF9122C10D0132C0ED0152C0CD02A
:101A6000182C06D022463946019800F00DFD05B02D
:101A7000F0BD3146284600F029FA019802F080F9BD
:101A8000F5E770477047FEB516460C460546132924
:101A900028D006DC092C0ED00B2C14D00F2C04D12E
:101AA0001CE0182C24D0192C26D00A4601463046BA
:101AB00000F0EAFCFEBD01F0D7F800F0EBF8C7B289
:101AC00001F0D2F806E000F0C9F900F0E3F8C7B27F
:101AD00000F0C4F903462246009711E0072017A33F
:101AE00000900CE000200190022001AB009006E085
:101AF0000120144B009002E0062013A300900A4638
:101B00002946304600F042FDFEBD70470020704778
:101B100070470AA07047704710B500F067F80020C2
:101B200000F07AFA10BD00004D53313739332D4C97
:101B300045442D4843000000C63E00085356322E4F
:101B4000312E3300930000204D67204F5441000098
:101B500008B501246405FEF7CCFB641EFDD20949DB
:101B6000032000F021F800F0D3F96946432001F08A
:101B7000C3FA1121044801F02BF8A02001F016F857
:101B8000FEE70000E20400009600002010B50120EE
:101B9000FEF73DFF0028FAD110BD10B50220FEF778
:101BA00036FF0028FAD110BD70B504460D4601205D
:101BB000FFF7F9F86120FEF7C2FF0028FAD0FFF71F
:101BC000E5FF0C4E3046FEF711FFE0B2FEF711FFC5
:101BD000FFF7E3FF3046FEF709FF2805000DFEF78B
:101BE0000BFFFEF70CFFFEF70EFF70BD10B5FEF702
:101BF00006FF10BD5555000030B50B4601460020CC
:101C00002022012409E00D46D5409D4205D31D4602
:101C10009540491B2546954040191546521E002DFA
:101C2000F1DC30BD70B500242546002801DA01241E
:101C30004042002901DA01254942FFF7DDFFAC42AD
:101C400000D04042002C00D0494270BD03460B43F7
:101C50009B0703D009E008C9121F08C0042AFAD262
:101C600003E00B780370401C491C521EF9D27047E8
:101C7000D2B201E00270401C491EFBD27047002224
:101C8000F6E710B513460A4604461946FFF7F0FF7B
:101C9000204610BD421C0178401C0029FBD1801A4F
:101CA000704730B504460020034600E05B1C9342B9
:101CB00003D2E05CCD5C401BF8D030BD064C012562
:101CC000064E05E0E36807CC2B430C3C98471034E4
:101CD000B442F7D3FEF7F0F9443F0008643F000830
:101CE00070B58C180578401C6B075B0F01D1037829
:101CF000401C2A1106D10278401C03E006780E70C1
:101D0000401C491C5B1EF9D12B0705D40023521E31
:101D10000DD40B70491CFAE70378401CCB1A921CB7
:101D200003E01D780D70491C5B1C521EF9D5A142C1
:101D3000D8D3002070BD000010B50A4C607900288F
:101D40000CD0FEF75BFB616A884208D3401A012180
:101D50008902884203D200206071012010BD00205A
:101D600010BD00008401002070B5114C0025216ACF
:101D70004A78002A07D04989A289914203D100F00C
:101D8000F3FA206A4570E169487900280ED0C888C6
:101D9000A28990420AD10648E67905223030FFF741
:101DA00055FF01F0CDFDE0694571E67170BD0000A1
:101DB000F001002010B50349CA6A096B5043FFF7D0
:101DC0001BFF10BD8401002010B5044608480849D7
:101DD000806A096B002804DB6043FFF70DFF0019E0
:101DE00010BD40426043FFF707FF201A10BD0000FE
:101DF0008401002000B5002204490028CA7301D0E4
:101E00006420C87300F0DCF800BD00000001002071
:101E100013B56A46127813200240094802706A46D8
:101E200054784470002C03D02246801CFFF70EFF2C
:101E30000349A41C0846E2B2083801F07BF81CBD37
:101E40006001002001488078704700008401002074
:101E50000148C07970470000840100200748084904
:101E60000078020930320007000F8A70092801D873
:101E7000303000E03730C87001487047380100202A
:101E8000AE00002010B5074C6079002808D0FEF79E
:101E9000B5FAE169884203D300206071012010BDCA
:101EA000002010BDBC00002007490A7802704A7863
:101EB00042708A788270CA78C2700A8C02718A8CE9
:101EC0004271098D8171704700010020FF20704729
:101ED0001FB502246B461C730A2159730621197021
:101EE0000021597005229A70D97001221A715A7115
:101EF0009C71D9711872000A587219460398FFF73D
:101F000087FF1FBD01494870704700004401002051
:101F100001490120C8707047BC00002070B50D4D0C
:101F20001C4628716971AA71642B0DDC2002001B0C
:101F30006421FFF777FEE8626420001B0102081AA3
:101F40006421FFF76FFE01E00020E862286300F0E3
:101F500037F870BD0001002000B5652803D20249A2
:101F6000486300F02DF800BD0001002001498861A0
:101F700070470000BC00002070B50446034D0120EE
:101F80006871FEF73BFA0019E86170BDBC000020E3
:101F900010B5FEF714FAFEF731FA03491E30486215
:101FA0000120487110BD0000840100200521C001FE
:101FB000090240180149486070470000C401002030
:101FC000F0B51448417802798C46511A81824179E2
:101FD0008678891BC1828179C578491B0183818DEF
:101FE000048C091B4183018E838CC91A8183818EE5
:101FF000028D891AC183C77B817B7F1A4782417317
:10200000012101746146C171067245728472C37206
:102010000273F0BD0001002070B52F4C012810D0D4
:10202000E07B2070207960706079A070A079E0700A
:10203000E06A2062206B6062606BA062FEF7C2F90A
:1020400070BD257C0F2DFBD81420205E0F21684326
:10205000FFF7E8FDE179081860701620205E0F2177
:102060006843FFF7DFFD217A0818A0701820205E72
:102070000F216843FFF7D6FD617A0818E0701A2037
:10208000205E0F216843FFF7CDFDA17A081820627A
:102090001C20205E0F216843FFF7C4FDE17A081879
:1020A00060621E20205E0F216843FFF7BBFD217B8D
:1020B0000E181220205E0F216843FFF7B3FD617BED
:1020C0000818C1B23046A17348436421FFF794FD5C
:1020D0006D1CA0622574B1E70001002030B4744685
:1020E000641E2578641CAB4200D21D46635D5B0014
:1020F000E31830BC184702E008C8121F08C1002AC4
:10210000FAD170477047002001E001C1121F002A78
:10211000FBD17047090710B5090FC00705D0032987
:1021200002D1022001F0E4F810BD05480079002832
:1021300002D0FFF72DFF10BD01F046F910BD0000E1
:1021400084010020F8B50746204C00202071087853
:1021500016460007000F0D46032802D0052822D19D
:1021600017E0812000013818A06101F0E8F8174855
:102170006946C0890880009801F086F86178A06BF4
:1021800001F08EF860780121C001C9024018606139
:1021900011E0002E07D0284606220D490830FFF72F
:1021A00080FD002802D001F00FF904E032462946F4
:1021B000384600F0ADFB532000F036FE0549042000
:1021C00000F05BFE562000F02FFEF8BD84010020D9
:1021D000F7000020F301002070B5334C0546E0798C
:1021E000002823D0A078401CA070A079002801D03E
:1021F0002820A07020790026002808D0206A091A1B
:10220000E069281A00F040FBE67026716681FF2025
:10221000193001F0A1F8A078272815D801F047F867
:102220000020FFF7A3FE01F0DCF870BD512000F0A4
:10223000FBFD7821202000F04CFE562000F0F4FD3C
:102240000A20FFF793FE70BD2520A0702069FFF7DC
:10225000BBFD451920698009FFF788FE284601F07B
:10226000A4F8A07801F023F8512000F0DDFD7821DA
:10227000002000F02EFE7A21002000F02AFE5620D9
:1022800000F0D2FD05212069C901884208D9207AD1
:10229000401CC0B22072172802D3267200F061FEE3
:1022A0006089401C608170BD8401002010B509491F
:1022B0002520887000F0FBFFFF20193001F04CF85A
:1022C000002001F00AF801F08CF8002001F012FB68
:1022D00010BD00008401002010B50C4800780007F4
:1022E00002D001F071F810BD782001F035F801201E
:1022F00000F0FEFF05480C388169406908189121FB
:102300000901401801F01BF810BD000090010020E9
:1023100070B506460D46022000F0EAFF2320C001FA
:10232000104C2818A06101F00AF8E06800F0ACFF3A
:102330002178606B00F0B4FF20780121C001C90250
:1023400040186061A07825280AD1E661256260897D
:10235000112802D2E078002802D00120E07020711C
:1023600070BD00008401002070B50E4C0546206A47
:10237000017861724088E08150214843FFF724FDD5
:10238000401901F012F8206A81882182C188618297
:102390000089A082607A04494843401800F0DCFFBD
:1023A00070BD0000F0010020E204000070B504469A
:1023B00000781C4D4006C00F687128460622A11CFB
:1023C0003530FFF743FC0E342846042221462C30DA
:1023D000FFF73CFC28460322211D1630FFF736FC90
:1023E000E0796872617A207A09024018E881E17A1E
:1023F000A07A090240182882617B207B09024018DC
:102400006882E17BA07B09024018A8822146284609
:10241000052210313030FFF719FC607DC006C00E78
:10242000A87270BDF00100207FB50AA470CC8007AF
:102430000194800F039602956C462070092060700D
:102440006172A272100AE072237301A9009800F071
:1024500020F87FBD0500040001000000000000001E
:102460000EB507A106C980070091800F0192694649
:10247000087207204872029800F00BF80EBD0000A9
:10248000030004000317000010B50A23FFF7CCFF78
:1024900010BD10B5FFF7BCFC10BDFFB587B01E46E0
:1024A0006F46109B119A05463871092078710520F6
:1024B0000C463872002179720420B872F972601CDF
:1024C000387301207873B973F8730520C00239742A
:1024D000834213D105A8009006AB31460998FFF757
:1024E00015FB00280AD06946088B4873888AC87390
:1024F00002A90198FFF7CDFF0BB0F0BD2146284699
:10250000099AFFF7C1FFF7E7FFB587B007981746AD
:102510008007800F6A4610700A20507000205071AA
:1025200006211171D07104219171052111720121CF
:1025300051721E46D0720446134D1AE020460A21FD
:10254000484341194988B94211D3B1420FD80A21F1
:102550004C43611989786A469172285A1073000AAF
:10256000507301A90098FFF794FF0BB0F0BD641CF5
:10257000E4B2FFF749FAA042E0D83A460899079832
:10258000FFF782FFF1E700006C3E0008F0B589B06C
:102590000E4607461D461C2101A80E9CFFF76FFB47
:1025A000B807800F69460870601D4870601C08718C
:1025B000000A4871042088710020C871761C0E72D0
:1025C00001A904E02A5C0B18401C5A71C0B2A04259
:1025D000F8D30098FFF75DFF09B0F0BD30B589B0C2
:1025E000154901220A7000216C4621716171042392
:1025F000A371E1711123237206236372A272E17247
:1026000023736173A1731825E57307222274617423
:102610000F22A274E1740A232375182161750E2517
:1026200080072571800F12212070617001A9009828
:10263000FFF72FFF09B030BDA8000020F0B589B02A
:102640008446002468460E9D0471447104268671F8
:10265000C471112606722E1D46728172C4720273F5
:1026600044730A2001AF002105E05A5C3A54401C33
:10267000491CC0B2C9B2A942F7D3011F6A46117101
:1026800061468907890F1170507039460098FFF72D
:1026900000FF09B0F0BD0000FFB589B00998152111
:1026A0008507129E4902AD0F1F468E4221D1684612
:1026B000FFF7A6F9014668460571002343710078CB
:1026C000801CC2B2122A00D91222941C6D462C72B0
:1026D000200A68720426AE72EB72092028736A73AE
:1026E000AE73EB7304A8921EFFF7B0FA241D6C7151
:1026F0003FE0614886423ED10B9807283BD15F48B6
:102700000078002837D06B461D71172119720021FF
:102710005972042199720021D97209210720197375
:102720005873082098730020D873022018745974C5
:10273000002199742921D9742A2119750A225A7500
:1027400000249C75D8750B251D7600255D76262501
:102750009D760E22D9761A7700225A7798770F2421
:10276000DC7708AB1A702820587099701B206B46D4
:10277000587102A96FE0FF2F00D9FF27002471E0F4
:1027800020460A2148433E490A5AB24268D14118BC
:1027900048880B9A904263D3B84261D8364A521E99
:1027A000964223D10A226E463272002373720422AB
:1027B000B272F37209223273082272730A225443EE
:1027C0002F4AA2189278B273000AF073002002AA6E
:1027D0000B181418401C1B79C0B223720528F7D3BC
:1027E000487A707535710E20707133E009266F4696
:1027F0003E7200237B720422BA72FB723E73072280
:102800007A730A2254431E4AA2189278BA73000AB5
:10281000F873184602AA0B181418401C1B79C0B292
:1028200023720528F7D33D710D207871497AFF296D
:1028300010D0144B00200901C9180B5C1418401C5F
:10284000C0B2E3721028F8D31B20787117203872B9
:102850001520787311460198FFF71BFE0DB0F0BDEF
:10286000641CE4B2FFF7D0F8A04289D809AB07CBCB
:10287000FFF70AFEF2E7000003280000A80000208E
:102880006C3E0008C63E00084B22D200084B821A5C
:102890009A420CD27D22D200064B8A1A9A4206D264
:1028A000FA224243531A044A93621163D06270477A
:1028B000A81D0000196618008401002010B5FDF75E
:1028C0007DFD00F081FD10BD7FB5282148430749FB
:1028D0000A9D099C6E460861B08888814A630B7026
:1028E0000846328CC2818C634D707FBD840100200C
:1028F0000349024808604068004700000C3F000898
:10290000C00100200148007870470000C401002089
:1029100070B50846114B104919601146FFF746FD86
:10292000012000F01FF80E49012208780C461043E0
:10293000F12210400870083C208A4100A08A8142A0
:1029400000D288B20A214843FFF716FB0025A57084
:1029500000F03AFD657070BD283F0008C0010020FE
:10296000F80100200149087070470000C4010020F0
:1029700010B50848C07800280AD0074800680078D9
:10298000002805D1FFF7D8F9002801D0FFF796FFFE
:1029900010BD0000BC000020C0010020FEB57D4D30
:1029A000E97803290BD0012972D0022901D1032132
:1029B000E970688101F0F8F9E878002868D1764F6D
:1029C00000203C462871754E52340AE028790228CE
:1029D00007D1A869002804D0E878002801D1FDF7C4
:1029E000ECFC3068007800280ED1E878002805D18A
:1029F000FFF7A2F9002801D0FFF760FFFFF728FAE0
:102A0000002801D1FFF788F8FDF7CEFC00286ED032
:102A10006048001D00F01EFC287900F09CFA6969EE
:102A200028797854491C6961142901DB0021696106
:102A30006A69FF21B954C1070CD0694601A800F0AA
:102A4000D9FA574800990160564A019810603268D7
:102A500092686CE0810715D5694601A800F0CAFAB2
:102A600000F0B2FC30680099826901989047FFF746
:102A7000E9F9252803D03068007801287AD1FFF7DA
:102A80004BF877E0C10604D530684069804771E0B3
:102A90007EE001062CD5306843490078002813D029
:102AA000012000F0C3FA617820780902401881B251
:102AB0003068C268012090472879410610D56946E0
:102AC00001A800F097FA28E0002000F0AFFA617842
:102AD00020780902401881B23068C268012026E0DF
:102AE000800647D5694601A800F084FA35E049E040
:102AF000410616D5694601A800F07CFA30680078D6
:102B000000280AD120780007000F052805D1214AA6
:102B10002549921D002000F09DFA30686278036913
:102B200024E0410705D530680021C2680846904777
:102B300020E0010703D50020FFF714FF18E080060E
:102B400016D5694601A800F055FA306801780029C9
:102B50000AD01549012000F069FA306862780369EB
:102B600000210098984705E0036900220E49F8E724
:102B700000F02AFCE878002800D127E7287980288F
:102B800006D123E7E8780028F7D028790028F4D187
:102B9000FEBD0000BC0000202C020020C00100206F
:102BA000CC010020D00100207E02002070B5054637
:102BB000FDF724FCC41CFDF721FCA042FBD3034914
:102BC0000220C8702846FFF7E9FE70BDBC00002057
:102BD00010B50C461F2900D91F240146224605487E
:102BE000FFF734F804480470C01DA41D447001F0C0
:102BF000F3F810BD40020020BC00002070B50D4667
:102C0000124A01461078002809D0401E1070002694
:102C100056705068092806D0401C506005E001201D
:102C20005070002070BD304656600C22084B424365
:102C3000D41842018018074A80182A462060FFF7FE
:102C400005F825712046A66070BD00003C010020FB
:102C5000F4030020A802002010B500F098FB00202B
:102C6000FFF7A4F910BD000000A070474D475F4278
:102C70004C455F4C49425F56332E30000148007886
:102C8000704700003C010020F0B585B015460C46A9
:102C9000074614225CA16846FEF7D8FF002C6CD0D2
:102CA000002D6AD001265D4D122F22D0132F23D084
:102CB000152F62D1E079E02874D029DCD02845D0E6
:102CC000D2285AD1A07A642800D868702879694639
:102CD0008872E878C872401C0006000EE87067D061
:102CE00067E06878A9784843694608731421684604
:102CF00087E02078012840D1287969468872E878F1
:102D0000C872401C0006000EE870EAD1EE70E8E7D9
:102D1000E22834D0EA2830D12078694608706078FB
:102D20004870A0788870A8884871C870000A8871B7
:102D30000871EB20C8713AA002884A8140888881D6
:102D40001421684600F0DAFD012014E0A17AA97090
:102D500028796A469072E878D072401C0006000E0E
:102D6000E87000D1EE706878484310731421104663
:102D700000F0C4FDA07AFFF73DF805B0F0BDA07AE1
:102D8000042810D00528F8D1E07A64214843FF21B7
:102D9000FEF732FFC3B20022E37211461046FFF77E
:102DA000BDF8EAE716E0627B217BE07A6523F6E76F
:102DB000EE706878A978484369460873142168461C
:102DC00000F09CFD6878002800D16E706878FFF7ED
:102DD000C3F8D2E7E07A6A460102A07A0843A880E5
:102DE0002178117061785170A17891709072507152
:102DF000D070000AD07290711071E120D07114214E
:102E0000684600F07BFDB8E700000000000000DC31
:102E10001102937D0003000000000000A8000020C4
:102E20006D6720200000000010B50446FDF7AEFAE3
:102E300001215020FDF79FFA01212046FDF79BFA62
:102E4000FDF7ABFA10BDF8B515460E460446FDF782
:102E50009DFA01212046FDF78EFA0746002406E080
:102E60000021FF20FDF787FA3055641CE4B2AC4224
:102E7000F6D3FDF792FA3846F8BD70B50C46054614
:102E8000FDF784FA01212846FDF775FA0021FF209D
:102E9000FDF771FA2070FDF780FA70BDF8B516469F
:102EA0000D460446FDF772FA202020430121FDF76C
:102EB00062FA002407E0287801216D1CFDF75BFA17
:102EC000641C0746E4B2B442F5D3FDF766FA38460F
:102ED000F8BD70B50D460446FDF758FA2020204392
:102EE0000121FDF748FA01212846FDF744FAFDF7D4
:102EF00054FA70BD0168002902D14068002801D051
:102F000000207047012070470021016041600249A4
:102F10000A200870704700003C0100200268136816
:102F200012790A70016889680160002900D1416046
:102F30001846704710B50B46044611461846FFF771
:102F40005DFE002806D06168002901D0886000E09D
:102F50002060606010BD10B501460E20FFF7B9FF7C
:102F600010BD1CB55320FFF75FFF03211F20FFF7A3
:102F7000B0FF01A91F20FFF780FF684600790028F5
:102F8000F7D103211F20FFF7A4FF01A91F20FFF79E
:102F900074FF684600790028F7D101211520FFF75A
:102FA00098FFA0211220FFF794FF04210A20FFF7C9
:102FB00090FF00210A20FFF78CFF88211220FFF7E5
:102FC00088FF012469460C702120487002221320DA
:102FD000FFF764FF69460C7020204870022213201E
:102FE000FFF75CFF00211520FFF773FF5620FFF766
:102FF0001BFF1CBD7CB50D46044606226946102009
:10300000FFF721FF694648790B7902041802C97855
:103010001018401869462060887849780004090231
:10302000401869460978401828607CBD1CB50C46DC
:1030300000280BD0022269460620FFF704FF6846ED
:10304000007820706846407860701CBD0222694696
:103050000420F2E77CB515460C46002809D06278BA
:10306000901C2870002A03D0A11C6120FFF7EBFE02
:103070007CBD022269460420FFF7E5FE68464078E1
:10308000801C287068460078207068464078607020
:103090006846007825460107090F684640780835DC
:1030A0000B00FFF71BF80605080513041904DFE7FA
:1030B0000622A11C08E00C28DAD10622A11C0A2055
:1030C000FFF7C1FE062229460B20CFE70C28CFD1FF
:1030D000062229460A20C9E72228C9D10622A11CB6
:1030E0000B20FFF7B0FE062229460A20FFF7ABFEB1
:1030F000162221460E31B8E77CB506460024684604
:103100000471524D51200D60FFF78EFE01A91F2062
:10311000FFF7B3FE684601798029F7D14C491E209C
:10312000FFF7ABFE78210020FFF7D3FE062108460B
:10313000FFF7CFFE7A210020FFF7CBFE5320FFF7E9
:1031400073FE00211520FFF7C4FE02210120FFF7C6
:10315000C0FE1E211D20FFF7BCFE304600F0E4F843
:1031600000A908200131FFF788FE68464078384EF4
:10317000002807D130781B2801D2152000E011204B
:1031800069464870C020694608702D208870032267
:103190000420FFF783FE69460C704C7002220C205D
:1031A000FFF77CFE30788024192843D01C20694624
:1031B00008704C7002221420FFF770FE1020694640
:1031C000087002264E7032460A20FFF767FE6946F5
:1031D0000E701220487002220D20FFF75FFE0120C2
:1031E000694608700720487002220E20FFF756FE3D
:1031F000032269460B20FFF726FE40206946C8706F
:1032000004220B20FFF74AFE69460C7001220C20B5
:10321000FFF744FE5620FFF707FEFF210E20FFF7C1
:1032200058FE062209490820FFF70DFE68796D282F
:1032300002D008E0CC20BAE7ED20687106220349ED
:103240000820FFF72BFE00F0BFF87CBDF700002040
:103250003801002038B5044669460E20FFF70DFE00
:1032600068460178217038BD1CB501786A46117036
:103270004178517081789170C078D070042269468D
:103280000C20FFF70BFE1CBD01B582B06946087A21
:103290000870487A487002220320FFF7FFFD0EBD38
:1032A0000A4610B50146A020FFF7F8FD10BD10B585
:1032B000282803D201460120FFF70BFE10BD1CB5E4
:1032C00001786A46117041785170807890700322BD
:1032D00069460D20FFF7E2FD1CBD1CB5FF216A46C3
:1032E00011705070022269460E20FFF7D7FD1CBDF9
:1032F00010B504280BD001280BD002280ED00328CB
:103300000ED005280ED0062807D1042102E00221A4
:1033100000E009210220FFF7DCFD10BD0C21F9E7D8
:103320000121F7E70321F5E708B502216A4611708C
:1033300050700A4669460F20FFF7B0FD08BD1CB566
:103340006A461070010A5170000C907003226946A1
:103350000720FFF7A3FD1CBD1CB56A461070010ACB
:103360005170002191700549884201D90120907067
:10337000032269461120FFF791FD1CBDFFFF0000ED
:103380000A4610B50146A020FFF788FD10BD01B523
:1033900082B06946087A0222C006C00E0870487AD8
:1033A00048700520FFF77AFD0EBD1CB500216A4666
:1033B00011705070010A9170000CD070042269469F
:1033C0000F20FFF76BFD1CBD1CB50220694608707D
:1033D000FF2048708870C87004220F20FFF75EFD40
:1033E0001CBD10B501210F20FFF773FD10BD0000BB
:1033F00038B5054600230C4610460093FFF77AFDCA
:10340000002802D02B70237038BD69461046FFF7A4
:1034100085FD0146684602782846FEF717FC684697
:103420000078207002480178491C017038BD000006
:103430003C01002010B5054803498160002141701E
:103440001430FFF761FD10BD083F00084401002063
:103450007047000000B587B0182207A16846FEF744
:10346000F5FB0B4803210170182141700068694683
:10347000FEF7CEFC07B000BD101000280001002CA4
:10348000011820000300FFFFFFFFFFFFFFFFFFFF0A
:10349000DC0100201CB500228C070C490092A40F0F
:1034A00001920C7006244C7002236C4623706270EB
:1034B0000279A2704079E0700D2020711A206071AD
:1034C00008686946FEF7A4FC1CBD0000DC01002072
:1034D0000EB507A007C86B4607C308480321017053
:1034E0000921417000686946FEF792FC0EBD00009C
:1034F000090000000000000000000000DC010020C6
:103500001CB500228C070C490092A40F01920C708C
:1035100006244C7002236C46237062700279A270FC
:103520004079E07005202071372060710868694695
:10353000FEF76EFC1CBD0000DC01002010B5890701
:103540000548890F0170002141700068FFF784FB76
:103550000020FFF707FA10BDDC01002008B507A125
:1035600009680091064903220A7002224A706A46DD
:10357000507008686946FEF74BFC08BD0700000064
:10358000DC0100201CB507A005C80090890707488A
:10359000890F019201700621417000686946FEF7AB
:1035A00037FC1CBD0C079C0517200000DC01002027
:1035B000FEB5164C01A92246083A2046FFF718FF2F
:1035C0006846007901262546002804D12E706870CF
:1035D00002206946087121780C4F132001401C3FDE
:1035E00078780423C24352081A4040071143C00FA1
:1035F000C00001436A46117060785070A11C0098A9
:1036000000F0DBFB2E7000207870FEBD6001002012
:10361000FEB50D46002102911D2D00D91D25014644
:103620002A469948FEF712FB9848974C0570207877
:1036300096498207920F8870012A14D0032A17D066
:10364000022A0FD1637922791B02A579D218062AA2
:103650004BD0042A50D0052A04D1132D02D00020CB
:10366000FEF736FCFEBD022DFCD3FEF751FAFEBD7F
:10367000A1780B00FEF732FD120B0F1E23353535F6
:103680000A283535352D0A35320A0A35EFE7E01CB0
:1036900000F0FEF8FEBD01467B48FFF7D9FE617AD7
:1036A000207A090240186946088102A9E01C00F04E
:1036B00011F9FEBD01467448FFF740FFFEBD01460B
:1036C0007148FFF7E7FEFEBD01466F48FFF700FFB8
:1036D000FEBD01466C48FFF755FFFEBDFFF7BAFE81
:1036E000FEBD0846FFF73AFFFEBD012DFCD10146A5
:1036F0006548FFF705FFFEBD644A0C32102D3AD035
:103700000ADCAE1E3300FEF7E9FC0B4E155315A183
:10371000151E1564157015005B4B0933182D75D0F7
:1037200004DC122D73D0162D04D171E01E2DE2D0D1
:10373000522D7AD0227AE179120289188AB229466A
:10374000FEF7A2FEFEBD237AE1791B02C9188EB2F4
:103750001680A37A617A1B02C9188BB25380E17A72
:10376000247B2402091989B29180009132462946AE
:10377000FEF792FFFEBD237AE1791B02C9188EB2D3
:103780001680A37A617A1B02C9188BB25380E17A42
:10379000247B2402091989B291800091324629467E
:1037A000FEF734F9FEBD00222946FEF759FEFEBDA4
:1037B000237AE1791B02C91889B21180637AA47A4D
:1037C00024021B199BB253800A462946FEF79CFE31
:1037D000FEBD237AE2791B02D21893B28B80024697
:1037E00019462846FEF74FF9FEBD237AE2791B02FF
:1037F000D21896B28E80A37A627A1B02D21893B244
:10380000024631462846FEF780F9FEBD09E00CE08D
:10381000227AE0791202801888801B4800F08DFA25
:10382000F3E7194800F04CFAEFE7E278A6781202C5
:10383000D21EB218D6B2E279247A2402121992B2B8
:103840008A8029460096FEF7FAF8DEE7237AE179C6
:103850001B02C91889B21180A67A637A36029B19B5
:103860009BB25380267BE27A36029219667BA47B58
:1038700092B2240234190092A4B20A460194294655
:10388000FEF70BFEC1E700006C040020440100209D
:103890000F490122096A4A7002780A7083784278D7
:1038A0001B02D2184A800379C2781B02D2188A8080
:1038B000837942791B02D218CA80037AC2791B022B
:1038C000D2180A81427A807A000210184881704723
:1038D000F001002010B5064C0346E0690988C1805C
:1038E00005221946FEF7B2F9E1690120487110BDC1
:1038F000F001002010B5FEF73FFB10BDF8B50C46F7
:103900000746002614E0142C01D9142500E02546B2
:10391000FFF7B4F903280FD3084800950288BB19B4
:103920001B21022000F0DDF97019C6B2601BC4B281
:10393000002C01D0002FE6D13046F8BD94000020C5
:10394000F0B50C4B00201C46D87130340A4AD872AE
:103950000125C1084607615C760F2F46B740394202
:1039600003D0D97A5054491CD972401CC0B22528C2
:10397000EFD3F0BDF0010020A204002010B5C00775
:1039800006D10448FD22017811400170FFF71CFDAB
:1039900010BD0000F8010020F8B5344F06460C4673
:1039A000B88A0A2115464843FEF7E6FA3946083137
:1039B000087802221043F32210400870FCF700FD43
:1039C000002C03D06078002819D01EE0412040016F
:1039D00005213018C9014018B862FFF7B0FC1B2D53
:1039E00000D91B25E8010521301A0902401A786226
:1039F0001E480821083002780A43027032E01B4852
:103A00000422083001781143017081200001301830
:103A1000B862FFF794FCE8010121301A8902401ACC
:103A200078622078FEF76EFA22780821B8780A408A
:103A3000824217D101223A704840B8700C480068A1
:103A400000688047FCF7BDFC002078705320FFF72A
:103A5000EBF906490420C91CFFF70FFA5620FFF7BF
:103A6000E3F9F8BDFCF7ADFCF8BD0000F001002063
:103A70004C010020F3B581B00546FEF743FF002856
:103A80002DD0724E002730783446C107083C0029FB
:103A90002BD0E089502148432830FEF795F9401992
:103AA000FFF783FCFFF74CFFE0694771206A47701E
:103AB000A781204627701630FFF701FC20462C30E6
:103AC000FFF7D2FBFFF7B6FCE771607A6049484325
:103AD0004018FFF741FC0120FEF71DF861E00020CF
:103AE000FEF744FA00F060F9FEBD80072CD502987D
:103AF000616A401A0121090640180002000AFEF717
:103B000059F92D1A3078400715D5618A002912D04D
:103B1000208A41430818502148437838FEF754F969
:103B20004519A189608A0918A181A17A4143E079E8
:103B30000818E07106E0208A502148437838FEF7E3
:103B400043F94519434821E0208A082801D2012180
:103B5000217141490D686178082903D250225043F0
:103B6000C90002E0502250434900401A1038FEF7C5
:103B70002BF94519208A2D2801D9384806E0344907
:103B800048430321FEF738F831494018FFF7E4FBBA
:103B90002846FFF70AFCA089401CA0812846FEF7B2
:103BA000E3F85120FFF740F978210020FFF791F961
:103BB0007A210020FFF78DF95620FFF735F9E079DB
:103BC000A17A4018C0B22521FEF716F81F4BE1710B
:103BD000CA0828339A5C4B0708465B0F01219940BD
:103BE0000A4204D1E17AFEF707F81D48405CA07153
:103BF000C0B2FFF75CFB2078002811D018490120E3
:103C00002531FFF713FA16496A4625310120FFF7DF
:103C100021FA6846017812482530FFF7F9FC277031
:103C20003078C10704D040084000307000200AE01E
:103C30002079002804D00020FEF798F92771FEBDF6
:103C4000208A81080818FEF791F9FEBDF8010020CE
:103C5000E2040000A60E0000D0010020204E00006B
:103C6000A204002010B506480078000704D5002102
:103C70000846FFF783FE10BDFFF7A6FB10BD00004E
:103C8000F801002070B50D46FEF7FCF8002803D1BE
:103C90000A4C60781E2805D90020FEF763FEFFF766
:103CA00093FB70BD0420FFF723FBC32040012818BD
:103CB000FFF745FB6078401C607070BDF00100208C
:103CC00008B502216A4611700521517001218170E9
:103CD00019218171811C0098FEF7DBFBFDF7D2FEF4
:103CE00008BDFFB58BB0149C1D461746E61C242169
:103CF00001A8FDF7C4FF0B9813210840694608701E
:103D0000E01D48700E71300A48710420887100204F
:103D1000C8710C9808724F72380A8872002001A985
:103D200004E02A5C0B18401CDA71C0B2A042F8D340
:103D30000098FEF7AEFB0FB0F0BDF8B50446827AEE
:103D4000C178007AE57900020543A07809020843AA
:103D5000401F87B2667A1002064302206946087047
:103D6000607848701720A071A11C0098FEF791FBA5
:103D7000214633463A460B312846FDF782FEF8BD10
:103D80000EB507A106C980070091800F0192694610
:103D90000872052048720298FEF77BFB0EBD0000FA
:103DA000010004001300000010B500F015F8002019
:103DB000FDF7B1FEFEF79CFD10BD73B50D460098F2
:103DC000FFF7E5FA6846447828462146FFF7D8FA17
:103DD0002046FEF7EBF87CBD30B585B003A8FDF7B3
:103DE0000FFE6946097B182902D918216A4611730A
:103DF00069460A7B1B4B511C1970002104E0445C8E
:103E00005D18491CAC70C9B29142F8D3002003E0A0
:103E10009918521C8870D2B2192AF9D31149114A43
:103E20000C46203C2578123A03231B20002D01D09C
:103E30000D4A2B466578002D02D00B4928461F31CC
:103E400001910290A0896D46288006482038C179EA
:103E50002974007A687460890499FEF735FD05B00D
:103E600030BD0000DC0000204002002003280300D9
:103E7000020400002AFF03280800020900292AFF83
:103E800003280A00020B00262AFF03280E00020F57
:103E900000282AFF032811001A120000000102293D
:103EA00013000A0000000000032814000A15000097
:103EB0000002032817000A18000000030129190056
:103EC00002000000000010190D0C0B0A090807067B
:103ED00005040302010011190D0C0B0A090807065D
:103EE00005040302010012190D0C0B0A090807064C
:103EF00005040302010013190D0C0B0A090807063B
:103F00000504030201000000B135000800000000B4
:103F1000AD220008112300081521000845210008E2
:103F2000D9220008D921000801000000000000008B
:103F3000853C00087D39000899390008653C000877
:103F4000753A0008643F0008000000202C020000C1
:103F5000E01C0008E83F00082C020020BC0600001E
:103F600006210008610A750F011145020406082D9B
:103F700001020304041506070809121220120201A7
:103F800006030390FE09FF11029C0593F540E1151D
:103F900064010179B00B465620202E332E322E318B
:103FA00013800912A01B8421340110022209B201DE
:103FB0001A64010217100A11640C02230A0225FF79
:103FC0005A258B09167E611A81F61A58750B216FD6
:103FD000E8D971138A041420D4010224201AE82895
:083FE0001A96300118000000E0
:04000005080000B13E
:00000001FF
