:020000040800F2
:1000000068090020C5000008890600088B06000862
:1000100000000000000000000000000000000000E0
:100020000000000000000000000000008F06000833
:10003000000000000000000091060008990600087A
:10004000F1000008F1000008F1000008F1000008CC
:10005000F1000008AB060008F1000008B506000832
:1000600000000000F1000008F1000008F1000008A5
:10007000F1000008F1000008F1000008F10000089C
:10008000F10000080000000000000000F10000087E
:1000900000000000F1000008F1000008F100000875
:1000A00000000000F100000800000000F10000085E
:1000B0000348854601F098FE00480047451B0008AC
:1000C000680900200B4880F308880B480168090E76
:1000D0000A4A914205D10A480A4901600A480B4977
:1000E00001600B480047FEE7FEE7FEE7FEE7FEE79C
:1000F000FEE7000068090020040000001F00000067
:100100001810024001000000000001400000000043
:10011000B100000810B5002819DAFE4A03071B0FCA
:10012000083B9B089B00D2588307DC0EFF23A340AB
:100130009A438B071B0E8407E40EA3401A43F54B2A
:100140000407240F083CA408A4001A5118E0F24A3E
:1001500003231B02D21883089B00D2588307DC0EAE
:10016000FF23A3409A438B071B0E8407E40EA34092
:100170001A43E94B032424021B198408A4001A51D2
:1001800010BD10B50446601EE449884201D9012023
:1001900010BD601EE24948610321081FFFF7BAFF46
:1001A0000020DF498861072008610020F0E710B5D2
:1001B00004460821204601F06DF910BD10B5044633
:1001C000D849204601F066F910BD10B5044610214B
:1001D000204601F05FF910BD10B50446D149083939
:1001E000204601F057F910BD30B585B004460D46E4
:1001F000CD4884424FD10121801401F02FF8CA4824
:1002000020300089C9490843C749203108810121AC
:100210000320400401F007F800220521C44800F043
:100220002EFC00220421C24800F029FC00220321F8
:10023000BF4800F024FCA1156846018003218170AD
:100240001021C1706946BA4800F06FFBA115B8488B
:1002500000F0FEFB0821684601800321817018210F
:10026000C1706946B24800F060FB202168460180F9
:10027000032181701821C1706946AD4800F055FB1B
:10028000102168460180032181700421C1706946F4
:10029000A74800F04AFB0421684681800021C18004
:1002A0000821018100214181012181810021C18139
:1002B0000582418201A9204601F06BF80121204608
:1002C00001F099F82046FFF772FF2046FFF77DFF07
:1002D00005B030BD01460020964A126801231A433A
:1002E000944B1A6000BF934A126802231A40002AF6
:1002F000F9D05A028F4B5A601A46526801231B04E8
:100300009A438C4B5A601A46126801231B069A4383
:10031000884B1A601A4612681F239B069A43854B26
:100320001A601A4612684B1E9B061A43814B1A60CC
:100330001122814B1A607F4A126801231B061A435F
:100340007C4B1A6000BF7B4A126801235B061A408F
:10035000002AF8D0774A526892089200754B5A608A
:100360001A46526802231A43724B5A6005E0714ADA
:1003700052689205100E8007800F0228F7D170474F
:1003800010B50420FFF7A6FF022000F016FE00BF04
:1003900000F01FFE0828FBD110BD10B586B0044642
:1003A0000121880300F05AFF1B21684601740321D4
:1003B000417481740121C17404A800F0AAFB0122D8
:1003C0000921C80600F05BFB01220A210920C006B2
:1003D00000F055FBE120400200903021684681800A
:1003E0000021C180018181811821418169465348E2
:1003F00001F0F1F801220221504801F045F90022F4
:1004000001214E4801F040F901214C4801F030F93A
:100410000121490268468182022181751821C17536
:1004200005A90920C00600F080FA0121890268466A
:1004300081820421C17505A90920C00600F075FA62
:1004400006B010BD10B53E48FFF79BFE10BD00285A
:1004500005D0FF2101310922D206516104E0FF21BC
:1004600001310922D2061161704710B50121080738
:1004700000F002FF012000F0EFFB00F017FC10BDC0
:100480001FB5FFF77DFFFFF7DDFF06212648FFF7C9
:10049000ABFE0121090368460180022181704821D9
:1004A000C17069460920C00600F03FFA0121684684
:1004B00001802821C17069460920C00600F035FA84
:1004C000052208210920C00600F0D9FAFF210131D8
:1004D00068460180022181701021C170694609209F
:1004E000C00600F022FA0121084600F0B7FE012103
:1004F000080700F0C1FE0C21002001F035F80120B2
:10050000000301900021684601720C214172012113
:10051000817217E01CED00E000E100E0FFFFFF004A
:1005200000E000E0F7FF0000003001400100FFFFA5
:100530000004004800100240002002400038014042
:1005400080BB000001A800F03CF907216846017358
:100550000221417381730121C17303A800F0D9FA0C
:1005600003210720FFF7D6FD1FBD02463E4802606B
:1005700000BF3D480089C007C00F0028F9D000BF68
:1005800039480089022318400028F9D036484068CD
:10059000C0B2704710B5FF210131344800F05AFA5B
:1005A00010BD10B5FF210131304800F051FA10BDE7
:1005B00010B50920C00600F039FA010B012088436C
:1005C00010BD704710B5002000F0F7FC00BF00F030
:1005D00000FD0028FBD12648006801210906884358
:1005E000234908607D208001FFF7CBFD10BD10B5C9
:1005F00002F090FC002819D01E480068FF212D3120
:10060000884207D9002000F05AFD03F057F8FFF7A1
:100610002CFF0BE0022018490870FFF7D3FF1748A2
:100620000069042108431549086130BF10BD10B5A9
:10063000FFF7A6FE1248FFF7A4FD10BD72B61148E1
:100640000078401C0F49087070470E480078401E23
:100650000C49087008460078002802DC0020087069
:1006600062B6704770470000003001400004004847
:1006700000100240240000200000002000ED00E0F7
:1006800080BB000001000020704700BFFEE77047FC
:1006900070473F480068704710B53D480068401CEF
:1006A0003B49086002F01EFB10BD10B5012000F0B0
:1006B000F9F810BD10B50120000300F0F3F835483B
:1006C0000078022826D134480068012108433249C5
:1006D0000860084600680121090608432E490860A1
:1006E00008464068022108432B4948602B4C601E95
:1006F0002B49884200D90CE0601E2A494861032139
:10070000081F00F00DF800202649886107200861C5
:1007100000BF00BF00201F49087002F0F9FA10BDA9
:1007200010B5002819DA204A03071B0F083B9B0865
:100730009B00D2588307DC0EFF23A3409A438B070C
:100740001B0E8407E40EA3401A43174B0407240F23
:10075000083CA408A4001A5118E0144A03231B0201
:10076000D21883089B00D2588307DC0EFF23A340D6
:100770009A438B071B0E8407E40EA3401A430B4BCE
:10078000032424021B198408A4001A5110BD000080
:1007900004000020000000200010024080BB000088
:1007A000FFFFFF0000E000E01CED00E000E100E0E2
:1007B00000203E49086048608860C8603C48486145
:1007C0007047002139498279002A35D00A461268DB
:1007D00003689A430B461A600A46526803689A43B4
:1007E0000B465A60027951180A6803681A430A6076
:1007F0002E4A926803689A432C4B9A601A46D26834
:1008000003689A43294BDA604279102A0CD11A46C0
:10081000926803681A43254B9A601A46D2680368A7
:100820001A43224BDA600EE02049427951180A68D7
:1008300003681A430A6006E01C49027951180A68E5
:1008400003689A430A6070470021016001710C211E
:100850004171002181717047144909690143134AAC
:100860001161704701460020104A52690A40002A6F
:1008700001D0012000E0002070470C49486170471A
:10088000014600200022094B1B680B401A46074B0B
:100890005B690B40002B03D0002A01D0012000E04F
:1008A0000020704701494861704700000004014082
:1008B000FFFF1F0010B504461720C00620180028AF
:1008C00008D001218902401A0ED0401A16D0401AD1
:1008D00028D11DE00121480400F0A5FC00210120E1
:1008E000400400F0A0FC1EE00121880400F09BFC05
:1008F00000210120800400F096FC14E00121C804CE
:1009000000F091FC00210120C00400F08CFC0AE002
:100910000121080500F087FC00210120000500F0FE
:1009200082FC00E000BF00BF10BDFCB50246002500
:10093000002601960020002300240096CE7835077B
:100940002D0FCE7810273E40002E01D08E783543F3
:100950000E78002E27D01468002021E00126864062
:1009600033460E881E400196019E9E4217D1830099
:100970000F269E4000962746009EB7433C462E46D3
:100980009E403443CE78282E03D1012686405661FE
:1009900005E0CE78482E02D1012686401661401C23
:1009A0000828DBD314600E88FF2E2CDD546800204D
:1009B00026E0064608360127B7403B460E881E4013
:1009C0000196019E9E421AD183000F269E400096FA
:1009D0002746009EB7433C462E469E403443CE7881
:1009E000282E04D1064608360127B7405761CE7835
:1009F000482E04D1064608360127B7401761401C2F
:100A00000828D6D35460FCBD0021C94301800221CF
:100A100081700421C17070470246002093680B402A
:100A2000002B01D0012000E00020704701468868BB
:100A300080B2704702460020D3680B40002B01D0E3
:100A4000012000E0002070470146C86880B270476E
:100A50000161704741617047002A01D0016100E0E7
:100A600041617047C16070470122120413460B4375
:100A70001A46826181618261826982697047F0B53C
:100A8000002300244D07EE0E1546B5402B46CD1031
:100A9000002D0BD1056A4E07F70E0F26BE40B54359
:100AA0000562056A1D432C4604620AE0456A4E074A
:100AB000F70E0F26BE40B5434562456A1D432C46DE
:100AC0004462F0BD0D49086070470C4948607047AA
:100AD0000A49886070470A48084908607047094811
:100AE00006490860704701460020044AD2680A405F
:100AF000002A01D0012000E00020704700300040B3
:100B0000AAAA0000CCCC000031490143314AD1608F
:100B1000704770B5002100230F22C478002C25D027
:100B20002C4CE46807252D022C402C1B210A0424A0
:100B3000631A1446CC40224644789C40214684786F
:100B4000144021430901244C03252D026419057822
:100B5000AD0061510478E506ED0E0124AC40057846
:100B60006D11AD001C4EAD192C600AE00478E5064D
:100B7000ED0E0124AC40184D803506787611B60094
:100B8000AC5104786411A400134D6419236870BD3E
:100B90007047002905D00F4A126902430D4B1A61B4
:100BA00004E00C4A126982430A4B1A617047042818
:100BB00006D10A49096904221143084A116105E076
:100BC0000649096904229143044A116170470000F3
:100BD0000000FA0500ED00E000E100E000E000E0C8
:100BE00010B50121080700F063FB00210120000778
:100BF00000F05EFB10BD002807D040490968FF22C5
:100C0000013211433D4A116006E03C490968FF2268
:100C100001329143394A11607047012806D13749A2
:100C2000096810221143354A116005E0334909680B
:100C300010229143314A11607047014600202F4A2B
:100C400010680F235B0202469A43104602460A438D
:100C500010462A4A10607047002807D02749496883
:100C6000FF2201321143254A516006E023494968B9
:100C7000FF2201329143214A5160704710B502466C
:100C800000201E4B18688008800003461343184656
:100C90001A4B18601A4B1B6904242343184C236118
:100CA000012901D130BF00E020BF10BD134800680A
:100CB00004210843114908600846006802210843DE
:100CC0000E4908600E480069042108430C49086178
:100CD00000BF00BF30BF704701460020074A52687E
:100CE0000A40002A01D0012000E00020704703499B
:100CF000096882001143014A11607047007000408A
:100D000000ED00E0F948006801210843F749086058
:100D100008464068F6490840F449486008460068BB
:100D2000F4490840F1490860084600680121890437
:100D30008843EE490860084640687F2109048843DB
:100D4000EA494860002088607047E8490968012244
:100D500012049143E54A1160114609680122920488
:100D60009143E24A116001210904411A04D003228F
:100D70001204891A10D107E0DC4909680122120423
:100D80001143DA4A116008E0D849096805221204C3
:100D90001143D64A116000E000BF00BF704710B594
:100DA00001460022002300204A11012A02D1CF4C23
:100DB000236806E0022A02D1CC4C236A01E0CB4C26
:100DC000636ACA06D20E012494401C40002C01D054
:100DD000012000E0002010BD38B500200090002464
:100DE000002500BF3120FFF7DAFF05460098401CC0
:100DF0000090002D04D10521090200988842F1D10C
:100E00003120FFF7CCFF002801D0012400E00024AE
:100E1000204638BD01460020B44A1068F823024637
:100E20009A431046CA001043B04A10607047012828
:100E300006D1AE49096801221143AC4A116005E0B0
:100E4000AA49096849084900A84A1160704730B5A5
:100E500004460020A54B1868A74B18408B061505C3
:100E60002B431843A14B186030BD70B506460C46A5
:100E700000259E4845683F210904284688430546C9
:100E800028463043054699484560002C04D103228A
:100E900007213046FFF7DBFF01208004844204D1A4
:100EA000012205213046FFF7D2FF0120C004844211
:100EB00004D1012207213046FFF7C9FF0320800437
:100EC000844204D1012209213046FFF7C0FF0120EE
:100ED0000005844204D101220B213046FFF7B7FF01
:100EE00005208004844204D101220D213046FFF701
:100EF000AEFF0320C004844204D101220F213046FA
:100F0000FFF7A5FF07208004844204D101221121AC
:100F10003046FFF79CFF01204005844204D10122A6
:100F200013213046FFF793FF09208004844204D147
:100F3000012215213046FFF78AFF0520C0048442B4
:100F400004D1012217213046FFF781FF0B208004D6
:100F5000844204D1012219213046FFF778FF032093
:100F60000005844204D101221B213046FFF76FFFA8
:100F70000D208004844204D101221D213046FFF758
:100F800066FF0720C004844204D101221F2130469D
:100F9000FFF75DFF70BD002807D0544909680122A2
:100FA00012061143514A116006E0504909680122B6
:100FB000120691434D4A11607047014600204B4A8A
:100FC00050688008800002460A431046474A506035
:100FD0007047464840680C21084070470146002091
:100FE000424A5068F02302469A43104602460A439A
:100FF00010463E4A50607047014600203B4A506808
:1010000007231B0202469A43104602460A43104633
:10101000364A5060704701460020344A5068072322
:10102000DB0202469A431046CA0010432F4A506022
:101030007047002906D02D4A926803021A432B4BB1
:101040009A6005E0294A926803029A43274B9A6006
:101050007047264949680143244A51607047014658
:101060000020224A506803239B0302469A431046FD
:1010700002460A4310461D4A506070471B49096AE0
:1010800049084900194A11621146096A490849008C
:101090001162012802D004280ED106E01349096A22
:1010A00001221143114A116207E01049096A052221
:1010B00011430E4A116200E000BF00BF70470028D4
:1010C00006D00A49496A01221143084A516205E0E3
:1010D0000649496A49084900044A51627047034970
:1010E000096A0143014A1162704700000010024082
:1010F0000000FFF8FFFFF6FEFFFF8F03002807D078
:101100009449096A0122D2031143924A116206E00E
:101110009049096A0122D20391438E4A11627047B5
:10112000FEB504460025002700200190009000260F
:10113000884840680C2108400546002D04D0042D45
:1011400005D0082D3AD105E08348206039E0824877
:10115000206036E07F480068800E471C7D480068AC
:10116000072109050840000D401C0190794840689E
:1011700001210904084000900098002807D1774910
:1011800079430846019900F0CDFD206015E07148D3
:101190004068012149040840002807D0704979437C
:1011A0000846019900F0BEFD206006E06A497943D7
:1011B0000846019900F0B6FD206002E06648206014
:1011C00000BF00BF63484068F021084005462D0974
:1011D0006448465D2068F04060605E4840680721D2
:1011E0000902084005462D0A5E48465D6068F040E9
:1011F000A06058484068C90008400546ED0A5948B3
:10120000465D6068F040E060524840680321890311
:1012100008400546AD0B5448465D3146E06800F095
:1012200081FD2061FEBD10B5024600200023494C1F
:1012300060690F24240604402346DB09C0B204463B
:101240001C432046002903D01043424C606104E057
:101250000446944320463F4C606110BD002905D0F0
:101260003C4A926902433B4B9A6104E0394A9269D5
:101270008243384B9A617047002905D0354AD269BC
:101280000243344BDA6104E0324AD2698243314B83
:10129000DA617047002905D02E4AD26802432D4BEF
:1012A000DA6004E02B4AD26882432A4BDA60704746
:1012B000002905D0274A12690243264B1A6104E02F
:1012C000244A12698243234B1A617047012806D1D0
:1012D0002049096A020411431E4A116206E01D49B1
:1012E000096A0122120491431A4A116270470128C7
:1012F00006D118490968C2041143164A116006E074
:10130000144909680122D2049143124A11607047BE
:1013100010494968020611430E4A516070470D4852
:10132000406A0121090608430A494862704701469C
:101330000020084A92680A40002A01D0012000E0FB
:10134000002070470349896802041143014A9160F3
:10135000704700000010024000127A00001BB70026
:1013600000093D00080000201800002010B50446C8
:1013700066482018002809D101210803FFF78AFFD9
:10138000002101200003FFF785FF00E000BF00BF40
:1013900010BD10B502460020108B0F231B03184010
:1013A0004B884C8923430C88234318431083908B2C
:1013B000574B18408B88CC892343CC8823430C8916
:1013C00023431843102303439383108C00208B89FD
:1013D0001843108410BD00210180418008218180C4
:1013E0000021C180012101810021418102218181EF
:1013F0000021C1817047002904D0028B01231A43C8
:10140000028304E0028B424B3E331A400283704752
:1014100010B5002A07D0038B022423430383038AD9
:101420000B43038207E0038A8B430382038B384C10
:101430003D342340038310BD002A03D0038B0B43AC
:10144000038302E0038B8B4303837047002A03D09E
:10145000038B0B43038302E0038B8B4303837047AF
:10146000016070470146486880B2704710B5002A95
:1014700003D0038D0B40038503E0038DCC4323434E
:10148000038510BD028B234B1A400283028B0A4353
:1014900002837047082903D1028B08231A43028371
:1014A000102903D1028B10231A430283184A3732C2
:1014B000914203D1028B0B461A400283144A2F3209
:1014C000914203D1028B0B461A40028370470246B9
:1014D000002013890B40002B01D0012000E00020E8
:1014E00070470246002093890B40002B01D0012059
:1014F00000E000207047828A0A438282704781841C
:101500007047828B0A4382837047000000D0FEBF81
:10151000C0FF0000FFFC0000244800688007800F27
:10152000224908600020886000212048C1600161D4
:1015300041617047014600201C4A10688008800005
:1015400002460A431046194A10607047002905D028
:10155000164A12680243154B1A6004E0134A1268D7
:101560008243124B1A60704730B500228B071C0F64
:101570000F23A3401A460D4B08338C10A4001B59AF
:1015800093430A4C08348D10AD00635123468C10F0
:10159000A4001B598C07250F0446AC402343034C81
:1015A00008348D10AD00635130BD000000000140D3
:1015B00010B504464D482018002809D101218803A0
:1015C000FFF768FE002101208003FFF763FE00E0C3
:1015D00000BF00BF10BDF0B587B005460E46002421
:1015E0000020069000272F46EC69CF212046884333
:1015F0000446B088F1880843318908430443EC610C
:10160000AC6964096401B089718908430443AC6121
:1016100001A8FFF785FD35484042874202D1049872
:10162000069001E00398069031680A23069A5A430F
:10163000100900F077FB04460A21204600F072FBF7
:10164000042900D90A340A21204600F06BFB044625
:101650002C6207B0F0BD4B21C901016030218180AF
:101660000021C180018118214181002181817047C1
:10167000002904D0826901231A43826103E0826950
:101680001B4B1A4082617047002A03D003690B4349
:10169000036102E003698B4303617047002A03D0B2
:1016A00083690B43836102E083698B4383617047E5
:1016B000CAB20260704701464868C0B2704702462D
:1016C000002093680B40002B01D0012000E0002097
:1016D0007047704702460020D3680B40002B01D0B2
:1016E000012000E0002070474161704700C8FEBF44
:1016F000FEFF0000014608200870F7A07047082090
:101700007047FEB506460F461446089D0520C002E8
:1017100085420DD1012C0BD1F1A00068019002206F
:1017200001AB062201210090304601F03FF9FEBDD9
:101730000520C00285420DD1072C0BDCE9A0006812
:101740000190022001AB0F2207210090304601F0EA
:101750002DF9ECE70520C00285420DD1102C0BDCE1
:10176000E1A000680190022001AB15221021009039
:10177000304601F01BF9DAE700BF0A23224639465A
:10178000304601F039F800BFD1E7FFB581B0074618
:1017900015461E460A9C122D02D0152D16D111E0B9
:1017A000D2480078002809D0092C0ADAD048047001
:1017B00022463146401C00F0DFFA02E00020CC490E
:1017C000087000BF384602F07FFE06E006230022C4
:1017D0003846029901F010F800BF00BF05B0F0BD17
:1017E00070477047F0B585B005460C46164604A80C
:1017F000FFF780FF03900D2C3AD006DC042C0BD0B1
:10180000092C13D00B2C5CD121E00F2C3CD0142CD4
:1018100043D0152C55D149E06846007C0090224603
:1018200029463046039B01F099F851E001F04EFC47
:10183000019000F0C5FAC7B201F048FC0346224609
:10184000294600970290304601F088F840E000F009
:10185000BFFB019000F0B4FAC7B200F0B9FB034639
:101860002246294600970290304601F077F82FE093
:10187000002001900290072001AB224629460090EB
:10188000304601F06BF823E007209AA32246294650
:101890000090304601F062F81AE00120974B224692
:1018A00029460090304601F059F811E000200290DE
:1018B000022002AB224629460090304601F04EF845
:1018C00006E0062300222946304600F095FF00BFBF
:1018D00000BF05B0F0BD704730B50446039D884891
:1018E000824207D1102C05DC10201880152028809A
:1018F000012030BD0020FCE710B5824800787F4908
:101900000978884207D07D4800787E490870012117
:101910007C4802F097FB10BD76A0704770477A486C
:101920000078704710B502460020784C20602046B1
:101930000068032424052043744C206008780006C6
:101940004C78240420438C7824022043CC78204314
:101950006E4CE061087900064C79240420438C79B0
:1019600024022043CC792043684CA061087A000609
:101970004C7A240420438C7A24022043CC7A2043DE
:10198000624C6061087B00064C7B240420438C7B06
:1019900024022043CC7B20435C4C2061204600681D
:1019A00001242043594C2060107800065478240408
:1019B0002043947824022043D4782043534CA060E1
:1019C000107900065479240420439479240220439A
:1019D000D47920434D4CA060107A0006547A240438
:1019E0002043947A24022043D47A2043474CA060B9
:1019F000107B0006547B24042043947B2402204364
:101A0000D47B2043414CA0600CE040484068C007B4
:101A1000C00F002806D03D480068802420433B4C7E
:101A2000206000E0F1E700BF3848C368180E10706E
:101A30001802000E50701804000E9070D370121D22
:101A40003248C368180E10701802000E5070180447
:101A5000000E9070D370121D2C48C368180E1070C1
:101A60001802000E50701804000E9070D370121DF2
:101A70002648C368180E10701802000E5070180423
:101A8000000E9070D370012010BD10B50446002CDC
:101A900004D001218020FFF7C6FB03E00021802055
:101AA000FFF7C1FB002C01D11948047016480470DF
:101AB00010BD10B5FFF70FF816480068401C154917
:101AC000086011480078002826D000200860012016
:101AD000FEF7BDFC32E000004D472D4C6F636B00FC
:101AE000001800000A180000F0FF0000AC00002001
:101AF000C80100205356332E332E30001C00002026
:101B0000F0FF0000280000202000002000600240BC
:101B10001D0000202400002009480078401C0849CE
:101B200008700A210648007800F012F9002901D156
:101B3000012000E000200446FEF789FC10BD0000F3
:101B4000290000200124640500BF2046641E0028EF
:101B5000FBD1FEF795FC00F02DF800F089FA104952
:101B6000432001F035FC15210E4801F0F7F90E482D
:101B700000F084FA00200D49086000BF0B4800689F
:101B80000528FBD30A49032000F0A4F8FF204130C8
:101B900001F0D2F903E0FEF72AFD00F054F8FAE76D
:101BA0002C00002030000020450000200400002010
:101BB000E204000008B501210805FFF734FB052207
:101BC00002213548FEF75BFF052203213248FEF76C
:101BD00056FF0C2168460180022181701021C170DE
:101BE00069462D48FEF7A1FE04212B48FEF732FF7F
:101BF00008212948FEF72EFF08BD10B5042126480C
:101C0000FEF728FF08212448FEF724FF10BD10B579
:101C10000446012C02D0022C12D108E004211E48F7
:101C2000FEF716FF08211C48FEF714FF09E0042107
:101C30001948FEF70FFF08211748FEF709FF00E0DB
:101C400000BF00BF10BD10B5002414480078042860
:101C50000AD112480278411C114800F0B8F8002857
:101C600002D101240D490870002C02D00120FFF799
:101C7000CEFF0920C006FEF7D9FEC007C00F00281E
:101C800006D0FFF7BAFF002400200649087002E0E2
:101C900001200449087010BD000C0048C801002054
:101CA0004B0000201C00002010B505E00120FEF7CD
:101CB0001AFF002800D100E0F8E700BF10BD10B502
:101CC00005E00220FEF70FFF002800D100E0F8E752
:101CD00000BF10BD70B504460D460120FFF7EFF9B7
:101CE00000BF6120FFF75BF80028FAD0FFF7DCFFA8
:101CF0000B48FEF7E7FEE0B2FEF7E7FEFFF7DFFF77
:101D00000748FEF7DFFE2805000DFEF7E1FEFEF7AF
:101D1000E2FEFEF7E4FE70BD10B5FEF7DCFE10BD7E
:101D20005555000030B50B46014600202022012405
:101D300009E00D46D5409D4205D31D469540491BFF
:101D40002546954040191546521E002DF1DC30BD48
:101D500070B500242546002801DA012440420029FC
:101D600001DA01254942FFF7DDFFAC4200D04042D5
:101D7000002C00D0494270BD03460B439B0703D0A3
:101D800009E008C9121F08C0042AFAD203E00B7840
:101D90000370401C491C521EF9D27047D2B201E0B8
:101DA0000270401C491EFBD270470022F6E710B5B6
:101DB00013460A4604461946FFF7F0FF204610BDB9
:101DC000421C0178401C0029FBD1801A704730B5B5
:101DD00004460020034600E05B1C934203D2E05C13
:101DE000CD5C401BF8D030BD064C0125064E05E009
:101DF000E36807CC2B430C3C98471034B442F7D32C
:101E0000FEF75AF9144E0008344E000870B58C18CD
:101E10000578401C6B075B0F01D10378401C2A1129
:101E200006D10278401C03E006780E70401C491C65
:101E30005B1EF9D12B0705D40023521E0DD40B7065
:101E4000491CFAE70378401CCB1A921C03E01D786A
:101E50000D70491C5B1C521EF9D5A142D8D300203D
:101E600070BD000010B5FEF714FC074A11698842E6
:101E700008D2081A0549884204D89189884201D9B4
:101E8000012010BD002010BD64000020FFFFFF7F77
:101E900010B50A4C607900280CD0FEF7FAFB616A95
:101EA000884208D3401A01218902884203D20020C7
:101EB0006071012010BD002010BD00003401002021
:101EC00070B5114C0025216A4A78002A07D049894B
:101ED000A289914203D100F025FC206A4570E16996
:101EE000487900280ED0C888A28990420AD10648B5
:101EF000E67905223030FFF73FFF02F0C5F8E069D0
:101F00004571E67170BD00008C01002030B50021E4
:101F10000F24621A435C855C4554491C835408298C
:101F2000F7DB30BD10B50349CA6A096B5043FFF7B0
:101F3000F9FE10BD3401002010B5044608480849D8
:101F4000806A096B002804DB6043FFF7EBFE001991
:101F500010BD40426043FFF7E5FE201A10BD0000AF
:101F60003401002013B5684600781322104C10404D
:101F70002070684642786270002A02D0A01CFFF7E9
:101F8000FBFE0C480078002807D0207800A98207C3
:101F9000920F0748013102F051FD6846407804492C
:101FA000801CC2B20846083801F030F91CBD0000A0
:101FB00010010020AC00002001488078704700002C
:101FC000340100200148C07970470000340100202E
:101FD000074808490078020930320007000F8A706C
:101FE000092801D8303000E03730C8700148704708
:101FF000D40000205600002010B5074C207900289E
:1020000008D0FEF746FB6169884203D300202071A7
:10201000012010BD002010BD640000201FB5022467
:102020006B461C730A2159730621197000215970DF
:1020300005229A70D97001221A715A719C71D97156
:102040001872000A587219460398FFF78BFF1FBDDC
:102050000149487070470000F400002010B50146A7
:1020600006220248FFF788FE10BD0000C0000020D5
:1020700001490120887070476400002001780A221D
:10208000303951434278303951180A22514382780D
:10209000303951180A225143C278303951180A2276
:1020A00051430279303951180A225143407930396D
:1020B00040180349020AC8738A73000C48737047BA
:1020C0008202002002490A69101808617047000066
:1020D0006400002070B50446034D01202871FEF70E
:1020E000D8FA0019686170BD6400002010B5FEF7D1
:1020F00069FAFEF7CEFA03491E30486201204871A2
:1021000010BD0000340100200521C0010902401863
:1021100001494860704700007401002030B47446E3
:10212000641E2578641CAB4200D21D46635D5B00D3
:10213000E31830BC184702E008C8121F08C1002A83
:10214000FAD170477047002001E001C1121F002A38
:10215000FBD17047090710B5090FC00705D0032947
:1021600002D1022001F030FA10BD054800790028A4
:1021700002D0FFF7BBFF10BD01F092FA10BD0000C6
:1021800034010020F8B50746204C00202071087863
:1021900016460007000F0D46032802D0052822D15D
:1021A00017E0812000013818A06101F034FA1748C7
:1021B0006946C0890880009801F0D2F96178A06B67
:1021C00001F0DAF960780121C001C90240186061AC
:1021D00011E0002E07D0284606220D490830FFF7EF
:1021E000F6FD002802D001F05BFA04E032462946F1
:1021F000384600F045FD532000F082FF05490420D9
:1022000000F0A7FF562000F07BFFF8BD340100204E
:102210009E0000208F01002070B5334C0546E07908
:10222000002823D0A078401CA070A079002801D0FD
:102230002820A07020790026002808D0206A091ADA
:10224000E069281A00F0D8FCE67026716681FF204C
:10225000193001F0EDF9A078272815D801F093F98D
:102260000020FFF72FFF01F04FFA70BD512000F062
:1022700047FF7821202000F098FF562000F040FF13
:102280006420FFF71FFF70BD2520A0702069FFF7B5
:1022900053FE451920698009FFF714FF284601F015
:1022A000F0F9A07801F06FF9512000F029FF7821B2
:1022B000002000F07AFF7A21002000F076FF5620FF
:1022C00000F01EFF05212069C901884208D9207A43
:1022D000401CC0B22072172802D3267200F0ADFF56
:1022E0006089401C608170BD3401002010B509492F
:1022F0002520887001F047F9FF20193001F098F986
:10230000002001F056F901F0FFF9002001F096FEDF
:1023100010BD00003401002010B50C480078000703
:1023200002D001F0BDF910BD782001F081F9012043
:1023300001F04AF905480C38816940690818912173
:102340000901401801F067F910BD000040010020AC
:1023500070B506460D46022001F036F92320C00173
:10236000104C2818A06101F056F9E06801F0F8F867
:102370002178606B01F000F920780121C001C902C9
:1023800040186061A07825280AD1E661256260893D
:10239000112802D2E078002802D00120E0702071DC
:1023A00070BD000034010020F0B58BB00D46024630
:1023B0000024200111782B5C40195940CF4B595C07
:1023C0001170167907797E409E5D1671167A077A2C
:1023D0007E409E5D1672167B077B7E409E5D167367
:1023E000567847787E40B446567947797E409E5D60
:1023F00056700196567A477A7E409E5D5671567B9E
:10240000477B7E409E5D567266469E5D567396780B
:1024100087787E40B646977986797740BC46967A2B
:10242000877A7740DE5D96700096967B877B774053
:10243000DF5D977176469E5D96726746DE5D9673A8
:10244000D67BC77B7E40B446D67AC77A7E409E5DF7
:10245000D673D679C7797E409E5DD672D678C0781D
:102460000F464640985DD07166469B5DD370019ED5
:1024700008467040009E5E400346734000F01CFE1C
:10248000117858404140117050789178484000F0E0
:1024900013FE51785840414051709078D1784840AF
:1024A00000F00AFE9178584041409170D078784011
:1024B00000F002FED17858404140D1701079517936
:1024C0009379D779064648407B40434000F0F4FDBD
:1024D000117958404140117150799179484000F08C
:1024E000EBFD51795840414051719079D179484084
:1024F00000F0E2FD9179584041409171D1797140ED
:10250000084600F0D9FDD17958404140D171107A88
:10251000517A937AD77A064648407B40434000F090
:10252000CBFD117A584041401172507A917A48405F
:1025300000F0C2FD517A584041405172907AD17AF0
:10254000484000F0B9FD917A584041409172D17AEB
:102550007140084600F0B0FDD17A58404140D17238
:10256000107B517B937BD77B064648407B404340A2
:1025700000F0A2FD117B584041401173507B917BCC
:10258000484000F099FD517B584041405173907B89
:10259000D17B484000F090FD917B584041409173C1
:1025A000D17B7140084600F087FDD17B5840414007
:1025B000641CE4B2D173092C00D2FAE6230110782E
:1025C000E95C48404D49085C10700990581914792D
:1025D00003795C400F5D17710897137A047A6340A2
:1025E000CF5C17720797137B047B6340CB5C13733C
:1025F00006935378447846796340547974400F5D6C
:102600005770547A467ABC4674400F5D57710597EF
:10261000547B467B74400F5D57720497CB5C5373B9
:1026200003939478837886795C409379877A7340B2
:10263000967A7E408F5D97700297967B877B7E406F
:102640008F5D977101970E5D9672CB5C9373D77B0C
:102650009E46C37BA0355F400A97D37AC47A634015
:10266000CC5CD473D379C7797B40CB5CD372D778F9
:10267000C0784740C85DD07100900A9FC95DD17095
:102680002F780998784010706878674647405770EF
:10269000A878029F47409770E8784140D170287928
:1026A000089F474017716879059F47405771A8797F
:1026B000019F47409771E97900984840D071287A86
:1026C000079F47401772687A049F47405772A87A5D
:1026D00046409672E87A4340D372287B069B43407B
:1026E0001373687B039B43405373A87B734643403B
:1026F0009373E87B4440D4730BB0F0BDAC4B00083F
:1027000030B5ADB00C460546FFF70CF9002807D1EF
:102710002146684600F06EFC69462846FFF744FEF5
:102720002DB030BD70B50E4C0546206A017861723F
:102730004088E08150214843FFF7FEFB401900F03C
:10274000A0FF206A81882182C18861820089A082DD
:10275000607A04494843401800F06AFF70BD0000E9
:102760008C010020E204000070B50446801CFFF7D5
:1027700075FC2078C1094006C00F01F021FF2078C8
:102780001C4D4006C00F687128460622A11C35303A
:10279000FFF7F2FA0E342846042221462C30FFF7C8
:1027A000EBFA28460322211D1630FFF7E5FAE079FF
:1027B0006872617A207A09024018E881E17AA07A89
:1027C000090240182882617B207B09024018688238
:1027D000E17BA07B09024018A882214628460522F9
:1027E00010313030FFF7C8FA607DC006C00EA87205
:1027F00070BD00008C0100207FB50AA470CC80075A
:102800000194800F039602956C4620700920607039
:102810006172A272100AE072237301A9009800F09D
:1028200020F87FBD0500040001000000000000004A
:102830000EB507A106C980070091800F0192694675
:10284000087207204872029800F00BF80EBD0000D5
:10285000030004000317000010B50A23FFF7CCFFA4
:1028600010BD10B5FFF77EFB10BDFFB587B01E464B
:102870006F46109B119A0546387109207871052022
:102880000C463872002179720420B872F972601C0B
:10289000387301207873B973F8730520C002397456
:1028A000834213D105A8009006AB31460998FFF783
:1028B00013F800280AD06946088B4873888AC873C1
:1028C00002A90198FFF7CDFF0BB0F0BD21462846C5
:1028D000099AFFF7C1FFF7E7FFB587B007981746DA
:1028E0008007800F6A4610700A20507000205071D7
:1028F00006211171D07104219171052111720121FC
:1029000051721E46D0720446134D1AE020460A2129
:10291000484341194988B94211D3B1420FD80A211D
:102920004C43611989786A469172285A1073000ADB
:10293000507301A90098FFF794FF0BB0F0BD641C21
:10294000E4B2FEF7DCFEA042E0D83A4608990798C8
:10295000FFF782FFF1E70000404B0008F0B589B0B7
:102960000E4607461D461C2101A80E9CFFF71DFAC6
:10297000B807800F69460870601D4870601C0871B8
:10298000000A4871042088710020C871761C0E72FC
:1029900001A904E02A5C0B18401C5A71C0B2A04285
:1029A000F8D30098FFF75DFF09B0F0BDF0B589B02E
:1029B0008446002468460E9D047144710426867185
:1029C000C471112606722E1D46728172C472027382
:1029D00044730A2001AF002105E05A5C3A54401CC0
:1029E000491CC0B2C9B2A942F7D3011F6A4611718E
:1029F00061468907890F1170507039460098FFF7BA
:102A000030FF09B0F0BD0000FFB589B0099815216D
:102A10008507129E4902AD0F1F468E4221D168469E
:102A2000FEF768FE01466846057100234371007891
:102A3000801CC2B2122A00D91222941C6D462C723C
:102A4000200A68720426AE72EB72092028736A733A
:102A5000AE73EB7304A8921EFFF78EF9241D6C7100
:102A60003FE0614886423ED10B9807283BD15F4842
:102A70000078002837D06B461D711721197200218C
:102A80005972042199720021D97209210720197302
:102A90005873082098730020D87302201874597452
:102AA000002199742921D9742A2119750A225A758D
:102AB00000249C75D8750B251D7600255D7626258E
:102AC0009D760E22D9761A7700225A7798770F24AE
:102AD000DC7708AB1A702820587099701B206B4661
:102AE000587102A96FE0FF2F00D9FF27002471E081
:102AF00020460A2148433E490A5AB24268D1411849
:102B000048880B9A904263D3B84261D8364A521E25
:102B1000964223D10A226E46327200237372042237
:102B2000B272F37209223273082272730A2254437A
:102B30002F4AA2189278B273000AF073002002AAFA
:102B40000B181418401C1B79C0B223720528F7D348
:102B5000487A707535710E20707133E009266F4622
:102B60003E7200237B720422BA72FB723E7307220C
:102B70007A730A2254431E4AA2189278BA73000A42
:102B8000F873184602AA0B181418401C1B79C0B21F
:102B900023720528F7D33D710D207871497AFF29FA
:102BA00010D0144B00200901C9180B5C1418401CEC
:102BB000C0B2E3721028F8D31B2078711720387246
:102BC0001520787311460198FFF74BFE0DB0F0BD4C
:102BD000641CE4B2FEF793FDA04289D809AB07CB91
:102BE000FFF73AFEF2E70000032800005000002043
:102BF000404B0008904B00084B22D200084B821A31
:102C00009A420CD27D22D200064B8A1A9A4206D2F0
:102C1000FA224243531A044A93621163D062704706
:102C2000A81D0000196618003401002010B5FDF73A
:102C3000FEFC00F035FD10BD7FB528214843074953
:102C40000A9D099C6E460861B08888814A630B70B2
:102C50000846328CC2818C634D707FBD34010020E8
:102C6000034902480860406800470000DC4D000846
:102C700070010020014800787047000074010020B6
:102C800070B50846124B114919601146FFF76CFDEB
:102C9000012000F021F80F49012208780C4610436A
:102CA000F12210400870083C208A4100A08A81422D
:102CB00000D288B20A214843FFF70CFA0025A5701C
:102CC00000F04AFD00F0ECFC657070BDF84D0008A6
:102CD0007001002094010020014908707047000035
:102CE0007401002010B50848807800280AD00748F1
:102CF00000680078002805D1FFF7CAF8002801D045
:102D0000FFF794FF10BD0000640000207001002058
:102D10007CB57B4CA17803290BD001297ED00229F8
:102D200001D10321A170208101F0AAFEA078002822
:102D300074D10020E070734E734D0BE0E0780228F0
:102D400008D1FFF78FF8002804D0A078002801D11F
:102D5000FDF737FC3068007800280ED1A0780028F5
:102D600005D1FFF795F8002801D0FFF75FFFFFF7C7
:102D700029F9002801D1FEF79CFEFDF719FC002877
:102D80007ED05F48C01C00F0D1FBE07800F04FFA25
:102D9000E078C10710D0694601A800F097FA5B48B7
:102DA000009901605A4A0198106032689268904711
:102DB000FDF76FFC206193E0810715D5694601A8F6
:102DC00000F084FA00F06CFC306800998269019888
:102DD0009047FFF7F1F8252803D0306800780128E4
:102DE0007ED1FEF766FE7BE0C10603D53068406900
:102DF000804775E001062DD53068434900780028EA
:102E000015D0012000F07EFA697828780902401870
:102E100081B23068C2680120904700E06EE0E0783F
:102E2000410610D5694601A800F050FA27E00020BD
:102E300000F068FA697828780902401881B2306891
:102E4000C268012027E080064AD5694601A800F043
:102E50003DFA36E0410618D5694601A800F036FA79
:102E60003068007800280AD128780007000F05286C
:102E700005D1234A2449521D002000F057FA00E0F2
:102E800036E030686A78036924E0410705D5306888
:102E90000021C2680846904722E0010703D50020C0
:102EA000FFF71AFF1AE0810616D5694601A800F05F
:102EB0000DFA3068017800290AD01349012000F08A
:102EC00021FA30686A78036900210098984707E082
:102ED000036900220C49F8E7002801D000F0E0FB6C
:102EE000A078002800D129E7E078802806D125E7DE
:102EF000A0780028F7D0E0780028F4D17CBD00004D
:102F000064000020700100200F0200207C010020DE
:102F10008001002010B5074CE078022806D1FEF7AA
:102F2000A1FF002802D0A078032801D0002010BD06
:102F3000012010BD6400002070B50546FDF7A9FB17
:102F4000C41CFDF7A6FBA042FBD3034902208870F6
:102F50002846FFF7DDFE70BD6400002010B50C466A
:102F60001F2900D91F24014622460548FEF704FF09
:102F700004480470801DA41D447001F099FD10BD2B
:102F8000D10100206400002070B50D46124A0146B0
:102F90001078002809D0401E107000265670506826
:102FA000092806D0401C506005E001205070002028
:102FB00070BD304656600C22084B4243D418420183
:102FC0008018074A80182A462060FEF7D5FE257132
:102FD0002046A66070BD0000EC00002080040020A8
:102FE0003403002010B500F03EFB0020FFF78CF802
:102FF00010BD0000FFB500228B5C8354521C92B2BE
:10300000102AF9D301231D012A18114620390E7FF9
:10301000274CB6464E7F0F7CA65D7E40254FFF5C59
:103020007E4046558E7F0396A75D4E7C7740577055
:10303000CE7FBC460296A75D8E7C77409770764621
:103040000197A65DCC7C67466640D6700C7D455DD9
:103050006C40147100944D7D7D4055718C7D019FB5
:103060007C409471CF7DA6467740D7710E7E009C40
:10307000664016724C7E6C405472A4468D7E744637
:1030800065409572CC7E7C40D4720F7F7740177379
:10309000497F664671405173039E6E409673029E4F
:1030A0005B1C66409BB2D6730B2BACD3FFBD0000FC
:1030B000AC4B0008AC4D0008C1094000002903D00A
:1030C000C0B21B2148407047C0B2704700A0704793
:1030D0004D475F424C455F4C49425F504149525F0A
:1030E00056332E30000000000148C07970470000C0
:1030F0008C0100200148007870470000EC0000209F
:1031000010B50446FDF746FA01215020FDF72DFACF
:1031100001212046FDF729FAFDF743FA10BDF8B565
:1031200015460E460446FDF735FA01212046FDF707
:103130001CFA0746002406E00021FF20FDF715FADF
:103140003055641CE4B2AC42F6D3FDF72AFA384697
:10315000F8BD70B50C460546FDF71CFA012128465E
:10316000FDF703FA0021FF20FDF7FFF92070FDF7BE
:1031700018FA70BDF8B516460D460446FDF70AFA72
:10318000202020430121FDF7F0F9002407E02878F2
:1031900001216D1CFDF7E9F9641C0746E4B2B44255
:1031A000F5D3FDF7FEF93846F8BD70B50D46044677
:1031B000FDF7F0F9202020430121FDF7D6F9012188
:1031C0002846FDF7D2F9FDF7ECF970BD016800293A
:1031D00002D14068002801D00020704701207047CC
:1031E00000210160416002490A2008707047000018
:1031F000EC0000200268136812790A70016889687F
:103200000160002900D141601846704710B50B4697
:10321000044611461846FFF7B7FE002806D061683D
:10322000002901D0886000E02060606010BD10B50A
:1032300001460E20FFF7B9FF10BD1CB55320FFF764
:103240005FFF03211F20FFF7B0FF01A91F20FFF739
:1032500080FF684600790028F7D103211F20FFF77F
:10326000A4FF01A91F20FFF774FF6846007900281A
:10327000F7D101211520FFF798FFA0211220FFF7B9
:1032800094FF04210A20FFF790FF00210A20FFF796
:103290008CFF88211220FFF788FF012469460C70FB
:1032A0002120487002221320FFF764FF69460C704A
:1032B0002020487002221320FFF75CFF0021152018
:1032C000FFF773FF5620FFF71BFF1CBD7CB50D46B3
:1032D0000446062269461020FFF721FF6946487917
:1032E0000B7902041802C97810184018694620604A
:1032F000887849780004090240186946097840181E
:1033000028607CBD1CB50C4600280BD00222694603
:103310000620FFF704FF6846007820706846407872
:1033200060701CBD022269460420F2E77CB5154698
:103330000C46002809D06278901C2870002A03D01F
:10334000A11C6120FFF7EBFE7CBD02226946042030
:10335000FFF7E5FE68464078801C287068460078D4
:1033600020706846407860706846007825460107FE
:10337000090F6846407808350B00FEF7CFFE0605BA
:10338000080513041904DFE70622A11C08E00C2835
:10339000DAD10622A11C0A20FFF7C1FE0622294627
:1033A0000B20CFE70C28CFD1062229460A20C9E7F7
:1033B0002228C9D10622A11C0B20FFF7B0FE06224D
:1033C00029460A20FFF7ABFE162221460E31B8E748
:1033D0007CB50646002468460471524D51200D60AC
:1033E000FFF78EFE01A91F20FFF7B3FE68460179A3
:1033F0008029F7D14C491E20FFF7ABFE7821002031
:10340000FFF7D3FE06210846FFF7CFFE7A21002002
:10341000FFF7CBFE5320FFF773FE00211520FFF7C7
:10342000C4FE02210120FFF7C0FE1E211D20FFF770
:10343000BCFE304600F0E4F800A908200131FFF797
:1034400088FE68464078384E002807D130781B281F
:1034500001D2152000E0112069464870C02069465D
:1034600008702D20887003220420FFF783FE694630
:103470000C704C7002220C20FFF77CFE3078802408
:10348000192843D01C20694608704C700222142071
:10349000FFF770FE10206946087002264E70324613
:1034A0000A20FFF767FE69460E701220487002225C
:1034B0000D20FFF75FFE0120694608700720487065
:1034C00002220E20FFF756FE032269460B20FFF76B
:1034D00026FE40206946C87004220B20FFF74AFEF2
:1034E00069460C7001220C20FFF744FE5620FFF7BE
:1034F00007FEFF210E20FFF758FE0622094908208B
:10350000FFF70DFE68796D2802D008E0CC20BAE7FD
:10351000ED206871062203490820FFF72BFE00F01A
:10352000BFF87CBD9E000020D400002038B50446C2
:1035300069460E20FFF70DFE68460178217038BD00
:103540001CB501786A46117041785170817891708C
:10355000C078D070042269460C20FFF70BFE1CBD1A
:1035600001B582B06946087A0870487A487002222C
:103570000320FFF7FFFD0EBD0A4610B50146A0204F
:10358000FFF7F8FD10BD10B5282803D20146012031
:10359000FFF70BFE10BD1CB501786A46117041782B
:1035A000517080789070032269460D20FFF7E2FD8C
:1035B0001CBD1CB5FF216A4611705070022269467D
:1035C0000E20FFF7D7FD1CBD10B504280BD0012835
:1035D0000BD002280ED003280ED005280ED00628C6
:1035E00007D1042102E0022100E009210220FFF7B7
:1035F000DCFD10BD0C21F9E70121F7E70321F5E718
:1036000008B502216A46117050700A4669460F20BB
:10361000FFF7B0FD08BD1CB56A461070010A517075
:10362000000C9070032269460720FFF7A3FD1CBD24
:103630001CB56A461070010A51700021917005494D
:10364000884201D901209070032269461120FFF7BA
:1036500091FD1CBDFFFF00000A4610B50146A020E9
:10366000FFF788FD10BD01B582B06946087A0222D5
:10367000C006C00E0870487A48700520FFF77AFD32
:103680000EBD1CB500216A4611705070010A917080
:10369000000CD070042269460F20FFF76BFD1CBDA3
:1036A0001CB5022069460870FF2048708870C870F9
:1036B00004220F20FFF75EFD1CBD000008B511A01D
:1036C000006800905120FFF71BFD78210020FFF7D4
:1036D0006CFD5320FFF714FD18211D20FFF765FD39
:1036E00001211520FFF761FD022269461320FFF733
:1036F00041FDA0211E20FFF758FD5620FFF700FDD9
:1037000008BD00008102000010B501210F20FFF765
:103710004CFD10BD38B5054600230C4610460093FD
:10372000FFF754FD002802D02B70237038BD694686
:103730001046FFF75FFD0146684602782846FEF70F
:103740001BFB68460078207002480178491C017014
:1037500038BD0000EC0000200248002101704170DB
:1037600070470000AC00002010B505480349816097
:10377000002141701430FFF733FD10BDD84D000813
:10378000F40000207047000000B587B0182208A19F
:103790006846FEF7F1FA0C480321017018214170C8
:1037A000001F40686946FEF7DDFB07B000BD000062
:1037B000101000280001002C011820000300FFFF5A
:1037C000FFFFFFFFFFFFFFFFB0000020F0B58BB051
:1037D000044600208D070090019002902E4E039029
:1037E000AD0F35700D20707004206946087000A878
:1037F00008222A490130FEF7BFFA284902A804220C
:10380000091F0130FEF7B8FA371F69467868FEF7DE
:10381000A9FB224B002021184A7B04A90A541A5CF8
:103820000918401C0A720828F5DB04A8FEF76EFB95
:10383000E07A002802D1207B00280DD02146184ACA
:103840000B31E01C01F0AEF813480021801C017020
:10385000E17A4170217B8170114904A8FEF750FF85
:10386000002008A92218527D0A540C4A0B18121F76
:10387000125C401C1A710428F4DB04A800F0A6FEB8
:103880003570012474700520694608707868FEF769
:1038900069FB3C700BB0F0BDB0000020A44B0008E9
:1038A000420200200EB507A007C86B4607C30848B0
:1038B0000321017009214170001F40686946FEF72D
:1038C00051FB0EBD090100000000000000000000D7
:1038D000B00000200020044A0146535C491C1843F4
:1038E000C9B21029F9D3704782020020FEB5002525
:1038F0008A07254900950195920F02950A700B22BF
:1039000004464A700720694608704D702079887017
:103910006079C8701C4E022008711D363070FFF7A8
:10392000D9FF002801D0002000E00320694648713B
:1039300070708D71B5700520C871F070102008721C
:103940003071207B104A4007C00F800048727071B0
:10395000207B121FC007C00F50708872B0711046D4
:10396000A1791A300170E1794170217A8170617A10
:10397000C170A17A0171E17A4171217B817169463F
:103980005068FEF7EFFAFEBDB000002070B58AB0B7
:103990000E460446182103A8FEF707FA1125102247
:1039A000E11D2248FEF7E8F9B1072148890F0170AF
:1039B0001521417069460D7300224A73207988737E
:1039C0006079C8730320194D0874104603AC203D7C
:1039D00021184A712A54401C1028F9D30120694645
:1039E0004874124928702039601DFEF789FE0020B6
:1039F000211849792954401C1028F9D30C490D4A43
:103A0000103108460D306E4607C60546213DC31FDE
:103A1000EA78A978601D00F0F9FE601DFEF776FADD
:103A200003A96868FEF79EFA0AB070BD7202002012
:103A3000B00000209E0000207CB500238D070C49BB
:103A40000093AD0F01930D7006254D7002246D4655
:103A50002C706B700179A9704079E870052028718D
:103A600003486A71001F40686946FEF77BFA7CBD17
:103A7000B000002070B58AB00E460446182103A895
:103A8000FEF793F9B2072B49920F0A7015224A707C
:103A90001120694608730020487320798873607983
:103AA000C87304200874E01DFEF730FA1022E11DEF
:103AB0002148FEF761F91F49204A103108460D30B0
:103AC00005460090213D02920191C31FEA78A97832
:103AD000E01D00F09BFEE01DFEF718FA16480022DC
:103AE0001030A118C979835C994206D0042231466E
:103AF0002046FFF7A1FF0AB070BD521C102AF0D378
:103B00000D490D4A0846203A103800F0C5FE0A4A11
:103B1000002103A8103A535C4418491C6371102912
:103B2000F9D3401DFEF7F2F903A96868FEF71AFA07
:103B3000E1E70000B0000020620200209E000020AB
:103B4000F0B58DB00C4618216846FEF72EF9A00797
:103B5000264C800F20700126667006256846057089
:103B6000271F69467868FEF7FDF9787800283BD072
:103B7000FFF7BAFA07AB06AA0BA900F0D1FE0220A4
:103B80002070152060701120694608700020487070
:103B90008D70C8700D716D46102207A9681DFEF763
:103BA000EBF8681DFEF7B2F969467868FEF7DAF9B6
:103BB0000F2060700B206946087007200871087E8E
:103BC0004871487E887108220BA9E81DFEF7D4F8D9
:103BD00069467868FEF7C6F9A01C06706946097E3A
:103BE00041706946497E81700DB0F0BDB000002083
:103BF00010B589070648890F017000214170001F28
:103C00004068FFF7EFF90020FFF766F810BD0000ED
:103C1000B000002008B508A0006800900748032104
:103C2000017002214170001F40686946FEF79AF951
:103C30000020FFF751F808BD020A0000B000002084
:103C400008B508A109680091074903220A700222F9
:103C50004A70694648700448001F4068FEF782F9C0
:103C600008BD000007000000B00000201CB508A03F
:103C700005C8009089070848890F01920170062144
:103C80004170001F40686946FEF76CF91CBD0000DA
:103C90000C079C0517200000B0000020FEB5164C54
:103CA00001A92246083A2046FFF734FD684600790C
:103CB00001262546002804D12E706870022069462E
:103CC000087121780C4F132001401C3F78780423A1
:103CD000C24352081A4040071143C00FC0000143BD
:103CE0006A46117060785070A11C009800F0D1FEF7
:103CF0002E7000207870FEBD10010020FEB50C462D
:103D0000002102911D2C00D91D2401462246AF48F6
:103D1000FEF732F8AE4FAD4D3C7028783C46860732
:103D2000A070B60F284600F069FE012E14D0032EB5
:103D300018D0022E0FD16A7929791202A879891830
:103D4000062957D0042970D0052904D1132802D0A0
:103D50000020FEF763F9FEBD38780228FBD3FDF79B
:103D6000CBFDFEBDAE783300FEF7D8F9120B0F1E67
:103D7000233A3A280A2D3A0A3A320A3A370A0A3AD4
:103D8000EFE7E81C00F028F9FEBDA1788F48FFF7A7
:103D9000F9FC697A287A090240186946088102A963
:103DA000E81C00F03BF9FEBDA1788848FFF720FF32
:103DB000FEBDA1788548FFF709FDFEBDA1788348C7
:103DC000FFF7BEFEFEBDA1788048FFF76BFDFEBD8C
:103DD000A1787E48FFF74AFFFEBDFFF7D5FCFEBD88
:103DE0003046FFF72DFF7B4800780028F7D0152ECE
:103DF00008D8FEBD012808D003280BD004280ED017
:103E00000528F6D1FFF706FFFEBDA1786F48FFF742
:103E10006DFDFEBDA1786D48FFF7B8FDFEBDA17830
:103E20006A48FFF727FEFEBDFFE769490C311028FD
:103E300078D00ADC821E1300FEF770F90B1E1524E1
:103E4000153915581590159A1500604B0933182827
:103E500067D004DC12287DD0162804D197E01E28F4
:103E6000E1D0522876D04106DDD406230022014657
:103E7000A078FEF7C1FCD6E701460022A078FEF745
:103E8000D7FCD0E72B7AEA791B02D21892B20A80CB
:103E90006B7AAD7A2D025B199BB24B809A4201D9A5
:103EA0000123E4E70146A078FEF716FDBBE72B7A75
:103EB000EA791B02D21892B20A80AE7A6B7A360285
:103EC0009B199BB24B809A42EAD82E7BE97A360244
:103ED00089196E7BAD7B89B22D027519ADB2009147
:103EE00001950146A078FEF7C0FC9CE72B7AEA79A1
:103EF0001B02D21892B20A80AE7A6B7A36029B19F4
:103F00009BB24B80EE7A2D7B2D027519ADB28D8060
:103F10009A42C5D801460095A078FEF775FD82E764
:103F200000E03DE02B7AEA791B02D21892B20A80B7
:103F3000AE7A6B7A36029B199BB24B80EE7A2D7B60
:103F40002D027519ADB28D809A42A9D8014600950F
:103F5000A07800E028E0FDF7D4FB64E72A7AE9794D
:103F60001202891889B2A180A278FDF73BFC5AE7BA
:103F70002A7AE9791202891889B2A180AB7A6A7A21
:103F80001B02D21893B2A278FDF7A5FC4BE7297A61
:103F9000E87909024018A0800C4800F072FA42E764
:103FA0000A4800F031FA3EE7E978AA780902C91E0A
:103FB0005118EA792D7AC9B22D02521992B2A28013
:103FC00000910146A078FDF7E0FB2CE7F804002003
:103FD000F4000020AC0000200F490122096A4A7059
:103FE00002780A70837842781B02D2184A800379DB
:103FF000C2781B02D2188A80837942791B02D218B8
:10400000CA80037AC2791B02D2180A81427A807A66
:1040100000021018488170478C01002010B5064C32
:104020000346E0690988C18005221946FDF7A4FE10
:10403000E1690120487110BD8C01002010B5FEF728
:1040400049F810BDF8B50C460746002614E0142CBC
:1040500001D9142500E02546FFF74CF803280FD3BB
:10406000084800950288BB191B21022000F0DDF9E9
:104070007019C6B2601BC4B2002C01D0002FE6D16B
:104080003046F8BD1E000020F0B50C4B00201C4649
:10409000D87130340A4AD8720125C1084607615CDC
:1040A000760F2F46B740394203D0D97A5054491C75
:1040B000D972401CC0B22528EFD3F0BD8C0100207E
:1040C0002205002010B5C00706D10448FD22017862
:1040D00011400170FFF7E4FA10BD000094010020C8
:1040E000F8B5344F06460C46B88A0A2115464843AF
:1040F000FDF7F0FF39460831087802221043F32219
:1041000010400870FCF79AFA002C03D06078002861
:1041100019D01EE04120400105213018C901401886
:10412000B862FFF778FA1B2D00D91B25E80105219D
:10413000301A0902401A78621E48082108300278B5
:104140000A43027032E01B48042208300178114310
:104150000170812000013018B862FFF75CFAE801B5
:104160000121301A8902401A78622078FDF770FF29
:1041700022780821B8780A40824217D101223A7089
:104180004840B8700C48006800688047FCF75DFA4A
:10419000002078705320FEF7B3FF06490420C91CA5
:1041A000FEF7D7FF5620FEF7ABFFF8BDFCF74DFA40
:1041B000F8BD00008C010020FC000020F3B581B0A8
:1041C0000546FEF757FD00282DD0724E00273078A7
:1041D0003446C107083C00292BD0E08950214843D0
:1041E0002830FDF7A9FE4019FFF74BFAFFF74CFF07
:1041F000E0694771206A4770A78120462770163012
:10420000FFF7C9F920462C30FFF79AF9FFF7ACFA0F
:10421000E771607A604948434018FFF709FA0120C6
:10422000FDF733FC61E00020FDF74CFF00F028FCB7
:10423000FEBD80072CD50298616A401A012109064B
:1042400040180002000AFDF76DFE2D1A3078400775
:1042500015D5618A002912D0208A414308185021BF
:1042600048437838FDF768FE4519A189608A091826
:10427000A181A17A4143E0790818E07106E0208A23
:10428000502148437838FDF757FE4519434821E04F
:10429000208A082801D20121217141490D686178E5
:1042A000082903D250225043C90002E05022504353
:1042B0004900401A1038FDF73FFE4519208A2D2885
:1042C00001D9384806E0344948430321FDF72AFD67
:1042D00031494018FFF7ACF92846FFF7D2F9A08919
:1042E000401CA0812846FDF7EBFD5120FEF708FF9A
:1042F00078210020FEF759FF7A210020FEF755FFB4
:104300005620FEF7FDFEE079A17A4018C0B22521C3
:10431000FDF708FD1F4BE171CA0828339A5C4B0773
:1043200008465B0F012199400A4204D1E17AFDF76A
:10433000F9FC1D48405CA071C0B2FFF724F9207859
:10434000002811D0184901202531FEF7DBFF16495E
:104350006A4625310120FEF7E9FF684601781248D8
:104360002530FFF7CBFC27703078C10704D0400818
:104370004000307000200AE02079002804D000209E
:10438000FDF7A0FE2771FEBD208A81080818FDF701
:1043900099FEFEBD94010020E2040000A60E00007C
:1043A00080010020204E00002205002010B50648A4
:1043B0000078000704D500210846FFF783FE10BDF2
:1043C000FFF76EF910BD00009401002070B50D4696
:1043D000FDF712FE002803D10A4C60781E2805D98B
:1043E0000020FEF779FCFFF75BF970BD0420FFF7B2
:1043F000EBF8C32040012818FFF70DF96078401C46
:10440000607070BD8C01002008B502216A461170F1
:10441000052151700121817019218171811C009841
:10442000FEF71FFAFDF7DDF908BDFFB58BB0149C50
:104430001D461746E61C242101A8FDF7B6FC0B9883
:104440001321084069460870E01D48700E71300A5B
:104450004871042088710020C8710C9808724F724E
:10446000380A8872002001A904E02A5C0B18401C5D
:10447000DA71C0B2A042F8D30098FEF7F2F90FB09B
:10448000F0BDF8B50446827AC178007AE579000279
:104490000543A07809020843401F87B2667A1002DC
:1044A0000643022069460870607848701720A071A2
:1044B000A11C0098FEF7D5F9214633463A460B3148
:1044C0002846FDF78DF9F8BD0EB507A106C980078E
:1044D0000091800F01926946087205204872029887
:1044E000FEF7BFF90EBD000001000400130000003C
:1044F000F0B585B0140005465CD06A461170080A14
:104500005070080C9070080ED070802010712A4AEC
:1045100000206946135C0E18401C73710828F9DBF3
:10452000264900200F4610370E4620366A46125C98
:1045300033185A703B185A700B18401C5A700D28CB
:10454000F4DB012232703A700A700020B073B87345
:104550008873C873FA7302201849F07350391748EA
:10456000FEF7CEF81549503908466030FEF7C8F816
:10457000102C05D91149503908467030FEF7C0F8A3
:104580002146102C00D91021002004E02A5C3B5C5D
:104590005A402A54401C8842F8DB102C0AD90020CB
:1045A000103C05E029180A7C335C5A400A74401C10
:1045B000A042F7DB05B0F0BDE400002002030020BC
:1045C000014A9070D1707047AC00002070B50A4B62
:1045D0000A4C0022002805D0855C9D5485182D7A50
:1045E0009E183572002901D08D5CA554521C082AF2
:1045F000F0DB00F03DFA70BDB2020020E4000020C4
:10460000F0B585B01D000C4606467DD069460A709F
:10461000100A4870100C8870100EC8700020794F76
:1046200008716B46395C1A18401C51710828F9DB77
:10463000754B00201A461032734F6946503F095C93
:104640003F187970171879701F1879706E4F103FE6
:104650003F18401C79700D28EEDB6B48492150381B
:104660000170694A002181731032C5730120664BC5
:10467000107017461870203F387091739973B97392
:10468000F973D8730220D0730020403B403A103FAA
:10469000195411543954401C1028F9DB5A4801218F
:1046A000403841700A9981702946102D00D9102197
:1046B000002004E0544A335C303A1354401C8842D2
:1046C000F8DB284610380490102D08D90146002048
:1046D00003E03218127C3A54401C8842F9DB4A4904
:1046E000603908461030FEF70BF80020464B403B7F
:1046F0001A46103A195C125C51401954401C10289B
:10470000F4DB1946203900E079E01846FDF7F8FFA0
:1047100000203D4B303B1A46103A195C125C514068
:104720001954401C1028F4DB194630391846FDF79F
:10473000E7FF102D09D834483038017821704178CE
:1047400061708178A170C07816E02F49002030395F
:104750003A5C0B5C5A403A54401C1028F8DB2A495A
:10476000603908464030FDF7CBFF38782070787804
:104770006070B878A070F8782349E0706039084616
:104780005030FDF7BDFF20491F486039FDF7B8FFE5
:10479000102D05D91C49603908467030FDF7B0FF6F
:1047A0001948217810380278514021706178427898
:1047B00051406170A17882785140A170E178C07851
:1047C0004140E1702946102D00D9102100200E4BE8
:1047D00004E0325C1C5C62403254401C8842F8DBCE
:1047E000102D0CD9084B00201033049A05E0311825
:1047F0000C7C1D5C6C400C74401C9042F7DB05B0D7
:10480000F0BD0000E400002012030020F8B50446CB
:10481000204D069E089829706A700021775C6A18FE
:1048200057725F5C491C97700729F7DB0021194E0E
:104830000A4610367254491C1029FBDB0021425CE9
:104840007254079A7318525C491C9A710629F6DB58
:104850001048FDF75BFB0F481030FDF757FB0020B9
:10486000215C2A5C51402154401C1028F8DB094986
:1048700020461039FDF744FF0020215C325C514096
:104880002154401C1028F8DB024920461039FDF75E
:1048900037FFF8BD9202002070B50023C418247AB7
:1048A000D454CC18D518247A5B1C2C72082BF5DB59
:1048B00002491046FDF724FF70BD0000820200206F
:1048C00070B505460C46002001461954401CC0B284
:1048D0000D28FAD35A73207898736078D8732946D4
:1048E0001846FDF70DFF70BDF0B50D4685B01446B6
:1048F00000210A466B465A546E5C5F18491CC9B2C7
:104900003E720829F7D301461846FDF7F9FE6846BE
:10491000807B20706846C07B607005B0F0BD0000F1
:10492000FFB50D4689B006461BA1086814460890DD
:1049300004AB002208A91948FFF7C2FF3046184E01
:104940006F463178785404A93846FDF7D9FE002027
:10495000395C2954401CC0B20828F9D322462946A4
:1049600004A8FFF7C1FF69462078497A0022484031
:10497000207069466078897A48406070074802A9CB
:10498000103801310C9BFFF79BFF3078401C00076B
:10499000000F30700DB0F0BD00030000C74D0008DF
:1049A000D800002070B50C4686B0064611A10868F4
:1049B0001546059001AB002205A90F48FFF780FFBF
:1049C0006A46314601A8FFF78FFF694608782178CB
:1049D0002B46484069460870487861780022484074
:1049E0006946487004481038FFF76AFF012006B096
:1049F00070BD000000030000C74D000870B50446FC
:104A00000C480078002814D06078002811D0217854
:104A1000001F8B07084DC2B29B0FA01C6968FFF7EF
:104A200067FD6868401C68606078052801D3001F36
:104A3000607070BDAC000020D8000020F8B50B7885
:104A40000D460446002B0FD0084EA01C00921918EA
:104A5000B268FFF7D5FD2878001D28706078001D2A
:104A60006070B068401CB060F8BD0000D800002045
:104A7000024800214160816070470000D80000209A
:104A800010B500F015F80020FCF7FFFFFEF7E8F87E
:104A900010BD73B50D460098FEF7E5FD68464478F5
:104AA00028462146FEF7D8FD2046FDF72DFB7CBDAC
:104AB00030B585B003A8FCF71DFE6946097B1829AF
:104AC00002D918216A46117369460A7B1A4B511C98
:104AD0001970002104E0445C5D18491CAC70C9B237
:104AE0009142F8D3002003E09918521C8870D2B28A
:104AF000192AF9D3104A0723D21FD11D0C461F3C97
:104B000025781B20002D01D00C4A2B466578002DFE
:104B100002D00A4928461F310290074801911F38E8
:104B2000811C40896D4628808888288220890499C4
:104B3000FEF782F805B030BD83000020D1010020CF
:104B400003280300020400002AFF032808000209CA
:104B500000292AFF03280A00020B00262AFF032847
:104B60000C00020D00502AFF03280E00020F00283F
:104B70002AFF03281100041200F1FFFF032813008D
:104B8000121400F2FFFF022915000A0000000000C5
:104B90000000000000000000000000000000000015
:104BA000B1A87710B1A87710F5D4B310637C777BE8
:104BB000F26B6FC53001672BFED7AB76CA82C97D19
:104BC000FA5947F0ADD4A2AF9CA472C0B7FD9326AA
:104BD000363FF7CC34A5E5F171D8311504C723C3AE
:104BE0001896059A071280E2EB27B27509832C1AF2
:104BF0001B6E5AA0523BD6B329E32F8453D100ED4C
:104C000020FCB15B6ACBBE394A4C58CFD0EFAAFB2F
:104C1000434D338545F9027F503C9FA851A3408FF7
:104C2000929D38F5BCB6DA2110FFF3D2CD0C13EC0F
:104C30005F974417C4A77E3D645D197360814FDCA4
:104C4000222A908846EEB814DE5E0BDBE0323A0A88
:104C50004906245CC2D3AC629195E479E7C8376D0C
:104C60008DD54EA96C56F4EA657AAE08BA78252E31
:104C70001CA6B4C6E8DD741F4BBD8B8A703EB566BA
:104C80004803F60E613557B986C11D9EE1F89811AB
:104C900069D98E949B1E87E9CE5528DF8CA1890D9A
:104CA000BFE6426841992D0FB054BB1652096AD530
:104CB0003036A538BF40A39E81F3D7FB7CE3398211
:104CC0009B2FFF87348E4344C4DEE9CB547B943260
:104CD000A6C2233DEE4C950B42FAC34E082EA166A8
:104CE00028D924B2765BA2496D8BD12572F8F6647F
:104CF00086689816D4A45CCC5D65B6926C704850FA
:104D0000FDEDB9DA5E154657A78D9D8490D8AB00AE
:104D10008CBCD30AF7E45805B8B34506D02C1E8FD7
:104D2000CA3F0F02C1AFBD0301138A6B3A91114113
:104D30004F67DCEA97F2CFCEF0B4E67396AC7422FC
:104D4000E7AD3585E2F937E81C75DF6E47F11A717A
:104D50001D29C5896FB7620EAA18BE1BFC563E4BB3
:104D6000C6D279209ADBC0FE78CD5AF41FDDA83375
:104D70008807C731B11210592780EC5F60517FA9B5
:104D800019B54A0D2DE57A9F93C99CEFA0E03B4DE4
:104D9000AE2AF5B0C8EBBB3C83539961172B047E58
:104DA000BA77D626E169146355210C7D8D01020482
:104DB00008102040801B360102030405060708097D
:104DC0000A0B0C0D0E0F0015161718191A1B1C1DB7
:104DD000D2D3D4D5D6D700009D3C000800000000F7
:104DE000ED22000851230008552100088521000804
:104DF000192300081922000801000000000000002B
:104E0000CD430008C5400008E1400008AD4300085C
:104E1000BD410008344E000800000020C801000019
:104E20000C1E0008B84E0008C8010020A0070000B2
:104E300046210008C12D0102030404100A060708D8
:104E40000902040608018A141C71170201061115D3
:104E5000D028152D121E4B0FA4994ECEB531F40556
:104E600079313233343536062115640101791F4614
:104E70005620202E3302A23014800DA0B4842104C9
:104E8000194C15030312180233091336022320A408
:104E9000022C2002230A0225FF42252201021D10B6
:104EA0002381311A58750B326FE8E2E11384010C4B
:084EB00018201605F0000000B7
:04000005080000B13E
:00000001FF
