:020000040800F2
:10000000D80B0020C5000008470700085D0600085F
:1000100000000000000000000000000000000000E0
:10002000000000000000000000000000DD0A0008E1
:1000300000000000000000000B080008510C000840
:10004000F1000008F1000008F1000008F1000008CC
:10005000F1000008F9030008F10000080504000899
:1000600000000000F1000008F1000008F1000008A5
:10007000F1000008F1000008F1000008F10000089C
:10008000F10000080000000000000000F10000087E
:1000900000000000F1000008F1000008F100000875
:1000A00000000000F100000800000000F10000085E
:1000B0000348854600F07CF800480047AD2400085E
:1000C000D80B00200B4880F308880B480168090E04
:1000D0000A4A914205D10A480A4901600A480B4977
:1000E00001600B480047FEE7FEE7FEE7FEE7FEE79C
:1000F000FEE70000D80B0020040000001F000000F5
:100100001810024001000000000001400000000043
:10011000B100000830B50B46014600202022012422
:1001200009E00D46D5409D4205D31D469540491B2B
:100130002546954040191546521E002DF1DC30BD74
:1001400003460B439B0703D009E008C9121F08C0F0
:10015000042AFAD203E00B780370401C491C521E9B
:10016000F9D27047D2B201E00270401C491EFBD2A6
:1001700070470022F6E710B513460A4604461946B2
:10018000FFF7F0FF204610BD421C0178401C0029FB
:10019000FBD1801A704730B504460020034600E0CA
:1001A0005B1C934203D2E05CCD5C401BF8D030BDB9
:1001B000064C0125064E05E0E36807CC2B430C3CBA
:1001C00098471034B442F7D3FFF776FF7838000829
:1001D0009838000870B58C180578401C6B075B0FC9
:1001E00001D10378401C2A1106D10278401C03E09B
:1001F00006780E70401C491C5B1EF9D12B0705D4F4
:100200000023521E0DD40B70491CFAE70378401CE2
:10021000CB1A921C03E01D780D70491C5B1C521E0A
:10022000F9D5A142D8D3002070BD0000F0B585B04B
:1002300000F018FD2D4800F0F3FC06212C4800F0DA
:100240006BFB012636036846068002248470482131
:10025000C1700927FF066946384600F053F90125A9
:10026000684605802821C1706946384600F04AF981
:1002700005220821384600F08EF9E1016846018028
:1002800084701021C1706946384600F03BF90121A5
:10029000084600F0DBFA0121080700F0CBFA0C2138
:1002A000002000F01DFC00216846019601720C211F
:1002B0004172857201A800F0E3F8072168460173D6
:1002C00044738473C57303A800F03EFA032107202A
:1002D00000F072FA07480168074A114001600748B8
:1002E000016904221143016105B0F0BD80BB00002B
:1002F0000030014000700040FDFF000000ED00E014
:1003000010B50A4C607900280CD000F0A1F9616AA0
:10031000884208D3401A01218902884203D2002072
:100320006071012010BD002010BD0000D800002029
:1003300070B5114C0025216A4A78002A07D04989F6
:10034000A289914203D100F083FE206A4570E169E1
:10035000487900280ED0C888A28990420AD1064860
:10036000E67905223030FFF7EBFE02F0CBFEE069C4
:100370004571E67170BD00004401002010B5040015
:100380000DD0002000F0D4F9064881788C4205D0C9
:100390008470002C02D100210170417010BD012039
:1003A000F0E700000800002072B602484178491CBE
:1003B000417070470000002010B50349CA6A096BFC
:1003C0005043FFF7A7FE10BDD800002010B504462B
:1003D00008480849806A096B002804DB6043FFF77E
:1003E00099FE001910BD40426043FFF793FE201AAA
:1003F00010BD0000D800002010B5012000F03AF830
:1004000010BD000010B50120000300F033F81448BF
:100410000078012802D0022803D01DE000F0F6FB8E
:100420001AE01048016801221143016001681206B8
:100430001143016041680222114341600B480A499F
:1004400041610B490722CB691B021B0A4404234369
:10045000CB61002181610261002001F017F910BD1C
:1004600000000020001002407FBB000000E000E020
:1004700004ED00E0014948617047000000040140BC
:1004800010B5837918490268002B26D00B68934376
:100490000B604A6803689A434A60027952181368ED
:1004A0000468234313608A6803689A438A60CA68B1
:1004B00003689A43CA604279102A05D051180A6825
:1004C000006802430A6010BD8A6803681A438A60A4
:1004D000CA6800680243CA6010BD0079401801680C
:1004E0009143016010BD00000004014004494878B8
:1004F000401E0006000E487000D162B67047000032
:1005000000000020F0B5CC78002223071B0FE40682
:1005100001D58C7823430C782406240E1AD0046865
:1005200001250E8895402E40AE420FD197000F2630
:10053000BE40B4431E46BE403443CE78282E02D07F
:10054000482E02D002E0456100E00561521C082AF5
:10055000E6D304600A88FF2A1CD9446800221646A4
:1005600008360125B5400E882E40AE420ED19700C8
:100570000F26BE40B4431E46BE403443CE78282EDC
:1005800000D14561CE78482E00D10561521C082A61
:10059000E5D34460F0BD4B0710B5DB0E9A40CC08A4
:1005A0000F219940002C06D0436A8B434362416A75
:1005B0001143416210BD036A8B430362016A114318
:1005C000016210BD806880B270474161704701616F
:1005D0007047000013B56A4612781320024009489C
:1005E00002706A4654784470002C03D02246801C66
:1005F000FFF7A6FD0349A41C0846E2B2083802F042
:100600007BF81CBDB40000200148807870470000D2
:10061000D80000200148C07970470000D8000020B1
:10062000082070470748084900780209303200075F
:10063000000F8A70092801D8303000E03730C870C8
:10064000014870478D0000204000002000207047C6
:10065000014800687047000004000020FEE7000029
:100660000249014808607047CCCC000000300040CF
:10067000034A0146D26800200A4200D00120704798
:10068000003000400249014808607047AAAA0000F3
:1006900000300040014948607047000000300040D1
:1006A000014988607047000000300040014908603F
:1006B000704700000030004010B501F0EFF800284E
:1006C0000DD00B480B4C0078012809D0022806D128
:1006D00000F086FA206904210843206130BF10BD74
:1006E00000F07EFA2069FB210840206120BF10BD88
:1006F0000000002000ED00E010B50920C006FFF763
:1007000061FFC004C017401C10BD000010B5074CAD
:100710006079002808D0FFF79BFFE169884203D386
:1007200000206071012010BD002010BD4C00002091
:10073000FF2209210132C906002801D04A61704711
:100740000A6170477047704770B5C2780F23012562
:10075000164E0178002A1AD0154AD468520D14405A
:10076000121B120A0424A41AD3404278A2408478AF
:1007700089001C4014430F4B2201C9180A600178FC
:10078000CA06D20E954049098900891907E0CA06B0
:10079000D20E9540054A49098900803289180D60BA
:1007A0000078400980008019006870BD00E100E019
:1007B00000ED00E000E400E08307FF22DB0E9A403A
:1007C0008907090E994000280BDA0007000F083846
:1007D000830808489B001818C36993430B43C361FF
:1007E0007047830804489B001818036893430B4321
:1007F0000360704700ED00E000E400E010B5012068
:10080000FFF736FF0028FAD110BD704730B5084B0E
:100810005A690F25D4096D042C40D2B22243002915
:1008200002D01043586130BD82435A6130BD000090
:1008300000100240044A0029D16901D0014300E0C0
:100840008143D1617047000000100240044A002932
:10085000916901D0014300E081439161704700003C
:1008600000100240034600205909094A01290AD014
:1008700002290AD0516ADA06D20E012393400B42B4
:1008800000D0012070471168F5E7116AF3E7000016
:1008900000100240024840680C21084070470000E8
:1008A0000010024005490028486A02D00122104386
:1008B00001E040084000486270470000001002401C
:1008C000034A51688908890001435160704700005C
:1008D0000010024010B50220FFF7CAFE0028FAD12E
:1008E00010BD1FB502246B461C730A2159730621E3
:1008F00019700021597005229A70D97001221A715D
:100900005A719C71D9711872000A5872194603986D
:10091000FFF760FE1FBD0000F3B585B032490598B2
:1009200004260825884243D101218014FFF78EFF59
:100930002D49203108892D4A104308810B200121BF
:100940004004FFF763FF002205212948FFF723FE3B
:10095000002204212648FFF71EFE0022032124481E
:10096000FFF719FE6F0169460F8003248C70102079
:10097000C8701F48FFF7C6FD39461D48FFF727FE20
:1009800069460D808C701827CF701948FFF7BAFDA3
:100990002020694608808C70CF701548FFF7B2FDA3
:1009A0001020694608808C70CE701148FFF7AAFDB0
:1009B0006A4696800020D080158150810121918166
:1009C000D08106991182508201A9059800F058F84B
:1009D0000121059800F04AF8059800F010F80598F4
:1009E00000F008F807B0F0BD003001400100FFFF43
:1009F0000004004810B5102100F006F810BD10B535
:100A0000082100F001F810BD10B50822082910D007
:100A10001024102910D00A4B994202D1038B934322
:100A20000383074A083A914202D1018BA143018313
:100A300010BD018B1143FAE7018B2143F7E700005A
:100A4000F7FF000010B5FF2101310248FFF7BFFD9D
:100A500010BD00000004004810B5FF21013102481C
:100A6000FFF7B3FD10BD0000000400480029018B12
:100A700002D00122114301E0490849000183704777
:100A800030B5038B0F22120313404A884C8922434E
:100A90000C881C4322430283838B3F22D2431340A2
:100AA0008A88CC890D892243CC882C4322431A435F
:100AB00010231A438283028C8989018430BD00008F
:100AC000054908600889C007FCD008898007FCD563
:100AD0004868C0B270470000003001407047000015
:100AE0008A0710B5120F0F2393408C080549A40004
:100AF00061188C689C438C608B68904003438B60CA
:100B000010BD00000000014001494870704700001E
:100B10009800002001490120C87070474C00002057
:100B200001498861704700004C00002070B5044600
:100B3000034D01206871FFF78BFD0019E86170BD5E
:100B40004C00002030B51D4900220B6801242343CE
:100B50000B600B689B07FCD501239B024B604B6825
:100B600001242404A3434B600C6801231B069C430F
:100B70000C600C681F25AD06AC430C600C683F256B
:100B80008006AD06401904430C600D4C1120206016
:100B900008681843086008688001FCD54868800828
:100BA00080004860486802231843486002E04868B3
:100BB0000007820F022AFAD130BD00000010024067
:100BC0000020024010B500F00BF8FFF741FD03498B
:100BD0001E3048620120487110BD0000D80000207E
:100BE00010B50020FFF76CFEFFF754FE0028FBD184
:100BF0000548016801221206914301607D208001B1
:100C000000F00EF810BD00000010024010B500F01A
:100C100029F8024800F004F810BD000080BB000075
:100C2000094910B5401E884201D9012010BD074C6A
:100C300060610321081FFFF7BFFD0020A0610720AE
:100C40002061002010BD0000FFFFFF0000E000E079
:100C500010B503480168491C016000F001FD10BD9A
:100C60000400002010B50420FFF76CFF0220FFF7FE
:100C700027FEFFF70FFE0828FBD110BD0521C0019C
:100C8000090240180149486070470000180100201F
:100C9000FEB500242546FFF7F5FC364FB87800284E
:100CA00067D03E78042E64D27878864261D0C8211D
:100CB0003148FFF75EFA30462F4E002731460831A3
:100CC000012804D002280BD0032822D12DE00846A9
:100CD00001F0B6FC083085B227203071112017E0F2
:100CE0001C20019101F010FC07710546077400F00B
:100CF00045FF024600902846019900F0F0FF284683
:100D000001F092FB0098083085B227203071132043
:100D10007071FE20307001207070280AB070F5707C
:100D2000B771144F3878F0711FE01020019101F075
:100D3000EBFB476087600546077301F091F80246B8
:100D400000902846019901F009F8284601F06CFB53
:100D50000098083085B2272030711220D8E730196A
:100D6000142102F0ADF91434A4B2AC42F7D33878B0
:100D70007870FEBD080000208801002070B5044690
:100D80000D460120FFF78EFD6120FFF76BFD002867
:100D9000FAD0FFF733FD0A4E3046FFF787FCE0B28A
:100DA000FFF778FCFFF796FD3046FFF77FFC28053C
:100DB000000DFFF775FCFFF765FCFFF751FC70BDF8
:100DC0005555000030B47446641E2578641CAB424F
:100DD00000D21D46635D5B00E31830BC184702E09B
:100DE00008C8121F08C1002AFAD1704770470020B6
:100DF00001E001C1121F002AFBD17047090710B59D
:100E0000090FC00705D0032902D1022001F052FECC
:100E100010BD05480079002802D0FFF7D3FE10BDB1
:100E200001F0B4FE10BD0000D8000020F8B5074660
:100E3000204C00202071087816460007000F0D4650
:100E4000032802D0052822D117E08120000138189C
:100E5000A06101F056FE17486946C08908800098D5
:100E600001F0F4FD6178A06B01F0FCFD60780121D8
:100E7000C001C9024018606111E0002E07D0284669
:100E800006220D490830FFF786F9002802D001F04C
:100E90007DFE04E032462946384600F0B1FB53207F
:100EA00001F068FB0549042001F08DFB562001F09C
:100EB00061FBF8BDD800002087000020470100201A
:100EC00070B5334C0546E079002823D0A078401C4B
:100ED000A070A079002801D02820A07020790026D9
:100EE000002808D0206A091AE069281A00F044FB9B
:100EF000E67026716681FF20193001F00FFEA078A0
:100F0000272815D801F0B5FD0020FFF709FE01F0F4
:100F10004AFE70BD512001F02DFB7821202001F008
:100F20007EFB562001F026FB0A20FFF7F9FD70BD7D
:100F30002520A0702069FFF749FA4519206980092A
:100F4000FFF7EEFD284601F012FEA07801F091FDBA
:100F5000512001F00FFB7821002001F060FB7A2185
:100F6000002001F05CFB562001F004FB0521206904
:100F7000C901884208D9207A401CC0B220721728C3
:100F800002D3267201F0CFFB6089401C608170BDE6
:100F9000D800002010B509492520887001F069FDAE
:100FA000FF20193001F0BAFD002001F078FD01F0BA
:100FB000FAFD002002F080F810BD0000D8000020EB
:100FC00010B50C480078000702D001F0DFFD10BD1D
:100FD000782001F0A3FD012001F06CFD05480C38DC
:100FE00081694069081891210901401801F089FDC3
:100FF00010BD0000E400002070B506460D4602203A
:1010000001F058FD2320C001104C2818A06101F008
:1010100078FDE06801F01AFD2178606B01F022FD97
:1010200020780121C001C90240186061A0782528FC
:101030000AD1E66125626089112802D2E078002891
:1010400002D00120E070207170BD0000D8000020A7
:1010500070B50E4C0546206A017861724088E081C7
:1010600050214843FFF7B2F9401901F080FD206A92
:1010700081882182C18861820089A082607A0449C6
:101080004843401801F04AFD70BD000044010020B3
:10109000E204000070B5044600781C4D4006C00F05
:1010A000687128460622A11C3530FFF749F80E3436
:1010B0002846042221462C30FFF742F82846032216
:1010C000211D1630FFF73CF8E0796872617A207ACA
:1010D00009024018E881E17AA07A090240182882C2
:1010E000617B207B090240186882E17BA07B0902BA
:1010F0004018A88221462846052210313030FFF7DB
:101100001FF8607DC006C00EA87270BD44010020AB
:101110007FB50AA470CC80070194800F03960295D6
:101120006C462070092060706172A272100AE07231
:10113000237301A9009800F020F87FBD050004008A
:1011400001000000000000000EB507A106C98007DD
:101150000091800F01926946087207204872029838
:1011600000F00BF80EBD00000300040003170000A0
:1011700010B50A23FFF7CCFF10BD10B5FFF72AFA10
:1011800010BDFFB587B01E466F46109B119A0546ED
:1011900038710920787105200C4638720021797267
:1011A0000420B872F972601C387301207873B97327
:1011B000F8730520C0023974834213D105A800904A
:1011C00006AB31460998FFF741FA00280AD0694674
:1011D000088B4873888AC87302A90198FFF7CDFF6E
:1011E0000BB0F0BD21462846099AFFF7C1FFF7E78B
:1011F000FFB587B0079817468007800F6A461070C2
:101200000A2050700020507106211171D071042104
:10121000917105211172012151721E46D07204464E
:10122000134D1AE020460A21484341194988B94222
:1012300011D3B1420FD80A214C43611989786A460B
:101240009172285A1073000A507301A90098FFF791
:1012500094FF0BB0F0BD641CE4B2FFF7E1F9A042CB
:10126000E0D83A4608990798FFF782FFF1E70000B7
:10127000CC370008F0B589B00E4607461D461C2144
:1012800001A80E9CFEF775FFB807800F694608702D
:10129000601D4870601C0871000A48710420887144
:1012A0000020C871761C0E7201A904E02A5C0B189C
:1012B000401C5A71C0B2A042F8D30098FFF75DFFFE
:1012C00009B0F0BD7CB50525069BED020224AB42BA
:1012D00001D1012A0BD0AB4211D1072A0FD810A19E
:1012E00009680F22019101AB0094072112E00DA1C2
:1012F00009680622019101AB009401210AE0AB428A
:101300000BD1102A09D808A10968019101AB172255
:101310000094102100F00AF87CBDFFF729FF7CBD86
:101320000A18000000180000E7FE0000F0B589B0C0
:101330008446002468460E9D04714471042686711B
:10134000C471112606722E1D46728172C472027318
:1013500044730A2001AF002105E05A5C3A54401C56
:10136000491CC0B2C9B2A942F7D3011F6A46117124
:1013700061468907890F1170507039460098FFF750
:10138000FCFE09B0F0BD0000FFB589B00998152139
:101390008507129E4902AD0F1F468E4221D1684635
:1013A00001F06EF80146684605710023437100782C
:1013B000801CC2B2122A00D91222941C6D462C72D3
:1013C000200A68720426AE72EB72092028736A73D1
:1013D000AE73EB7304A8921EFEF7B2FE241D6C716F
:1013E0003FE0614886423ED10B9807283BD15F48D9
:1013F0000078002837D06B461D7117211972002123
:101400005972042199720021D97209210720197398
:101410005873082098730020D873022018745974E8
:10142000002199742921D9742A2119750A225A7523
:1014300000249C75D8750B251D7600255D76262524
:101440009D760E22D9761A7700225A7798770F2444
:10145000DC7708AB1A702820587099701B206B46F7
:10146000587102A96FE0FF2F00D9FF27002471E017
:1014700020460A2148433E490A5AB24268D14118DF
:1014800048880B9A904263D3B84261D8364A521EBC
:10149000964223D10A226E463272002373720422CE
:1014A000B272F37209223273082272730A22544311
:1014B0002F4AA2189278B273000AF073002002AA91
:1014C0000B181418401C1B79C0B223720528F7D3DF
:1014D000487A707535710E20707133E009266F46B9
:1014E0003E7200237B720422BA72FB723E730722A3
:1014F0007A730A2254431E4AA2189278BA73000AD9
:10150000F873184602AA0B181418401C1B79C0B2B5
:1015100023720528F7D33D710D207871497AFF2990
:1015200010D0144B00200901C9180B5C1418401C82
:10153000C0B2E3721028F8D31B20787117203872DC
:101540001520787311460198FFF717FE0DB0F0BD16
:10155000641CE4B2FFF764F8A04289D809AB07CB5A
:10156000FFF706FEF2E70000032800003A00002023
:10157000CC3700081C3800084B22D200084B821AD6
:101580009A420CD27D22D200064B8A1A9A4206D287
:10159000FA224243531A044A93621163D06270479D
:1015A000A81D000019661800D800002010B5FFF72C
:1015B0002DFB01F0EBFA10BD7FB528214843074908
:1015C0000A9D099C6E460861B08888814A630B7049
:1015D0000846328CC2818C634D707FBDD8000020DC
:1015E000034902480860406800470000303800089E
:1015F0001401002001480078704700001801002005
:1016000070B50846114B104919601146FFF742FDAD
:10161000012000F01FF80E49012208780C46104303
:10162000F12210400870083C208A4100A08A8142C3
:1016300000D288B20A214843FFF778FA0025A57046
:1016400001F0A4FA657070BD4C3800081401002048
:101650004C0100200149087070470000180100206B
:1016600010B50848C07800280AD0074800680078FC
:10167000002805D1FEF744FE002801D0FFF796FFB1
:1016800010BD00004C00002014010020FEB57D4D6F
:10169000E97803290BD0012972D0022901D1032155
:1016A000E970688102F030F8E878002868D1764F58
:1016B00000203C462871754E52340AE028790228F1
:1016C00007D1A869002804D0E878002801D1FFF7E5
:1016D00039F83068007800280ED1E878002805D164
:1016E000FEF70EFE002801D0FFF760FFFEF792FF25
:1016F000002801D1FFF7CCFAFEF7FEFF00286ED0DC
:101700006048001D01F088F9287901F006F8696940
:1017100028797854491C6961142901DB0021696129
:101720006A69FF21B954C1070CD0694601A801F0CC
:1017300043F8574800990160564A01981060326892
:1017400092686CE0810715D5694601A801F034F86C
:1017500001F01CFA30680099826901989047FEF701
:1017600053FF252803D03068007801287AD1FFF78D
:101770008FFA77E0C10604D530684069804771E090
:101780007EE001062CD5306843490078002813D04C
:10179000012001F02DF8617820780902401881B20B
:1017A0003068C268012090472879410610D5694603
:1017B00001A801F001F828E0002001F019F8617893
:1017C00020780902401881B23068C268012026E002
:1017D000800647D5694601A800F0EEFF35E049E0F4
:1017E000410616D5694601A800F0E6FF306800788A
:1017F00000280AD120780007000F052805D1214ACA
:101800002549921D002001F007F8306862780369CD
:1018100024E0410705D530680021C268084690479A
:1018200020E0010703D50020FFF714FF18E0800631
:1018300016D5694601A800F0BFFF3068017800297D
:101840000AD01549012000F0D3FF3068627803699F
:1018500000210098984705E0036900220E49F8E747
:1018600001F094F9E878002800D127E7287980284A
:1018700006D123E7E8780028F7D028790028F4D1AA
:10188000FEBD00004C0000201803002014010020C1
:1018900020010020240100206A030020064801796D
:1018A000022905D18169002902D0C078032801D01E
:1018B00000207047012070474C00002070B505469D
:1018C000FEF7C6FEC41CFEF7C3FEA042FBD30349CD
:1018D0000220C8702846FFF7D9FE70BD4C000020DA
:1018E00010B50C461F2900D91F2401462246054881
:1018F000FEF726FC04480470C01DA41D447001F0CE
:101900001BFF10BD2C0300204C00002070B50D46BD
:10191000124A01461078002809D0401E1070002697
:1019200056705068092806D0401C506005E0012020
:101930005070002070BD304656600C22084B424368
:10194000D41842018018074A80182A462060FEF702
:10195000F7FB25712046A66070BD000090000020B6
:10196000E00400209403002010B501F0F2F80020FC
:10197000FFF784F910BD70B5044600210A2000F07D
:1019800016F905462079002804D01220E16800F0FD
:101990000EF9451900221820216900F034FD45197F
:1019A00000222020616900F02EFD4519217E0022D1
:1019B000282000F028FD4519607E002804D0322040
:1019C000216A00F0F4F845192646203630790028BF
:1019D00004D03A20E16A00F0EAF84519307C00288A
:1019E00004D05220A16B00F0E2F84519307F0028A6
:1019F00004D05A20616C00F0DAF845194820005DE7
:101A0000002804D06220216D00F0D1F84519284645
:101A100070BDF8B516460A4604468168006800F0B5
:101A200023F8050001D50020F8BDA0686A46411BD7
:101A30002068401900F079F8009931602168401958
:101A40000818F8BD10B500F05AF810BD10B500F038
:101A500056F810BD10B5FFF7DCFF10BDC068704729
:101A600010B5FFF7D6FF10BDF8B517460E46054670
:101A700000243FE0285D04E0295D00024906490E8C
:101A80000843641C29192039C97F090601D5B442CD
:101A9000F2DBB84201D12046F8BD80B24207520FB6
:101AA000010A01D04005420F2B19311B0020002AEA
:101AB0000AD0012A10D0022A10D0052A17D0401EC1
:101AC000002816DA641C15E01A5C401C1206002A75
:101AD000F6DA8842F8DBF3E70820F1E7002000900F
:101AE00018466A4600F021F800994018E8E70420FB
:101AF000E6E72418B442BDDB0020C043F8BD38B58A
:101B00000446002000900A46A1682068FFF7ACFF59
:101B1000002801DA002038BDA1682268091A1018CF
:101B20006A4600F002F8009838BD70B504460078A7
:101B300043065B0E01200EE0884202DB0020C0431A
:101B400070BD05280CDA255CC6006D066D0E361AD0
:101B5000B5402B43401C2518203DED7F2D06EBD4CE
:101B6000136070BD10B50A4681680068FFF77CFFFE
:101B7000002801DA002010BD012010BD70B5054617
:101B800000210A2000F013F804462879002804D028
:101B90001220E96800F00BF80419287C002804D012
:101BA0001A20A96900F003F80419204670BD10B589
:101BB0000C46002200F027FC001910BDF0B585B0DE
:101BC0000446684600F086F80026304600F09CFC8B
:101BD000074632463946206800F073F8050003D501
:101BE000384600F021FC0BE033463A460A216846AD
:101BF00000F07BF90546384600F016FC002D02DAAD
:101C0000284605B0F0BD2079002807D0122168468B
:101C1000E368A26800F03BF90028F2DB182168466F
:101C2000226900F05EF90028EBDB2021684662693A
:101C300000F057F90028E4DB227E2821684600F0F6
:101C40004CF90028DDDB607E002807D03221684691
:101C5000236AE26900F01BF90028D2DB2546203513
:101C60002879002807D03A216846E36AA26A00F082
:101C70000EF90028C5DB287C002807D052216846D1
:101C8000A36B626B00F035F90028BADB287F0028CF
:101C900007D05A216846636C226C00F02AF90028AC
:101CA000AFDB4820005D002807D062216846236D25
:101CB000E26C00F01EF90028A3DB6846FFF7CEFEB9
:101CC0009FE71FB5684600F005F86846FFF7C6FEB7
:101CD00004B010BD826041600021C1607047F0B562
:101CE00085B004466846FFF7F5FF0026304600F051
:101CF0000BFC0746324639462068FFF7E2FF050035
:101D000003D5384600F090FB0BE033463A460A21F3
:101D1000684600F0EAF80546384600F085FB002DDD
:101D200002DA284605B0F0BD2079002807D012213C
:101D30006846E368A26800F0AAF80028F2DB207C7D
:101D4000002807D01A216846A369626900F09FF84D
:101D50000028E7DB6846FFF781FEE3E7F0B585B0D2
:101D600004466846FFF7B6FF0026304600F0CCFB7D
:101D70000746324639462068FFF7A3FF050003D522
:101D8000384600F051FB0BE033463A460A216846DC
:101D900000F0ABF80546384600F046FB002D02DAAD
:101DA000284605B0F0BD12216846A368626800F0BD
:101DB0006EF80028F5DB207B002806D0E289182188
:101DC000684600F08AF80028EBDB6846FFF746FE1D
:101DD000E7E770B504460D46084601F08FFC024661
:101DE000A168E068091A91420CDB61680818022AB0
:101DF00002D1290A0170401C0570E0688018E0607B
:101E0000104670BD0020C04370BD7CB50546002063
:101E1000009004466A46802601904806400E105500
:101E2000012C04D410192038C37F3343C377C90968
:101E3000641C002901D0052CEFDBA968E868091AA9
:101E4000A1420ADB6968224608186946FEF778F95C
:101E5000E8680019E86020467CBD0020C0437CBDD6
:101E600070B5044600210A20FFF7A1FE05461220A6
:101E7000A168FFF79CFE4519207B002805D0E18969
:101E80000022182000F0BFFA4519284670BDF8B5A9
:101E90001D4617460446FFF79CFF00281CDB06463C
:101EA00029462046FFF7B1FF002815DB3618A26847
:101EB000E0683946121AAA4209DB626810182A46FD
:101EC000FEF73EF9E0684019E060284601E0002096
:101ED000C043002800DB3018F8BD10B500F00DF845
:101EE00010BD10B500F009F810BD10B5FFF7CFFF19
:101EF00010BD10B5FFF7CBFF10BD70B515460646F7
:101F0000FFF767FF002807DB044629463046FFF746
:101F10007CFF002800DB201870BD70B5064686B037
:101F20000D460C2000F0F0FA04462A463146684679
:101F300000F072F80A216846FFF714FE00281CD052
:101F400012216846FFF70EFE002816D00020206000
:101F50006060A06004AA0A216846FFF77BFD04992F
:101F600000F02CF82060002809D022460832122107
:101F70006846FFF74EFD6060204606B070BD204603
:101F800000F052FA0020F8E710B50446006800F0AF
:101F90004BFA204600F048FA10BD7FB506460D46C4
:101FA000042000F0B1FA04462A463146684600F0A3
:101FB00033F800202060204604B070BD7FB506468F
:101FC0000D46102000F0A0FA04462A463146684625
:101FD00000F022F808216846FFF7C4FD002819D058
:101FE000002020606060A060E06008216846FFF784
:101FF0002DFD206012216846FFF7B4FD002808D0AF
:1020000022460C3212216846FFF72AFDA06001200B
:102010002071204604B070BD8260016070470000EE
:1020200070B5064686B00D465C2000F06DFA044699
:102030002A4631466846FFF7EFFF0A216846FFF758
:1020400091FD00287ED010216846FFF78BFD002807
:1020500078D018216846FFF785FD002872D05C21F2
:102060002046FEF786F804AA0A216846FFF7F2FC2C
:102070000499FFF7A3FF206000287CD01021684658
:10208000FFF73DFD606018216846FFF738FDA0604E
:1020900020216846FFF766FD0125002805D0202194
:1020A0006846FFF72CFD2061257328216846FFF75D
:1020B00059FD002805D028216846FFF7C3FC60754C
:1020C000257530216846FFF74DFD002805D03021E9
:1020D0006846FFF714FDA061A5755A216846FFF711
:1020E00041FD002807D0224624325A216846FFF7D6
:1020F000B7FC2062257760216846FFF733FD002892
:1021000008D060216846FFF79DFC0146204620303C
:10211000417205726A216846FFF724FD002808D045
:10212000224630326A216846FFF79AFCE0622A2094
:10213000055572216846FFF715FD00280AD0224692
:102140003C3200E034E072216846FFF789FCA0636E
:102150003420055578216846FFF704FD002806D095
:1021600078216846FFF772FC606440200555144EE4
:102170006846314600E01DE0FFF7F4FC002806D079
:1021800031466846FFF762FCE064482005550D4E75
:1021900068463146FFF7E6FC002808D02246583250
:1021A00031466846FFF75CFC6065502005552046C7
:1021B00006B070BD204600F037F90020F8E70000B7
:1021C00001800000018A000010B50446006800F09C
:1021D0002BF9204600F028F910BD70B5064686B0F0
:1021E0000D46102000F090F904462A463146684614
:1021F000FFF712FF0A216846FFF7B4FC00282AD037
:1022000012216846FFF7AEFC002824D00020206091
:102210006060A060E06004AA0A216846FFF71AFC2B
:102220000499FFF7BAFE2060002816D02246083233
:1022300012216846FFF7EDFB606018216846FFF742
:1022400091FC002806D018216846FFF7FBFBE081CF
:1022500001202073204606B070BD204600F0E4F84F
:102260000020F8E710B50446006800F0DDF82046CD
:1022700000F0DAF810BD70B5064686B00D461020A5
:1022800000F042F904462A4631466846FFF7C4FE8C
:102290000A216846FFF766FC00281FD00020206056
:1022A0006060A060E06004AA0A216846FFF7D2FBE4
:1022B0000499FFF783FE2060002811D012216846A0
:1022C000FFF750FC002808D022460C321221684645
:1022D000FFF79FFBA06001202071204606B070BD73
:1022E000204600F0A1F80020F8E710B50446006889
:1022F00000F09AF8204600F097F810BD70B5064639
:1023000086B00D46082000F0FFF804462A46314604
:102310006846FFF781FE0A216846FFF723FC002884
:1023200019D010216846FFF71DFC002813D00020AB
:102330002060606004AA0A216846FFF78BFB0499BD
:10234000FFF72BFE2060002807D010216846FFF71A
:1023500079FB2071204606B070BD204600F064F87D
:102360000020F8E710B50446006800F05DF820464C
:1023700000F05AF810BD70B5064686B00D4608202C
:1023800000F0C2F804462A4631466846FFF744FE8C
:102390000A216846FFF7E6FB002824D01021684692
:1023A000FFF7E0FB00281ED018216846FFF7DAFB94
:1023B000002818D000202060606004AA0A21684626
:1023C000FFF748FB0499FFF7E8FD206000280CD0D8
:1023D00010216846FFF736FB207118216846FFF789
:1023E00031FB6071204606B070BD204600F01CF83D
:1023F0000020F8E710B50446006800F015F8204604
:1024000000F012F810BD10B50024002A01D01F22E0
:10241000D141C909641C002901D0052CF9DB01F068
:102420006DF9001910BD000010B5002823D0124B23
:102430000022001F196803E0814203D80A46496858
:102440000029F9D1002A0AD01368841A9C4204D1C9
:10245000006818181060104602E0506000E0186034
:10246000002907D002680B1A934203D10B68D218D7
:1024700002604968416010BD800100207047000083
:102480000A210170004870471800002000A0704722
:102490004D475F424C455F4C49425F56332E3000FA
:1024A000014800787047000090000020012040059E
:1024B000401EFDD2FDF7BAFE11490320FEF75EFC77
:1024C000FEF728FB0F49432000F0F8F90D4A0020E1
:1024D00011211468151D0A1A235C5219203A401C58
:1024E000C0B2D3770628F6D306481121001DFFF7A6
:1024F000F7F9FF204130FFF7E1F9FEF7DDF8FCE7DF
:10250000E204000024000020F0B50B30C108C9002F
:10251000144F0026144A0FE003688B420BD38B4202
:1025200005D95C1A4318456830C3083B00E043688E
:10253000136002C004E0021D10680028ECD1304690
:10254000002803D13868002801D00020F0BD064AD9
:1025500006481060064A121AD208D20044C0012070
:102560003860D7E78401002080010020DC050020CE
:10257000D807002010B50446FEF76EFA012150205E
:10258000FEF79EFA01212046FEF79AFAFEF75AFA64
:1025900010BDF8B515460E460446FEF75DFA01215A
:1025A0002046FEF78DFA0746002406E00021FF20B2
:1025B000FEF786FA3055641CE4B2AC42F6D3FEF75F
:1025C00041FA3846F8BD70B50C460546FEF744FAA8
:1025D00001212846FEF774FA0021FF20FEF770FA69
:1025E0002070FEF72FFA70BDF8B516460D4604466A
:1025F000FEF732FA202020430121FEF761FA002481
:1026000007E0287801216D1CFEF75AFA641C074682
:10261000E4B2B442F5D3FEF715FA3846F8BD70B50A
:102620000D460446FEF718FA202020430121FEF74C
:1026300047FA01212846FEF743FAFEF703FA70BD78
:10264000F1B55420FFF760FF0446002020710121FE
:102650000125090465612161022121762646203683
:1026600035711349A1620621E1626076114F35741C
:10267000B8686063FDF788FDA0633577F86820646B
:10268000FDF782FD60644820055538461030E0644F
:102690000A2020652046FFF76EF9054602462046CF
:1026A0000099FFF78BFA2046FFF7BEFEA8B2F8BDEF
:1026B00033000020080000200168002902D1406892
:1026C000002801D0002070470120704700210160E0
:1026D000416002490A200870704700009000002005
:1026E0000268136812790A7001688968016000291C
:1026F00000D141601846704710B50B46044611469C
:102700001846FFF703F9002806D06168002901D0B8
:10271000886000E02060606010BD10B501460E20AA
:10272000FFF77DFF10BD1CB55320FFF723FF0321EA
:102730001F20FFF774FF01A91F20FFF744FF684621
:1027400000790028F7D103211F20FFF768FF01A9B6
:102750001F20FFF738FF684600790028F7D10121D4
:102760001520FFF75CFFA0211220FFF758FF04217E
:102770000A20FFF754FF00210A20FFF750FF8821AD
:102780001220FFF74CFF012469460C70212048708D
:1027900002221320FFF728FF69460C7020204870A2
:1027A00002221320FFF720FF00211520FFF737FF3B
:1027B0005620FFF7DFFE1CBD7CB50D460446062201
:1027C00069461020FFF7E5FE694648790B79020457
:1027D0001802C9781018401869462060887849782E
:1027E00000040902401869460978401828607CBD39
:1027F0001CB50C4600280BD0022269460620FFF7C4
:10280000C8FE6846007820706846407860701CBD3D
:10281000022269460420F2E77CB515460C460028E2
:1028200009D06278901C2870002A03D0A11C612076
:10283000FFF7AFFE7CBD022269460420FFF7A9FE28
:1028400068464078801C287068460078207068468A
:10285000407860706846007825460107090F684691
:10286000407808350B00FEF7ADFA0605080513049D
:102870001904DFE70622A11C08E00C28DAD10622A1
:10288000A11C0A20FFF785FE062229460B20CFE770
:102890000C28CFD1062229460A20C9E72228C9D10F
:1028A0000622A11C0B20FFF774FE062229460A20EF
:1028B000FFF76FFE162221460E31B8E77CB50646BB
:1028C000002468460471524D51200D60FFF752FEFE
:1028D00001A91F20FFF777FE684601798029F7D10B
:1028E0004C491E20FFF76FFE78210020FFF797FE6E
:1028F00006210846FFF793FE7A210020FFF78FFE9E
:102900005320FFF737FE00211520FFF788FE022134
:102910000120FFF784FE1E211D20FFF780FE3046B8
:1029200000F0E4F800A908200131FFF74CFE6846EA
:102930004078384E002807D130781B2801D2152066
:1029400000E0112069464870C020694608702D20BB
:10295000887003220420FFF747FE69460C704C7014
:1029600002220C20FFF740FE30788024192843D043
:102970001C20694608704C7002221420FFF734FEB8
:1029800010206946087002264E7032460A20FFF772
:102990002BFE69460E701220487002220D20FFF7B0
:1029A00023FE0120694608700720487002220E208D
:1029B000FFF71AFE032269460B20FFF7EAFD4020CD
:1029C0006946C87004220B20FFF70EFE69460C70A2
:1029D00001220C20FFF708FE5620FFF7CBFDFF2158
:1029E0000E20FFF71CFE062209490820FFF7D1FD43
:1029F00068796D2802D008E0CC20BAE7ED20687134
:102A0000062203490820FFF7EFFD00F0BFF87CBD68
:102A1000870000208D00002038B5044669460E204E
:102A2000FFF7D1FD68460178217038BD1CB50178EB
:102A30006A4611704178517081789170C078D07079
:102A4000042269460C20FFF7CFFD1CBD01B582B002
:102A50006946087A0870487A487002220320FFF716
:102A6000C3FD0EBD0A4610B50146A020FFF7BCFD10
:102A700010BD10B5282803D201460120FFF7CFFD75
:102A800010BD1CB501786A4611704178517080788C
:102A90009070032269460D20FFF7A6FD1CBD1CB5F2
:102AA000FF216A4611705070022269460E20FFF71E
:102AB0009BFD1CBD10B504280BD001280BD00228AB
:102AC0000ED003280ED005280ED0062807D10421E9
:102AD00002E0022100E009210220FFF7A0FD10BD65
:102AE0000C21F9E70121F7E70321F5E708B50221F9
:102AF0006A46117050700A4669460F20FFF774FD50
:102B000008BD1CB56A461070010A5170000C907027
:102B1000032269460720FFF767FD1CBD1CB56A4606
:102B20001070010A5170002191700549884201D945
:102B300001209070032269461120FFF755FD1CBD4E
:102B4000FFFF00000A4610B50146A020FFF74CFD2C
:102B500010BD01B582B06946087A0222C006C00ED7
:102B60000870487A48700520FFF73EFD0EBD1CB581
:102B700000216A4611705070010A9170000CD070EB
:102B8000042269460F20FFF72FFD1CBD1CB5022053
:102B900069460870FF2048708870C87004220F20B2
:102BA000FFF722FD1CBD10B501210F20FFF737FDF7
:102BB00010BD000038B5054600230C4610460093B2
:102BC000FFF77AFD002802D02B70237038BD6946CC
:102BD0001046FFF785FD0146684602782846FDF756
:102BE000AFFA68460078207002480178491C0170ED
:102BF00038BD00009000002010B5054803498160F1
:102C0000002141701430FFF761FD10BD2C38000821
:102C1000980000207047000000B587B0182207A177
:102C20006846FDF78DFA0B480321017018214170A9
:102C300000686946FDF7CEFC07B000BD1010002803
:102C40000001002C011820000300FFFFFFFFFFFF21
:102C5000FFFFFFFF300100201CB500228C070C494C
:102C60000092A40F01920C7006244C7002236C4653
:102C7000237062700279A2704079E0700D2020719B
:102C80001A20607108686946FDF7A4FC1CBD0000AD
:102C9000300100200EB507A007C86B4607C30848DF
:102CA000032101700921417000686946FDF792FC1B
:102CB0000EBD000009000000000000000000000040
:102CC000300100201CB500228C070C490092A40F93
:102CD00001920C7006244C7002236C4623706270C3
:102CE0000279A2704079E070052020713720607170
:102CF00008686946FDF76EFC1CBD0000300100202D
:102D000010B589070548890F0170002141700068DE
:102D1000FEF72AFE0020FEF79DFC10BD30010020CA
:102D200008B507A109680091064903220A7002222A
:102D30004A706A46507008686946FDF74BFC08BD4A
:102D400007000000300100201CB507A005C8009056
:102D500089070748890F01920170062141700068B8
:102D60006946FDF737FC1CBD0C079C0517200000C9
:102D700030010020FEB5164C01A92246083A204633
:102D8000FFF718FF6846007901262546002804D180
:102D90002E70687002206946087121780C4F13204C
:102DA00001401C3F78780423C24352081A40400770
:102DB0001143C00FC00001436A4611706078507023
:102DC000A11C009800F0A9FC2E7000207870FEBDB8
:102DD000B4000020FEB50D46002102911D2D00D942
:102DE0001D2501462A469948FDF7AAF99848974CAF
:102DF0000570207896498207920F8870012A14D0B6
:102E0000032A17D0022A0FD1637922791B02A579F0
:102E1000D218062A4BD0042A50D0052A04D1132DEB
:102E200002D00020FDF75DFDFEBD022DFCD3FFF7B3
:102E300025FBFEBDA1780B00FDF7C4FF120B0F1E92
:102E4000233535350A283535352D0A35320A0A3508
:102E5000EFE7E01C00F0FEF8FEBD01467B48FFF7FF
:102E6000D9FE617A207A090240186946088102A9D0
:102E7000E01C00F011F9FEBD01467448FFF740FF69
:102E8000FEBD01467148FFF7E7FEFEBD01466F48F3
:102E9000FFF700FFFEBD01466C48FFF755FFFEBD82
:102EA000FFF7BAFEFEBD0846FFF73AFFFEBD012D53
:102EB000FCD101466548FFF705FFFEBD644A0C32B0
:102EC000102D3AD00ADCAE1E3300FDF77BFF0B4E0F
:102ED000155315A1151E1564157015005B4B0933AC
:102EE000182D75D004DC122D73D0162D04D171E08D
:102EF0001E2DE2D0522D7AD0227AE1791202891861
:102F00008AB22946FEF734F9FEBD237AE1791B0225
:102F1000C9188EB21680A37A617A1B02C9188BB2C7
:102F20005380E17A247B2402091989B291800091AF
:102F300032462946FEF728FAFEBD237AE1791B02C4
:102F4000C9188EB21680A37A617A1B02C9188BB297
:102F50005380E17A247B2402091989B2918000917F
:102F600032462946FEF7AEF9FEBD00222946FEF79D
:102F7000EBF8FEBD237AE1791B02C91889B21180F2
:102F8000637AA47A24021B199BB253800A4629460D
:102F9000FEF72EF9FEBD237AE2791B02D21893B216
:102FA0008B8002461946284600F05CFBFEBD237A62
:102FB000E2791B02D21896B28E80A37A627A1B0243
:102FC000D21893B202463146284600F049FBFEBDB6
:102FD00009E00CE0227AE0791202801888801B4810
:102FE00000F08FFAF3E7194800F04DFAEFE7E278C6
:102FF000A6781202D21EB218D6B2E279247A24023E
:10300000121992B28A802946009600F09DFADEE7F6
:10301000237AE1791B02C91889B21180A67A637AF2
:1030200036029B199BB25380267BE27A36029219B4
:10303000667BA47B92B2240234190092A4B20A46A1
:1030400001942946FEF79DF8C1E7000058050020CD
:10305000980000200F490122096A4A7002780A701C
:10306000837842781B02D2184A800379C2781B0207
:10307000D2188A80837942791B02D218CA80037AD7
:10308000C2791B02D2180A81427A807A0002101893
:10309000488170474401002010B5064C0346E069A2
:1030A0000988C18005221946FDF74AF8E169012027
:1030B000487110BD4401002010B5FDF737FD10BD6B
:1030C000F8B50C460746002614E0142C01D9142547
:1030D00000E02546FFF7E4F903280FD308480095E0
:1030E0000288BB191D21022000F0DEF97019C6B25A
:1030F000601BC4B2002C01D0002FE6D13046F8BDD1
:1031000022000020F0B50C4B00201C46D871303452
:103110000A4AD8720125C1084607615C760F2F461E
:10312000B740394203D0D97A5054491CD972401C57
:10313000C0B22528EFD3F0BD440100208E05002049
:1031400010B5C00706D10448FD2201781140017076
:10315000FFF71CFD10BD00004C010020F8B5344FF6
:1031600006460C46B88A0A2115464843FDF7DEFCA0
:1031700039460831087802221043F32210400870C3
:10318000FDF712F9002C03D06078002819D01EE05A
:103190004120400105213018C9014018B862FFF7ED
:1031A000B0FC1B2D00D91B25E8010521301A0902AE
:1031B000401A78621E480821083002780A430270DB
:1031C00032E01B480422083001781143017081204D
:1031D00000013018B862FFF794FCE8010121301AB1
:1031E0008902401A78622078FDF78EFC2278082147
:1031F000B8780A40824217D101223A704840B8702C
:103200000C48006800688047FDF770F9002078706E
:103210005320FFF7AFF906490420C91CFFF7D3F983
:103220005620FFF7A7F9F8BDFDF760F9F8BD0000DB
:1032300044010020A0000020F3B581B00546FEF750
:10324000D9F900282DD0724E002730783446C107B6
:10325000083C00292BD0E089502148432830FDF755
:10326000B5F84019FFF783FCFFF74CFFE0694771A1
:10327000206A4770A781204627701630FFF701FCAF
:1032800020462C30FFF7D2FBFFF7B6FCE771607ADF
:10329000604948434018FFF741FC0120FDF76EF8F4
:1032A00061E00020FDF73CFC00F02EFAFEBD800737
:1032B0002CD50298616A401A0121090640180002C3
:1032C000000AFDF779F82D1A3078400715D5618A84
:1032D000002912D0208A41430818502148437838E9
:1032E000FDF774F84519A189608A0918A181A17AAE
:1032F0004143E0790818E07106E0208A50214843F4
:103300007838FDF763F84519434821E0208A0828FA
:1033100001D20121217141490D686178082903D248
:1033200050225043C90002E0502250434900401A45
:103330001038FDF74BF84519208A2D2801D9384857
:1033400006E0344948430321FCF7E4FE31494018C4
:10335000FFF7E4FB2846FFF70AFCA089401CA08188
:103360002846FCF7E5FF5120FFF704F978210020FB
:10337000FFF755F97A210020FFF751F95620FFF7A2
:10338000F9F8E079A17A4018C0B22521FCF7C2FE15
:103390001F4BE171CA0828339A5C4B0708465B0F44
:1033A000012199400A4204D1E17AFCF7B3FE1D489D
:1033B000405CA071C0B2FFF75CFB2078002811D000
:1033C000184901202531FFF713FA16496A462531BD
:1033D0000120FFF721FA6846017812482530FFF7EF
:1033E000F9FC27703078C10704D0400840003070E5
:1033F00000200AE02079002804D00020FDF790FB8F
:103400002771FEBD208A81080818FDF789FBFEBDE3
:103410004C010020E2040000A60E00002401002060
:10342000204E00008E05002010B5064800780007E9
:1034300004D500210846FFF783FE10BDFFF7A6FB69
:1034400010BD00004C01002070B50D46FDF75EF97F
:10345000002803D10A4C60781E2805D90020FEF709
:10346000F9F8FFF793FB70BD0420FFF723FBC3209F
:1034700040012818FFF745FB6078401C607070BD64
:1034800044010020704708B502216A4611700521E9
:1034900051700121817019218171811C0098FDF703
:1034A0006CFEFFF7EFFF08BDFFB58BB0149C1D4607
:1034B0001746E61C242101A8FCF75BFE0B9813219C
:1034C000084069460870E01D48700E71300A487166
:1034D000042088710020C8710C9808724F72380A55
:1034E0008872002001A904E02A5C0B18401CDA71E4
:1034F000C0B2A042F8D30098FDF73FFE0FB0F0BD78
:103500007047F8B50446827AC178007AE5790002FE
:103510000543A07809020843401F87B2667A10026B
:103520000643022069460870607848701720A07131
:10353000A11C0098FDF721FE214633463A460B3187
:103540002846FFF7DDFFF8BDF8B5374C069D074666
:10355000132A67D0152A02D0FDF70AFEF8BD002D08
:103560005CD0324EA0882A4630181946FCF7E8FD98
:10357000F078B17800020843A18842BA49198A421A
:1035800002D10021A18003E00904090CA18045D1EA
:103590003178FE2942D1717801293FD141BA707941
:1035A00032790002104342BA214D2048531B0830A3
:1035B000AA421FD007DC1F4BD21809D0012A0DD018
:1035C000022A28D110E0012B1AD0022B23D11DE0B2
:1035D0000839FEF7A2FCFEF7D7FC1CE00839FEF71D
:1035E0004AFEFEF782FE16E00839FEF719FDFEF7E7
:1035F000EBFD10E00839FEF7F0FDFEF733FE0AE0C0
:103600000839FEF7B8FEFEF7F5FE04E00839FEF7CC
:1036100075FEFEF7A7FE2078401C2070384600F0AB
:103620000BF8F8BD0120F8E7080000205002002048
:1036300031750000DFB1FFFF0EB507A106C9800795
:103640000091800F01926946087205204872029825
:10365000FDF793FD0EBD0000010004001300000003
:1036600070470000FEB50C4605460A2069461F4B10
:10367000164608700F2C25D006DC042C0ED0092C21
:103680000ED00B2C04D113E0132C1FD0172C23D0F9
:10369000224629463046FDF76BFDFEBD00901FE037
:1036A000FEF7F4FEFCF770FDC7B2FEF7EFFE06E092
:1036B000FCF7B8FFFCF768FDC7B2FCF7B3FF0346A1
:1036C00000970DE007200AA3009009E00020019078
:1036D000022001AB009003E006200090064803683A
:1036E000224629463046FDF7C5FDFEBD18000020E4
:1036F0005356322E312E320024000020000A01D011
:10370000022070470120704710B500F015F8002026
:10371000FCF734FEFDF764FF10BD73B50D4600984D
:10372000FFF717FA6846447828462146FFF70AFA59
:103730002046FDF7A3FA7CBD30B585B003A8FEF79F
:103740009FFE6946097B182902D918216A46117320
:1037500069460A7B1B4B511C1970002104E0445C34
:103760005D18491CAC70C9B29142F8D3002003E047
:103770009918521C8870D2B2192AF9D31149114AEA
:103780000C46203C2578123A03231B20002D01D043
:103790000D4A2B466578002D02D00B4928461F3173
:1037A00001910290A0896D46288006482038C17991
:1037B0002974007A687460890499FDF7FDFE05B0EC
:1037C00030BD00006C0000202C0300200328030003
:1037D000020400002AFF03280800020900292AFF2A
:1037E00003280A00020B00262AFF03280E00020FFE
:1037F00000282AFF03281100201200C8FEFF02291A
:1038000013000A000000000003281400081500C778
:10381000FEFF03281600021700C9FEFF000000008B
:10382000000000000000000000000000752D0008EE
:1038300000000000950F0008F90F0008FD0D0008BA
:103840002D0E0008C10F0008C10E00080100000085
:103850000000000049340008413100085D310008D3
:1038600029340008393200085554432B3800000031
:103870007A682D434E0000009838000800000020B0
:1038800088010000D40100080C39000888010020DC
:10389000500A0000EE0D0008F2021368381B087091
:1038A00004100A576543686174426C655212380D02
:1038B0000201060303E7FE09FF9C05FF01211564D1
:1038C000010179900B465620202E332E322E3113D3
:1038D000800912A01B842132011002220902230A4E
:1038E000197C012342252201021D101A81B81A58A1
:1038F000750B216FE89D71137605142028010224B1
:0C390000201A3C281A8230012000000030
:04000005080000B13E
:00000001FF
