:020000040800F2
:10000000B0080020C50000087B0A0008910800081D
:1000100000000000000000000000000000000000E0
:100020000000000000000000000000008511000832
:1000300000000000000000004F0D0008151300082C
:10004000F1000008F1000008F1000008F1000008CC
:10005000F1000008F9050008F10000080306000897
:1000600000000000F1000008F1000008F1000008A5
:10007000F1000008F1000008F1000008F10000089C
:10008000D91300080000000000000000F100000883
:1000900000000000F1000008F1000008F100000875
:1000A00000000000F100000800000000F10000085E
:1000B0000348854600F090F80048004735260008C0
:1000C000B00800200B4880F308880B480168090E2F
:1000D0000A4A914205D10A480A4901600A480B4977
:1000E00001600B480047FEE7FEE7FEE7FEE7FEE79C
:1000F000FEE70000B0080020040000001F00000020
:100100001810024001000000000001400000000043
:10011000B100000830B50B46014600202022012422
:1001200009E00D46D5409D4205D31D469540491B2B
:100130002546954040191546521E002DF1DC30BD74
:1001400070B500242546002801DA01244042002928
:1001500001DA01254942FFF7DDFFAC4200D0404201
:10016000002C00D0494270BD03460B439B0703D0CF
:1001700009E008C9121F08C0042AFAD203E00B786C
:100180000370401C491C521EF9D27047D2B201E0E4
:100190000270401C491EFBD270470022F6E710B5E2
:1001A00013460A4604461946FFF7F0FF204610BDE5
:1001B000421C0178401C0029FBD1801A704730B5E1
:1001C00004460020034600E05B1C934203D2E05C3F
:1001D000CD5C401BF8D030BD064C0125064E05E035
:1001E000E36807CC2B430C3C98471034B442F7D358
:1001F000FFF762FFA43D0008C43D000830B58C182D
:100200000278401C13071B0F01D10378401C120910
:1002100006D10278401C03E005780D70401C491C93
:100220005B1EF9D101E00B70491C521EFBD1A142AB
:10023000E6D3002030BD00001FB501F07DF801F0CD
:100240004DF80621374800F097FE01210903684662
:100250000180022181704821C17069460920C006D1
:1002600000F034FA0121684601802821C1706946F6
:100270000920C00600F02AFA052208210920C0063C
:1002800000F093FAFF21013168460180022181705C
:100290001021C17069460920C00600F017FA052236
:1002A00007210920C00600F080FA802168460180FD
:1002B000022181701021C17069460920C00600F03A
:1002C00005FA8021184800F099FA0121084600F04B
:1002D0006DFD0121080700F059FD0C21002000F000
:1002E00053FF0120000301900021684601720C2198
:1002F00041720121817201A800F092F9072168463C
:1003000001730221417381730121C17303A800F0BD
:10031000B5FB0321072000F0F5FB044800F0FCFAD0
:100320001FBD0000003001400004004800540040A0
:1003300010B500F0A7FA074A5169884208D2081A96
:100340000549884204D89189884201D9012010BD0D
:10035000002010BD54000020FFFFFF7F0246084828
:10036000007800280AD00020054B18700548008846
:100370001080054800880880012070470020FCE7B5
:100380000C000020080000200A0000200246074858
:100390000078002807D006480088108005480088AB
:1003A0000880012070470020FCE700000C000020BE
:1003B000080000200A000020014800787047000073
:1003C0000C00002000B587B00121022000F0DEFC07
:1003D0000121480400F0BCFC0021C9436846818229
:1003E000BF2101820021C182418204A9134801F08A
:1003F0002FF9102168460173022141738173012195
:10040000C17303A800F03AFB042168460180022171
:100410004180012181800021C18001816946074816
:1004200001F0ACF86021054801F0E6F8042103482A
:1004300001F0EEF800F03CF807B000BD0004004009
:1004400010B580210920C00600F0D6F910BD0000CB
:1004500038B5402480210920C00600F0CFF900BF44
:100460002046611ECCB20028FAD180216846018066
:100470000421C1700321817069460920C00600F083
:1004800025F9012207210920C00600F08EF901227A
:100490000421064801F068F80421044801F03CF802
:1004A0000121024801F03CF838BD00000004004082
:1004B00008B5002204210F4801F056F800210D482C
:1004C00001F02EF88021684601801021C1700321BF
:1004D000817069460920C00600F0F8F880210920E3
:1004E000C00600F08BF9002003490870034908702A
:1004F00008BD0000000400400E000020060000209F
:1005000010B50A4C607900280CD000F0BBF9616A84
:10051000884208D3401A01218902884203D2002070
:100520006071012010BD002010BD000020010020DE
:1005300070B5114C0025216A4A78002A07D04989F4
:10054000A289914203D101F047FB206A4570E1691D
:10055000487900280ED0C888A28990420AD106485E
:10056000E67905223030FFF7FFFD02F095FEE069E5
:100570004571E67170BD00009C00002010B5044676
:10058000002C01D1012100E00021084600F066FAAC
:1005900003480078844202D00148047000BF10BDB7
:1005A0002C00002072B603480078401C01490870F6
:1005B000704700000D00002010B50349CA6A096B9E
:1005C0005043FFF7A7FD10BD2001002010B50446E1
:1005D00008480849806A096B002804DB6043FFF77C
:1005E00099FD001910BD40426043FFF793FD201AAA
:1005F00010BD00002001002010B5012000F00AF815
:1006000010BD10B50120000300F004F8002001F037
:1006100023FE10BD014948617047000000040140FD
:10062000002121498279002A35D00A4612680368E0
:100630009A430B461A600A46526803689A430B466F
:100640005A60027951180A6803681A430A60164A08
:10065000926803689A43144B9A601A46D2680368FA
:100660009A43114BDA604279102A0CD11A469268EB
:1006700003681A430C4B9A601A46D26803681A43FF
:10068000094BDA600EE00849427951180A6803689C
:100690001A430A6006E00449027951180A6803689F
:1006A0009A430A6070470000000401400648007841
:1006B000401E0549087008460078002802DC00202A
:1006C000087062B6704700000D000020FCB50246BD
:1006D0000025002601960020002300240096CE78F5
:1006E00035072D0FCE7810273E40002E01D08E7892
:1006F00035430E78002E27D01468002021E0012613
:10070000864033460E881E400196019E9E4217D1B8
:1007100083000F269E4000962746009EB7433C4626
:100720002E469E403443CE78282E03D101268640A3
:10073000566105E0CE78482E02D10126864016612A
:10074000401C0828DBD314600E88FF2E2CDD546873
:10075000002026E0064608360127B7403B460E88B3
:100760001E400196019E9E421AD183000F269E4094
:1007700000962746009EB7433C462E469E40344393
:10078000CE78282E04D1064608360127B740576197
:10079000CE78482E04D1064608360127B7401761A7
:1007A000401C0828D6D35460FCBDF0B500230024BB
:1007B0004D07EE0E1546B5402B46CD10002D0BD142
:1007C000056A4E07F70E0F26BE40B5430562056A5F
:1007D0001D432C4604620AE0456A4E07F70E0F26B9
:1007E000BE40B5434562456A1D432C464462F0BD98
:1007F0000146886880B27047416170470161704767
:1008000013B56A46127813200240094802706A46FE
:1008100054784470002C03D02246801CFFF7A4FCBF
:100820000349A41C0846E2B2083802F029F81CBDAE
:10083000FC00002001488078704700002001002063
:100840000148C0797047000020010020092070474E
:10085000074808490078020930320007000F8A7003
:10086000092801D8303000E03730C870014870479F
:10087000920000204800002030B50546039C00206F
:1008800030BD000001480068704700001C000020D7
:1008900000BFFEE710B51C4A10601C4A1170002210
:1008A0001B4B1A7000BF194A1278194B1B78D21AC9
:1008B000012A0ED1164A13781278521C144C227059
:1008C000114A1268D25CFF32FF320232114B1A8297
:1008D0000AE00F4A13781278521C0D4C22700A4A13
:1008E0001268D25C0B4B1A8200BF0A4A4032126B6C
:1008F00004231A40002AF8D0054A1278034B1B78CB
:100900009A42D0DB10BD000000000020040000204F
:10091000050000200054004038B504461A488442BF
:100920001FD10121480500F031FA0121480400F0EF
:100930000FFA0321490268460180022181701C21BF
:10094000C17069460920C006FFF7C0FE04220921D4
:10095000C806FFF72AFF04220A210920C006FFF774
:1009600024FF00216C200153FF20643020803C20B4
:10097000A0801820A082208300202087A0872086C6
:1009800001216C20015338BD005400400148024948
:1009900008607047CCCC00000030004001460020C9
:1009A000044AD2680A40002A01D0012000E0002059
:1009B000704700000030004001480249086070475D
:1009C000AAAA0000003000400149486070470000BA
:1009D000003000400149886070470000003000404E
:1009E00001490860704700000030004010B501F078
:1009F00033FD002810D0FFF7DFFC00280CD007489B
:100A0000006B20210840002806D105480069FB2121
:100A100008400349086120BF10BD00004054004059
:100A200000ED00E010B50920C006FFF7E1FE010B64
:100A30000120884310BD000010B5074C2079002824
:100A400008D0FFF71FFFA169884203D3002020715F
:100A5000012010BD002010BD54000020002805D04A
:100A6000FF2101310922D206516104E0FF21013149
:100A70000922D206116170477047704770B5002196
:100A800000230F22C478002C25D01C4CE4680725D5
:100A90002D022C402C1B210A0424631A1446CC403E
:100AA000224644789C402146847814402143090121
:100AB000134C03252D0264190578AD0061510478AB
:100AC000E506ED0E0124AC4005786D11AD000C4E2D
:100AD000AD192C600AE00478E506ED0E0124AC4067
:100AE000074D803506787611B600AC510478641154
:100AF000A400034D6419236870BD000000ED00E000
:100B000000E100E010B5002819DA1A4A03071B0FAC
:100B1000083B9B089B00D2588307DC0EFF23A340B1
:100B20009A438B071B0E8407E40EA3401A43114B14
:100B30000407240F083CA408A4001A5118E00E4A28
:100B400003231B02D21883089B00D2588307DC0EB4
:100B5000FF23A3409A438B071B0E8407E40EA34098
:100B60001A43054B032424021B198408A4001A51BC
:100B700010BD00001CED00E000E100E070B5D320E6
:100B800000F0C6FD002000F0C3FD402000F0C0FDD5
:100B9000002415E02146B031C8B200F0B9FD0020B4
:100BA00000F0B6FD102000F0B3FD002504E00020A9
:100BB00000F0BCFD681CC5B2802DF8DB601CC4B21F
:100BC000082CE7DB70BD000010B500240CE02146C6
:100BD000242000F09DF838216143054A8818382107
:100BE00000F0B2FD601CC4B2072CF0DB10BD0000A9
:100BF000DF3B0008F8B504460F461546002000907C
:100C000000261BE0A85D2038C0B200907E2C02DDDB
:100C10000024781CC7B23946204600F079F80098C5
:100C20005F2807DA062200995143064A88180621F0
:100C300000F08AFDA01DC4B2701CC6B2A85D0028D9
:100C4000E0D1F8BDA539000810B5AE2000F060FD78
:100C5000002000F05DFD102000F05AFD402000F063
:100C600057FDB02000F054FD812000F051FDFF2021
:100C700000F04EFDA12000F04BFDA62000F048FD45
:100C8000A82000F045FD3F2000F042FDC82000F004
:100C90003FFDD32000F03CFD002000F039FDD520C1
:100CA00000F036FD802000F033FDD82000F030FD4C
:100CB000052000F02DFDD92000F02AFDF12000F0E4
:100CC00027FDDA2000F024FD122000F021FDDB20BA
:100CD00000F01EFD302000F01BFD8D2000F018FDFF
:100CE000142000F015FDAF2000F012FDFFF746FFC5
:100CF000FFF76AFF02A207210C20FFF77BFF10BD60
:100D00004D5331373933204556422076312E31004C
:100D100070B504460D462946B031C8B200F0F8FC63
:100D2000F021214009110846103000F0F1FC2007A5
:100D3000000F00F0EDFC70BD10B505E00120FFF7DD
:100D40002DFE002800D100E0F8E700BF10BD70477D
:100D500010B50246002000230B4C60690F242406C6
:100D600004402346DB09C0B204461C432046002948
:100D700003D01043044C606104E0044694432046D1
:100D8000014C606110BD000000100240002905D038
:100D9000054AD2690243044BDA6104E0024AD2698F
:100DA0008243014BDA61704700100240002905D0F0
:100DB000054A92690243044B9A6104E0024A92692F
:100DC0008243014B9A6170470010024010B5014602
:100DD0000022002300204A11012A02D10A4C236874
:100DE00006E0022A02D1084C236A01E0064C636A3D
:100DF000CA06D20E012494401C40002C01D00120D0
:100E000000E0002010BD00000010024002484068D1
:100E10000C2108407047000000100240002806D056
:100E20000649496A01221143044A516205E0034917
:100E3000496A49084900014A51627047001002405E
:100E400001460020044A50688008800002460A4398
:100E50001046014A506070470010024010B505E08E
:100E60000220FFF79BFD002800D100E0F8E700BF5B
:100E700010BD000010B518480078002809D10120E5
:100E800015490870FFF7FEFC14490860FFF7D8FA0F
:100E900021E011480078012810D1FFF7F3FC0F4939
:100EA0000968401A132816D902200B490870FFF769
:100EB000E9FC0A490860FFF7CBFA0CE00648007825
:100EC000022808D1FFF7DEFC04490968401A062809
:100ED00001D9FFF7EDFA10BD060000201000002038
:100EE0001FB502246B461C730A2159730621197021
:100EF0000021597005229A70D97001221A715A7115
:100F00009C71D9711872000A587219460398FFF73C
:100F100077FC1FBDF0B585B002246D462C701024FF
:100F20006C700C242C7100266E710524AC71EE716E
:100F300012242C720F4D2C78002C01D101242C701E
:100F4000E4B26F467C72641C2C700824BC72FE7282
:100F50003873000A7873B973080AF8733A74100A80
:100F60007874BB74180AF87401A90098FFF748FC5C
:100F700005B0F0BD9100002030B585B004460D46A7
:100F8000384884424FD101218014FFF70FFF3548C4
:100F90002030008934490843324920310881012139
:100FA00003204004FFF7D4FE002205212F48FFF75D
:100FB000FCFB002204212D48FFF7F7FB0022032150
:100FC0002A48FFF7F2FBA1156846018003218170D2
:100FD0001021C17069462548FFF778FBA115234809
:100FE000FFF70CFC0821684601800321817018215D
:100FF000C17069461D48FFF769FB202168460180E2
:10100000032181701821C17069461848FFF75EFB03
:10101000102168460180032181700421C170694656
:101020001248FFF753FB0421684681800021C180EC
:101030000821018100214181012181810021C1819B
:101040000582418201A9204600F060F80121204676
:1010500000F04EF8204600F012F8204600F008F8A4
:1010600005B030BD003001400100FFFF0004004822
:1010700010B504461021204600F008F810BD10B548
:1010800004460821204600F001F810BD082903D1CC
:10109000028B08231A430283102903D1028B1023E9
:1010A0001A430283074A914203D1028B0B461A402E
:1010B0000283044A083A914203D1028B0B461A403C
:1010C00002837047F7FF000010B5FF21013102488D
:1010D000FFF794FB10BD00000004004810B5FF218D
:1010E00001310248FFF788FB10BD000000040048F2
:1010F000002904D0028B01231A43028303E0028BF0
:10110000014B1A4002837047FEFF000010B50246F3
:101110000020108B0F231B0318404B884C8923435E
:101120000C88234318431083908B094B18408B88FD
:10113000CC892343CC8823430C89234318431023B1
:1011400003439383108C00208B891843108410BDB7
:10115000C0FF000002460A48026000BF084800893C
:10116000C007C00F0028F9D000BF0548008902233E
:1011700018400028F9D002484068C0B2704700000B
:10118000003001407047000030B500228B071C0F73
:101190000F23A3401A460B4B8C10A4001B599343FA
:1011A000084C8D10AD00635123468C10A4001B59D0
:1011B0008C07250F0446AC402343024C8D10AD0034
:1011C000635130BD0800014001494870704700007C
:1011D000E000002001490120887070475400002081
:1011E00002494A6910184861704700005400002005
:1011F00070B50446034D01202871FFF743FB001929
:10120000A86170BD5400002001460020294A1268E0
:1012100001231A43274B1A6000BF264A1268022393
:101220001A40002AF9D05A02224B5A601A465268D4
:1012300001231B049A431F4B5A601A46126801236C
:101240001B069A431B4B1A601A4612681F239B0603
:101250009A43184B1A601A4612684B1E9B061A4393
:10126000144B1A601122144B1A60124A126801239F
:101270001B061A430F4B1A6000BF0E4A1268012367
:101280005B061A40002AF8D00A4A52689208920077
:10129000084B5A601A46526802231A43054B5A609B
:1012A00005E0044A52689205100E8007800F02285C
:1012B000F7D17047001002400020024010B500F046
:1012C0000BF8FFF7DFFA03491E304862012048712E
:1012D00010BD0000200100207047704710B50A4C77
:1012E000601E0A49884200D90CE0601E0849486126
:1012F0000321081FFFF706FC00200549886107202D
:10130000086100BF10BD000080BB0000FFFFFF00B0
:1013100000E000E010B506480068401C0449086081
:1013200004480088401C0349088000F07FFF10BD7E
:101330001C0000202000002010B50420FFF764FFEF
:101340000220FFF77DFD00BFFFF760FD0828FBD1FD
:1013500010BD0000F0B50C4600210025068C0A4F98
:101360003E400684018B058C074EF23E31401E053F
:10137000360C16433143044E093E354001262643C0
:10138000354301830584F0BDFEFF0000F8B50C462F
:101390000021002500260096068C0D4F3E40068455
:1013A000018B058C2605360C00960A4E31401E072F
:1013B000360C31431606360C3143054E903E35400F
:1013C0001027009E3E43354301830584F8BD00008D
:1013D000EFFF0000FF0C000070B500240421474817
:1013E00000F0AFF800287CD00421444800F094F8C5
:1013F000424800F0A3F884B241480078401C4049BC
:10140000087008460078012845DD192C21DB0A46C2
:101410001278901EC217520F1218D210394B9A5CD4
:101420000B461B78991ECB175B0F5B18DB10DB009C
:10143000CB1A0725ED1A0123AB401A43D3B2304A29
:101440001278901EC217520F1218D2102D4DAB54A5
:1014500021E0192C1FDA2A4A1278901EC217520F67
:101460001218D210274B9B5C254A1278911ECA177E
:10147000520F5218D210D2008A1A0725AD1A012233
:10148000AA4093431E4A1278901EC217520F121898
:10149000D2101C4DAB541A48007828282CDD19486E
:1014A0000078184949784018164989784018154934
:1014B000C978401813490979884213D11148007836
:1014C0000A2148430F49497840180F4908800D48C0
:1014D00080780A2148430B49C97840180B49088095
:1014E00005E009E00A480849088008490880012009
:1014F00008490870FEF7DCFF70BD000000040040E2
:101500000E00002014000020080000200A00002027
:10151000E70300000C000020CA430282704700006D
:10152000002904D0028801231A43028003E00288C4
:10153000014B1A4002807047FEFF00000146088FF1
:10154000704730B50246002000230024158A0D4064
:101550002B4695890D402C46002B03D0002C01D042
:10156000012000E0002030BD002A03D083890B4316
:10157000838102E083898B4383817047F8B50546F8
:101580000C46002601276088002801D1022600E0D1
:101590000026A088012801D1022700E00127208829
:1015A000002814D12389A28861882846FFF7D2FE3B
:1015B000E188284600F036F823893A463146284625
:1015C000FFF7E4FEE188284600F036F813E02389AF
:1015D000A28861882846FFF7D9FEE188284600F0F6
:1015E0002BF823893A4631462846FFF7B3FEE188B7
:1015F000284600F017F8F8BD0A4600210189034B80
:1016000019400B4613431946018170478FFF0000B4
:101610000289034B1A40028102890A430281704702
:10162000F8FF0000028B034B1A400283028B0A432F
:1016300002837047F3FF0000028B044B1A400283C1
:10164000028B0B061B0C1A4302837047FFF300004A
:1016500000220288104B984206D001239B07984233
:1016600002D00E4B984203D10D4B1A404B881A43BF
:1016700002808B8883850B880385074B984205D0B1
:10168000084B984202D0084B984201D10B7A03864E
:101690000123838270470000002C014000040040B9
:1016A0008FFF000000440140004801400521C001B7
:1016B000090240180149486070470000600100209D
:1016C00010B500F07DF810480078002802D10F49CD
:1016D000088010BD0D480088401C0C490880084651
:1016E00000881E280DD101F0ABFD282806DA7D23E5
:1016F000DB00002250210846FFF70CFC00200349C4
:10170000088000BFE5E700002C0000203200002028
:1017100010B50446002004490870084644700221B0
:10172000FFF7B8F810BD00008401002010B5044692
:10173000402004490870084644700221FFF7AAF8C7
:1017400010BD00008401002070B506460D46402003
:1017500008490870002404E0315D064A601C1154F9
:10176000C4B2AC42F8DB681CC1B20248FFF792F881
:1017700070BD00008401002070B504460D460120B4
:10178000FFF74CFB00BF6120FFF720FB0028FAD0D9
:10179000FFF7D2FA0948FFF723F9E0B2FFF714F98F
:1017A000FFF75CFB0548FFF71BF92805000DFFF765
:1017B00011F9FFF701F9FFF7E9F870BD5555000081
:1017C00010B5FFF7F9F810BD0FB410B504A9074B19
:1017D00002AA039800F028F8044602A9002000F0AD
:1017E000CBF8204610BC08BC04B018477919000893
:1017F00030B47446641E2578641CAB4200D21D468A
:10180000635D5B00E31830BC184702E008C8121F94
:1018100008C1002AFAD170477047002001E001C1D9
:10182000121F002AFBD17047FFB58DB0044600257A
:1018300006E025280AD0109A0F999047641C6D1C69
:1018400020780028F5D1284611B0F0BD00270121ED
:10185000484A009700E00743641C23780846203B71
:1018600098401042F7D120782E2817D10420074342
:101870006078641C2A280CD10E98641C02C8009160
:101880000E900BE000990A22514330394018641C35
:1018900000902078014630390929F3D920780028B2
:1018A000D1D0642808D0692806D075281ED0109A97
:1018B0000F9990476D1C5BE00A200E99019001C9B9
:1018C0000E91002802DA40422D2102E0390504D5AC
:1018D0002B216A461172012103E0F90704D020216F
:1018E000F7E70BAE0B910DE00021FAE70A200E9905
:1018F000019001C90E91F7E70199FEF70BFC303119
:10190000761E31700028F7D103A8801B203001908B
:10191000780701D5009801E00120009001998842E4
:1019200001DD401A00E000200027009006E002A838
:10193000109AC05D0F9990476D1C7F1C0B988742D1
:10194000F5DB04E0109A30200F9990476D1C009948
:10195000481E00900029F5DC05E03078109A761CCE
:101960000F9990476D1C0199481E01900029F4DCE5
:10197000641C65E7092801000A68531C0B6010709D
:1019800070470000090710B5090FC00705D00329EB
:1019900002D1022001F052F910BD0548007900285B
:1019A00002D0FFF78BFC10BD01F0B4F910BD0000B0
:1019B00020010020F8B50746204C0020207108784F
:1019C00016460007000F0D46032802D0052822D135
:1019D00017E0812000013818A06101F056F917487E
:1019E0006946C0890880009801F0F4F86178A06B1E
:1019F00001F0FCF860780121C001C9024018606163
:101A000011E0002E07D0284606220D490830FEF7C7
:101A1000D6FB002802D001F07DF904E032462946C9
:101A2000384600F0D3FB532000F0A4FE0549042003
:101A300000F0C9FE562000F09DFEF8BD20010020F8
:101A40008B0000209F00002070B5334C0546E079E4
:101A5000002823D0A078401CA070A079002801D0D5
:101A60002820A07020790026002808D0206A091AB2
:101A7000E069281A00F066FBE67026716681FF2097
:101A8000193001F00FF9A078272815D801F0B5F822
:101A90000020FFF7A5FB01F04AF970BD512000F0CE
:101AA00069FE7821202000F0BAFE562000F062FE88
:101AB0006420FFF795FB70BD2520A0702069FEF71C
:101AC00085FD451920698009FFF78AFB284601F04A
:101AD00012F9A07801F091F8512000F04BFE782126
:101AE000002000F09CFE7A21002000F098FE562095
:101AF00000F040FE05212069C901884208D9207AFA
:101B0000401CC0B22072172802D3267200F0CFFE0C
:101B10006089401C608170BD2001002010B509491A
:101B20002520887001F069F8FF20193001F0BAF81B
:101B3000002001F078F801F0FAF8002001F086FBAF
:101B400010BD00002001002010B50C4800780007EF
:101B500002D001F0DFF810BD782001F0A3F80120D9
:101B600001F06CF805480C3881694069081891212A
:101B70000901401801F089F810BD00002C01002077
:101B800070B506460D46022001F058F82320C0012A
:101B9000104C2818A06101F078F8E06801F01AF8FC
:101BA0002178606B01F022F820780121C001C90280
:101BB00040186061A07825280AD1E6612562608915
:101BC000112802D2E078002802D00120E0702071B4
:101BD00070BD00002001002070B50E4C0546206A43
:101BE000017861724088E08150214843FEF7EEFCA5
:101BF000401901F080F8206A81882182C1886182C1
:101C00000089A082607A04494843401801F04AF8EC
:101C100070BD00009C000020E204000070B5044686
:101C200000781C4D4006C00F687128460622A11C92
:101C30003530FEF799FA0E342846042221462C301E
:101C4000FEF792FA28460322211D1630FEF78CFA81
:101C5000E0796872617A207A09024018E881E17AB5
:101C6000A07A090240182882617B207B0902401873
:101C70006882E17BA07B09024018A88221462846A1
:101C8000052210313030FEF76FFA607DC006C00EBD
:101C9000A87270BD9C0000207FB50AA470CC80079C
:101CA0000194800F039602956C46207009206070A5
:101CB0006172A272100AE072237301A9009800F009
:101CC00020F87FBD050004000100000000000000B6
:101CD0000EB507A106C980070091800F01926946E1
:101CE000087207204872029800F00BF80EBD000041
:101CF000030004000317000010B50A23FFF7CCFF10
:101D000010BD10B5FEF77CFD10BDFFB587B01E46B7
:101D10006F46109B119A054638710920787105208D
:101D20000C463872002179720420B872F972601C76
:101D3000387301207873B973F8730520C0023974C1
:101D4000834213D105A8009006AB31460998FEF7EF
:101D500093FD00280AD06946088B4873888AC873A7
:101D600002A90198FFF7CDFF0BB0F0BD2146284630
:101D7000099AFFF7C1FFF7E7FFB587B00798174645
:101D80008007800F6A4610700A2050700020507142
:101D900006211171D0710421917105211172012167
:101DA00051721E46D0720446134D1AE020460A2195
:101DB000484341194988B94211D3B1420FD80A2189
:101DC0004C43611989786A469172285A1073000A47
:101DD000507301A90098FFF794FF0BB0F0BD641C8D
:101DE000E4B2FEF733FDA042E0D83A4608990798DE
:101DF000FFF782FFF1E70000EC380008F0B589B08A
:101E00000E4607461D461C2101A80E9CFEF7C5F98B
:101E1000B807800F69460870601D4870601C087123
:101E2000000A4871042088710020C871761C0E7267
:101E300001A904E02A5C0B18401C5A71C0B2A042F0
:101E4000F8D30098FFF75DFF09B0F0BDFEB5064678
:101E50000F461446089D0520C00285420DD1012C75
:101E60000BD122A000680190022001AB06220121C3
:101E70000090304600F040F8FEBD0520C0028542CB
:101E80000DD1072C0BDC1AA000680190022001ABD9
:101E90000F2207210090304600F02EF8ECE70520D5
:101EA000C00285420AD1102C08DC0220114B1522F9
:101EB00010210090304600F01FF8DDE70520C00239
:101EC00085420BD1162C09DC02200A4B2033192243
:101ED00016210090304600F00FF8CDE72246394633
:101EE0003046FFF709FF00BFC6E7000000180000FA
:101EF0000A18000056390008F0B589B0844600245D
:101F000068460E9D0471447104268671C4711126C1
:101F100006722E1D46728172C472027344730A20C7
:101F200001AF002105E05A5C3A54401C491CC0B284
:101F3000C9B2A942F7D3011F6A46117161468907E8
:101F4000890F1170507039460098FFF7DAFE09B01A
:101F5000F0BD0000FFB589B0099815218507129ED4
:101F60004902AD0F1F468E4221D1684600F04AFB60
:101F7000014668460571002343710078801CC2B297
:101F8000122A00D91222941C6D462C72200A687203
:101F90000426AE72EB72092028736A73AE73EB737A
:101FA00004A8921EFEF7E0F8241D6C713FE0614822
:101FB00086423ED10B9807283BD15F480078002825
:101FC00037D06B461D7117211972002159720421F7
:101FD00099720021D97209210720197358730820BA
:101FE00098730020D87302201874597400219974D2
:101FF0002921D9742A2119750A225A7500249C7541
:10200000D8750B251D7600255D7626259D760E223A
:10201000D9761A7700225A7798770F24DC7708ABA5
:102020001A702820587099701B206B46587102A9AD
:102030006FE0FF2F00D9FF27002471E020460A211E
:1020400048433E490A5AB24268D1411848880B9A1F
:10205000904263D3B84261D8364A521E964223D189
:102060000A226E463272002373720422B272F37235
:1020700009223273082272730A2254432F4AA2188B
:102080009278B273000AF073002002AA0B18141899
:10209000401C1B79C0B223720528F7D3487A7075AB
:1020A00035710E20707133E009266F463E720023B1
:1020B0007B720422BA72FB723E7307227A730A2281
:1020C00054431E4AA2189278BA73000AF87318464D
:1020D00002AA0B181418401C1B79C0B223720528E1
:1020E000F7D33D710D207871497AFF2910D0144B38
:1020F00000200901C9180B5C1418401CC0B2E3721F
:102100001028F8D31B2078711720387215207873A7
:1021100011460198FFF7F5FD0DB0F0BD641CE4B267
:10212000FEF794FBA04289D809AB07CBFFF7E4FD8B
:10213000F2E700000328000042000020EC3800080D
:10214000463900084B22D200084B821A9A420CD220
:102150007D22D200064B8A1A9A4206D2FA224243C4
:10216000531A044A93621163D0627047A81D00009D
:10217000196618002001002010B5FFF7AEF800F036
:10218000C9FD10BD7FB52821484307490A9D099C18
:102190006E460861B08888814A630B700846328CAD
:1021A000C2818C634D707FBD20010020034902482D
:1021B0000860406800470000883D00085C0100207E
:1021C00001480078704700006001002070B50846A3
:1021D000114B104919601146FFF720FD012000F056
:1021E0001FF80E49012208780C461043F1221040D6
:1021F0000870083C208A4100A08A814200D288B23F
:102200000A214843FEF7F4FF0025A57000F082FD87
:10221000657070BD683D00085C010020A4000020CE
:1022200001490870704700006001002010B508489F
:10223000807800280AD0074800680078002805D177
:10224000FEF75EF9002801D0FFF796FF10BD0000F1
:10225000540000205C0100207CB57A4CA178032951
:102260000BD001297ED0022901D10321A170208148
:1022700001F0DCFAA078002874D10020E070724EE2
:10228000724D0BE0E078022808D1FEF751F80028E3
:1022900004D0A078002801D1FEF7EEFB306800786A
:1022A00000280ED1A078002805D1FEF729F90028D2
:1022B00001D0FFF761FFFEF7C3FA002801D1FFF755
:1022C000FFF9FEF7AFFB00287ED05E48C01C00F08F
:1022D00067FCE07800F0E5FAE078C10710D06946C5
:1022E00001A800F02DFB5A4800990160594A019855
:1022F0001060326892689047FEF7C4FA606191E01E
:10230000810715D5694601A800F01AFB00F002FD0F
:1023100030680099826901989047FEF78BFA25286A
:1023200003D03068007801287CD1FFF7C9F979E043
:10233000C10603D530684069804773E001062DD59A
:10234000306842490078002815D0012000F014FBC5
:10235000697828780902401881B23068C268012083
:10236000904700E06CE0E078410610D5694601A88E
:1023700000F0E6FA27E0002000F0FEFA69782878FD
:102380000902401881B23068C268012027E0800647
:1023900048D5694601A800F0D3FA36E0410618D5C1
:1023A000694601A800F0CCFA3068007800280AD10C
:1023B00028780007000F052805D1224A2349521D1D
:1023C000002000F0EDFA00E034E030686A7803693C
:1023D00024E0410705D530680021C26808469047CF
:1023E00020E0010703D50020FFF71AFF18E0800660
:1023F00016D5694601A800F0A3FA306801780029D3
:102400000AD01249012000F0B7FA30686A780369EF
:1024100000210098984705E0036900220B49F8E77E
:1024200000F078FCA078002800D12BE7E078802825
:1024300006D127E7A0780028F7D0E0780028F4D16B
:102440007CBD0000540000205C01002043020020FD
:10245000680100206C01002010B5074CE0780228CC
:1024600006D1FDF765FF002802D0A078032801D02F
:10247000002010BD012010BD5400002070B505469D
:10248000FEF700FAC41CFEF7FDF9A042FBD3034996
:10249000022088702846FFF7DFFE70BD5400002040
:1024A00010B50C461F2900D91F24014622460548B5
:1024B000FDF75AFE04480470801DA41D447001F00D
:1024C000CDF910BD050200205400002070B50D4666
:1024D000124A01461078002809D0401E10700026CC
:1024E00056705068092806D0401C506005E0012055
:1024F0005070002070BD304656600C22084B42439D
:10250000D41842018018074A80182A462060FDF737
:102510002BFE25712046A66070BD0000D80000206B
:1025200008040020BC02002010B500F0D6FB0020FB
:10253000FFF7BCF810BD00001CB50021019100910F
:102540002C480078401C2B490870694601A8FDF70B
:102550001DFF002800D11CBD69460888C117C90DA0
:10256000091849124902411A8AB200920A216846A2
:102570008088FDF7E5FD81B201911E48007814289E
:1025800023DB00201B49087012201B490880684685
:102590000088FF280ADC0020184908706846008877
:1025A00048700221154800F055FE21E00120134932
:1025B0000870684600884870684600880012887075
:1025C00003210E4800F046FE12E00A4800780A286F
:1025D0000ED1684680880A4908701820064908808C
:1025E0000121074800F036FE01210548FEF752F9A7
:1025F00000BFB0E7310000202A0000202E0000209C
:102600002D00002001460720087001487047000097
:102610002200002000A070474D475F424C455F4CB0
:1026200049425F56332E3000014800787047000061
:10263000D800002086B00024611E05910491FDF7AA
:10264000FBFDFDF7BFFEFEF7FFFAFEF7C3FD3A49BB
:10265000432000F0F7F90F213848FFF721FF002051
:102660003749086000BF364800687D21C9008842AC
:10267000F9D934490320FFF77FF8FF204130FFF7F5
:10268000FDFEFEF77BFA00202F49088053E0FEF79D
:10269000ADF9FDF791FE002801D1FEF7EBFB2A48CA
:1026A00000887D210901884245DB002026490880F9
:1026B00004A905A8FDF752FE002820D00A2168468B
:1026C000008AFDF73DFD0D460A216846008AFDF7A8
:1026D00037FD06460A216846808AFDF731FD0F4620
:1026E0000A216846808AFDF72BFD3B46024617A16A
:1026F0000096019503901B48FFF766F80FE0FDF781
:10270000D7FE00201049088000BF0F480088FF2135
:10271000F5318842F9DB14A11248FFF755F8072C70
:1027200002DD0024FEF72AFA2146621CD4B20D4ACB
:102730000020FEF75FFAAAE734000020963900086F
:102740001C000020E20400002000002020483A2065
:1027500025642E2564252520543A2025642E2564E1
:102760002743000038000020205265616420657214
:10277000726F720010B50446FEF7B0FC01215020C4
:10278000FEF7E8FC01212046FEF7E4FCFEF79CFC86
:1027900010BDF8B515460E460446FEF79FFC012114
:1027A0002046FEF7D7FC0746002406E00021FF2064
:1027B000FEF7D0FC3055641CE4B2AC42F6D3FEF711
:1027C00083FC3846F8BD70B50C460546FEF786FC1E
:1027D00001212846FEF7BEFC0021FF20FEF7BAFCCF
:1027E0002070FEF771FC70BDF8B516460D46044624
:1027F000FEF774FC202020430121FEF7ABFC0024EF
:1028000007E0287801216D1CFEF7A4FC641C074634
:10281000E4B2B442F5D3FEF757FC3846F8BD70B5C4
:102820000D460446FEF75AFC202020430121FEF706
:1028300091FC01212846FEF78DFCFEF745FC70BD9A
:102840000168002902D14068002801D000207047AB
:102850000120704700210160416002490A20087090
:1028600070470000D80000200268136812790A70CF
:10287000016889680160002900D1416018467047ED
:1028800010B50B46044611461846FFF71FFE0028F8
:1028900006D06168002901D0886000E02060606097
:1028A00010BD10B501460E20FFF7B9FF10BD1CB5D5
:1028B0005320FFF75FFF03211F20FFF7B0FF01A99F
:1028C0001F20FFF780FF684600790028F7D1032119
:1028D0001F20FFF7A4FF01A91F20FFF774FF684620
:1028E00000790028F7D101211520FFF798FFA021DA
:1028F0001220FFF794FF04210A20FFF790FF002128
:102900000A20FFF78CFF88211220FFF788FF01249F
:1029100069460C702120487002221320FFF764FFE3
:1029200069460C702020487002221320FFF75CFFDC
:1029300000211520FFF773FF5620FFF71BFF1CBD7A
:102940007CB50D460446062269461020FFF721FF9C
:10295000694648790B7902041802C97810184018A2
:102960006946206088784978000409024018694661
:102970000978401828607CBD1CB50C4600280BD097
:10298000022269460620FFF704FF6846007820709F
:102990006846407860701CBD022269460420F2E758
:1029A0007CB515460C46002809D06278901C28702A
:1029B000002A03D0A11C6120FFF7EBFE7CBD0222A0
:1029C00069460420FFF7E5FE68464078801C2870C1
:1029D00068460078207068464078607068460078E5
:1029E00025460107090F6846407808350B00FEF7B9
:1029F000FFFE0605080513041904DFE70622A11CE3
:102A000008E00C28DAD10622A11C0A20FFF7C1FE3B
:102A1000062229460B20CFE70C28CFD106222946D3
:102A20000A20C9E72228C9D10622A11C0B20FFF7E2
:102A3000B0FE062229460A20FFF7ABFE16222146E9
:102A40000E31B8E77CB50646002468460471524D45
:102A500051200D60FFF78EFE01A91F20FFF7B3FE86
:102A6000684601798029F7D14C491E20FFF7ABFE5B
:102A700078210020FFF7D3FE06210846FFF7CFFE9E
:102A80007A210020FFF7CBFE5320FFF773FE0021D1
:102A90001520FFF7C4FE02210120FFF7C0FE1E2112
:102AA0001D20FFF7BCFE304600F0E4F800A9082026
:102AB0000131FFF788FE68464078384E002807D17C
:102AC00030781B2801D2152000E01120694648709B
:102AD000C020694608702D20887003220420FFF76B
:102AE00083FE69460C704C7002220C20FFF77CFEBE
:102AF00030788024192843D01C20694608704C7017
:102B000002221420FFF770FE10206946087002268A
:102B10004E7032460A20FFF767FE69460E7012209B
:102B2000487002220D20FFF75FFE01206946087001
:102B30000720487002220E20FFF756FE0322694646
:102B40000B20FFF726FE40206946C87004220B20A8
:102B5000FFF74AFE69460C7001220C20FFF744FE85
:102B60005620FFF707FEFF210E20FFF758FE062232
:102B700009490820FFF70DFE68796D2802D008E0AA
:102B8000CC20BAE7ED206871062203490820FFF740
:102B90002BFE00F0BFF87CBD8B00002092000020CF
:102BA00038B5044669460E20FFF70DFE68460178E9
:102BB000217038BD1CB501786A461170417851709A
:102BC00081789170C078D070042269460C20FFF79C
:102BD0000BFE1CBD01B582B06946087A0870487AC0
:102BE000487002220320FFF7FFFD0EBD0A4610B514
:102BF0000146A020FFF7F8FD10BD10B5282803D22C
:102C000001460120FFF70BFE10BD1CB501786A4696
:102C100011704178517080789070032269460D20C0
:102C2000FFF7E2FD1CBD1CB5FF216A461170507014
:102C3000022269460E20FFF7D7FD1CBD10B50428FF
:102C40000BD001280BD002280ED003280ED0052867
:102C50000ED0062807D1042102E0022100E009215C
:102C60000220FFF7DCFD10BD0C21F9E70121F7E799
:102C70000321F5E708B502216A46117050700A4633
:102C800069460F20FFF7B0FD08BD1CB56A461070FD
:102C9000010A5170000C9070032269460720FFF76B
:102CA000A3FD1CBD1CB56A461070010A51700021BD
:102CB00091700549884201D901209070032269462C
:102CC0001120FFF791FD1CBDFFFF00000A4610B563
:102CD0000146A020FFF788FD10BD01B582B069460E
:102CE000087A0222C006C00E0870487A4870052093
:102CF000FFF77AFD0EBD1CB500216A4611705070B9
:102D0000010A9170000CD070042269460F20FFF771
:102D10006BFD1CBD1CB5022069460870FF20487081
:102D20008870C87004220F20FFF75EFD1CBD10B52F
:102D300001210F20FFF773FD10BD000038B50546D7
:102D400000230C4610460093FFF77AFD002802D0BE
:102D50002B70237038BD69461046FFF785FD01468C
:102D6000684602782846FDF7FFF96846007820702B
:102D700002480178491C017038BD0000D8000020CD
:102D800010B5054803498160002141701430FFF7F8
:102D900061FD10BD843D0008E00000207047000088
:102DA00000B587B0182207A16846FDF7DDF90B488A
:102DB000032101701821417000686946FDF720FD6C
:102DC00007B000BD101000280001002C01182000E1
:102DD0000300FFFFFFFFFFFFFFFFFFFF7801002061
:102DE0001CB500228C070C490092A40F01920C70B4
:102DF00006244C7002236C46237062700279A27024
:102E00004079E0700D2020711A20607108686946D1
:102E1000FDF7F6FC1CBD0000780100200EB507A0F0
:102E200007C86B4607C30848032101700921417098
:102E300000686946FDF7E4FC0EBD000009000000D3
:102E40000000000000000000780100201CB50022F6
:102E50008C070C490092A40F01920C7006244C7050
:102E600002236C46237062700279A2704079E07090
:102E7000052020713720607108686946FDF7C0FCA5
:102E80001CBD00007801002010B589070548890F96
:102E90000170002141700068FFF746FB0020FFF73A
:102EA000BFF910BD7801002008B507A1096800919D
:102EB000064903220A7002224A706A465070086866
:102EC0006946FDF79DFC08BD070000007801002061
:102ED0001CB507A005C8009089070748890F019213
:102EE00001700621417000686946FDF789FC1CBD30
:102EF0000C079C051720000078010020FEB5164C39
:102F000001A92246083A2046FFF718FF68460079D3
:102F100001262546002804D12E70687002206946DB
:102F2000087121780C4F132001401C3F787804234E
:102F3000C24352081A4040071143C00FC00001436A
:102F40006A46117060785070A11C009800F077FC00
:102F50002E7000207870FEBDFC000020FEB50D46EE
:102F6000002102911D2D00D91D2501462A469948B0
:102F7000FDF7FAF89848974C057020789649820733
:102F8000920F8870012A14D0032A17D0022A0FD179
:102F9000637922791B02A579D218062A4BD0042A1C
:102FA00050D0052A04D1132D02D00020FDF798FF40
:102FB000FEBD022DFCD3FFF7BFFAFEBDA1780B00CA
:102FC000FEF716FC120B0F1E233535350A28353552
:102FD000352D0A35320A0A35EFE7E01C00F0FEF81D
:102FE000FEBD01467B48FFF7D9FE617A207A0902CF
:102FF00040186946088102A9E01C00F011F9FEBDE5
:1030000001467448FFF740FFFEBD01467148FFF7D7
:10301000E7FEFEBD01466F48FFF700FFFEBD01461B
:103020006C48FFF755FFFEBDFFF7BAFEFEBD084630
:10303000FFF73AFFFEBD012DFCD101466548FFF7C1
:1030400005FFFEBD644A0C32102D3AD00ADCAE1EDC
:103050003300FEF7CDFB0B4E155315A1151E15645D
:10306000157015005B4B0933182D75D004DC122D3B
:1030700073D0162D04D171E01E2DE2D0522D7AD0DE
:10308000227AE179120289188AB22946FEF734FEC3
:10309000FEBD237AE1791B02C9188EB21680A37A8D
:1030A000617A1B02C9188BB25380E17A247B240217
:1030B000091989B29180009132462946FEF74AFFEC
:1030C000FEBD237AE1791B02C9188EB21680A37A5D
:1030D000617A1B02C9188BB25380E17A247B2402E7
:1030E000091989B29180009132462946FEF7AEFE59
:1030F000FEBD00222946FEF7EBFDFEBD237AE179F5
:103100001B02C91889B21180637AA47A24021B19A0
:103110009BB253800A462946FEF72EFEFEBD237A57
:10312000E2791B02D21893B28B80024619462846D8
:1031300000F002FBFEBD237AE2791B02D21896B2A0
:103140008E80A37A627A1B02D21893B2024631466D
:10315000284600F0EFFAFEBD09E00CE0227AE079A3
:103160001202801888801B4800F095FAF3E719488E
:1031700000F053FAEFE7E278A6781202D21EB218F6
:10318000D6B2E279247A2402121992B28A802946B0
:10319000009600F0A3FADEE7237AE1791B02C91852
:1031A00089B21180A67A637A36029B199BB253804A
:1031B000267BE27A36029219667BA47B92B22402C5
:1031C00034190092A4B20A4601942946FEF79DFDE7
:1031D000C1E7000080040020E00000200F49012228
:1031E000096A4A7002780A70837842781B02D21802
:1031F0004A800379C2781B02D2188A808379427987
:103200001B02D218CA80037AC2791B02D2180A8123
:10321000427A807A00021018488170479C00002092
:1032200010B5064C0346E0690988C180052219469D
:10323000FCF79AFFE1690120487110BD9C00002055
:103240000148008A704700009C00002010B5FDF77F
:10325000CFFF10BDF8B50C460746002614E0142C2D
:1032600001D9142500E02546FFF7DEF903280FD326
:10327000084800950288BB191B21022000F0DEF9E6
:103280007019C6B2601BC4B2002C01D0002FE6D169
:103290003046F8BD2A000020F0B50C4B00201C463B
:1032A000D87130340A4AD8720125C1084607615CDA
:1032B000760F2F46B740394203D0D97A5054491C73
:1032C000D972401CC0B22528EFD3F0BD9C0000206D
:1032D0007602002010B5C00706D10448FD2201780F
:1032E00011400170FFF716FD10BD0000A400002082
:1032F000F8B5344F06460C46B88A0A2115464843AD
:10330000FDF776FF39460831087802221043F32290
:1033100010400870FDF746F9002C03D060780028B3
:1033200019D01EE04120400105213018C901401884
:10333000B862FFF7AAFC1B2D00D91B25E801052167
:10334000301A0902401A78621E48082108300278B3
:103350000A43027032E01B4804220830017811430E
:103360000170812000013018B862FFF78EFCE8017F
:103370000121301A8902401A78622078FDF724FF73
:1033800022780821B8780A40824217D101223A7087
:103390004840B8700C48006800688047FDF786F91F
:1033A000002078705320FFF7E5F906490420C91C76
:1033B000FFF709FA5620FFF7DDF9F8BDFDF776F9BA
:1033C000F8BD00009C000020E8000020F3B581B0AB
:1033D0000546FEF7F5FE00282DD0724E0027307806
:1033E0003446C107083C00292BD0E08950214843CE
:1033F0002830FDF7EBF84019FFF77DFCFFF74CFF95
:10340000E0694771206A4770A7812046277016300F
:10341000FFF7FBFB20462C30FFF7CCFBFFF7B0FC9F
:10342000E771607A604948434018FFF73BFC012090
:10343000FDF7A4F861E00020FDF7D2FE00F0F6F9F8
:10344000FEBD80072CD50298616A401A0121090649
:1034500040180002000AFDF7AFF82D1A3078400737
:1034600015D5618A002912D0208A414308185021BD
:1034700048437838FDF7AAF84519A189608A0918E8
:10348000A181A17A4143E0790818E07106E0208A21
:10349000502148437838FDF799F84519434821E011
:1034A000208A082801D20121217141490D686178E3
:1034B000082903D250225043C90002E05022504351
:1034C0004900401A1038FDF781F84519208A2D2847
:1034D00001D9384806E0344948430321FCF71AFE75
:1034E00031494018FFF7DEFB2846FFF704FCA089AE
:1034F000401CA0812846FDF71BF85120FFF73AF940
:1035000078210020FFF78BF97A210020FFF787F957
:103510005620FFF72FF9E079A17A4018C0B2252193
:10352000FCF7F8FD1F4BE171CA0828339A5C4B0782
:1035300008465B0F012199400A4204D1E17AFCF769
:10354000E9FD1D48405CA071C0B2FFF756FB207832
:10355000002811D0184901202531FFF70DFA16492E
:103560006A4625310120FFF71BFA684601781248A8
:103570002530FFF7F3FC27703078C10704D04008EE
:103580004000307000200AE02079002804D000209C
:10359000FDF726FE2771FEBD208A81080818FDF779
:1035A0001FFEFEBDA4000020E2040000A60E0000E5
:1035B0006C010020204E00007602002010B5064865
:1035C0000078000704D500210846FFF783FE10BDF0
:1035D000FFF7A0FB10BD0000A400002070B50D4651
:1035E000FDF72AFA002803D10A4C60781E2805D975
:1035F0000020FEF715FEFFF78DFB70BD0420FFF7DE
:103600001DFBC32040012818FFF73FFB6078401CDA
:10361000607070BD9C000020704708B502216A46AA
:103620001170052151700121817019218171811C56
:103630000098FEF766FBFFF7EFFF08BDFFB58BB004
:10364000149C1D461746E61C242101A8FCF7A5FD85
:103650000B981321084069460870E01D48700E71F0
:10366000300A4871042088710020C8710C980872D3
:103670004F72380A8872002001A904E02A5C0B18F6
:10368000401CDA71C0B2A042F8D30098FEF739FBB3
:103690000FB0F0BD7047F8B50446827AC178007A61
:1036A000E57900020543A07809020843401F87B26C
:1036B000667A1002064302206946087060784870F6
:1036C0001720A071A11C0098FEF71BFB2146334672
:1036D0003A460B312846FFF7DDFFF8BDF8B5054641
:1036E0000E461446069F132C02D0192C05D100E07B
:1036F00000BF284600F00AF805E022463146284679
:10370000FEF7FAFA00BF00BFF8BD00000EB507A132
:1037100006C980070091800F019269460872052052
:1037200048720298FEF7EDFA0EBD00000100040099
:103730001300000070470000F0B585B005460C4648
:10374000164636A00068049003A8FEF75BFF0290BF
:10375000132C45D008DC042C0DD0092C15D00B2CD3
:1037600024D00F2C50D132E0152C3BD0182C42D055
:10377000192C49D135E06846007B00902246294645
:103780003046029BFEF73AFB44E0FEF743FF009011
:10379000FCF70EFDC7B2FEF73DFF03462246294661
:1037A000009701903046FEF729FB33E0FDF750F813
:1037B0000090FCF7FDFCC7B2FDF74AF8034622462D
:1037C0002946009701903046FEF718FB22E00720BB
:1037D00013A32246294600903046FEF70FFB19E05E
:1037E00000BF00BF012004AB2246294600903046AE
:1037F000FEF704FB0EE001200B4B22462946009009
:103800003046FEF7FBFA05E0224629463046FEF731
:1038100073FA00BF00BF05B0F0BD00000300000058
:103820005356322E312E32002D00002010B500F0FC
:1038300015F80020FCF7A2FEFEF7B8FC10BD73B52A
:103840000D460098FFF749FA684644782846214615
:10385000FFF73CFA2046FDF729FF7CBD30B585B067
:1038600003A8FEF7CFFE6946097B182902D9182163
:103870006A46117369460A7B1A4B511C1970002164
:1038800004E0445C5D18491CAC70C9B29142F8D3A5
:10389000002003E09918521C8870D2B2192AF9D37B
:1038A0001049104A0C461C3C25780E3A03231B2075
:1038B000002D01D00C4A2B466578002D02D00A4914
:1038C00028461F310290074801911C38811C40890D
:1038D0006D4628808888288220890499FEF752FC4A
:1038E00005B030BD70000020050200200328030051
:1038F000020400002AFF03280800020900292AFF09
:1039000003280A00020B00262AFF03280E00020FDC
:1039100000282AFF03281100101200372AFF02296D
:1039200013000A00000000000328140002150038EC
:103930002AFF03281700121800192AFF022919006C
:103940000A0000000000000000000000000000006D
:103950000000000000000D18000000000000000042
:103960000000000000000000000000000000000057
:103970000000000000000F18000000000000000020
:103980000000000000000000000000000000000037
:103990000000000000000201060319410307030DA7
:1039A000180A180F180000000000000000002F0087
:1039B0000000000700070000147F147F1400242A71
:1039C0007F2A1200231308646200364955225000F2
:1039D000000503000000001C224100000041221CE1
:1039E000000014083E08140008083E080800000003
:1039F000A0600000080808080800006060000000DF
:103A00002010080402003E5149453E0000427F401C
:103A100000004261514946002141454B31001814D4
:103A2000127F10002745454539003C4A494930007E
:103A300001710905030036494949360006494929FB
:103A40001E00003636000000005636000000081444
:103A50002241000014141414140000412214080020
:103A6000020151090600324959513E007C121112DF
:103A70007C007F49494936003E41414122007F4157
:103A800041221C007F49494941007F090909010081
:103A90003E4149497A007F0808087F0000417F4184
:103AA00000002040413F01007F08142241007F4078
:103AB000404040007F020C027F007F0408107F001E
:103AC0003E4141413E007F09090906003E41512126
:103AD0005E007F0919294600464949493100010124
:103AE0007F0101003F4040403F001F2040201F0059
:103AF0003F4038403F006314081463000708700813
:103B00000700615149454300007F4141000004081E
:103B1000102040000041417F000004020102040027
:103B20004040404040000001020400002054545432
:103B300078007F48444438003844444420003844E6
:103B400044487F00385454541800087E090102008C
:103B500018A4A4A47C007F080404780000447D40DD
:103B600000004080847D00007F1028440000004158
:103B70007F4000007C04180478007C08040478006E
:103B8000384444443800FC24242418001824241801
:103B9000FC007C0804040800485454542000043FEE
:103BA000444020003C4040207C001C2040201C0061
:103BB0003C4030403C004428102844001CA0A0A0F9
:103BC0007C004464544C4400106C8200000000FFF0
:103BD00000000000826C10000000080408100800BB
:103BE00000000000000000000000000000000000D5
:103BF0000080C060F058FC56FF55FF55FF553E143D
:103C000088C0A0C08000000000000000000000008C
:103C100000000000000000000000000000000000A4
:103C20000080C060F058FC56FF55FF55FF553F150A
:103C30008FC5A3F1A8FCAAFFAAFFAAFFAAFFAAFCAE
:103C4000A8F0A0C0800000000000000000000000FC
:103C50000080C060F058FC56FF55FF55FF553F15DA
:103C60008FC5A3F1A8FCAAFFAAFFAA7FAAFF6A0733
:103C700002838287EAD7AAFFAA7FAA7FAA7FAA7CAB
:103C8000281080C08000007AFFF5FFF5EFF5EFC542
:103C9000838183C1E8FCEAFFFAFFFAFFFAFF7E3F67
:103CA0001E8FC7E3F1F8FCFEFFFFFFFFFFFFFF7F62
:103CB0003F1F8FC7E2F1F8FCFCFDFAFFFAFF6A0034
:103CC000000103070F1F3F7FFFFFFFFFFFFF7F3F45
:103CD0001F8FC7E3F1F8FCFEFFFFFFFFFFFFFF7F31
:103CE0003F1F8FC7E3F1F8FCFEFFFFFFFFFF7F3FA1
:103CF0001F0F07030100000000000000000000008B
:103D00000001030301183C7EFFFFFFFFFFFFFFFFE1
:103D1000FFFFE3C1C1C1E0FCFEFFFFFFFFFF7F3FEC
:103D20001F0F07030100000000000000000000005A
:103D30000000000000000000000000000000000083
:103D4000000103070F1F3F7FFFFFFFFFFFFF7F3FC4
:103D50001F0F07030100000000000000000000002A
:103D60000000000000000000010000000000000052
:103D7000DD350008D5320008F1320008BD350008F5
:103D8000CD330008FD2E0008000000001D1B0008B8
:103D9000811B000885190008B5190008491B000897
:103DA000491A0008C43D00080000002084010000FA
:103DB000FC010008303E0008840100202C070000B0
:103DC0001A180008910517FFFFFFFF3A4D472D4FC6
:103DD0004C45440012326482014944485431312038
:103DE0002D2D25640101799B465620202E332E323D
:103DF0002E31DC8009A0008421040002010602208B
:103E00000902270132940619206A02002002240ABE
:103E10000226FF52253201021E1033813133580A27
:103E2000042A6FE809199E04002070010020000098
:04000005080000B13E
:00000001FF
