:020000040800F2
:1000000068080020C5000008F1040008F304000897
:1000100000000000000000000000000000000000E0
:10002000000000000000000000000000F5040008CF
:100030000000000000000000F7040008FF040008B2
:10004000F1000008F1000008F1000008F1000008CC
:10005000F100000809050008F10000081305000878
:1000600000000000F1000008F1000008F1000008A5
:10007000F1000008F1000008F1000008F10000089C
:10008000F10000080000000000000000F10000087E
:1000900000000000F1000008F1000008F100000875
:1000A00000000000F100000800000000F10000085E
:1000B0000348854601F060FA004800475F130008D6
:1000C000680800200B4880F308880B480168090E77
:1000D0000A4A914205D10A480A4901600A480B4977
:1000E00001600B480047FEE7FEE7FEE7FEE7FEE79C
:1000F000FEE7000068080020040000001F00000068
:100100001810024001000000000001400000000043
:10011000B1000008E94910B5401E884201D901200C
:1001200010BDE7494861E7480722C3691B021B0A63
:100130004C042343C361002088610A6110BD10B5DF
:10014000082100F09CFF10BD10B5DF4900F097FFBB
:1001500010BD10B5102100F092FF10BDDA4910B5A6
:10016000083900F08CFF10BDF3B585B0D74905986C
:1001700004260825884243D10121801400F0A8FEFE
:10018000D24920310889D24A104308810320012135
:10019000400400F08CFE00220521CE4800F0CEFB8A
:1001A00000220421CB4800F0C9FB00220321C948EA
:1001B00000F0C4FB6F0169460F8003248C7010208F
:1001C000C870C44800F040FB3946C24800F0A1FBAB
:1001D00069460D808C701827CF70BE4800F034FB44
:1001E0002020694608808C70CF70BA4800F02CFB44
:1001F0001020694608808C70CE70B64800F024FB51
:100200006A4696800020D08015815081012191811D
:10021000D08106991182508201A9059800F0C2FE92
:100220000121059800F0EAFE0598FFF788FF059880
:10023000FFF78FFF07B0F0BD30B5A74900220B686C
:10024000012423430B600B689B07FCD501239B0211
:100250004B604B6801242404A3434B600C680123CA
:100260001B069C430C600C681F25AD06AC430C605C
:100270000C683F258006AD06401904430C60974C7E
:100280001120206008681843086008688001FCD5C8
:100290004868800880004860486802231843486026
:1002A00002E048680007820F022AFAD130BD10B57B
:1002B0000420FFF7C1FF022000F049FD00F04EFDD1
:1002C0000828FBD110BD864824E7FF22092101320E
:1002D000C906002801D04A6170470A61704710B50D
:1002E0000121080700F0FDFD012000F0DCFB00F01B
:1002F000F5FB10BDF0B585B0FFF7D9FF7848FFF7E3
:1003000009FF08217148FFF72FFF01273F036846C7
:100310000780022484704821C17009206946C00604
:1003200000F092FA0125684605802821C170092055
:100330006946C00600F088FA092005220821C00697
:1003400000F0FCFAE1016846018084701021C17060
:1003500009206946C00600F077FA08216846018046
:10036000032181700026C67009206946C00600F08E
:100370006BFA032001F048F80121084600F0A8FDBF
:100380000121080700F0ADFD0C21002000F0CBFE9C
:100390006846019706720C214172857201A800F02F
:1003A000D6F907216846017344738473C57303A8A3
:1003B00000F001FB4B480168434A921D1140016067
:1003C0004048001F016904221143016105B0F0BDDE
:1003D0003E4908600889C007FCD008898007FCD521
:1003E0004868C0B2704710B5FF210131394800F0AC
:1003F00092FA10BD10B5FF210131364800F089FA9C
:1004000010BD10B50920C00600F076FAC004C01770
:10041000401C10BD10B5002000F099FC00F09EFCBF
:100420000028FBD12C48016801221206914301608B
:100430007D208001FFF76EFE10BD10B52A484B21CC
:100440000068C900884207D9002000F0D0FC02F003
:10045000E8F9FFF744FF10BDFFF7DCFF1948001F64
:10046000016904221143016130BF1B480168012268
:1004700011430160016812061143016041680222C4
:10048000114341601648FFF745FE10BD10B5FFF758
:100490000EFF1348FFF73EFE10BD72B613480178F9
:1004A000491C0170704711490878401E0006000E73
:1004B000087000D162B6704770470000FFFFFF0070
:1004C00000E000E004ED00E0F7FF00000030014034
:1004D0000100FFFF0004004800100240002002401D
:1004E00080BB0000007000402800002000000020B9
:1004F0007047FEE7704770470B48006870470A482E
:100500000168491C0160704710B5012000F075F9C1
:1005100010BD10B50120C00200F06FF901200003EA
:1005200000F06BF910BD000004000020804910B5F8
:10053000C84208D144150121204600F0DBFC00210F
:10054000204600F0D7FC10BD10B5426870239A43D6
:100550000C684B682343134343608268754B4C69B6
:100560001A408B698968234311430B43836010BD94
:100570000021416081600173416181617047002900
:10058000416802D00122114301E04908490041605D
:10059000704708220029816801D0114300E091438F
:1005A00081607047002A826801D00A4300E08A43D4
:1005B00082607047FF2201320029816801D0114317
:1005C00000E0914381607047014689680020C905B9
:1005D00000D50120704710B542680724A4025B07CC
:1005E000A243DB0C134343600B0001F0D3F8100966
:1005F0000C101316191C1F222B2B2B2B2B2B262BED
:10060000C168012201E0C1680222114318E0C168FB
:100610000422FAE7C1680822F7E7C1681022F4E76C
:10062000C1682022F1E7C1684022EEE7C16880225C
:10063000EBE7C168FF220132E7E7C1683E4AE4E721
:10064000C16010BDC168490A4902F9E704220029C6
:10065000816801D0114300E0914381607047416897
:100660008905490F13D041688905490F012911D027
:1006700041688905490F02290FD041688905490F52
:1006800003290DD041688905490F04290BD0006862
:1006900080B270470068C00307E00068800304E090
:1006A0000068400301E000680003000C70478268A6
:1006B00070239A430A4382607047042200298168AC
:1006C00001D0114300E091438160704742680223EA
:1006D0009A430A434260704709041143016170471D
:1006E00082680F231B039A430903114381607047FB
:1006F0000F4949428A150028C86801D0104300E01C
:100700009043C86070470246526900200A4200D0F8
:100710000120704742690A434261704702465269AC
:1007200000200A4200D0012070474161704700005C
:1007300000DCFEBF83F1FFFFFF0100003048002115
:10074000016041608160C1602E494161704710B510
:1007500083792B490268002B26D00B6893430B60EA
:100760004A6803689A434A60027952181368046819
:10077000234313608A6803689A438A60CA680368DF
:100780009A43CA604279102A05D051180A68006855
:1007900002430A6010BD8A6803681A438A60CA6807
:1007A00000680243CA6010BD007940180168914397
:1007B000016010BD0021016001710C224271817144
:1007C00070470F490A6902430A6170470C4A0146A3
:1007D000526900200A4200D0012070470849486150
:1007E0007047074B0246196800205B6911401342AD
:1007F00002D0002900D001207047014948617047AC
:1008000000040140FFFF1F00172110B5C906401862
:1008100011D001218902401A10D0401A11D088420B
:1008200008D101218402204600F041FB002120462E
:1008300000F03DFB10BD01214C04F4E701218C04C4
:10084000F1E70121CC04EEE7F0B5CC7800222307D4
:100850001B0FE40601D58C7823430C782406240E64
:100860001AD0046801250E8895402E40AE420FD163
:1008700097000F26BE40B4431E46BE403443CE7898
:10088000282E02D0482E02D002E0456100E005612A
:10089000521C082AE6D304600A88FF2A1CD944683F
:1008A0000022164608360125B5400E882E40AE427D
:1008B0000ED197000F26BE40B4431E46BE403443BF
:1008C000CE78282E00D14561CE78482E00D1056122
:1008D000521C082AE5D34460F0BD0021C9430180C1
:1008E000022181700421C170704702469268002085
:1008F0000A4200D001207047806880B270470246EB
:10090000D26800200A4200D001207047C06880B23F
:1009100070470161704741617047002A01D0016151
:10092000704741617047C1607047012212040A4359
:100930008261816182618169806970474B0710B56E
:10094000DB0E9A40CC080F219940002C06D0436A58
:100950008B434362416A1143416210BD036A8B437A
:100960000362016A1143016210BD00000C49086076
:1009700070470B49486070470949886070470849CB
:100980000848086070470649074808607047044AED
:100990000146D26800200A4200D0012070470000C2
:1009A00000300040AAAA0000CCCC00002549084332
:1009B0002549C860704770B5C2780F230125234EC2
:1009C0000178002A1AD0204AD468520D1440121B14
:1009D000120A0424A41AD3404278A24084788900E1
:1009E0001C4014431A4B2201C9180A600178CA0638
:1009F000D20E954049098900891907E0CA06D20E2E
:100A00009540124A49098900803289180D600078A2
:100A1000400980008019006870BD70470A4A0029AB
:100A2000116901D0014300E0814311617047042244
:100A300008490428086902D09043086170471043B0
:100A4000FBE700000000FA0500ED00E000E100E037
:100A500000E400E000E000E010B501210C072046B2
:100A600000F061FA0021204600F05DFA10BD2A492D
:100A70008A150028086801D0104300E09043086000
:100A80007047254910220128086802D09043086069
:100A900070471043FBE7204A11680F235B0299431C
:100AA0000143116070471C498A150028486801D02D
:100AB000104300E0904348607047174B1A68920853
:100AC000920002431A601548026904231A43026126
:100AD000012901D020BF704730BF70470E4802681F
:100AE00004210A430260026802231A4302600B4891
:100AF00002690A43026130BF7047074A01465268E3
:100B000000200A4200D00120704703490A68800093
:100B100002430A60704700000070004000ED00E0F2
:100B2000F74801680122114301604168F54A11400C
:100B300041600168F44A1140016001680122920499
:100B40009143016041687F2212049143416000217A
:100B50008160704710B5EA490B6801221204934383
:100B60000B600B689400A3430B60801A09D003222A
:100B70001204904204D10868052212041043086050
:100B800010BD0868FAE7034600205909DC4A01292C
:100B90000AD002290AD0516ADA06D20E0123934004
:100BA0000B4200D0012070471168F5E7116AF3E7A6
:100BB00018B500200524240200903120FFF7E3FF40
:100BC0000099491C0091002801D1A142F5D13120A2
:100BD000FFF7D9FF002800D0012018BDC84A1168CE
:100BE000F8239943C000084310607047C4490128A6
:100BF000086803D040084000086070470122104395
:100C0000FAE710B5BE4B1868C04C890612052040A3
:100C100011430143196010BD30B50546B8480C4674
:100C200041683F221204914329434160002C7CD04B
:100C300001208004844204D1012205212846FFF7C7
:100C4000E0FF0120C004844204D10122072128468C
:100C5000FFF7D7FF03208004844204D10122092139
:100C60002846FFF7CEFF01200005844204D101226F
:100C70000B212846FFF7C5FF05208004844204D1DC
:100C800001220D212846FFF7BCFF0320C004844247
:100C900004D101220F212846FFF7B3FF072080046B
:100CA000844204D1012211212846FFF7AAFF012026
:100CB0004005844204D1012213212846FFF7A1FFF9
:100CC00009208004844204D1012215212846FFF71F
:100CD00098FF0520C004844204D101221721284630
:100CE000FFF78FFF0B208004844204D101221921D9
:100CF0002846FFF786FF03200005844204D1012225
:100D00001B212846FFF77DFF0D208004844204D17B
:100D100001221D212846FFF774FF0720C0048442EA
:100D200006D101221F21284600E002E0FFF769FFFB
:100D300030BD03220721F6E701227149120600287F
:100D4000086801D0104300E09043086070476C4A87
:100D500051688908890001435160704768484068BC
:100D60000C2108407047664A5168F02399430143BB
:100D700051607047624A516807231B02994301433F
:100D8000516070475E4A51680723DB029943C000F7
:100D90000843506070475A4A00020029916801D008
:100DA000014300E081439160704755494A6802431E
:100DB0004A607047524A516803239B039943014399
:100DC000516070474E490A6A520852000A620A6A24
:100DD000520852000A62012806D0042803D1086A8A
:100DE0000522104308627047086A0122F9E7444966
:100DF0000028486A02D00122104301E04008400068
:100E0000486270473E490A6A02430A6270470122FB
:100E10003B49D2030028086A01D0104300E0904308
:100E20000862704770B5364D044668680C2108406A
:100E3000374903D0042801D0082801D0216017E0E9
:100E400028682968800E49026A68490F01231B043B
:100E5000401C491C1A4201D12E4A05E06A689203DF
:100E600001D52D4A00E02A4A504300F023FB2060C0
:100E700068682A490006000F0A5C2068D04060605C
:100E80006A685205520F8A5C0346D340A3606A68C1
:100E90009204520F895CC840E06069681F4A0904E7
:100EA000890F121F515C00F005FB206170BD30B549
:100EB000134B5A690F25D4096D042C40D2B222433A
:100EC000002902D01043586130BD82435A6130BDC1
:100ED0000B4A0029916901D0014300E081439161EF
:100EE0007047074A0029D16901D0014300E08143DE
:100EF000D1617047024A0029D16811D0014310E046
:100F0000001002400000FFF8FFFFF6FEFFFF8F0316
:100F100000127A00001BB70000093D000C00002001
:100F20008143D1607047174A0029116901D00143FC
:100F300000E081431161704701221249D204012867
:100F4000086802D09043086070471043FBE70D49E2
:100F50004A68000602434A6070470A48416A012213
:100F60001206114341627047064A0146926800200A
:100F70000A4200D00120704702498A6800040243F7
:100F80008A60704700100240564910B5C84208D127
:100F9000841401212046FFF7ADFF00212046FFF712
:100FA000A9FF10BD30B5038B0F22120313404A88EE
:100FB0004C8922430C881C4322430283838B3F22AB
:100FC000D24313408A88CC890D892243CC882C4394
:100FD00022431A4310231A438283028C8989018495
:100FE00030BD00210180418008228280C180012221
:100FF0000281418102228281C18170470029018BD7
:1010000002D00122114301E04908490001837047E1
:101010000223002A06D0028B1A430283028A0A4363
:1010200002827047028A8A430282018B99430183BC
:101030007047002A028B01D00A4300E08A430283F2
:101040007047002A028B01D00A4300E08A430283E2
:10105000704701607047406880B27047002A028D77
:1010600001D00A4001E0C9430A4302857047028B60
:101070001D4B1A400283028B0A430283704710B54E
:101080000822082910D01024102910D0174B99429B
:1010900002D1038B93430383144A083A914202D14D
:1010A000018BA143018310BD018B1143FAE7018B32
:1010B0002143F7E70246128900200A4200D00120AE
:1010C00070470246928900200A4200D001207047F2
:1010D000828A0A438282704781847047828B0A43E6
:1010E0008283704700D0FEBFFFFC0000F7FF0000C6
:1010F000154801688907890F016000218160C1607E
:10110000016141617047104A1168890889000143F3
:10111000116070470C4A0029116801D0014300E0BA
:101120008143116070478A0710B5120F0F23934057
:101130008C080549A40061188C689C438C608B68FE
:10114000904003438B6010BD0000014006210170F8
:101150007A48704770B50C460A46054601467748FE
:1011600000F0D2F92146284601F020F870BD092090
:1011700070477CB50525069BED020224AB4201D1E8
:10118000012A0BD0AB4211D1072A0FD86CA10968F4
:101190000F22019101AB0094072119E069A10968B0
:1011A0000622019101AB0094012111E0AB4206D16E
:1011B000102A04D81522644B1021009408E0AB4299
:1011C00009D1162A07D8604B192220331621009422
:1011D00000F03AFD7CBD00F077FC7CBD10B5132A11
:1011E00004D0192A02D000F06FFC10BD01F0D8FF26
:1011F00010BD70477047FEB5054654A000680C4608
:1012000001900620694608704C4B01211646132CAC
:101210002DD008DC042C12D0092C12D00B2C18D0A5
:101220000F2C06D11FE0152C21D0182C22D0192C00
:101230001DD022462946304600F046FCFEBD0090F7
:101240001BE001F005F800F083F9C7B201F000F8E7
:1012500006E000F049FA00F07BF9C7B200F044FA6A
:101260000346009709E0072039A3009005E001AB91
:10127000009102E0314B0091103B22462946304656
:1012800000F0BAFCFEBD0020704770B52B4C103C3E
:10129000A078401CC0B2A07014281AD30025A570F5
:1012A0000521032000F0EBF81221A180C008A11D48
:1012B000FF2803D80D704870022105E001220A7052
:1012C0004870000A887003211C480A3801F054FD58
:1012D00070BD0A28FCD10521032000F0D0F8C00819
:1012E00064214843400A20701820A080134801213F
:1012F0001038EBE710B500F081F810481038C168DD
:10130000491CC1604178002901D00021C16010BD95
:101310000FA07047094810384078704710B5040096
:1013200009D00020FEF7D1FF0448103841788C42E4
:1013300000D0447010BD0120F4E700002C00002014
:101340000A18000000180000FE3200080300000028
:101350005356322E312E32000D480068704710B5BA
:1013600001208005401EFDD2FEF7C4FF094903207D
:1013700000F022F80649432001F0E2F80F21064868
:1013800000F0FEFEFF20413000F0F0FD002010BD17
:1013900034000020E20400003E33000810B50120B4
:1013A000FFF7F5FA0028FAD110BD10B50220FFF7BB
:1013B000EEFA0028FAD110BD70B504460D460120A2
:1013C000FFF715FD6120FFF7DEFB0028FAD0FFF7DD
:1013D000E5FF0C4E3046FFF7C9FAE0B2FFF7C9FA55
:1013E000FFF7E3FF3046FFF7C1FA2805000DFFF7CE
:1013F000C3FAFFF7C4FAFFF7C6FA70BD10B5FFF7DE
:10140000BEFA10BD5555000030B50446012187B025
:101410004802FFF75DFD70200022019002926846AD
:101420000273234D05920692694628460092FFF703
:101430008BF800231A4609212846FFF7CCF802232F
:10144000002221462846FFF7C6F801212846FFF76B
:1014500096F807B030BD10B5154C01212046FFF7B6
:10146000A9F801212046FFF74EF90028F9D0012103
:101470002046FFF74FF920680005000D10BDF8B5B4
:1014800000250E4607462C460AE03846FFF7E3FFE4
:1014900045190020401CC0B26428FBD3641CE4B290
:1014A000B442F2D33146284600F004F880B2F8BDC9
:1014B0000024014030B50B460146002020220124C3
:1014C00009E00D46D5409D4205D31D469540491B78
:1014D0002546954040191546521E002DF1DC30BDC1
:1014E00070B500242546002801DA01244042002975
:1014F00001DA01254942FFF7DDFFAC4200D040424E
:10150000002C00D0494270BD03460B439B0703D01B
:1015100009E008C9121F08C0042AFAD203E00B78B8
:101520000370401C491C521EF9D27047D2B201E030
:101530000270401C491EFBD270470022F6E710B52E
:1015400013460A4604461946FFF7F0FF204610BD31
:10155000421C0178401C0029FBD1801A704730B52D
:1015600004460020034600E05B1C934203D2E05C8B
:10157000CD5C401BF8D030BD064C0125064E05E081
:10158000E36807CC2B430C3C98471034B442F7D3A4
:10159000FEF792FD8C330008AC33000870B58C1850
:1015A0000578401C6B075B0F01D10378401C2A11A2
:1015B00006D10278401C03E006780E70401C491CDE
:1015C0005B1EF9D12B0705D40023521E0DD40B70DE
:1015D000491CFAE70378401CCB1A921C03E01D78E3
:1015E0000D70491C5B1C521EF9D5A142D8D30020B6
:1015F00070BD000010B50A4CE07800280CD0FEF752
:101600007BFFA169884208D3401A012189028842E0
:1016100003D20020E070012010BD002010BD0000AA
:10162000E400002070B5114C0025216A4A78002A98
:1016300007D04989A28A914203D100F0CDF9206AEE
:101640004570E169487900280ED0C888A28A904286
:101650000AD10648E67905223030FFF755FF01F040
:10166000ADFBE0694571E67170BD000040010020EE
:1016700010B503490A6A496A5043FFF71BFF10BDC2
:10168000E400002010B504490446CA69496A504381
:10169000FFF726FF001910BDE400002013B56A46CD
:1016A000127813200240094802706A465478447048
:1016B000002C03D02246801CFFF726FF0349A41C00
:1016C0000846E2B2083800F059FE1CBDC0000020F8
:1016D0000148007870470000E4000020014840798C
:1016E00070470000E400002007480849007802091C
:1016F00030320007000F8A70092801D8303000E02E
:101700003730C870014870479A0000203E00002022
:1017100010B5074C2079002808D0FEF7EDFEA1692E
:10172000884203D300202071012010BD002010BD8D
:101730004C0000200149487070470000A4000020C0
:1017400001494861704700004C00002010B5FEF7C9
:1017500061FEFEF7D1FE0349283088610120C87080
:1017600010BD0000E400002070B50446034D0120C8
:101770002871FEF7C1FE0019A86170BD4C00002061
:101780000521C00109024018014948607047000066
:101790002801002030B47446641E2578641CAB42D6
:1017A00000D21D46635D5B00E31830BC184702E0C1
:1017B00008C8121F08C1002AFAD1704770470020DC
:1017C00001E001C1121F002AFBD17047090710B5C3
:1017D000090FC00705D0032902D1022000F0A2FFA3
:1017E00010BD05488078002802D0FFF7AFFF10BD7C
:1017F00001F00AF810BD0000E4000020F8B507462B
:10180000204C0020A070087816460007000F0D46F7
:10181000032802D0052822D117E0412040013818C2
:10182000E06300F0ABFF17486946C0890880009864
:1018300000F044FF217A206B00F04CFF207A012158
:10184000C001C9024018A06311E0002E07D028464D
:1018500006220D490830FFF782FE002802D000F072
:10186000D3FF04E032462946384600F053FB5320AC
:1018700000F0FEFC0549042000F023FD562000F096
:10188000F7FCF8BDE4000020940000204301002094
:1018900070B5284C6279002A1FD02278521C227021
:1018A0002279002A01D028222270A2780025002A5D
:1018B00008D06269891A2269801A00F0EBFA657013
:1018C000A57065812078272815D800F00AFF002030
:1018D000FFF736FF00F0BBFF70BD512000F0C8FCE1
:1018E0007821202000F019FD562000F0C1FC0A20CC
:1018F000FFF726FF70BD25202070606BFFF7C2FE4A
:10190000A16A4618606B8009FFF71AFF304600F0A5
:101910006CFF207800F0E5FEA079401CC0B2A071F9
:10192000142802D3A57100F040FD6089401C60813D
:1019300070BD0000E400002010B5084925200870A3
:1019400000F0CFFE962000F027FF002000F0DFFE21
:1019500000F07DFF002001F00BFA10BDE400002034
:1019600010B5012000F0DEFE0448C16B806B081842
:1019700025218901401800F001FF10BDE40000207E
:1019800070B5144C0646A0620D46022000F0CAFE57
:10199000472080012818E06300F0F0FEE179E06A5A
:1019A00000F098FEE06800F089FEE0790121C001B6
:1019B000C9024018A063207825280AD126616561F4
:1019C00060890F2802D26078002802D00120607060
:1019D000A07070BDE400002070B50F4C0546206A71
:1019E000017861724088E08150214843FFF74AFE48
:1019F000401900F0FAFE206A818821820089608205
:101A00000C2905D2054800F0C7FE0120207170BDE9
:101A1000034800F0C1FE70BD400100201711000016
:101A2000BD1F000070B5044600781C4D4006C00F75
:101A3000687128460622A11C3530FFF765FD0E347B
:101A40002846042221462C30FFF75EFD284603225B
:101A5000211D1630FFF758FDE0796872617A207A0F
:101A600009024018E881E17AA07A09024018288228
:101A7000E17BA07B0902401880B26882C82801D2AD
:101A8000C820688205482146052210313030FFF712
:101A90003BFD607DC006C00EA87270BD40010020F5
:101AA0000EB507A106C980070091800F0192694613
:101AB000087207204872029800F021F80EBD00005D
:101AC00003000400031700001FB58007800F6B465A
:101AD00018730920587305201870002058700424CA
:101AE0009C70D870012018715971100AD8719A71C0
:101AF0000A2018721946039800F001F81FBD10B5AE
:101B0000FFF7CCFD10BDFFB587B01E466F46109B9A
:101B1000119A054638710920787105200C463872F3
:101B2000002179720420B872F972601C38730120A8
:101B30007873B973F8730520C0023974834213D1E6
:101B400005A8009006AB31460998FFF79CFB0028DA
:101B50000AD06946088B4873888AC87302A901981D
:101B6000FFF7CDFF0BB0F0BD21462846099AFFF7DD
:101B7000ABFFF7E7FFB587B0079817468007800FE0
:101B80006A4610700A2050700020507106211171B1
:101B9000D0710421917105211172012151721E46EB
:101BA000D0720446134D1AE020460A2148434119D9
:101BB0004988B94211D3B1420FD80A214C43611967
:101BC00089786A469172285A1073000A507301A9E5
:101BD0000098FFF794FF0BB0F0BD641CE4B2FFF770
:101BE000C6FAA042E0D83A4608990798FFF76CFF7A
:101BF000F1E7000094320008F0B589B00E460746C0
:101C00001D461C2101A80E9CFFF797FCB807800F0A
:101C100069460870601D4870601C0871000A4871B0
:101C2000042088710020C871761C0E7201A904E09E
:101C30002A5C0B18401C5A71C0B2A042F8D300981D
:101C4000FFF75DFF09B0F0BDF0B589B08446002410
:101C500068460E9D0471447104268671C471112674
:101C600006722E1D46728172C472027344730A207A
:101C700001AF002105E05A5C3A54401C491CC0B237
:101C8000C9B2A942F7D3011F6A461171614689079B
:101C9000890F1170507039460098FFF730FF09B076
:101CA000F0BD0000FFB589B0099815218507129E87
:101CB0004902AD0F1F468E4221D16846FFF746FA12
:101CC000014668460571002343710078801CC2B24A
:101CD000122A00D91222941C6D462C72200A6872B6
:101CE0000426AE72EB72092028736A73AE73EB732D
:101CF00004A8921EFFF708FC241D6C713FE06148A8
:101D000086423ED10B9807283BD15F4800780028D7
:101D100037D06B461D7117211972002159720421A9
:101D200099720021D972092107201973587308206C
:101D300098730020D8730220187459740021997484
:101D40002921D9742A2119750A225A7500249C75F3
:101D5000D8750B251D7600255D7626259D760E22ED
:101D6000D9761A7700225A7798770F24DC7708AB58
:101D70001A702820587099701B206B46587102A960
:101D80006FE0FF2F00D9FF27002471E020460A21D1
:101D900048433E490A5AB24268D1411848880B9AD2
:101DA000904263D3B84261D8364A521E964223D13C
:101DB0000A226E463272002373720422B272F372E8
:101DC00009223273082272730A2254432F4AA2183E
:101DD0009278B273000AF073002002AA0B1814184C
:101DE000401C1B79C0B223720528F7D3487A70755E
:101DF00035710E20707133E009266F463E72002364
:101E00007B720422BA72FB723E7307227A730A2233
:101E100054431E4AA2189278BA73000AF8731846FF
:101E200002AA0B181418401C1B79C0B22372052893
:101E3000F7D33D710D207871497AFF2910D0144BEA
:101E400000200901C9180B5C1418401CC0B2E372D1
:101E50001028F8D31B20787117203872152078735A
:101E600011460198FFF74BFE0DB0F0BD641CE4B2C3
:101E7000FFF77DF9A04289D809AB07CBFFF724FE15
:101E8000F2E7000003280000380000209432000828
:101E9000EE320008000209024B22000A090AD200B1
:101EA00090420ADB7D22D200914206DBFA224243B5
:101EB000531A024AD361516210627047E400002055
:101EC00010B5FEF7E3FA00F09FFC10BD7FB52821A6
:101ED000484307490A9D099C6E464863B08888813B
:101EE000CA62CB710846328CC2810C630D727FBD11
:101EF000E4000020034902480860406800470000F1
:101F00005433000824010020014800787047000085
:101F10002801002070B508460E4B0D491960114686
:101F2000FFF780FD012000F01BF80B490122087823
:101F30001043FD22104008700848FFF715FC064DBD
:101F40000024083D2C7300F05FFC6C7070BD000035
:101F5000703300082401002048010020B80B000065
:101F6000014908707047000028010020FEB57E4C32
:101F7000A17803290BD0012974D0022901D10321B2
:101F8000A170608101F021F9A07800286AD1774F13
:101F900000203D466071764E70350AE06079022877
:101FA00007D16069002804D0A078002801D1FEF78D
:101FB00044FA3068007800280ED1A078002805D1B6
:101FC000FFF718FB002801D0FFF77AFFFFF786FB29
:101FD000002801D1FFF78EF9FEF713FA002870D020
:101FE0006148401D00F050FB607900F0D8F921698C
:101FF00060797854491C2161322901DB002121617B
:102000002269FF21B954C1070ED0694601A800F02A
:1020100015FA584800990160574A019810603268D3
:1020200092689047002015E0810715D5694601A800
:1020300000F004FA30680099826901989047FFF730
:1020400047FB252803D030680078012801D1FFF72D
:1020500051F90120E07077E0C10604D5306840698D
:10206000804771E07EE001062CD530684349007856
:10207000002813D0012000F0FDF9697828780902C2
:10208000401881B23068C2680120904760794106EB
:1020900010D5694601A800F0D1F928E0002000F031
:1020A000E9F9697828780902401881B23068C26875
:1020B000012026E0800647D5694601A800F0BEF958
:1020C00035E049E0410616D5694601A800F0B6F9A9
:1020D0003068007800280AD128780007000F05280A
:1020E00005D1214A2549921D002000F0D7F930681A
:1020F0006A78036924E0410705D530680021C26889
:102100000846904720E0010703D50020FFF728FF8D
:1021100018E0800616D5694601A800F08FF93068EE
:10212000017800290AD01549012000F0A3F9306890
:102130006A78036900210098984705E00369002246
:102140000E49F8E700F060FBA078002800D125E7F1
:102150006079802806D121E7A0780028F7D060793F
:102160000028F4D1FEBD00004C00002090010020AA
:102170002401002030010020340100200002002052
:1021800010B50C461F2900D91F24014622460548D8
:10219000FFF7BAF904480470C01DA41D447001F093
:1021A0002FF810BDC20100204C00002030B51829C6
:1021B00000D918210A4B4A1C1A70002204E0845CE2
:1021C0009D18521CAC70D2B28A42F8D3002003E0B2
:1021D0005A18491C9070C9B21929F9D330BD0000B2
:1021E0007900002070B50D46124A0146107800288B
:1021F00009D0401E1070002656705068092806D07D
:10220000401C506005E001205070002070BD304639
:1022100056600C22084B4243D41842018018074AEA
:1022200080182A462060FFF76FF925712046A660C6
:1022300070BD00009C0000207403002028020020D4
:1022400010B500F0C4FA0020FFF79AFA10BD0000A4
:1022500000A070474D475F424C455F4C49425F5676
:10226000312E300001480078704700009C000020AB
:1022700010B50446FEF7B7F801215020FEF7A8F884
:1022800001212046FEF7A4F8FEF7B4F810BDF8B51A
:1022900015460E460446FEF7A6F801212046FEF735
:1022A00097F80746002406E00021FF20FEF790F88B
:1022B0003055641CE4B2AC42F6D3FEF79BF83846C6
:1022C000F8BD70B50C460546FEF78DF8012128468D
:1022D000FEF77EF80021FF20FEF77AF82070FEF767
:1022E00089F870BDF8B516460D460446FEF77BF832
:1022F000202020430121FEF76BF8002407E0287816
:1023000001216D1CFEF764F8641C0746E4B2B44278
:10231000F5D3FEF76FF83846F8BD70B50D460446A4
:10232000FEF761F8202020430121FEF751F801213A
:102330002846FEF74DF8FEF75DF870BD01680029EC
:1023400002D14068002801D000207047012070476A
:1023500000210160416002490A20087070470000B6
:102360009C0000200268136812790A70016889686D
:102370000160002900D141601846704710B50B4636
:10238000044611461846FFF72DFF002806D0616865
:10239000002901D0886000E02060606010BD10B5A9
:1023A00001460E20FFF7B9FF10BD1CB55320FFF703
:1023B0005FFF03211F20FFF7B0FF01A91F20FFF7D8
:1023C00080FF684600790028F7D103211F20FFF71E
:1023D000A4FF01A91F20FFF774FF684600790028B9
:1023E000F7D101211520FFF798FFA0211220FFF758
:1023F00094FF04210A20FFF790FF00210A20FFF735
:102400008CFF88211220FFF788FF012469460C7099
:102410002120487002221320FFF764FF69460C70E8
:102420002020487002221320FFF75CFF00211520B6
:10243000FFF773FF5620FFF71BFF1CBD7CB50D4651
:102440000446062269461020FFF721FF69464879B5
:102450000B7902041802C9781018401869462060E8
:1024600088784978000409024018694609784018BC
:1024700028607CBD1CB50C4600280BD002226946A2
:102480000620FFF704FF6846007820706846407811
:1024900060701CBD022269460420F2E77CB5154637
:1024A0000C46002809D06278901C2870002A03D0BE
:1024B000A11C6120FFF7EBFE7CBD022269460420CF
:1024C000FFF7E5FE68464078801C28706846007873
:1024D000207068464078607068460078254601079D
:1024E000090F6846407808350B00FFF753F90605D9
:1024F000080513041904DFE70622A11C08E00C28D4
:10250000DAD10622A11C0A20FFF7C1FE06222946C5
:102510000B20CFE70C28CFD1062229460A20C9E795
:102520002228C9D10622A11C0B20FFF7B0FE0622EB
:1025300029460A20FFF7ABFE162221460E31B8E7E6
:102540007CB505460024684604714D48086051205A
:10255000FFF78EFE01A91F20FFF7B3FE6846017941
:102560008029F7D147491E20FFF7ABFE78210020D4
:10257000FFF7D3FE06210846FFF7CFFE7A210020A1
:10258000FFF7CBFE5120FFF773FE5320FFF770FEDD
:1025900002210120FFF7C1FE1E211D20FFF7BDFE15
:1025A000284600F0E0F800A908200131FFF789FE75
:1025B00068464078334D002807D128781B2801D27F
:1025C000152000E0112069464870C0206946087057
:1025D0002D20887003220420FFF784FE69460C70CA
:1025E0004C7002220C20FFF77DFE287880241928E9
:1025F00044D01C20694608704C7002221420FFF75A
:1026000071FE10206946087002254D702A460A2086
:10261000FFF768FE69460D701220487002220D20F7
:10262000FFF760FE0120694608700720487002220B
:102630000E20FFF757FE032269460B20FFF727FE07
:1026400040206946C87004220B20FFF74BFE694604
:102650000C7001220C20FFF745FE5120FFF708FE09
:10266000FFF7A3FEFF210E20FFF757FE06220449C5
:102670000820FFF70CFE00F0C7F87CBDCC20B9E7BE
:10268000940000209A00002038B5044669460E20C8
:10269000FFF717FE68460178217038BD1CB5017838
:1026A0006A4611704178517081789170C078D0700D
:1026B000042269460C20FFF715FE1CBD01B582B04F
:1026C0006946087A0870487A487002220320FFF7AA
:1026D00009FE0EBD0A4610B50146A020FFF702FE16
:1026E00010BD10B5282803D201460120FFF715FEC2
:1026F00010BD1CB501786A46117041785170807820
:102700009070032269460D20FFF7ECFD1CBD1CB53F
:10271000FF216A4611705070022269460E20FFF7B1
:10272000E1FD1CBD08B501280AD002280AD0032803
:102730000AD004280AD005280AD006280AD00CE0BE
:10274000092008E00C2006E0012004E0022002E05D
:10275000032000E0042069460870684601780220E2
:10276000FFF7DBFD08BD08B502216A461170507005
:102770000A4669460F20FFF7B5FD08BD1CB56A463D
:102780001070010A5170000C9070032269460720F6
:10279000FFF7A8FD1CBD00001CB56A461070010AB9
:1027A0005170002191700549884201D90120907033
:1027B000032269461120FFF795FD1CBDFFFF0000B5
:1027C0000A4610B50146A020FFF78CFD10BD01B5EB
:1027D00082B06946087A0222C006C00E0870487AA4
:1027E00048700520FFF77EFD0EBD1CB500216A462E
:1027F00011705070010A9170000CD070042269466B
:102800000F20FFF76FFD1CBD1CB502206946087044
:10281000FF2048708870C87004220F20FFF762FD07
:102820001CBD10B55120FFF723FD5320FFF720FDFD
:1028300018211D20FFF771FD5120FFF719FD7821A8
:102840000020FFF76AFD5620FFF712FD10BD10B5FE
:1028500001210F20FFF761FD10BD000038B50546CE
:1028600000230C4610460093FFF768FD002802D0B5
:102870002B70237038BD69461046FFF773FD014683
:10288000684602782846FEF73FFE684600782070CA
:1028900002480178491C017038BD00009C000020EE
:1028A00010B5054803498160002141701430FFF7DD
:1028B0004FFD10BD50330008A400002070470000F9
:1028C00000B587B0182207A16846FEF71DFE0B4829
:1028D000032101701821417000686946FEF7DEFE91
:1028E00007B000BD101000280001002C01182000C6
:1028F0000300FFFFFFFFFFFFFFFFFFFF840100203A
:102900001CB500228C070C490092A40F01920C7098
:1029100006244C7002236C46237062700279A27008
:102920004079E0700D2020711A20607108686946B6
:10293000FEF7B4FE1CBD0000840100200EB507A008
:1029400007C86B4607C3084803210170092141707D
:1029500000686946FEF7A2FE0EBD000009020000F5
:102960000000000000000000840100201CB50022CF
:102970008C070C490092A40F01920C7006244C7035
:1029800002236C46237062700279A2704079E07075
:10299000052020713720607108686946FEF77EFEC9
:1029A0001CBD00008401002010B589070548890F6F
:1029B0000170002141700068FFF742FC0020FFF722
:1029C000CFFA10BD8401002008B507A10968009165
:1029D000064903220A7002224A706A46507008684B
:1029E0006946FEF75BFE08BD070000008401002079
:1029F0001CB507A005C8009089070748890F0192F8
:102A000001700621417000686946FEF747FE1CBD53
:102A10000C0759004F20000084010020FEB5164C21
:102A200001A92246083A2046FFF718FF68460079B8
:102A300001262546002804D12E70687002206946C0
:102A4000087121780C4F132001401C3F7878042333
:102A5000C24352081A4040071143C00FC00001434F
:102A60006A46117060785070A11C009800F0B9FBA4
:102A70002E7000207870FEBDC0000020FEB50D460F
:102A8000002102911D2D00D91D2501462A468948A5
:102A9000FEF73AFD8848874C057020788649820702
:102AA000920F8870012A19D0032A1CD0022A19D14A
:102AB000637922791B02A579D218062A50D00A46DA
:102AC0000C32102D7FD052DCAE1E3300FEF762FEBA
:102AD0000993599859D5596259A95900022D01D322
:102AE000FEF7D3FBFEBDA1780B00FEF753FE120BE1
:102AF0000F1E233535350A283535352D0A35320A6E
:102B00000A35EFE7E01C00F0D9F8FEBD0146694840
:102B1000FFF7D4FE617A207A0902401869460881DD
:102B200002A9E01C00F000F9FEBD01466148FFF774
:102B30003BFFFEBD01465F48FFF7E2FEFEBD0146DA
:102B40005C48FFF7FBFEFEBD01465A48FFF750FF09
:102B5000FEBDFFF7B5FEFEBD0846FFF735FFFEBD23
:102B6000012DFCD101465348FFF700FFFEBD514B3C
:102B70000933122D61D0162D72D0182D79D0522D17
:102B80005BD0227AE179120289188AB22946FEF7CF
:102B90009BFFFEBD237AE1791B02C9188EB2168015
:102BA000A37A617A1B02C9188BB25380E17A247B25
:102BB0002402091989B29180009132462946FFF713
:102BC00071F8FEBDFFE7237AE1791B02C9188EB2C6
:102BD0001680A37A617A1B02C9188BB25380E17AFE
:102BE000247B2402091989B291800091324629463A
:102BF000FEF7BFFAE5E700222946FEF751FFE0E7BE
:102C0000237AE1791B02C91889B21180637AA47A08
:102C100024021B199BB253800A462946FEF7AAFFDD
:102C2000CFE7237AE2791B02D21893B28B80024657
:102C300019462846FEF7DFFAC3E7E278A6781202C3
:102C4000D21EB218D6B2E279247A2402121992B2B4
:102C50008A8029460096FEF7C1FAB2E700E008E054
:102C6000227AE079120280188880124800F075FA02
:102C7000A7E7104800F034FAA3E7237AE1791B02B2
:102C8000C91889B21180A67A637A36029B199BB261
:102C90005380267BE27A36029219667BA47B92B23D
:102CA000240234190092A4B20A4601942946FEF780
:102CB0002AFF86E7EC030020A400002010B5194984
:102CC0000122096A4A7002780A70837842781B02EE
:102CD000D2184A800379C2781B02D21892B28A8035
:102CE0008479437924021B19CB80047AC3792402A6
:102CF0001B199BB20B81447A807A00022018401C79
:102D00004881C82B01D8C8200881900010180B8971
:102D10008008984204D9052080034243100C0881A2
:102D200010BD00004001002010B5064C0346E069CC
:102D30000988C18005221946FEF7E6FBE1690120FA
:102D4000487110BD4001002010B5FEF7E1FC0028DD
:102D500003D106484078282806D90020FFF700F95B
:102D6000FFF752FD012010BD002010BD40010020E2
:102D700010B5FEF7F9FC10BDF8B50C460746002665
:102D800014E0142C01D9142500E02546FFF76AFA57
:102D900003280FD3084800950288BB191B21022085
:102DA00000F0AFF97019C6B2601BC4B2002C01D09C
:102DB000002FE6D13046F8BD20000020F0B50C4BC6
:102DC00000201C46D87130340A4AD8720125C10847
:102DD0004607615C760F2F46B740394203D0D97A57
:102DE0005054491CD972401CC0B22528EFD3F0BD05
:102DF000400100201604002010B5C00706D1044889
:102E0000FD22017811400170FFF7FEFC10BD0000AB
:102E100048010020F8B5064615460C462948FEF73D
:102E2000A3FC29480222017811430170FDF735FB0C
:102E3000254F0020083FB870002C2CD00120C00284
:102E400061783018B862FFF799FCE8010121301A67
:102E50008902401A78622078FEF76CFC21780822FB
:102E6000387B114081422AD101213970504038739A
:102E70001648006800688047FDF715FB0020787051
:102E80005320FFF7F5F9F91C0420FFF71AFA562032
:102E9000FFF7EEF9F8BD4120400105213018C901C6
:102EA0004018B862FFF76AFC1B2D00D91B25E8010A
:102EB0000521301A0902401A78620120B870FDF726
:102EC000F2FAF8BDB80B000048010020AC00002069
:102ED000F8B50F460546FFF717F800283DD06548BE
:102EE0000068391A6448814204D964480068281A85
:102EF000FEF7D0FF6248624C00780026C107083C0C
:102F0000002933D0E089502148432C30FEF7BAFB2A
:102F100045192846FFF769FCFFF750FFE069467145
:102F2000206A46702046A6821630FFF7E2FB204654
:102F30002C30FFF7B3FBFFF7B3FCE671607A022891
:102F400001D2022060724F49C0B248434018FFF7D7
:102F500023FC0120FEF7E2F93EE00020FEF7F0FB43
:102F60000020FEF7DBF900F030F9F8BD800712D53C
:102F7000606A0121381A090640180002000AFEF7AB
:102F800077FB2D1A208A502148437438FEF77AFBCC
:102F900045193D481BE0208A082801D201212171F2
:102FA00036490D685021484361788900401A10382D
:102FB000FEF768FB4519208A452801D9334806E009
:102FC000304948430321FEF775FA2E494018FFF7B0
:102FD000E3FB2846FFF709FCA08A401CA082284694
:102FE000FEF720FBE079A17A4018C0B22521FEF758
:102FF00061FA234BE171CA0828339A5C4B070846F3
:103000005B0F012199400A4204D1E17AFEF752FA9E
:103010001F48405CA071C0B2FFF763FB2078002816
:1030200011D01B4901202531FFF724FA18496A46BF
:1030300025310120FFF732FA68460178144825301F
:10304000FFF71CFD26700E490878C20704D040081F
:103050004000087000200AE02079002804D00020F9
:10306000FEF76EFB2671F8BD208A81080818FEF76E
:1030700067FBF8BD3001002080A903003401002067
:1030800048010020E2040000A60E00003075000098
:103090001604002010B506488078002804D00021CE
:1030A0000846FFF7A9FE10BDFFF7AEFB10BD0000FC
:1030B0004001002010B50C46FFF746FE00280BD15A
:1030C0000420FFF72FFBBB2040012018FFF756FB21
:1030D00002484178491C417010BD000040010020A9
:1030E00008B502216A4611700521517001218170D5
:1030F00019218171811C0098FEF701FDFEF77AF815
:1031000008BDFFB58BB0149C1D461746E61C242154
:1031100001A8FEF712FA0B981321084069460870BF
:10312000E01D48700E71300A48710420887100203B
:10313000C8710C9808724F72380A8872002001A971
:1031400004E02A5C0B18401CDA71C0B2A042F8D32C
:103150000098FEF7D4FC0FB0F0BDF8B50446827AB3
:10316000C178007AE57900020543A0780902084396
:10317000401F87B2667A1002064302206946087033
:10318000607848701720A071A11C0098FEF7B7FC6A
:10319000214633463A460B312846FEF72AF8F8BD59
:1031A0000EB58007800F6A4610720520507200200D
:1031B000507001211170D070042090701320107194
:1031C00069460298FEF79BFC0EBD10B500F018F89A
:1031D0000020FFF79CFA0020FFF7CAFDFEF78AFEE9
:1031E00010BD73B50D460098FFF7F1FA68464478B4
:1031F00028462146FFF7E4FA2046FEF7C1FA7CBDD7
:1032000030B585B003A8FDF7A1FF6946097B1829F1
:1032100002D918216A46117369460A7B1B4B511C5F
:103220001970002104E0445C5D18491CAC70C9B2FF
:103230009142F8D3002003E09918521C8870D2B252
:10324000192AF9D3114A1123113AD1180C462D3CF1
:1032500025781B20002D01D00D4A2B466578002DC6
:1032600002D00B4928461F3101910290A0896D467A
:10327000288006482D38C1792974007A68746089DD
:103280000499FEF723FE05B030BD00007900002050
:10329000C201002003280300020400002AFF0328C3
:1032A0000800020900292AFF03280A00020B002651
:1032B0002AFF03280E00020F00282AFF032811000E
:1032C000101200372AFF022913000A000000000034
:1032D00003281400021500382AFF032817001218CB
:1032E00000192AFF022919000A000000000000004E
:1032F00000000000000000000000000000000D18A9
:1033000000000000000000000000000000000000BD
:1033100000000000000000000000000000000F1886
:10332000000000000000000000000000000000009D
:10333000000000000000000000000000000002018A
:10334000060319410307030D180A180F180000009F
:103350001D2A000800000000391900088119000822
:10336000CD170008FD170008611900089118000822
:103370000100000000000000B5300008F92D000831
:10338000152E000895300008D12E0008AC33000837
:1033900000000020900100009C1500082434000863
:1033A00090010020D8060000BE17000881450204E5
:1033B00006082D01020304043606070809642A12D0
:1033C0001471774D472D4852531564010179280D2A
:1033D000465620202E322E312E326D6D2E61121760
:1033E00012A0E304211012020106030390FE09FF5C
:1033F0001102110293F540E102210902230A02237E
:10340000FF2A25C139C50211142340581A04FA04B1
:1034100051A87B0713380114200A040224201A5CE7
:04342000281A7C30BA
:04000005080000B13E
:00000001FF
